:100000000C9469190C94871C0C94B21C0C94DD1C84
:100010000C94081D0C94331D0C945E1D0C94891DCA
:100020000C94B41D0C9499190C9499190C94991969
:100030000C9499190C9499190C9499190C94991978
:100040000C9499190D9420060C9499190C949919F3
:100050000C9499190C9499190C9403DD0C949B1928
:100060000C9499190D94B10F0D946F100C9499196B
:100070000C9499190C9499190C9499190C94991938
:100080000C9499190C9499190C9499190C94991928
:100090000C9499190C9499190C9499190C94991918
:1000A0000C9499190C9499190C9499190C94991908
:1000B0000C9499190C9499190C9499190C949919F8
:1000C0000C9499190C9499190C9499190C949919E8
:1000D0000C9499190C9499190C9499190C949919D8
:1000E0000C949919084AD73B3BCE016E84BCBFFDE6
:1000F000C12F3D6C74319ABD56833DDA3D00C77FF8
:1001000011BED9E4BB4C3E916BAAAABE0000008090
:100110003F05A84CCDB2D44EB93836A9020C50B91F
:10012000918688083CA6AAAA2ABE000000803F004B
:100130000D9454100D943C100D942A100D944810F9
:100140000D9435100D94EC0F0D9444100D941B106C
:100150000D944C100D944D130D9440104E414E498A
:100160004E495459494E46CDCCCC3D0AD7233C1775
:10017000B7D13877CC2B329595E6241FB14F0A00C2
:100180000020410000C84200401C4620BCBE4CCAB2
:100190001B0E5AAEC59D7400407A10F35A00A0722F
:1001A0004E18090010A5D4E80000E87648170000B2
:1001B000E40B54020000CA9A3B000000E1F5050080
:1001C0000080969800000040420F000000A08601C9
:1001D000000000102700000000E803000000006499
:1001E00000000000000A0000000000010000000004
:1001F000002C76D888DC674F0823DFC1DFAE59E1D9
:10020000B1B796E5E3E453C63AE651997696E8E647
:10021000C28426EB898C9B62ED407C6FFCEFBC9C1A
:100220009F40F2BAA56FA5F490055A2AF75C936B2C
:100230006CF9676DC11BFCE0E40D47FEF520E6B5E7
:1002400000D0ED902E0300943577050080841E08C1
:100250000000204E0A000000C80C333333330F98DF
:100260006E12831141EF8D2114893BE65516CFFEA6
:10027000E6DB18D1844B381BF77C1D901DA4BBE432
:1002800024203284725E228100C9F124ECA1E53D74
:100290002700000A0B02090C0D0E080703040100D9
:1002A000000000000000000000000000000000004E
:1002B000000000000000000000000000001211100B
:1002C000000000000000000000000000000000002E
:1002D000000000000000000102102020080810208B
:1002E00040102040800201020108040201010204C2
:1002F0000810204080804020100804020180040281
:1003000001804020100804020108040201010204D7
:1003100008102040800102040810204080050505D7
:1003200005070508080808020202020A0A0808046C
:10033000040404010101010101010103030303039A
:10034000030303040707070C0C0C0C0C0C0C0C0229
:1003500002020206060606060606060B0B0B0B0B30
:100360000B0B0B000020002300260029002C002F7F
:100370000032000001000003010601090100002213
:1003800000250028002B002E00310034000201005F
:1003900000050108010B0100002100240027002AAC
:1003A000002D003000330001010000040107010AA4
:1003B000010A4D6561737572656420706F696E74B2
:1003C000733A0A00327832206D6573682E205A2005
:1003D0006F66667365743A200053656E64204D3114
:1003E000303820746F2068656174206E6F7A7A6C83
:1003F000650A0053656E64204D31303820746F20DB
:10040000726573756D650A00496E73657274206656
:10041000696C616D656E7420616E642073656E64D5
:10042000204D3130380A00486F74656E6420746F57
:100430006F20636F6C640A00496E73657274206686
:10044000696C616D656E7420616E642073656E64A5
:10045000204D3130380A00486F74656E6420746F27
:100460006F20636F6C640A004D3630303A20546F51
:100470006F20436F6C64002020506C616E6E65725B
:1004800042756666657242797465733A200020464B
:10049000726565204D656D6F72793A2000436F6D0E
:1004A00070696C65643A204A756C203135203230B1
:1004B00032300A00204C6173742055706461746599
:1004C000643A20323032302D30372D3135207C20C7
:1004D000417574686F723A20286E6F6E652C2064C7
:1004E000656661756C7420636F6E666967290A00C2
:1004F0006275676669782D322E302E780A00205397
:100500006F6674776172652052657365740A0020A6
:100510005761746368646F672052657365740A007D
:100520002042726F776E206F757420526573657408
:100530000A002045787465726E616C20526573659F
:10054000740A00506F77657255700A007374617297
:10055000740A005072696E7465722068616C74650B
:10056000642E206B696C6C28292063616C6C656457
:10057000210A002121204B494C4C20636175736591
:1005800064206279204B494C4C20627574746F6E04
:100590002F70696E0A002121204B494C4C20636169
:1005A0007573656420627920746F6F206D75636860
:1005B00020696E6163746976652074696D65202DAC
:1005C0002063757272656E7420636F6D6D616E6409
:1005D0003A20004D31303031004732385859005000
:1005E000726F7465637465642050696E0A003637F3
:1005F00026033C3D380E2E303E121A1C180AFF43CB
:1006000008090844000120453A00205A3A002059C0
:100610003A00204500205A0020590020580020426E
:1006200000583A002054004D3234004D323320251A
:1006300073004D323100473238004D313132205392
:10064000687574646F776E00004B494C4C45442EBE
:1006500020004D61726C696E006F6B005049442040
:100660004175746F74756E65206661696C6564218F
:1006700020426164206578747275646572206E75BD
:100680006D6265720A00504944204175746F74753B
:100690006E650042656420436F6F6C696E672E2E35
:1006A0002E004265642048656174696E672E2E2EA7
:1006B000004348414D4245525F54454D50455241DB
:1006C0005455524500424142595354455050494EA9
:1006D000470041524353004D4F54494F4E5F4D4FD9
:1006E00044455300544845524D414C5F50524F547D
:1006F000454354494F4E004C4F4E475F46494C4589
:100700004E414D45004155544F5245504F52545F54
:1007100053445F535441545553005344434152444E
:100720000050524F4D50545F535550504F5254004B
:10073000454D455247454E43595F504152534552EE
:1007400000434153455F4C494748545F4252494733
:1007500048544E45535300544F47474C455F4C490E
:100760004748545300534F4654574152455F504FEA
:10077000574552004255494C445F50455243454EFF
:1007800054004C4556454C494E475F444154410046
:100790005A5F50524F42450052554E4F55540041FA
:1007A00055544F4C4556454C005052494E545F4AA3
:1007B0004F420050524F4752455353004155544FFA
:1007C0005245504F52545F54454D5000564F4C5572
:1007D0004D455452494300454550524F4D00424902
:1007E0004E4152595F46494C455F5452414E534623
:1007F00045520053455249414C5F584F4E5F584F48
:100800004646004649524D574152455F4E414D457F
:100810003A4D61726C696E206275676669782D3237
:100820002E302E7820284A756C2031352032303217
:10083000302032323A30373A34362920534F55522D
:1008400043455F434F44455F55524C3A687474705A
:10085000733A2F2F6769746875622E636F6D2F4D21
:1008600061726C696E4669726D776172652F4D6158
:10087000726C696E2050524F544F434F4C5F564537
:100880005253494F4E3A312E30204D414348494E44
:10089000455F545950453A3344205072696E74652F
:1008A000722045585452554445525F434F554E545B
:1008B0003A3120555549443A636564653261326680
:1008C0002D343161322D343734382D396231322DA7
:1008D0006335356336326633363766660A00436100
:1008E000703A002F2F20004D3131332053005072C9
:1008F000696E742074696D653A200025697300255E
:10090000696D20256973002569682025696D20259A
:10091000697300256964202569682025696D202593
:100920006973002569792025696420256968202577
:10093000696D20256973004D65736820706F696E5D
:1009400074206F7574206F662072616E67650A008F
:100950004D34323120696E636F727265637420703A
:100960006172616D657465722075736167650A00F7
:10097000206F6620004D424C2047323920706F694D
:100980006E742000290A004A206F7574206F66205B
:1009900072616E67652028302D00290A0049206F9A
:1009A0007574206F662072616E67652028302D0097
:1009B0004D6573682070726F62696E6720646F6E38
:1009C000652E0A005374617274206D65736820701F
:1009D000726F62696E6720776974682022473239C6
:1009E000205331222066697273742E0A0047323810
:1009F0000A47323920533200686173206E6F2064D9
:100A00006174612E0A004D65736820426564204C54
:100A10006576656C696E67200053206F7574206F72
:100A2000662072616E67652028302D35292E0A00F8
:100A3000206E6F7420656E74657265642E0A004DB9
:100A400065736820706F696E74206F7574206F66AF
:100A50002072616E67650A004F46460A004661646F
:100A600065204865696768742000426564204C65AC
:100A700076656C696E6720004661696C65642074F8
:100A80006F20656E61626C6520426564204C6576FE
:100A9000656C696E670A004D657368204265642065
:100AA0004C6576656C20646174613A0A00496E7623
:100AB000616C6964206D6573682E0A00205A3A20C3
:100AC0000020593A200042656420583A2000290A43
:100AD0000020746F20003F5A206F7574206F6620CD
:100AE00072616E6765202800290A0020746F20005B
:100AF0003F59206F7574206F662072616E676520A4
:100B0000282D00290A0020746F20003F58206F759F
:100B100074206F662072616E676520282D00507208
:100B20006F6265204F6666736574205800446F6E6F
:100B30006520736176696E672066696C652E0A00B0
:100B400053442072656164206572726F720A0050AE
:100B500072696E7465722073746F7070656420645E
:100B6000756520746F206572726F72732E204669EE
:100B70007820746865206572726F7220616E6420DF
:100B8000757365204D39393920746F20726573741F
:100B90006172742E202854656D706572617475726F
:100BA000652069732072657365742E205365742007
:100BB0006974206166746572207265737461727401
:100BC000696E67290A004E6F20436865636B737511
:100BD0006D2077697468206C696E65206E756D6232
:100BE00065722C204C617374204C696E653A20004C
:100BF0004E6F20436865636B73756D207769746809
:100C0000206C696E65206E756D6265722C204C617A
:100C10007374204C696E653A2000636865636B737A
:100C2000756D206D69736D617463682C204C617300
:100C300074204C696E653A20004C696E65204E75D3
:100C40006D626572206973206E6F74204C617374DD
:100C5000204C696E65204E756D6265722B312C20BB
:100C60004C617374204C696E653A20004D3131300F
:100C7000004D323900526573656E643A20006F6B27
:100C800000220A00656E7175657565696E672022C0
:100C90000053544F505045442E2000454550524F6C
:100CA0004D204F4B0A0020643A0020693A00207022
:100CB0003A00204D393220580020466C6F773A2098
:100CC00000496E76616C696420657874727564653C
:100CD000720A0020643A0020693A0020703A00430A
:100CE000290A0061626C656420286D696E20746554
:100CF0006D70200064697300656E00436F6C642042
:100D0000657874727564657320617265200057415F
:100D1000524E494E4721204C6F77205A204A657227
:100D20006B206D6179206C65616420746F20756E35
:100D300077616E746564207061757365732E0A0047
:100D4000205200416363656C65726174696F6E3A2D
:100D500020500046523A004572723A20546F6F207C
:100D60006661722100546F6F206661722066726F37
:100D70006D207265666572656E636520706F696E61
:100D8000740A00FFFFFF00000000000000000000E8
:100D900000004F666673657473204170706C6965FE
:100DA00064004E6F204D6F76652E0020204D6178D7
:100DB0003A2000200020204D696E3A2000536F66D3
:100DC0007420656E6473746F70733A20006F66668A
:100DD0000044454255473A00030EFE0DF70DF00D55
:100DE000E20D434F4D4D554E49434154494F4E003E
:100DF00044525952554E004552524F525300494E9B
:100E0000464F004543484F00496E76616C69642047
:100E100050696E204D6F64650A003344205072693A
:100E20006E746572204F46462E004D383400446F74
:100E30006E65207072696E74696E672066696C6594
:100E40000A004D3737004D333100456E6420666926
:100E50006C65206C6973740A00426567696E206670
:100E6000696C65206C6973740A0043757272656EF3
:100E7000742066696C653A2000220A00556E6B6E1C
:100E80006F776E20636F6D6D616E643A2022004D46
:100E900031343520533C696E6465783E206F75743B
:100EA000206F662072616E67652028302D31290A17
:100EB00000436C69636B20746F20526573756D65B8
:100EC0002E2E2E0047322F4733206261642070613E
:100ED00072616D65746572730A00536C6565702E7E
:100EE0002E2E00627573793A2070617573656420E7
:100EF000666F7220696E7075740A00627573793A54
:100F00002070617573656420666F722075736572F9
:100F10000A00627573793A2070726F636573736942
:100F20006E670A0020496E76616C6964206578748A
:100F3000727564657220004F4646004F4E0065632F
:100F4000686F3A004572726F723A007C3C3E5E2BCD
:100F50003D3F2F5B5D3B2C2A225C0043616E6E6F30
:100F60007420656E746572207375626469723A20CC
:100F7000002E0A006F70656E206661696C65642CD6
:100F80002046696C653A20006175746F25632E6791
:100F9000006572726F722077726974696E6720746F
:100FA0006F2066696C650A004E6F74205344207090
:100FB00072696E74696E670A005344207072696EBC
:100FC00074696E67206279746520002E0A0044659A
:100FD0006C6574696F6E206661696C65642C20466F
:100FE000696C653A200046696C652064656C6574BF
:100FF00065643A0057726974696E6720746F206681
:10100000696C653A200046696C652073656C6563A0
:101010007465640A002053697A653A200046696C59
:1010200065206F70656E65643A2000454E4420531C
:101030005542524F5554494E450A002220706F7355
:10104000002220706172656E743A2200535542523C
:101050004F5554494E452043414C4C2074617267B2
:1010600065743A22004578636565646564206D6146
:101070007820535542524F5554494E45206465706F
:1010800074683A310A002066696C653A200066721D
:1010900065736800646F696E67004E6F7720002E7D
:1010A0000A006F70656E206661696C65642C20466D
:1010B000696C653A200053442063617264206F6B51
:1010C0000A006F70656E526F6F74206661696C659F
:1010D000640A00766F6C756D652E696E69742066A2
:1010E00061696C65640A004E6F205344206361722D
:1010F000640A00286E6F2066696C65290043616E82
:101100006E6F74206F70656E2073756264697220F3
:101110000053756263616C6C204F766572666C6F0C
:1011200077003F004D32350025533A2025530037D4
:1011300011331141425300504C41005072696E749A
:101140002041626F72746564005072696E74696EDA
:10115000672E2E2E005072696E7420506175736573
:10116000640050617573696E672E2E2E0049676E9C
:101170006F726500526573657400454550524F4D5E
:101180002056657273696F6E204572726F720045EA
:101190004550524F4D20496E646578204572726FFC
:1011A0007200454550524F4D2043524320457272C4
:1011B0006F7200496E697469616C697A6520454592
:1011C00050524F4D004D656469612052656D6F76D8
:1011D0006564004D6564696120496E73657274656C
:1011E00064003344205072696E74657220526561E8
:1011F00064792E0054656D70657261747572650056
:1012000046616E20537065656400426564004E6FF0
:101210007A7A6C6500436F6F6C646F776E00507202
:1012200065686561742024204265640050726568B9
:10123000656174202420456E6400507265686561A4
:10124000742024004D61696E004D383400473238F7
:101250005A00473238590047323858004D6F746988
:101260006F6E004F6666004F6E004D6F76652031E1
:10127000306D6D004D6F766520316D6D004D6F7670
:101280006520302E316D6D004D6F76652025736DB4
:101290006D00486F74656E6420746F6F20636F6CAF
:1012A00064004578747275646572004D6F766520D0
:1012B0005A004D6F76652059004D6F7665205800B5
:1012C000426564204C6576656C696E67004D6F768B
:1012D00065204178697300486F6D65205A00486F3A
:1012E0006D65205900486F6D652058004175746F19
:1012F00020486F6D650044697361626C65205374AA
:10130000657070657273004D61696E00536F66742D
:1013100020456E6473746F707300052E2E003F00BD
:101320005072696E742066726F6D204D65646961DC
:101330000043616E63656C005072696E7400537493
:10134000617274205072696E74004D61696E00475D
:101350003239205331004732392053320025692079
:101360002F202575004732392053320050726F62AA
:1013700065205A204F6666736574004C6F61642067
:1013800053657474696E67730053746F726520538C
:10139000657474696E6773004D6F74696F6E004F8A
:1013A0006666004F6E00426564205A004D6F766598
:1013B000205A005A2056616C756500496E64657844
:1013C000205900496E64657820580045646974208E
:1013D0004D657368004C6576656C2042656400421B
:1013E0006564204C6576656C696E6700466164656E
:1013F00020486569676874004C6576656C696E673E
:1014000020446F6E6521004E65787420506F696EC0
:101410007400436C69636B20746F20426567696E6A
:101420000050726F6265205A204F666673657400C3
:10143000526573746F72652044656661756C747370
:10144000004C6F61642053657474696E6773005358
:10145000746F72652053657474696E6773004661BA
:101460006E20537065656400426564004E6F7A7A41
:101470006C650050726568656174202420436F6E4E
:101480006600436F6E66696775726174696F6E009E
:10149000416476616E6365642053657474696E6738
:1014A00073004D61696E00466C6F770046616E2077
:1014B000537065656400426564004E6F7A7A6C65AE
:1014C00000426564205A005370656564004D61698F
:1014D0006E004D36303020423020542564004D37A8
:1014E0003032203B2564004D3730322054256400D3
:1014F0004D37303120542564005761697420666F80
:1015000072207072696E7400746F20726573756DED
:10151000652E2E2E00005761697420666F7200667A
:10152000696C616D656E7420707572676500005737
:1015300061697420666F720066696C616D656E74B6
:10154000206C6F616400005761697420666F7200DF
:1015500066696C616D656E7420756E6C6F61640098
:10156000004E6F7A7A6C652068656174696E6700F9
:10157000506C6561736520776169742E2E2E0000B2
:10158000507265737320627574746F6E00746F208F
:1015900068656174206E6F7A7A6C650000496E73BD
:1015A0006572742066696C616D656E7400616E644D
:1015B00020707265737320627574746F6E00746F3F
:1015C00020636F6E74696E7565005761697420667B
:1015D0006F720066696C616D656E74206368616E20
:1015E000676500746F207374617274005061726B70
:1015F000696E672E2E2E00000050726573732042B4
:101600007574746F6E00746F20726573756D6520EC
:101610007072696E74000020204E6F7A7A6C653AA1
:101620002000436F6E74696E756500507572676552
:10163000206D6F726500524553554D45204F5054F3
:10164000494F4E533A00554E4C4F41442046494C69
:10165000414D454E54004C4F41442046494C414D6C
:10166000454E54005052494E542050415553454424
:101670000046494C414D454E54204348414E474554
:1016800000556E6C6F61642046696C616D656E74A7
:10169000004C6F61642046696C616D656E74004337
:1016A00068616E67652046696C616D656E74005097
:1016B00072656865617420437573746F6D00507254
:1016C00065686561742024004261636B004D6F762C
:1016D000696E672E2E2E00486F6D696E672058590F
:1016E0005A004D363030204230003F004368616E72
:1016F0006765204D65646961004368616E676520B8
:1017000046696C616D656E74004E6F204D6564694D
:1017100061005072696E742066726F6D204D656451
:1017200069610053746F70205072696E7400526565
:1017300073756D65205072696E74005061757365C4
:10174000205072696E740053746F700054756E652A
:1017500000496E666F2053637265656E004D6F744D
:10176000696F6E0054656D706572617475726500A5
:10177000436F6E66696775726174696F6E0042616E
:10178000636B003F004D343238004D333033205509
:101790003120452569205325690050726F6265200C
:1017A0005A204F66667365740050726F62652059E7
:1017B000204F66667365740050726F626520582012
:1017C0004F66667365740050726F6265204F66667F
:1017D000736574730043616E63656C00496E697470
:1017E00000496E697469616C697A6520454550529B
:1017F0004F4D004C6F6164206D6D00556E6C6F61D4
:1018000064206D6D0046696C2E204469612E004590
:1018100020696E206D6DC2B30046696C616D656EA6
:10182000740054656D706572617475726500452051
:1018300073746570732F6D6D005A205374657073E7
:101840002F6D6D00592053746570732F6D6D0058A6
:101850002053746570732F6D6D0053746570732F12
:101860006D6D00412D54726176656C00412D52659D
:10187000747261637400416D6178204500416D614F
:1018800078205A00416D6178205900416D617820BF
:101890005800416363656C65726174696F6E0056D0
:1018A00054726176204D696E00566D696E00566DFA
:1018B0006178204500566D6178205A00566D617838
:1018C000205900566D617820580056656C6F636929
:1018D00074790056652D4A65726B00565A2D4A651B
:1018E000726B0056592D4A65726B0056582D4A6529
:1018F000726B004A65726B00416363656C0050490E
:1019000044204175746F74756E65202A004F6666B9
:10191000004F6E004175746F74656D700020022079
:1019200046616374002002204D6178002002204D42
:10193000696E0053657420486F6D65204F6666734D
:1019400065747300436F6E66696775726174696F61
:101950006E00416476616E636564205365747469DA
:101960006E677300A10000006900A2000000630020
:10197000B00000000900C10000004100C2000000EA
:101980004100C30000004100C40000004100C50048
:1019900000004100C60000004145C70000004300B0
:1019A000C80000004500C90000004500CD0000004F
:1019B0004900D10000004E00D50000004F00D600C5
:1019C00000004F00D70000007800DC000000550048
:1019D000DD0000005900E00000006100E1000000AF
:1019E0006100E20000006100E30000006100E4002B
:1019F00000006100E50000006100E6000000616594
:101A0000E70000006300E80000006500E900000056
:101A10006500EA0000006500EB0000006500EC00D6
:101A200000006900ED0000006900EE0000006900A0
:101A3000EF0000006900F10000006E00F2000000FD
:101A40006F00F30000006F00F40000006F00F5006D
:101A500000006F00F60000006F00F80000006F004B
:101A6000F90000007500FA0000007500FB0000009E
:101A70007500FC0000007500FD0000007900FF000B
:101A80000000790004010000410005010000610030
:101A90000601000043000701000063000C01000084
:101AA00043000D01000063000E01000044000F011F
:101AB00000006400110100006400190100006500CD
:101AC0001A01000045001B01000065001F01000015
:101AD0006700300100004900310100006900410148
:101AE00000004C00420100006C00430100004E0069
:101AF000440100006E00480100006E005801000023
:101B000052005901000072005A01000053005B01AD
:101B1000000073005F0100007300600100005300CB
:101B20006101000073006501000074006F01000096
:101B300075007C0100007A007D0100005A007E01E2
:101B400000007A00920100006600E30200007800C5
:101B5000222000002E001E210000507822210000CB
:101B6000544D902100003C2D922100002D3EB021CB
:101B700000000300BB21000004003C2200007E00A6
:101B8000482200007E3D60220000213D61220000CD
:101B90003D00642200003C3D652200003E3DF123F3
:101BA00000000700A03000003D0021F3010002000A
:101BB000C2F401000500A2000000EC00B00000002B
:101BC000DF00E4000000E100F6000000EF00F70095
:101BD0000000FD00FC000000F500E3020000EB0047
:101BE00087030000A5008F030000F40098030000A5
:101BF000F2009E030000E300A3030000F600A90327
:101C00000000F400AC030000E000AD030000E300BE
:101C1000B1030000E000B2030000E200B5030000E1
:101C2000E300B8030000F200BC030000E400BE03C0
:101C30000000E300C0030000F700C1030000E6005D
:101C4000C3030000E500902100007F009221000006
:101C50007E001A220000E8001E220000F300882502
:101C60000000FF0002300000A1000C300000A200C4
:101C70000D300000A3009B300000DE009C3000000F
:101C8000DF00A03000003D00A1300000A700A2301E
:101C90000000B100A3300000A800A4300000B20092
:101CA000A5300000A900A6300000B300A730000056
:101CB000AA00A8300000B400A9300000AB00AA3090
:101CC0000000B500AB300000B600AC300000B6DE5E
:101CD000AD300000B700AE300000B7DEAF3000001E
:101CE000B800B0300000B8DEB1300000B900B2304A
:101CF0000000B9DEB3300000BA00B4300000BADE34
:101D0000B5300000BB00B6300000BBDEB7300000CD
:101D1000BC00B8300000BCDEB9300000BD00BA30F5
:101D20000000BDDEBB300000BE00BC300000BEDEE7
:101D3000BD300000BF00BE300000BFDEBF3000007D
:101D4000C000C0300000C0DEC1300000C100C230A1
:101D50000000C1DEC3300000AF00C4300000C2008C
:101D6000C5300000C2DEC6300000C300C73000002E
:101D7000C3DEC8300000C400C9300000C4DECA3071
:101D80000000C500CB300000C600CC300000C7000A
:101D9000CD300000C800CE300000C900CF300000B8
:101DA000CA00D0300000CADED1300000CADFD23015
:101DB0000000CB00D3300000CBDED4300000CBDFFE
:101DC000D5300000CC00D6300000CCDED73000008B
:101DD000CCDFD8300000CD00D9300000CDDEDA30C5
:101DE0000000CDDFDB300000CE00DC300000CEDEB6
:101DF000DD300000CEDFDE300000CF00DF3000003D
:101E0000D000E0300000D100E1300000D200E2302C
:101E10000000D300E3300000AC00E4300000D40048
:101E2000E5300000AD00E6300000D500E7300000EE
:101E3000AE00E8300000D600E9300000D700EA30FC
:101E40000000D800EB300000D900EC300000DA00D0
:101E5000ED300000DB00EF300000DC00F23000006D
:101E6000A600F3300000DD00F4300000B3DEF730F0
:101E70000000DCDEFA300000A6DEFB300000A5002A
:101E8000FC300000B000FD300000A400074E000050
:101E9000FB0086510000FC0043530000FA0064FF81
:101EA0000000A40065FF0000A50066FF0000A6007A
:101EB00067FF0000A70068FF0000A80069FF00009E
:101EC000A9006AFF0000AA006BFF0000AB006CFFD6
:101ED0000000AC006DFF0000AD006EFF0000AE0022
:101EE0006FFF0000AF0070FF0000B00071FF000046
:101EF000B10072FF0000B20073FF0000B30074FF76
:101F00000000B40075FF0000B50076FF0000B600C9
:101F100077FF0000B70078FF0000B80079FF0000ED
:101F2000B9007AFF0000BA007BFF0000BB007CFF15
:101F30000000BC007DFF0000BD007EFF0000BE0071
:101F40007FFF0000BF0080FF0000C00081FF000095
:101F5000C10082FF0000C20083FF0000C30084FFB5
:101F60000000C40085FF0000C50086FF0000C60019
:101F700087FF0000C70088FF0000C80089FF00003D
:101F8000C9008AFF0000CA008BFF0000CB008CFF55
:101F90000000CC008DFF0000CD008EFF0000CE00C1
:101FA0008FFF0000CF0090FF0000D00091FF0000E5
:101FB000D10092FF0000D20093FF0000D30094FFF5
:101FC0000000D40095FF0000D50096FF0000D60069
:101FD00097FF0000D70098FF0000D80099FF00008D
:101FE000D9009AFF0000DA009BFF0000DB009CFF95
:101FF0000000DC009DFF0000DD009EFF0000DE0011
:102000009FFF0000DF00E5FF00005C002D2D2D008C
:1020100053440020202020002020202020202000C9
:10202000687474703A2F2F6D61726C696E66772ECA
:102030006F726700687474703A2F2F6D61726C69EB
:102040006E66772E6F726700687474703A2F2F6D0A
:1020500061726C696E66772E6F7267006275676673
:1020600069782D322E302E78006275676669782D7A
:10207000322E302E78006275676669782D322E30E8
:102080002E7800687474703A2F2F6D61726C696ECF
:1020900066772E6F726700687474703A2F2F6D61C7
:1020A000726C696E66772E6F726700687474703A2E
:1020B0002F2F6D61726C696E66772E6F72670020CC
:1020C0006275676669782D322E302E78002D2D2DA1
:1020D0002D2D2D007C4D61726C696E7C002D2D2D97
:1020E0002D2D2D00001C1F11111F000000061918B6
:1020F00003130C00000E1315110E00001C1018170E
:1021000005060500040E1F041C000000040A0A0A4C
:102110000A11110E0C12120C00000000001F151104
:10212000151F000000000000010204040000001C54
:102130001C0C04040402010000000000040810004C
:10214000000000002568753A25303268750025309A
:102150003268753A253032687500506C6561736578
:10216000205265736574005052494E5445522048C0
:10217000414C54454400456E636C6F737572650045
:102180004265640020746F6F206C6F6E6720657805
:1021900074727573696F6E2070726576656E7465A2
:1021A000640A0020636F6C642065787472757369CB
:1021B0006F6E2070726576656E7465640A002057D4
:1021C0003A0020573A0045202553002042403A006B
:1021D00020403A00202F00202D20496E76616C6946
:1021E00064206578747275646572206E756D6265C1
:1021F0007220210A004D494E54454D502074726999
:10220000676765726564004D415854454D502074B0
:10221000726967676572656400626564002C20738B
:10222000797374656D2073746F70706564212048D4
:1022300065617465725F49443A20004531004B6422
:1022400020004B6920004B702000626564005049FB
:1022500044204175746F74756E652066696E69738C
:10226000686564212050757420746865206C617302
:1022700074204B702C204B6920616E64204B6420CD
:10228000636F6E7374616E74732066726F6D20621B
:10229000656C6F7720696E746F20436F6E66696737
:1022A00075726174696F6E2E680A0050494420414E
:1022B00075746F74756E65206661696C6564212044
:1022C00074696D656F75740A0050494420417574D6
:1022D0006F74756E65206661696C65642120546554
:1022E0006D706572617475726520746F6F206869B6
:1022F00067680A00204B643A2000204B693A2000AE
:10230000204B703A20000A20436C6173736963208C
:10231000504944200A00204B643A2000204B693A7F
:102320002000204B703A20000A204E6F206F766507
:102330007273686F6F740A002054753A2000204B46
:10234000753A2000206D61783A2000206D696E3A60
:10235000200020643A200020626961733A20005016
:102360004944204175746F74756E65207374617291
:10237000740A00504944204175746F74756E65206D
:102380006661696C6564212054656D706572617465
:1023900075726520746F6F20686967680A0023642E
:1023A0006566696E652044454641554C545F00485A
:1023B000656174696E67206661696C656400546864
:1023C00065726D616C2052756E6177617900700184
:1023D0002C0190012701B0012201C0011D01F00173
:1023E00018011002130130020E016002090190026F
:1023F0000401C002FF000003FA004003F50080035F
:10240000F000D003EB002004E6007004E100E004DB
:10241000DC004005D700C005D2004006CD00D00644
:10242000C8008007C3003008BE00F008B900C0092A
:10243000B400B00AAF00B00BAA00D00CA500000E8B
:10244000A000500F9B00C010960050129100001485
:102450008C00C0158700B0178200B0197D00D01B1A
:102460007800001E730040206E0090226900F02466
:10247000640040275F0090295A00E02B5500102E81
:10248000500020304B0010324600E03341009035C0
:102490003C001037370070383200A0392D00B03AB8
:1024A0002800A03B2300603C1E00103D1900903D19
:1024B0001400103E0F00703E0A00C03E0500003FB1
:1024C0000000403FFBFF803FF6FFC03FF1FF436F3E
:1024D0006F6C696E672E2E2E0048656174696E6799
:1024E0002E2E2E004572723A204D494E54454D50C5
:1024F000004572723A204D415854454D50005448A1
:1025000045524D414C2052554E4157415900486566
:102510006174696E67204661696C65640042656438
:10252000005761726E696E673A20486F6D696E6719
:102530002042756D702044697669736F72203C206B
:10254000310A0002020420746F6F206C6F6E6720E6
:10255000657874727573696F6E2070726576656EDA
:102560007465640A0020636F6C642065787472750A
:1025700073696F6E2070726576656E7465640A00AB
:102580005555854155558541555585400000A0401C
:102590000000A040000000400000B4420000A04243
:1025A00000002A430000B4420000A04200002A4379
:1025B000000000000000000000000000486F6D6592
:1025C0002025732573257320466972737400496E44
:1025D00076616C69642065787472756465720A004E
:1025E0002055004C0046696C616D656E74206C6FFF
:1025F00061642F756E6C6F6164206C656E677468C2
:10260000733A0020204D3835312058005A2D507231
:102610006F6265204F666673657400204400204930
:102620000020204D33303420500020440020490049
:1026300020204D33303120500050494420736574C0
:1026400074696E67733A0020460020480020204DD0
:102650003134352053004D6174657269616C2068B6
:10266000656174757020706172616D6574657273F7
:102670003A002020473239205334205A00204A00A3
:10268000202047323920533320490020204D343256
:10269000302053004D65736820426564204C657698
:1026A000656C696E673A0020204D32303620580044
:1026B000486F6D65206F66667365743A002053003D
:1026C00020204D323035204200416476616E6365D2
:1026D000643A20423C6D696E5F7365676D656E7428
:1026E0005F74696D655F75733E20533C6D696E5F05
:1026F00066656564726174653E20543C6D696E5F09
:1027000074726176656C5F66656564726174653E5E
:1027100020583C6D61785F785F6A65726B3E205926
:102720003C6D61785F795F6A65726B3E205A3C6DE3
:1027300061785F7A5F6A65726B3E20453C6D6178B7
:102740005F655F6A65726B3E0020520020204D324B
:102750003034205000416363656C65726174696F49
:102760006E2028756E6974732F7332293A20503C9D
:102770007072696E745F616363656C3E20523C7277
:102780006574726163745F616363656C3E20543C81
:1027900074726176656C5F616363656C3E002020D6
:1027A0004D3230312058004D6178696D756D204192
:1027B0006363656C65726174696F6E2028756E69FC
:1027C00074732F7332293A0020204D323033205851
:1027D000004D6178696D756D206665656472617420
:1027E00065732028756E6974732F73293A005374CA
:1027F0006570732070657220756E69743A002044AC
:102800000020204D32303020530020446973616233
:102810006C65640A0046696C616D656E7420736551
:102820007474696E67733A0020204D313439204347
:10283000203B20556E69747320696E2043656C736C
:102840006975730A002020473231202020203B2068
:10285000556E69747320696E206D6D003A0A002010
:10286000286D6D290020204D36303320003B20009C
:1028700048617264636F6465642044656661756C69
:10288000742053657474696E6773204C6F6164655E
:10289000640A00290A002062797465733B20637220
:1028A0006320002073746F726564207365747469AB
:1028B0006E6773207265747269657665642028009E
:1028C000202863616C63756C6174656429210A005A
:1028D00020213D2000454550524F4D20435243207A
:1028E0006D69736D61746368202D202873746F7235
:1028F00065642920002053697A653A2000496E6496
:1029000065783A2000204D61726C696E3D56383111
:10291000290A00454550524F4D2076657273696F04
:102920006E206D69736D617463682028454550524F
:102930004F4D3D004E6F20454550524F4D2E0A00E1
:10294000290A002062797465733B2063726320005A
:1029500053657474696E67732053746F7265642075
:1029600028004E6F20454550524F4D2E0A004545D8
:1029700050524F4D206461746173697A65206572AD
:10298000726F722E0A0000A00C4600A00C460000D8
:102990007A4400007A4400004842000048420000A7
:1029A0007A43000093422003000020030000C80087
:1029B0000000E803000053657474696E6773205368
:1029C000746F726564007A5F6D696E00795F6D691E
:1029D0006E00785F6D696E005265706F7274696E1B
:1029E0006720656E6473746F70207374617475739F
:1029F0000A006F70656E005452494747455245447E
:102A0000003A2000255320256320256320256320DC
:102A1000256300205A3A0020593A0020583A0065B0
:102A20006E6473746F7073206869743A2000486F25
:102A30006D696E67204661696C656400456E6473FC
:102A4000746F70730050726F62696E6720466169BF
:102A50006C65640A00205A3A200020593A2000424E
:102A6000656420583A200050726F62696E67204694
:102A700061696C65640020423A0020436F756E7492
:102A800020413A00043700001E290000511B0000BD
:102A90005810000010090000CC040000780200006B
:102AA0004101000024F4D43050C38E20C2A240174C
:102AB000828B7011127A910D816CD90AA861E1089C
:102AC000C7586607615143061E4B5D05C145A70403
:102AD0001A411104093D9803713931034036DB0274
:102AE00065339102D4305402802E1D02632CEE0116
:102AF000752AC501B028A001102781018F25640126
:102B00002B244B01E0223401AC211F018D200D014B
:102B1000801FFC00841EED00971DDF00B81CD20052
:102B2000E61BC600201BBC00641AB200B219A80044
:102B30000A19A0006A189900D117910040178B005C
:102B4000B516840031167E00B31579003A1573006E
:102B5000C7146F0058146A00EE13660088136300F0
:102B600025135E00C7125B006C125700151254004B
:102B7000C111510070114F0021114B00D6104900B6
:102B80008D1047004610440002104200C00F400064
:102B9000800F3E00420F3C00060F3B00CB0E38007A
:102BA000930E37005C0E3500270E3400F30D320013
:102BB000C10D3100900D3000600D2E00320D2D0042
:102BC000050D2C00D90C2B00AE0C2900850C29001A
:102BD0005C0C2700350C27000E0C2600E80B2400A7
:102BE000C40B2400A00B23007D0B23005A0B2100F3
:102BF000390B2100180B2000F80A1F00D90A1E000B
:102C0000BB0A1E009D0A1D00800A1D00630A1C00ED
:102C1000470A1B002C0A1B00110A1A00F7091A00A8
:102C2000DD091900C4091900AB0919009209170040
:102C30007B091800630917004C09160036091600B5
:102C4000200916000A091500F5081500E00814000F
:102C5000CC081400B8081400A4081400900813004D
:102C60007D0812006B081300580812004608120075
:102C70003408110023081100120811000108110086
:102C8000F0071000E0071000D0071000C007100088
:102C9000B0070F00A107100091070E0083070F0077
:102CA00074070F0065070E0057070E0049070E0056
:102CB0003B070D002E070E0020070D0013070D0027
:102CC00006070D00F9060C00ED060D00E0060C00ED
:102CD000D4060C00C8060C00BC060C00B0060C00A4
:102CE000A4060B0099060C008D060B0082060B0053
:102CF00077060B006C060B0061060A0057060B00F6
:102D00004C060A0042060A0038060A002E060A008F
:102D100024060A001A060A001006090007060A001F
:102D2000FD050900F4050900EB050900E2050900AD
:102D3000D9050900D0050900C7050900BE0509002D
:102D4000B5050800AD050800A50509009C050800AB
:102D5000940508008C050800840508007C0508001F
:102D6000740508006C050700650508005D0507008F
:102D7000560508004E0507004705070040050800F6
:102D800038050700310507002A050700230507005D
:102D90001C050600160507000F05070008050600BC
:102DA00002050700FB040600F5040700EE04060018
:102DB000E8040600E2040700DB040600D504060070
:102DC000CF040600C9040600C3040600BD040600C3
:102DD000B7040600B1040500AC040600A604060012
:102DE000A00405009B04060095040500900406005D
:102DF0008A04050085040500800406007A040500A5
:102E000075040500700405006B04050066040500E8
:102E1000610405005C040500570405005204050028
:102E20004D04050048040500430405003E04040069
:102E30003A04050035040500300404002C040500A4
:102E400027040400230405001E0404001A040400DF
:102E500016040500110404000D0404000904050013
:102E60000404040000040400FC030400F80304004C
:102E7000F4030400F0030400EC030400E80304007E
:102E8000E4030400E0030400DC030400D8030400AE
:102E9000D4030400D0030400CC030400C8030300DF
:102EA000C503030024F404D9201BC40C5C0E980451
:102EB000C4095F0265077101F405F900FB04B30062
:102EC00048048700C1036900580355000303450007
:102ED000BE023A008402310053022A002902250072
:102EE00004022000E4011C00C8011900AF01170012
:102EF0009801140084011300710110006101100099
:102F000051010E0043010D0036010B002B010B0097
:102F100020010B00150109000C0109000301080044
:102F2000FB000800F3000800EB000700E4000600C7
:102F3000DE000600D8000600D2000600CC00050026
:102F4000C7000500C2000500BD000400B900040070
:102F5000B5000400B1000400AD000400A9000400A5
:102F6000A5000300A20003009F0004009B000300D3
:102F700098000300950002009300030090000300F6
:102F80008D0002008B000300880002008600020012
:102F900084000300810002007F0002007D00020027
:102FA0007B00020079000200770001007600020039
:102FB0007400020072000100710002006F00020044
:102FC0006D0001006C0002006A000100690002004F
:102FD0006700010066000100650001006400020056
:102FE0006200010061000100600001005F0002005A
:102FF0005D0001005C0001005B0001005A0001005F
:10300000590001005800010057000100560001005E
:10301000550001005400010053000000530001005E
:103020005200010051000100500001004F0001005A
:103030004E0000004E0001004D0001004C00010058
:103040004B0000004B0001004A0001004900010054
:103050004800000048000100470001004600000051
:103060004600010045000000450001004400010049
:103070004300000043000100420000004200010044
:103080004100000041000100400001003F0000003D
:103090003F0001003E0000003E0001003D00000036
:1030A0003D0001003C0000003C0000003C0001002D
:1030B0003B0000003B0001003A0000003A00010024
:1030C000390000003900010038000000380000001D
:1030D0003800010037000000370001003600000012
:1030E0003600000036000100350000003500000009
:1030F00035000100340000003400000034000100FD
:1031000033000000330000003300010032000000F3
:1031100032000000320001003100000031000000E8
:1031200031000100300000003000000030000100DC
:103130002F0000002F0000002F0000002F000100D2
:103140002E0000002E0000002E0001002D000000C7
:103150002D0000002D0000002D0001002C000000BB
:103160002C0000002C0000002C0001002B000000AF
:103170002B0000002B0000002B0001002A000000A3
:103180002A0000002A0000002A0001002900000097
:10319000290000002900000029000000290001008A
:1031A000280000002800000028000000280000007F
:1031B0002800010027000000270000002700000071
:1031C0002700000027000100260000002600000064
:1031D0002600000026000000260001002500000057
:1031E000250000002500000025000000250000004B
:1031F000250001002400000024000000240000003D
:10320000240000002400010023000000230000002F
:103210002300000023000000230000002300000022
:103220002300010022000000220000002200000014
:103230002200000022000000220001002100000006
:1032400021000000210000002100000021000000FA
:1032500021000000210001002000000020000000EB
:1032600020000000200000002000000020000000DE
:1032700020000000200001001F0000001F000000CF
:103280001F0000001F0000001F0000001F000000C2
:103290001F0001001E0000001E0000001E000000B4
:1032A0001E0000004572726F722077726974696E39
:1032B0006720746F20454550524F4D210A001B2254
:1032C0001E22082A6A3F5F6FDF7A1EBB33D3AA0033
:1032D0007C6F11241FBECFEFD1E2DEBFCDBF00E077
:1032E0000CBF13E0A0E0B2E0E2EBF3E502E00BBFBD
:1032F00002C007900D92A033B107D9F722E1A0E3F5
:10330000B3E001C01D92A03FB207E1F719E1C8E6A2
:10331000D9E100E006C021970109802FFE010F943A
:10332000B71FCF35D10780E00807A9F7FCD50D946A
:10333000C7290C9400001F920F920FB60F92112410
:103340002F933F938F939F93AF93BF9380913103BC
:1033500090913203A0913303B09134033091300344
:1033600023E0230F2D3758F50196A11DB11D2093A1
:1033700030038093310390933203A0933303B093CF
:1033800034038091350390913603A0913703B091B7
:1033900038030196A11DB11D809335039093360328
:1033A000A0933703B0933803BF91AF919F918F9152
:1033B0003F912F910F900FBE0F901F90189526E808
:1033C000230F0296A11DB11DD2CF2FB7F8946091A3
:1033D00031037091320380913303909134032FBFF6
:1033E00008953FB7F8948091350390913603A091EA
:1033F0003703B091380326B5A89B05C02F3F19F0BD
:103400000196A11DB11D3FBFBA2FA92F982F882764
:10341000BC01CD01620F711D811D911D42E0660F3F
:10342000771F881F991F4A95D1F708958F929F9211
:10343000AF92BF92CF92DF92EF92FF926B017C012D
:10344000D0DF4B015C01C114D104E104F104D9F0D7
:10345000B6D3C7DF681979098A099B09683E7340AA
:103460008105910580F321E0C21AD108E108F10835
:1034700088EE880E83E0981EA11CB11CC114D104F3
:10348000E104F10431F7FF90EF90DF90CF90BF900F
:10349000AF909F908F9008958230910538F0880FFB
:1034A000991F880F991F05970197F1F70895789450
:1034B00084B5826084BD84B5816084BD85B5826039
:1034C00085BD85B5816085BDEEE6F0E080818160D7
:1034D0008083E1E8F0E010828081826080838081D7
:1034E00081608083E0E8F0E0808181608083E1EBAF
:1034F000F0E0808184608083E0EBF0E08081816097
:103500008083E1E9F0E08081826080838081816056
:103510008083E0E9F0E0808181608083E1EAF0E08F
:10352000808182608083808181608083E0EAF0E036
:10353000808181608083E1E2F1E08081826080832C
:10354000808181608083E0E2F1E08081816080831E
:10355000EAE7F0E0808184608083808182608083FC
:103560008081816080838081806880831092C10027
:1035700008951F93CF93DF93182FEB0161E035D1AE
:10358000209731F460E0812FDF91CF911F9169C1C5
:10359000CF3FD10511F461E0F6CFE12FF0E0EF5617
:1035A000FD4FE491E150E23108F0B3C0F0E088272C
:1035B000E352F54E8F4F0D94B71FEF1AF71AFC1A0E
:1035C000061B101B891B1A1B221B2A1B341B3E1BAC
:1035D000481B571B611B891B6B1B751B7F1B84B50D
:1035E000806884BDC7BDDF91CF911F91089584B5D8
:1035F000806284BDC8BDF7CF8091800080688093D1
:103600008000D0938900C0938800EDCF8091800026
:10361000806280938000D0938B00C0938A00E3CFB8
:1036200080918000886080938000D0938D00C0934B
:103630008C00D9CF8091B00080688093B000C09397
:10364000B300D1CF8091B00080628093B000C0936E
:10365000B400C9CF80919000806880939000D0938F
:103660009900C0939800BFCF8091900080628093B2
:103670009000D0939B00C0939A00B5CF80919000AA
:10368000886080939000D0939D00C0939C00ABCF46
:103690008091A00080688093A0008091A0008F7B23
:1036A0008093A000D093A900C093A8009CCF8091E4
:1036B000A00080628093A000D093AB00C093AA00CA
:1036C00092CF8091A00088608093A000D093AD003D
:1036D000C093AC0088CF8091200180688093200146
:1036E000D0932901C09328017ECF80912001806270
:1036F00080932001D0932B01C0932A0174CF809135
:103700002001886080932001D0932D01C0932C016B
:103710006ACFC038D1050CF03ECF34CF8150823112
:1037200008F05AC0E82FF0E08827E656F44E8F4F95
:103730000D94B71FBA1BBE1BAC1BB21BB61BEC1BF8
:10374000C11BC71BCB1BD11BD51BD91BDF1BE31B0D
:10375000EC1BE71BED1BF11B809180008F778093A2
:1037600080000895809180008F7DF9CF8091800046
:10377000877FF5CF84B58F7784BD089584B58F7D1D
:10378000FBCF8091B0008F778093B0000895809137
:10379000B0008F7DF9CF809190008F77809390005B
:1037A0000895809190008F7DF9CF80919000877F60
:1037B000F5CF8091A0008F778093A000089580912D
:1037C000A0008F7DF9CF8091A000877FF5CF8091F9
:1037D00020018F77809320010895809120018F7DB3
:1037E000F9CF80912001877FF5CFCF93DF9390E0D1
:1037F000FC01E952FD4F2491835E9C4FFC018491B2
:103800008823C9F090E0880F991FFC01E956FC4F0E
:10381000A591B491FC01E358FC4FC591D49161117D
:103820000DC09FB7F8948C91209582238C9388814A
:10383000282328839FBFDF91CF910895623051F4F0
:103840009FB7F8943C91822F809583238C93E881D5
:103850002E2BEFCF8FB7F894EC912E2B2C938FBF9C
:10386000EACF1F93CF93DF93282F30E0F901EF5673
:10387000FD4F8491F901E952FD4FD491F901E35EC6
:10388000FC4FC491CC23A1F0162F811147DFEC2F00
:10389000F0E0EE0FFF1FE358FC4FA591B4918FB7F6
:1038A000F894EC91111108C0D095DE23DC938FBF02
:1038B000DF91CF911F910895DE2BF8CFCF93DF9347
:1038C000282F30E0F901EF56FD4F8491F901E952BC
:1038D000FD4FD491F901E35EFC4FC491CC2399F0E4
:1038E00081111CDFEC2FF0E0EE0FFF1FED59FC4FB4
:1038F000A591B491EC91ED2381E090E009F480E092
:10390000DF91CF91089580E090E0FACF08951F9263
:103910000F920FB60F9211240BB60F922F933F9375
:103920004F935F936F937F938F939F93AF93BF93C7
:10393000EF93FF93E0910402F09105021995FF9136
:10394000EF91BF91AF919F918F917F916F915F9117
:103950004F913F912F910F900BBE0F900FBE0F9084
:103960001F9018951F920F920FB60F9211240BB64D
:103970000F922F933F934F935F936F937F938F9308
:103980009F93AF93BF93EF93FF93E0910602F09163
:1039900007021995FF91EF91BF91AF919F918F9180
:1039A0007F916F915F914F913F912F910F900BBE3F
:1039B0000F900FBE0F901F9018951F920F920FB689
:1039C0000F9211240BB60F922F933F934F935F9357
:1039D0006F937F938F939F93AF93BF93EF93FF93D7
:1039E000E0910802F09109021995FF91EF91BF91C2
:1039F000AF919F918F917F916F915F914F913F9187
:103A00002F910F900BBE0F900FBE0F901F90189527
:103A10001F920F920FB60F9211240BB60F922F9395
:103A20003F934F935F936F937F938F939F93AF9346
:103A3000BF93EF93FF93E0910A02F0910B02199567
:103A4000FF91EF91BF91AF919F918F917F916F9176
:103A50005F914F913F912F910F900BBE0F900FBE32
:103A60000F901F9018951F920F920FB60F9211246E
:103A70000BB60F922F933F934F935F936F937F9368
:103A80008F939F93AF93BF93EF93FF93E0910002C7
:103A9000F09101021995FF91EF91BF91AF919F9124
:103AA0008F917F916F915F914F913F912F910F90E7
:103AB0000BBE0F900FBE0F901F9018951F920F9284
:103AC0000FB60F9211240BB60F922F933F934F9383
:103AD0005F936F937F938F939F93AF93BF93EF9376
:103AE000FF93E0910202F09103021995FF91EF918B
:103AF000BF91AF919F918F917F916F915F914F9106
:103B00003F912F910F900BBE0F900FBE0F901F9003
:103B100018951F920F920FB60F9211240BB60F92A9
:103B20002F933F934F935F936F937F938F939F93C5
:103B3000AF93BF93EF93FF93E0910C02F0910D02CE
:103B40001995FF91EF91BF91AF919F918F917F91C7
:103B50006F915F914F913F912F910F900BBE0F90FE
:103B60000FBE0F901F9018951F920F920FB60F92D5
:103B700011240BB60F922F933F934F935F936F9344
:103B80007F938F939F93AF93BF93EF93FF93E091B6
:103B90000E02F0910F021995FF91EF91BF91AF9135
:103BA0009F918F917F916F915F914F913F912F9155
:103BB0000F900BBE0F900FBE0F901F901895089599
:103BC00090E080E008950895AF92BF92CF92DF9287
:103BD000EF92FF920F931F93CF93DF936C017B01C2
:103BE0008B01040F151FEB015E01AE18BF08C01753
:103BF000D10759F06991D601ED91FC910190F081C6
:103C0000E02DC6011995892B79F7C501DF91CF9178
:103C10001F910F91FF90EF90DF90CF90BF90AF90EA
:103C20000895CF93DF93EC0160E08E811ADE81E08E
:103C300090E032DC61E08E8114DE81E090E02CDCEB
:103C400060E08E810EDE84E690E0DF91CF9124CC9F
:103C5000CF92DF92EF92FF920F931F93CF93DF9358
:103C60006C017C0187E0E80EF11CD0E0C0E0062F7B
:103C700010E0B8010C2E02C0759567950A94E2F722
:103C80006170F70181917F01ECDD2196C430D1058F
:103C900081F7C601DF91CF911F910F91FF90EF90B7
:103CA000DF90CF90BECFCF92DF92EF92FF920F9333
:103CB0001F93CF93DF936C017C0187E0E80EF11C2A
:103CC000D0E0C0E0062F10E0B8010C2E02C07595C0
:103CD00067950A94E2F76170F70181917F01C1DD78
:103CE0002196C830D10581F7C601DF91CF911F9190
:103CF0000F91FF90EF90DF90CF9093CF1F93CF93D2
:103D0000DF93EC01162F642F8C81ABDD8D818F3F0B
:103D100011F060E0A6DD8F85612F84FF05C0CE0124
:103D2000DF91CF911F91BFCF70E084E075956795CB
:103D30008A95E1F7CE018CDF612FCE01DF91CF9123
:103D40001F9186CF40E0DACF61E0FCDF80ED97E0A5
:103D5000A3CB443008F043E0FC012389421710F064
:103D60004FEF420FFC01E40FF11D2489620F6068E0
:103D7000E9CFFC016089262F2460208B6C60E2CFA4
:103D80000F931F93CF93DF93EC01423018F08F8590
:103D900088608F874B8B1C8A80E48D8B6E8B605C78
:103DA0006F8B222329F0413019F48F8584608F872F
:103DB00061E08C811ADD8D818F3F11F061E015DDAE
:103DC00061E08E8112DD8E0198012C1B3D0B8F85E9
:103DD00084FD0CC084E090E00F5F1F4F2817390767
:103DE00044F461E0F801868100DDEECF88E090E0E8
:103DF000F3CF80E593EC50DB60E08C8132DD60E056
:103E00008E812FDD8D818F3F11F060E02ADD6F857F
:103E100064FD28C063E0CE011BDF84E991E13CDB57
:103E200063E0CE0115DF84E991E136DB63E0CE018A
:103E30000FDF86E990E030DB62E0CE0109DF6F85BD
:103E40006062CE017FDF84E0888BCE0192DFCE01FD
:103E50007BDF82E0898B66E0CE01DF91CF911F91FD
:103E60000F9170CF6062CE016DDF84E991E114DBC8
:103E70006F856062CE0166DF86E990E00DDB6F85BD
:103E80006062CE015FDFDBCFCF92EF920F93FC0138
:103E90001382128281EC92E09183808364838FEF9E
:103EA0008583468327830087E186C286138614862E
:103EB00015861686178620E041E060E1CF010F915C
:103EC000EF90CF905DCFEF92FF920F931F93CF9320
:103ED000DF938C017A01677088E0689FB00111243C
:103EE0006064C8012FDFE701A8E0EA0EF11C6991C8
:103EF000D801ED91FC910190F081E02DC801199558
:103F0000CE15DF05A1F7DF91CF911F910F91FF90A3
:103F1000EF90089541E0F2DE81E090E0089590E0B6
:103F200080E008950895C3DAFDDF0E940329C0E010
:103F3000D0E00E94D9292097E1F30E940000F9CF38
:103F4000CF9320E030E0A9016091490370914A03CA
:103F500080914B0390914C030F942F1C811132C020
:103F600020E030E0A90160914D0370914E038091F3
:103F70004F03909150030F942F1C811123C020E018
:103F800030E0A90160915103709152038091530375
:103F9000909154030F942F1CC1E0811110C020E0B8
:103FA00030E0A90160915503709156038091570349
:103FB000909158030F942F1C811101C0C0E08C2FE9
:103FC000CF910895C1E0FBCF9091930B9817B1F07A
:103FD0000E9458C48091930B882341F081EA91E1BB
:103FE0000E9484C31092930B0C9488E781E0809325
:103FF000930B81EA91E10E94B3C3F6CF08954F92EB
:104000005F926F927F928F929F92AF92BF92CF9268
:10401000DF92EF92FF92CF936B017C01C42FAC0132
:104020009B0160918F0B7091900B8091910B9091FF
:10403000920B0F942F1C882309F4A5C0B090930B0A
:1040400080E0C2DF20E030E0A901C701B6010F9493
:10405000321E18161CF0C12CD12C7601C0928F0B89
:10406000D092900BE092910BF092920B2DEB37E3F4
:1040700046E855EBC701B6010F94321E87FD0BC011
:104080002DEB37E346E855E3C701B6010F942F1C2B
:1040900018160CF074C0A701960160E070E080E88B
:1040A0009FE30F94361C60938B0B70938C0B809363
:1040B0008D0B90938E0B80EF9FEFA9E7B4EC80936C
:1040C000870B9093880BA093890BB0938A0BBB202E
:1040D00009F459C04090A1115090A2116090A31111
:1040E0007090A4118090A5119090A611A090A71196
:1040F000B090A811C090A911D090AA11E090AB1176
:10410000F090AC1181E060DFCC23E9F1A3019201D2
:104110006091A1117091A2118091A3119091A411AD
:104120000F942F1C81111CC0A50194016091A51151
:104130007091A6118091A7119091A8110F942F1C36
:1041400081110EC02091A9113091AA114091AB119B
:104150005091AC11C701B6010F942F1C882399F020
:10416000CF91FF90EF90DF90CF90BF90AF909F9056
:104170008F907F906F905F904F900C947CE760E001
:1041800070E0CB0190CFCF91FF90EF90DF90CF9078
:10419000BF90AF909F908F907F906F905F904F9067
:1041A000089580E011DFFCC03F924F925F926F92C2
:1041B0007F928F929F92AF92BF92CF92DF92EF92B7
:1041C000FF920F931F93CF93DF93E82EC62E042FF9
:1041D0005901882E912CD0E0C0E0C815D90579F09E
:1041E000CA3058F082E0800F0E942D5B6AE070E0D8
:1041F000CE010F9485112196F0CF83E0F4CF8AE0B1
:104200000F94D310D12CD0E0C0E010E04801E2E0E0
:104210008E0E911C3C2ECC16DD0609F441C0F9E04F
:10422000FC1718F080E20F94D3106AE070E0CE0122
:104230000F948511F12CFE1471F180E20F94D310CC
:10424000632D8F2DF50119952B013C01AC019B01CC
:104250000F941B1F811113C020E030E0A901C3019E
:10426000B2010F94321E87FD03C08BE20F94D3106E
:10427000A801C301B2010F941312F394DCCF712C87
:104280007814190409F0CCF780E271108DE30F94D3
:10429000D3107394F5CF8AE00F94D3102196BACF40
:1042A0008AE0DF91CF911F910F91FF90EF90DF9007
:1042B000CF90BF90AF909F908F907F906F905F90C6
:1042C0004F903F900D94D310EF92FF920F931F9356
:1042D000CF93DF93CDB7DEB72C970FB6F894DEBF40
:1042E0000FBECDBF7C0101EA11E1F8018085918507
:1042F000A285B38589879A87AB87BC8719821A8282
:104300001B821C8280E090E0A0EAB0E48D839E8353
:10431000AF83B887AE014F5F5F4FBE016B5F7F4FCA
:10432000C7010E948CE919821A821B821C82BE017D
:104330006F5F7F4FCE0109960E94A9E9F701848142
:104340009581A681B7814081518162817381F80195
:10435000408351836283738384839583A683B78369
:104360001092C90A2C960FB6F894DEBF0FBECDBFCF
:10437000DF91CF911F910F91FF90EF900895E82F5B
:10438000F0E0EE0FFF1FE60FF11DEE0FFF1FEE0F27
:10439000FF1FE75BFC4F60817181828193810895EB
:1043A0001092590310925A0310925B0310925C030F
:1043B000E9E4F3E080E1DF011D928A95E9F70895D1
:1043C000E1E4F3E080E090E0A0E2B1E48083918357
:1043D000A283B38340E050E060EA72E444835583F3
:1043E00066837783E9E3F3E080839183A283B383D9
:1043F00080E090E0ACE8B2E484839583A683B78341
:10440000CFCF84EC93E00E94AD5A60915903709134
:104410005A0380915B0390915C0345E050E00F9458
:10442000131281EB93E00E94AD5A2FEB31E245E08D
:1044300062E082E0B9CE8DE593E0C2CF81E0809367
:104440005E030895CF92DF92EF92FF920F931F9336
:10445000CF9390911002913009F461C0662351F01E
:10446000109261031092620310926303109264032E
:1044700010926503C82F0E94E519C0906203D09086
:104480006303E0906403F09065039B01AC012C1979
:104490003D094E095F0969017A01F7FC40C020918E
:1044A0006103C7FD15C04C2F0C2E000C550B4C5F43
:1044B0005F4FE22F022E000CFF0B4E175F077CF1BF
:1044C00044EFC42EDD24D394E12CF12C2C1734F4CA
:1044D00038EEC32E33E0D32EE12CF12CC60ED71EBE
:1044E000E81EF91EC0926203D0926303E092640357
:1044F000F0926503022F017010E084E2809FB0010A
:10450000819F700D701B112460597C4F82E390E0F5
:104510000F942113809161038F5F80936103CF918A
:104520001F910F91FF90EF90DF90CF9008959091A1
:10453000F50593FD0FC09091121191110BC04091A0
:104540004B1150914C1120914D0230914E02421767
:1045500053074CF040E0682F8BE00E94EE9861E03A
:1045600080E00C940EE40E94BB5A87E594E00E9420
:10457000AD5A80E008954F925F926F927F928F9232
:104580009F92AF92BF92CF92EF92FF920F931F93A1
:10459000CF93DF9300D01F92CDB7DEB73C014B0124
:1045A0005A01F22E8C2DC3DF182F81111CC000235D
:1045B00029F040E06C2D89E00E94EE98812F0F9049
:1045C0000F900F900F90DF91CF911F910F91FF905F
:1045D000EF90CF90BF90AF909F908F907F906F9013
:1045E0005F904F900895EE2009F1002329F040E0FC
:1045F0006C2D84E00E94EE980E94BB5A88E394E000
:104600000E94AD5A61E08F2D1DDF5090EA0583E0D6
:104610008093EA0580918603882331F060E08F2D36
:1046200011DF81E09FD5F6CF5092EA05002329F0F3
:1046300040E06C2D85E00E94EE9820E030E0A9017A
:10464000F30160817181828193810F942F1C8823F3
:1046500071F080E090E0A0ECB0E489839A83AB83B2
:10466000BC83BE016F5F7F4FC3010E9446E820E01C
:1046700030E0A901F40160817181828193810F94FE
:104680002F1C882351F14090040C5090050C609031
:10469000060C7090070C80E090E0A0EAB1E48093F3
:1046A000040C9093050CA093060CB093070C80E0CB
:1046B00090E0A0EAB2E489839A83AB83BC83BE0115
:1046C0006F5F7F4FC4010E9446E84092040C5092F5
:1046D000050C6092060C7092070C412C512C80E462
:1046E000682E762C93E0C92E20E030E0A901F50178
:1046F00060817181828193810F94321E18168CF42F
:10470000002329F040E060E086E00E94EE984982B4
:104710005A826B827C82BE016F5F7F4FC5010E940F
:1047200046E8002309F44ACFF090EA05C092EA0572
:104730001092860340E060E087E00E94EE9880914E
:104740006E03811103C081E00DD5F9CFF092EA0527
:10475000813051F233CF8F929F92AF92BF92CF921E
:10476000DF92FF920F931F93CF93DF9300D000D07F
:104770001F921F92CDB7DEB76C01F62E042F842F47
:10478000D6DE182F81111AC0FF2029F040E060E02A
:1047900089E00E94EE98812F28960FB6F894DEBF2C
:1047A0000FBECDBFDF91CF911F910F91FF90DF9092
:1047B000CF90BF90AF909F908F900895FF2029F0E9
:1047C00040E0602F83E00E94EE9880E090E0A0E758
:1047D000B2E48D839E83AF83B88719821A821B82CD
:1047E0001C82BE016B5F7F4FCE0101960E9446E89E
:1047F00064E670E080E090E00E947F5B80E090E003
:10480000A8ECB1E48D839E83AF83B88719821A82A6
:104810001B821C82BE016B5F7F4FCE0101960E94FE
:1048200046E88090040C9090050CA090060CB09087
:10483000070C80E090E0A0EAB1E48093040C909330
:10484000050CA093060CB093070C80E090E0A0EA62
:10485000B2E48D839E83AF83B887F6018081918116
:10486000A281B38189839A83AB83BC83BE016B5FD2
:104870007F4FCE0101960E9446E88092040C9092F0
:10488000050CA092060CB092070C80E0C6D264E63C
:1048900070E080E090E00E947F5B7DCFAF92BF929E
:1048A000CF92DF92EF92FF920F931F93CF93DF93FC
:1048B00000D01F92CDB7DEB730916003332389F06B
:1048C00010E0812F0F900F900F900F90DF91CF91FC
:1048D0001F910F91FF90EF90DF90CF90BF90AF901E
:1048E0000895022F7A015B016C018091F50583FD2B
:1048F0001CC020E030E0A901F70160817181828154
:1049000093810F942F1C882381F0109112111111A3
:104910000CC020914B1130914C1180914D0290911F
:104920004E02281739070CF45DC081E080936003C4
:104930009091600892FD6AC00F94881380E1E1EACB
:10494000F1E1AFE6B3E001900D928A95E1F70E94A4
:1049500058C420E030E0A901F601608171818281B4
:1049600093810F942F1C882319F1809112118111CA
:1049700011C0609147117091481180914911909137
:104980004A110F949E1C20914D0230914E026217E5
:10499000730774F080E090E0A0E7B2E489839A8323
:1049A000AB83BC83BE016F5F7F4FC6010E9446E8A8
:1049B00087E00E94A4EE811103C0B5010F94161286
:1049C00020E030E0A901F70160817181828193814B
:1049D0000F942F1C882321F042E0602FC701BBDE1B
:1049E00011E06FCF0E94BB5A87E294E00E94AD5A5B
:1049F000002309F465CF40E060E089E00E94EE9872
:104A000060E088E694E00E94D7795BCF9B7F90932B
:104A1000600882E0809360038FCFCF93C82F82E03D
:104A2000C11184E040E060E00E94EE980E94BB5A11
:104A300083EF93E0CC2311F088E094E0CF910C94C5
:104A4000AD5A1F93CF93DF93D82FC62FE6DF61E0D7
:104A50008C2FF8DC0E94E519685370458F4F9F4FEB
:104A600060933711709338118093391190933A11F4
:104A700010923B111091EA0583E08093EA0581E0F2
:104A80008093860380918603882309F441C060E007
:104A90008C2FD8DC80913B118823B9F140E060E095
:104AA0008AE00E94EE980E94BB5A89ED93E00E9432
:104AB000AD5A41E060E070E0CB016AD3109237114B
:104AC000109238111092391110923A1110923B1134
:104AD00080E00E947BD880E02ADD8D2F9EDF0E943F
:104AE000E519685370458F4F9F4F6093371170934E
:104AF00038118093391190933A1110923B1181E053
:104B00008093860361E08C2F9DDC81E02BD3BACFAC
:104B10001093EA05DF91CF911F9108954F925F9214
:104B20006F927F928F929F92AF92BF92CF92EF92AD
:104B30000F931F93CF93DF93CDB7DEB72C970FB6AC
:104B4000F894DEBF0FBECDBF30916003332309F46C
:104B50000CC15801122F2A013B014C01E0903B117E
:104B600010923711109238111092391110923A1197
:104B700010923B1180E00E947BD880914B11909164
:104B80004C118A159B0584F480914B0290914C0244
:104B90000F97A816B9060CF4C50190934C11809399
:104BA0004B1180E00E947BD8E11015C0809112115A
:104BB000811111C060914711709148118091491184
:104BC00090914A110F949E1C20914D0230914E02FB
:104BD000621773073CF0C12C01E0212FA201B30141
:104BE000C401C9DC1A141B04A4F480914B029091F7
:104BF0004C020F97A816B9060CF4C50190934C11FE
:104C000080934B1180E00E947BD860E080E00E949E
:104C10000EE440E060E088E00E94EE98812C912C48
:104C200080E7A82E82E4B82E89829A82AB82BC8269
:104C300080E090E0A0E0B0EC89879A87AB87BC87E2
:104C4000BE016F5F7F4FCE0109960E9446E880E06B
:104C500090E0A8ECB2E489879A87AB87BC8788E0AC
:104C6000EFE6F3E0DE01119601900D928A95E1F7EF
:104C7000BE01675F7F4FCE0101960E9487E980E009
:104C800090E0A0EAB0E489839A83AB83BC83BE0141
:104C90006F5F7F4F87E793E00E94A9E989829A823C
:104CA000AB82BC8280E090E0A0E0B0E489879A8784
:104CB000AB87BC87BE016F5F7F4FCE0109960E9414
:104CC00046E820E030E0A90160917B0370917C030D
:104CD00080917D0390917E030F942F1C87FF0BC062
:104CE00089829A82AB82BC82BE016F5F7F4F8BE765
:104CF00093E00E9446E880917B0390917C03A09111
:104D00007D03B0917E038093AD119093AE11A0937B
:104D1000AF11B093B01180939D1190939E11A09309
:104D20009F11B093A0118DE991E10E9486D140E0DE
:104D300060E089E00E94EE9880916003815080934A
:104D40006003882339F00E94A76980916003815035
:104D5000809360038091E112823011F40F94EA1382
:104D600080E00E94127A0E947F9E2C960FB6F894E3
:104D7000DEBF0FBECDBFDF91CF911F910F91EF909E
:104D8000CF90BF90AF909F908F907F906F905F90EB
:104D90004F9008959898A09A0895FF920F931F93AB
:104DA000CF93DF931F92CDB7DEB7F82E0EEE15E04E
:104DB00041E050E0B801CE0101960F948B23898128
:104DC0008F1108C081E00F90DF91CF911F910F915B
:104DD000FF9008950F5F1F4F86E00630180741F7D8
:104DE00080E0F1CF0E94BE5A8FED95E00C94AD5A51
:104DF0000E94D6D20E9458C48EEF0E94BCE70C9449
:104E000088E7129808955F988A98809108018170C8
:104E100080930601F6CF129A0895811101C0129A6B
:104E200008955F9A8091B1118E7F8093B1118A9A13
:104E30008091B1118D7F8093B1118091080180958F
:104E40008170809306018091B1118B7F8093B111A5
:104E5000E2CF8091600381110AC08091E11281301C
:104E600041F08091600882FB882780F9089580E0F6
:104E7000089581E0089580916003811115C08091AB
:104E8000E112823089F09091600893FB882780F9C5
:104E900093FF0DC08091B706882341F092FB8827CD
:104EA00080F991E08927089581E0089580E00895D0
:104EB0000D94EA13CF93C82F89EE93E030E6019763
:104EC00029F0232F2A950000E9F7F9CFF89489EE0D
:104ED00093E038EE019729F0232F2A950000E9F797
:104EE000F9CF0E94E7D8CC2329F09BDF909904C02A
:104EF000A895FCCF90DFFACF909B02C0A895FCCF7D
:104F0000F0E0E0E0CF911994FF920F931F93CF93BD
:104F1000DF93EC018B01F42E0E94E7D80E94BE5A69
:104F200083E595E00E94AD5A0115110511F408E4DE
:104F300016E0209711F4C9E4D6E0B801CE010E9432
:104F4000B4798F2DDF91CF911F910F91FF90B2CF48
:104F50008F929F92AF92BF92CF92DF92EF92FF9289
:104F60000F931F93182F8091B705843010F40E947F
:104F70001E3F0E94E5196B017C01111105C0809153
:104F8000600310E0882349F0C092F105D092F20549
:104F9000E092F305F092F40511E08091ED05909117
:104FA000EE05A091EF05B091F0050097A105B105C0
:104FB00049F14091F1055091F2056091F30570912E
:104FC000F405840F951FA61FB71FA7019601281B84
:104FD000390B4A0B5B0BDA01C901B7FD13C00E9404
:104FE000BE5A6091E3057091E40586E995E00E9460
:104FF000C15A8AE00F94D31040E070E060E090E086
:1050000080E082DF8091150290911602A091170234
:10501000B0911802892B8A2B8B2B79F090911A0C66
:105020008091170C981709F452C0C092F105D092E4
:10503000F205E092F305F092F405809183039091DC
:105040008403909985C00196909384038093830391
:1050500080918303909184038E3E924064F00E947D
:10506000BE5A83E795E00E94AD5A40E070E060E0F0
:1050700090E080E049DF80917F0390918003A091D0
:105080008103B0918203A7019601281B390B4A0BBB
:105090005B0BDA01C901B7FD0FC00E9407C334E6FC
:1050A000C30ED11CE11CF11CC0927F03D09280037F
:1050B000E0928103F09282031F910F91FF90EF9095
:1050C000DF90CF90BF90AF909F908F900895112365
:1050D00019F010928503B1CF0E94E5190091F105F6
:1050E0001091F2052091F3053091F405809015029E
:1050F00090901602A0901702B0901802080D191D8A
:105100002A1D3B1D601B710B820B930B97FDE1CF9A
:1051100080918503811191CF81E0809385035F9A0F
:105120008091B1118E7F8093B1118A9A8091B111D3
:105130008D7F8093B111809108018095817080935B
:1051400006018091B1118B7F8093B11164DE75CF20
:10515000181619060CF07CCF019790938403809366
:10516000830376CFF5DE0E945BDA80918703882384
:1051700071F00E94EB6E0E94575A0F94CC120E945D
:10518000BE778091EB05811102C00C94A7E30895CE
:10519000CF92DF92EF92FF92CF93DF936B017C016E
:1051A000D42FC091EA0583E08093EA0581E08093E3
:1051B0008603C114D104E104F10431F00E94E51921
:1051C000C60ED71EE81EF91E80918603882381F043
:1051D000C114D104E104F10419F48D2FC3DFF4CF1D
:1051E0000E94E5196C197D098E099F0997FDF5CF7D
:1051F00010928603C093EA05DF91CF91FF90EF9064
:10520000DF90CF900895CF9360E970ED83E090E058
:105210000F9479100E94E5190E94BB5A8CE495E026
:105220000E94AD5A0F94AE0FB5DD0F94B20EC4B705
:10523000C0FF04C083E495E00E94AD5AC1FF04C0E2
:1052400082E395E00E94AD5AC2FF04C080E295E07F
:105250000E94AD5AC3FF04C08FE095E00E94AD5A92
:10526000C5FF04C08EEF94E00E94AD5A14BE82E5E3
:1052700096E00E94AD5A80E20F94D31080EF94E044
:105280000E94AD5A8AE00F94D3100E94BB5A84EB5F
:1052900094E00E94AD5A0E94BB5A8DE994E00E94AE
:1052A000AD5A0E94BB5A0F94AF0FBC018EE894E038
:1052B0000E94D35A60EB74E087E794E00E94D35ACF
:1052C0008AE00F94D3100E94A7770E9403B580E074
:1052D0000E94127A80918903811107C00F94750191
:1052E000882319F081E0809389032091A1113091E6
:1052F000A2114091A3115091A41160916D11709170
:105300006E1180916F11909170110F94561B6093E4
:10531000A1117093A2118093A3119093A4112091D5
:10532000711130917211409173115091741160910B
:10533000A5117091A6118091A7119091A8110F94B9
:10534000561B6093A5117093A6118093A71190939B
:10535000A8112091751130917611409177115091DB
:1053600078116091A9117091AA118091AB1190915F
:10537000AC110F94561B6093A9117093AA118093DE
:10538000AB119093AC110E9488E78AE591E10E94ED
:10539000A6D70F949D130F94B8010F945C0880E07A
:1053A0000F94CC010F94B30E81E080938703CF91CB
:1053B0000895C9EDD5E011E080E0D4DE0E94656E6D
:1053C0008091600886FF14C00E94AF690E94403B34
:1053D0000FDD0F9473130E94E7D870E060E080E067
:1053E0000E9468D310921102D0932E04C0932D0412
:1053F00080918703803139F483ED95E00E94453C2C
:105400008111109387030E94203F0F94CF01D4CFC6
:1054100088E893E00C941467CF930E940E56C82F2F
:1054200087FD0BC089E596E00E94AD5A8C2F0E9443
:10543000EBDD8AE0CF910D94D310CF910895809148
:10544000DF059091E005009731F04AE050E070E010
:1054500060E00D94502160E070E0CB010895CF92A0
:10546000DF92EF92FF92CF938091D8059091D9056A
:10547000A091DA05B091DB0522E1B695A795979545
:1054800087952A95D1F780FF08C0E091D005E111FA
:105490000AC01092E0051092DF05CF91FF90EF90C7
:1054A000DF90CF9008958091E3059091E405E80F97
:1054B000F92FF11D808190ED980F9A3030F08E32E7
:1054C00099F5818180538A3020F7F093E005E093CD
:1054D000DF05EF2B11F3B3DFC0E097FD0CC0AFDFAA
:1054E0006F3F71058105910509F024F4A8DFC62FEF
:1054F0006D3308F0CCE3C093D0100E94E5196B0126
:105500007C012C2F30E0A8EEB3E00F94BF1FC60E35
:10551000D71EE81EF91EC092CC10D092CD10E0929A
:10552000CE10F092CF10B9CF8D3219F08B3209F036
:10553000B0CF818190ED980F9A3038F28E3209F019
:10554000A8CF828180538A3008F4BFCFA2CF2FEB3F
:10555000280F2A3108F042C0E22FF0E08091D805F0
:105560009091D905A091DA05B091DB0504C0B695FC
:10557000A795979587952A95D2F780FD02C08170EF
:105580000895E254FA4FE081EE2329F18091E3057A
:105590009091E405E80FF92FF11D808190ED980FAF
:1055A0009A3030F08E3251F4818180538A3098F4F1
:1055B000F093E005E093DF0581E008958D3211F06E
:1055C0008B3249F4818190ED980F9A3088F38E32B6
:1055D00011F48281EACFF0E0E0E0EACF80E00895C4
:1055E000B6DF882341F081E02091DF053091E005AE
:1055F000232B09F480E008950F931F93CF9380919C
:10560000DF059091E005009709F1FC018F01C19140
:105610002C2F2F7DA1F0C53411F0C536B9F7F80154
:10562000108270E060E08091DF059091E0050F94BA
:10563000FB1FF801C083CF911F910F91089570E077
:1056400060E0CF911F910F910D94FB1F60E070E01F
:10565000CB01F1CFF4DE97FD0AC0F1DE6F3F71059B
:105660008105910509F02CF4EADE862F089580E08B
:1056700008958FEF08958091F50583FD37C00E944E
:105680000E5687FD33C089E4ABDF882339F1E2DFB2
:1056900090E01816190614F481E090E026E0289FA7
:1056A000F001299FF00D1124E857F54F60817181B9
:1056B00080914B0290914C020F97681779070CF478
:1056C000CB0190934C1180934B1180E00E947BD8CA
:1056D00061E080E00E9475DC0C94F4D283E580DF09
:1056E0008823D1F389DF0F949E1CE2CF08951F9386
:1056F000CF93DF938091F50583FD68C00E940E561D
:10570000182F87FD63C089E46BDF882309F450C03C
:10571000A1DF90E01816190614F481E090E026E06D
:10572000289FF001299FF00D1124E857F54F608163
:105730007181C0E080914B0290914C020F976817E5
:1057400079070CF4CB0190934C1180934B1180E0BE
:105750000E947BD861E081E00E9475DC60914B1172
:1057600070914C11072E000C880B990B0F94D11CD3
:1057700020914711309148114091491150914A119F
:105780000F94321E18161CF0DC2FC11104C0812F9B
:105790000E94E4E3D1E00E94F4D2DD23B9F06C2F43
:1057A000812FDF91CF911F910C940EE4C82FF3CF7E
:1057B00083E516DFC82F811105C082E511DFD82FE0
:1057C0008823A1F319DF0F949E1CB4CFDF91CF91F2
:1057D0001F9108958F929F92AF92BF92CF92DF92C6
:1057E000EF92FF920F931F93CF93DF9300D01F92FE
:1057F000CDB7DEB785E4F4DE10E0882311F01FDEBC
:10580000162F81E0810F8230A8F08CE596E00E948F
:10581000AD5A0F900F900F900F90DF91CF911F9185
:105820000F91FF90EF90DF90CF90BF90AF909F903F
:105830008F90089583E4D4DE25E0922E882311F022
:10584000FEDD962E85E5CCDE082F8823B1F0809111
:10585000DF059091E005892B99F0F1DD97FD0BC0F4
:10586000EEDD6F3F71058105910509F04CF4E7DD30
:1058700001E0611105C000E003C085E568DE082F86
:10588000C12CD12C9EE3E92E93E4F92E17FF06C01C
:10589000C12CD12C82E8E82E82E4F82E83E5A0DE2C
:1058A000882319F18091DF059091E005C12CD12C5E
:1058B00076010097D1F0FC015F018190282D2F7DAA
:1058C00091F125E4821619F025E68212F5CFF50153
:1058D000108270E060E08091DF059091E0050F9408
:1058E000FB1F6B017C01F501808260E086E896E099
:1058F0000E947879C701B6010F949E1C072E000CF8
:10590000880B990B0F94D11C69837A838B839C83BA
:10591000202F492D612FCE0101960E9452DE80E09A
:105920000E94127A76CF70E060E00F94FB1F6B014B
:105930007C01DBCF8091F50583FD2CC089E450DE2E
:10594000882321F187DE90E01816190614F481E00F
:1059500090E026E0289FF001299FF00D1124E857E0
:10596000F54F628173816C38710514F06CE870E05A
:1059700070932911609328110E94B1D861E080E0F2
:105980000C9475DC39DE0F949E1CEDCF83E528DE88
:105990008111F8CF0895CF938091F50583FD55C00F
:1059A00089E41EDE882309F443C054DE90E0181613
:1059B000190614F481E090E026E0289FF001299F69
:1059C000F00D1124E857F54F62817381C0E06C3807
:1059D000710514F06CE870E0709329116093281140
:1059E0000E94B1D860E081E00E9475DC60912811CE
:1059F00070912911072E000C880B990B0F94D11C64
:105A00002091241130912511409126115091271198
:105A10000F94321E18164CF083E996E060E00E9465
:105A2000D7798C2FCF910C9494E582EA96E0F6CF4B
:105A300083E5D6DDC82F811104C082E5D1DD88233E
:105A400021F0DADD0F949E1CC2CFCF910895CF9341
:105A5000DF9380E5C5DD811125C081E478DDCFEFDE
:105A6000D0E0882321F060914211C62FD0E089E474
:105A7000B7DD8823E9F0EEDD90E01816190614F47E
:105A800081E090E026E0289FF001299FF00D11248D
:105A9000E857F54FC481D581BE0180E0DF91CF91F9
:105AA0000C9468D3D7DD8823C1F2DF91CF9108959C
:105AB00083E596DD882381F3C2DCEB01EDCF80E541
:105AC0008FDD882329F0C6DD70E060E00C9468D398
:105AD00080E0FACF8091D8059091D905A091DA05A0
