:100000000C940F190C942D1C0C94581C0C94831CEC
:100010000C94AE1C0C94D91C0C94041D0C942F1D34
:100020000C945A1D0C943F190C943F190C943F19D1
:100030000C943F190C943F190C943F190C943F19E0
:100040000C943F190C946EFC0C943F190C943F19BE
:100050000C943F190C943F190C9496D70C944119A9
:100060000C943F190D94B2050D9470060C943F1931
:100070000C943F190C943F190C943F190C943F19A0
:100080000C943F190C943F190C943F190C943F1990
:100090000C943F190C943F190C943F190C943F1980
:1000A0000C943F190C943F190C943F190C943F1970
:1000B0000C943F190C943F190C943F190C943F1960
:1000C0000C943F190C943F190C943F190C943F1950
:1000D0000C943F190C943F190C943F190C943F1940
:1000E0000C943F19084AD73B3BCE016E84BCBFFD40
:1000F000C12F3D6C74319ABD56833DDA3D00C77FF8
:1001000011BED9E4BB4C3E916BAAAABE0000008090
:100110003F05A84CCDB2D44EB93836A9020C50B91F
:10012000918688083CA6AAAA2ABE000000803F004B
:100130000D941C060D94ED050D9436060D944106A4
:100140000D9449060D9455060D9452090D944D06D3
:100150000D9445060D943D060D942B064E414E49D7
:100160004E495459494E46CDCCCC3D0AD7233C1775
:10017000B7D13877CC2B329595E6241FB14F0A00C2
:100180000020410000C84200401C4620BCBE4CCAB2
:100190001B0E5AAEC59D7400407A10F35A00A0722F
:1001A0004E18090010A5D4E80000E87648170000B2
:1001B000E40B54020000CA9A3B000000E1F5050080
:1001C0000080969800000040420F000000A08601C9
:1001D000000000102700000000E803000000006499
:1001E00000000000000A0000000000010000000004
:1001F000002C76D888DC674F0823DFC1DFAE59E1D9
:10020000B1B796E5E3E453C63AE651997696E8E647
:10021000C28426EB898C9B62ED407C6FFCEFBC9C1A
:100220009F40F2BAA56FA5F490055A2AF75C936B2C
:100230006CF9676DC11BFCE0E40D47FEF520E6B5E7
:1002400000D0ED902E0300943577050080841E08C1
:100250000000204E0A000000C80C333333330F98DF
:100260006E12831141EF8D2114893BE65516CFFEA6
:10027000E6DB18D1844B381BF77C1D901DA4BBE432
:1002800024203284725E228100C9F124ECA1E53D74
:100290002700000A0B02090C0D0E080703040100D9
:1002A000000000000000000000000000000000004E
:1002B000000000000000000000000000001211100B
:1002C000000000000000000000000000000000002E
:1002D000000000000000000102102020080810208B
:1002E00040102040800201020108040201010204C2
:1002F0000810204080804020100804020180040281
:1003000001804020100804020108040201010204D7
:1003100008102040800102040810204080050505D7
:1003200005070508080808020202020A0A0808046C
:10033000040404010101010101010103030303039A
:10034000030303040707070C0C0C0C0C0C0C0C0229
:1003500002020206060606060606060B0B0B0B0B30
:100360000B0B0B000020002300260029002C002F7F
:100370000032000001000003010601090100002213
:1003800000250028002B002E00310034000201005F
:1003900000050108010B0100002100240027002AAC
:1003A000002D003000330001010000040107010AA4
:1003B000010A4D6561737572656420706F696E74B2
:1003C000733A0A00327832206D6573682E205A2005
:1003D0006F66667365743A200053656E64204D3114
:1003E000303820746F2068656174206E6F7A7A6C83
:1003F000650A0053656E64204D31303820746F20DB
:10040000726573756D650A00496E73657274206656
:10041000696C616D656E7420616E642073656E64D5
:10042000204D3130380A00486F74656E6420746F57
:100430006F20636F6C640A00496E73657274206686
:10044000696C616D656E7420616E642073656E64A5
:10045000204D3130380A00486F74656E6420746F27
:100460006F20636F6C640A004D3630303A20546F51
:100470006F20436F6C64002020506C616E6E65725B
:1004800042756666657242797465733A200020464B
:10049000726565204D656D6F72793A2000436F6D0E
:1004A00070696C65643A204A756C203136203230B0
:1004B00032300A00204C6173742055706461746599
:1004C000643A20323032302D30372D3135207C20C7
:1004D000417574686F723A20286E6F6E652C2064C7
:1004E000656661756C7420636F6E666967290A00C2
:1004F0006275676669782D322E302E780A00205397
:100500006F6674776172652052657365740A0020A6
:100510005761746368646F672052657365740A007D
:100520002042726F776E206F757420526573657408
:100530000A002045787465726E616C20526573659F
:10054000740A00506F77657255700A007374617297
:10055000740A005072696E7465722068616C74650B
:10056000642E206B696C6C28292063616C6C656457
:10057000210A002121204B494C4C20636175736591
:1005800064206279204B494C4C20627574746F6E04
:100590002F70696E0A002121204B494C4C20636169
:1005A0007573656420627920746F6F206D75636860
:1005B00020696E6163746976652074696D65202DAC
:1005C0002063757272656E7420636F6D6D616E6409
:1005D0003A20004D31303031004732385859005000
:1005E000726F7465637465642050696E0A003637F3
:1005F00026033C3D380E2E303E131A1C180AFF43CA
:1006000008090844000120453A00205A3A002059C0
:100610003A00204500205A0020590020580020426E
:1006200000583A002054004D3234004D323320251A
:1006300073004D323100473238004D313132205392
:10064000687574646F776E00004B494C4C45442EBE
:1006500020004D61726C696E006F6B005049442040
:100660004175746F74756E65206661696C6564218F
:1006700020426164206578747275646572206E75BD
:100680006D6265720A00504944204175746F74753B
:100690006E650042656420436F6F6C696E672E2E35
:1006A0002E004265642048656174696E672E2E2EA7
:1006B000004348414D4245525F54454D50455241DB
:1006C0005455524500424142595354455050494EA9
:1006D000470041524353004D4F54494F4E5F4D4FD9
:1006E00044455300544845524D414C5F50524F547D
:1006F000454354494F4E004C4F4E475F46494C4589
:100700004E414D45004155544F5245504F52545F54
:1007100053445F535441545553005344434152444E
:100720000050524F4D50545F535550504F5254004B
:10073000454D455247454E43595F504152534552EE
:1007400000434153455F4C494748545F4252494733
:1007500048544E45535300544F47474C455F4C490E
:100760004748545300534F4654574152455F504FEA
:10077000574552004255494C445F50455243454EFF
:1007800054004C4556454C494E475F444154410046
:100790005A5F50524F42450052554E4F55540041FA
:1007A00055544F4C4556454C005052494E545F4AA3
:1007B0004F420050524F4752455353004155544FFA
:1007C0005245504F52545F54454D5000564F4C5572
:1007D0004D455452494300454550524F4D00424902
:1007E0004E4152595F46494C455F5452414E534623
:1007F00045520053455249414C5F584F4E5F584F48
:100800004646004649524D574152455F4E414D457F
:100810003A4D61726C696E206275676669782D3237
:100820002E302E7820284A756C2031362032303216
:10083000302030383A32303A35382920534F55522B
:1008400043455F434F44455F55524C3A687474705A
:10085000733A2F2F6769746875622E636F6D2F4D21
:1008600061726C696E4669726D776172652F4D6158
:10087000726C696E2050524F544F434F4C5F564537
:100880005253494F4E3A312E30204D414348494E44
:10089000455F545950453A3344205072696E74652F
:1008A000722045585452554445525F434F554E545B
:1008B0003A3120555549443A636564653261326680
:1008C0002D343161322D343734382D396231322DA7
:1008D0006335356336326633363766660A00436100
:1008E000703A002F2F20004D3131332053005072C9
:1008F000696E742074696D653A200025697300255E
:10090000696D20256973002569682025696D20259A
:10091000697300256964202569682025696D202593
:100920006973002569792025696420256968202577
:10093000696D20256973004D65736820706F696E5D
:1009400074206F7574206F662072616E67650A008F
:100950004D34323120696E636F727265637420703A
:100960006172616D657465722075736167650A00F7
:10097000206F6620004D424C2047323920706F694D
:100980006E742000290A004A206F7574206F66205B
:1009900072616E67652028302D00290A0049206F9A
:1009A0007574206F662072616E67652028302D0097
:1009B0004D6573682070726F62696E6720646F6E38
:1009C000652E0A005374617274206D65736820701F
:1009D000726F62696E6720776974682022473239C6
:1009E000205331222066697273742E0A0047323810
:1009F0000A47323920533200686173206E6F2064D9
:100A00006174612E0A004D65736820426564204C54
:100A10006576656C696E67200053206F7574206F72
:100A2000662072616E67652028302D35292E0A00F8
:100A3000206E6F7420656E74657265642E0A004DB9
:100A400065736820706F696E74206F7574206F66AF
:100A50002072616E67650A004F46460A004661646F
:100A600065204865696768742000426564204C65AC
:100A700076656C696E6720004661696C65642074F8
:100A80006F20656E61626C6520426564204C6576FE
:100A9000656C696E670A004D657368204265642065
:100AA0004C6576656C20646174613A0A00496E7623
:100AB000616C6964206D6573682E0A00446F6E6511
:100AC00020736176696E672066696C652E0A005333
:100AD000442072656164206572726F720A00507200
:100AE000696E7465722073746F70706564206475CC
:100AF0006520746F206572726F72732E204669785C
:100B000020746865206572726F7220616E64207552
:100B10007365204D39393920746F207265737461A3
:100B200072742E202854656D7065726174757265DB
:100B30002069732072657365742E20536574206973
:100B40007420616674657220726573746172746971
:100B50006E67290A004E6F20436865636B73756D7D
:100B60002077697468206C696E65206E756D6265AA
:100B7000722C204C617374204C696E653A20004ED3
:100B80006F20436865636B73756D207769746820A7
:100B90006C696E65206E756D6265722C204C617398
:100BA00074204C696E653A2000636865636B7375E9
:100BB0006D206D69736D617463682C204C61737472
:100BC000204C696E653A20004C696E65204E756D4B
:100BD000626572206973206E6F74204C617374209B
:100BE0004C696E65204E756D6265722B312C204C00
:100BF000617374204C696E653A20004D31313000CC
:100C00004D323900526573656E643A20006F6B0097
:100C1000220A00656E7175657565696E6720220030
:100C200053544F505045442E2000454550524F4D8F
:100C3000204F4B0A0020643A0020693A0020703AA5
:100C400000204D393220580020466C6F773A200042
:100C5000496E76616C69642065787472756465723A
:100C60000A0020643A0020693A0020703A004329C3
:100C70000A0061626C656420286D696E2074656D80
:100C800070200064697300656E00436F6C642065BA
:100C900078747275646573206172652000574152E3
:100CA0004E494E4721204C6F77205A204A65726B7F
:100CB000206D6179206C65616420746F20756E779A
:100CC000616E746564207061757365732E0A00200F
:100CD0005200416363656C65726174696F6E3A209E
:100CE000500046523A004572723A20546F6F2066A7
:100CF00061722100546F6F206661722066726F6DA1
:100D0000207265666572656E636520706F696E74CA
:100D10000A00FFFF010000000000000000AE474194
:100D2000434F666673657473204170706C696564C7
:100D3000004E6F204D6F76652E0020204D61783A71
:100D40002000200020204D696E3A2000536F667409
:100D500020656E6473746F70733A20006F6666006E
:100D600044454255473A00920D8D0D860D7F0D7119
:100D70000D434F4D4D554E49434154494F4E00444C
:100D8000525952554E004552524F525300494E4609
:100D90004F004543484F00496E76616C69642050AE
:100DA000696E204D6F64650A003344205072696E8D
:100DB000746572204F46462E004D383400446F6EE5
:100DC00065207072696E74696E672066696C650A69
:100DD000004D3737004D333100456E642066696C35
:100DE00065206C6973740A00426567696E206669E4
:100DF0006C65206C6973740A0043757272656E7459
:100E00002066696C653A2000220A00556E6B6E6F91
:100E1000776E20636F6D6D616E643A2022004D31F4
:100E2000343520533C696E6465783E206F757420BC
:100E30006F662072616E67652028302D31290A00A7
:100E4000436C69636B20746F20526573756D652EFA
:100E50002E2E0047322F473320626164207061726A
:100E6000616D65746572730A00536C6565702E2E32
:100E70002E00627573793A2070617573656420661F
:100E80006F7220696E7075740A00627573793A200A
:100E900070617573656420666F7220757365720A80
:100EA00000627573793A2070726F63657373696E4F
:100EB000670A0020496E76616C69642065787472F7
:100EC0007564657220004F4646004F4E00656368AA
:100ED0006F3A004572726F723A007C3C3E5E2B3D69
:100EE0003F2F5B5D3B2C2A225C0043616E6E6F746A
:100EF00020656E746572207375626469723A2000B1
:100F00002E0A006F70656E206661696C65642C2026
:100F100046696C653A20006175746F25632E670021
:100F20006572726F722077726974696E6720746F70
:100F30002066696C650A004E6F74205344207072FD
:100F4000696E74696E670A005344207072696E742A
:100F5000696E67206279746520002E0A0044656C12
:100F60006574696F6E206661696C65642C204669E2
:100F70006C653A200046696C652064656C65746533
:100F8000643A0057726974696E6720746F206669ED
:100F90006C653A200046696C652073656C65637406
:100FA00065640A002053697A653A200046696C65D9
:100FB000206F70656E65643A2000454E442053559D
:100FC00042524F5554494E450A002220706F73001B
:100FD0002220706172656E743A2200535542524F5E
:100FE0005554494E452043414C4C2074617267650D
:100FF000743A22004578636565646564206D6178A4
:1010000020535542524F5554494E452064657074E3
:10101000683A310A002066696C653A20006672659C
:10102000736800646F696E67004E6F7720002E0A48
:10103000006F70656E206661696C65642C2046697E
:101040006C653A200053442063617264206F6B0A20
:10105000006F70656E526F6F74206661696C6564B5
:101060000A00766F6C756D652E696E697420666115
:10107000696C65640A004E6F20534420636172649A
:101080000A00286E6F2066696C65290043616E6EE8
:101090006F74206F70656E207375626469722000D2
:1010A00053756263616C6C204F766572666C6F7706
:1010B000003F004D32350025533A20255300C6101D
:1010C000C21041425300504C41005072696E74206E
:1010D00041626F72746564005072696E74696E6704
:1010E0002E2E2E005072696E7420506175736564E7
:1010F0000050617573696E672E2E2E0049676E6F02
:10110000726500526573657400454550524F4D201D
:1011100056657273696F6E204572726F7200454535
:1011200050524F4D20496E646578204572726F723F
:1011300000454550524F4D20435243204572726F37
:101140007200496E697469616C697A652045455021
:10115000524F4D004D656469612052656D6F766533
:1011600064004D6564696120496E736572746564DD
:10117000003344205072696E746572205265616458
:10118000792E0054656D70657261747572650046E4
:10119000616E20537065656400426564004E6F7A2D
:1011A0007A6C6500436F6F6C646F776E0050726588
:1011B000686561742024204265640050726568652A
:1011C0006174202420456E64005072656865617406
:1011D0002024004D61696E004D3834004732385A82
:1011E00000473238590047323858004D6F74696FE4
:1011F0006E004F6666004F6E004D6F766520313091
:101200006D6D004D6F766520316D6D004D6F7665AB
:1012100020302E316D6D004D6F76652025736D6D1C
:1012200000486F74656E6420746F6F20636F6C6428
:10123000004578747275646572004D6F7665205A4A
:10124000004D6F76652059004D6F7665205800423D
:101250006564204C6576656C696E67004D6F7665D8
:10126000204178697300486F6D65205A00486F6DA2
:1012700065205900486F6D652058004175746F20D6
:10128000486F6D650044697361626C6520537465D5
:101290007070657273004D61696E00536F667420E3
:1012A000456E6473746F707300052E2E003F0050FE
:1012B00072696E742066726F6D204D65646961009D
:1012C00043616E63656C005072696E7400537461A3
:1012D0007274205072696E74004D61696E004732FD
:1012E0003920533100473239205332002569202FED
:1012F00020257500473239205332004C6F6164203D
:1013000053657474696E67730053746F726520530C
:10131000657474696E6773004D6F74696F6E004F0A
:101320006666004F6E00426564205A004D6F766518
:10133000205A005A2056616C756500496E646578C4
:10134000205900496E64657820580045646974200E
:101350004D657368004C6576656C2042656400429B
:101360006564204C6576656C696E670046616465EE
:1013700020486569676874004C6576656C696E67BE
:1013800020446F6E6521004E65787420506F696E41
:101390007400436C69636B20746F20426567696EEB
:1013A00000526573746F72652044656661756C7474
:1013B00073004C6F61642053657474696E677300C9
:1013C00053746F72652053657474696E6773004659
:1013D000616E20537065656400426564004E6F7AEB
:1013E0007A6C650050726568656174202420436FD3
:1013F0006E6600436F6E66696775726174696F6EC1
:1014000000416476616E6365642053657474696E2F
:101410006773004D61696E00466C6F770046616EC0
:1014200020537065656400426564004E6F7A7A6C83
:101430006500426564205A005370656564004D6123
:10144000696E004D36303020423020542564004D06
:10145000373032203B2564004D373032205425642C
:10146000004D37303120542564005761697420667F
:101470006F72207072696E7400746F20726573757C
:101480006D652E2E2E00005761697420666F720004
:1014900066696C616D656E742070757267650000B9
:1014A0005761697420666F720066696C616D656E64
:1014B00074206C6F616400005761697420666F72FC
:1014C0000066696C616D656E7420756E6C6F616429
:1014D00000004E6F7A7A6C652068656174696E678A
:1014E00000506C6561736520776169742E2E2E0043
:1014F00000507265737320627574746F6E00746F40
:101500002068656174206E6F7A7A6C650000496EA0
:10151000736572742066696C616D656E7400616ECE
:101520006420707265737320627574746F6E0074DA
:101530006F20636F6E74696E756500576169742002
:10154000666F720066696C616D656E7420636861B8
:101550006E676500746F20737461727400506172FD
:101560006B696E672E2E2E0000005072657373201B
:10157000427574746F6E00746F20726573756D655B
:10158000207072696E74000020204E6F7A7A6C654C
:101590003A2000436F6E74696E756500507572670E
:1015A00065206D6F726500524553554D45204F5073
:1015B00054494F4E533A00554E4C4F4144204649F2
:1015C0004C414D454E54004C4F41442046494C41FE
:1015D0004D454E54005052494E54205041555345AC
:1015E000440046494C414D454E54204348414E47E6
:1015F0004500556E6C6F61642046696C616D656E67
:1016000074004C6F61642046696C616D656E740096
:101610004368616E67652046696C616D656E740034
:101620005072656865617420437573746F6D005006
:101630007265686561742024004261636B004D6FC0
:1016400076696E672E2E2E00486F6D696E67205882
:10165000595A004D363030204230003F0043686117
:101660006E6765204D65646961004368616E6765FA
:101670002046696C616D656E74004E6F204D656427
:101680006961005072696E742066726F6D204D65DD
:101690006469610053746F70205072696E740052F7
:1016A0006573756D65205072696E74005061757355
:1016B00065205072696E740053746F700054756EBB
:1016C0006500496E666F2053637265656E004D6FED
:1016D00074696F6E0054656D7065726174757265C2
:1016E00000436F6E66696775726174696F6E004260
:1016F00061636B003F004D343238004D333033208E
:10170000553120452569205325690043616E636585
:101710006C00496E697400496E697469616C697A1C
:101720006520454550524F4D004C6F6164206D6DF2
:1017300000556E6C6F6164206D6D0046696C2E20E3
:101740004469612E004520696E206D6DC2B300466C
:10175000696C616D656E740054656D70657261745D
:1017600075726500452073746570732F6D6D005A36
:101770002053746570732F6D6D005920537465701C
:10178000732F6D6D00582053746570732F6D6D004D
:1017900053746570732F6D6D00412D5472617665C1
:1017A0006C00412D5265747261637400416D617803
:1017B000204500416D6178205A00416D61782059C3
:1017C00000416D6178205800416363656C6572610A
:1017D00074696F6E005654726176204D696E0056C2
:1017E0006D696E00566D6178204500566D617820F8
:1017F0005A00566D6178205900566D617820580066
:1018000056656C6F636974790056652D4A65726B15
:1018100000565A2D4A65726B0056592D4A65726BF7
:101820000056582D4A65726B004A65726B00416321
:1018300063656C00504944204175746F74756E6522
:10184000202A004F6666004F6E004175746F746504
:101850006D700020022046616374002002204D61FB
:1018600078002002204D696E0053657420486F6D2A
:1018700065204F66667365747300436F6E666967B3
:1018800075726174696F6E00416476616E63656440
:101890002053657474696E677300A10000006900CD
:1018A000A20000006300B00000000900C1000000B9
:1018B0004100C20000004100C30000004100C4001C
:1018C00000004100C50000004100C6000000414585
:1018D000C70000004300C80000004500C900000028
:1018E0004500CD0000004900D10000004E00D500A9
:1018F00000004F00D60000004F00D7000000780025
:10190000DC0000005500DD0000005900E000000090
:101910006100E10000006100E20000006100E300FE
:1019200000006100E40000006100E50000006100CB
:10193000E60000006165E70000006300E8000000C9
:101940006500E90000006500EA0000006500EB00AA
:1019500000006500EC0000006900ED000000690077
:10196000EE0000006900EF0000006900F1000000D7
:101970006E00F20000006F00F30000006F00F40042
:1019800000006F00F50000006F00F60000006F001F
:10199000F80000006F00F90000007500FA00000078
:1019A0007500FB0000007500FC0000007500FD00E4
:1019B00000007900FF0000007900040100004100F0
:1019C000050100006100060100004300070100005E
:1019D00063000C01000043000D01000063000E01D4
:1019E000000044000F0100006400110100006400C9
:1019F0001901000065001A01000045001B010000EC
:101A000065001F010000670030010000490031013E
:101A100000006900410100004C00420100006C0020
:101A2000430100004E00440100006E004801000028
:101A30006E005801000052005901000072005A0166
:101A4000000053005B01000073005F0100007300A1
:101A50006001000053006101000073006501000097
:101A600074006F01000075007C0100007A007D01A8
:101A700000005A007E0100007A009201000066001A
:101A8000E30200007800222000002E001E2100004A
:101A9000507822210000544D902100003C2D9221CD
:101AA00000002D3EB02100000300BB210000040017
:101AB0003C2200007E00482200007E3D60220000A3
:101AC000213D612200003D00642200003C3D652272
:101AD00000003E3DF12300000700A03000003D0063
:101AE00021F301000200C2F401000500A200000081
:101AF000EC00B0000000DF00E4000000E100F600B0
:101B00000000EF00F7000000FD00FC000000F50001
:101B1000E3020000EB0087030000A5008F03000034
:101B2000F40098030000F2009E030000E300A3030A
:101B30000000F600A9030000F400AC030000E00080
:101B4000AD030000E300B1030000E000B2030000B9
:101B5000E200B5030000E300B8030000F200BC039C
:101B60000000E400BE030000E300C0030000F70033
:101B7000C1030000E600C3030000E500902100005F
:101B80007F00922100007E001A220000E8001E2241
:101B90000000F30088250000FF0002300000A100D3
:101BA0000C300000A2000D300000A3009B300000AC
:101BB000DE009C300000DF00A03000003D00A130BE
:101BC0000000A700A2300000B100A3300000A80070
:101BD000A4300000B200A5300000A900A63000002B
:101BE000B300A7300000AA00A8300000B400A9305C
:101BF0000000AB00AA300000B500AB300000B6001A
:101C0000AC300000B6DEAD300000B700AE300000F2
:101C1000B7DEAF300000B800B0300000B8DEB13041
:101C20000000B900B2300000B9DEB3300000BA00E5
:101C3000B4300000BADEB5300000BB00B6300000A2
:101C4000BBDEB7300000BC00B8300000BCDEB930ED
:101C50000000BD00BA300000BDDEBB300000BE0099
:101C6000BC300000BEDEBD300000BF00BE30000052
:101C7000BFDEBF300000C000C0300000C0DEC13099
:101C80000000C100C2300000C1DEC3300000AF0060
:101C9000C4300000C200C5300000C2DEC630000003
:101CA000C300C7300000C3DEC8300000C400C93024
:101CB0000000C4DECA300000C500CB300000C60002
:101CC000CC300000C700CD300000C800CE3000008E
:101CD000C900CF300000CA00D0300000CADED130C9
:101CE0000000CADFD2300000CB00D3300000CBDED2
:101CF000D4300000CBDFD5300000CC00D63000005F
:101D0000CCDED7300000CCDFD8300000CD00D93099
:101D10000000CDDEDA300000CDDFDB300000CE0089
:101D2000DC300000CEDEDD300000CEDFDE30000033
:101D3000CF00DF300000D000E0300000D100E13003
:101D40000000D200E2300000D300E3300000AC001D
:101D5000E4300000D400E5300000AD00E6300000C3
:101D6000D500E7300000AE00E8300000D600E930D2
:101D70000000D700EA300000D800EB300000D900A6
:101D8000EC300000DA00ED300000DB00EF30000046
:101D9000DC00F2300000A600F3300000DD00F4307B
:101DA0000000B3DEF7300000DCDEFA300000A6DE13
:101DB000FB300000A500FC300000B000FD3000004A
:101DC000A400074E0000FB0086510000FC004353B6
:101DD0000000FA0064FF0000A40065FF0000A500F9
:101DE00066FF0000A60067FF0000A70068FF000074
:101DF000A80069FF0000A9006AFF0000AA006BFFAD
:101E00000000AB006CFF0000AC006DFF0000AD00F7
:101E10006EFF0000AE006FFF0000AF0070FF00001B
:101E2000B00071FF0000B10072FF0000B20073FF4C
:101E30000000B30074FF0000B40075FF0000B5009F
:101E400076FF0000B60077FF0000B70078FF0000C3
:101E5000B80079FF0000B9007AFF0000BA007BFFEC
:101E60000000BB007CFF0000BC007DFF0000BD0047
:101E70007EFF0000BE007FFF0000BF0080FF00006B
:101E8000C00081FF0000C10082FF0000C20083FF8C
:101E90000000C30084FF0000C40085FF0000C500EF
:101EA00086FF0000C60087FF0000C70088FF000013
:101EB000C80089FF0000C9008AFF0000CA008BFF2C
:101EC0000000CB008CFF0000CC008DFF0000CD0097
:101ED0008EFF0000CE008FFF0000CF0090FF0000BB
:101EE000D00091FF0000D10092FF0000D20093FFCC
:101EF0000000D30094FF0000D40095FF0000D5003F
:101F000096FF0000D60097FF0000D70098FF000062
:101F1000D80099FF0000D9009AFF0000DA009BFF6B
:101F20000000DB009CFF0000DC009DFF0000DD00E6
:101F30009EFF0000DE009FFF0000DF00E5FF0000C5
:101F40005C002D2D2D005344002020202000202057
:101F5000202020202000687474703A2F2F6D617249
:101F60006C696E66772E6F726700687474703A2FB2
:101F70002F6D61726C696E66772E6F726700687480
:101F800074703A2F2F6D61726C696E66772E6F7266
:101F900067006275676669782D322E302E78006290
:101FA00075676669782D322E302E78006275676607
:101FB00069782D322E302E7800687474703A2F2F85
:101FC0006D61726C696E66772E6F726700687474EB
:101FD000703A2F2F6D61726C696E66772E6F726723
:101FE00000687474703A2F2F6D61726C696E667739
:101FF0002E6F726700206275676669782D322E3009
:102000002E78002D2D2D2D2D2D007C4D61726C69AB
:102010006E7C002D2D2D2D2D2D00001C1F11111F4C
:1020200000000006191803130C00000E1315110E02
:1020300000001C10181705060500040E1F041C00E4
:102040000000040A0A0A0A11110E0C12120C0000F8
:102050000000001F1511151F000000000000010204
:1020600004040000001C1C0C040404020100000015
:10207000000004081000000000002568753A2530B3
:102080003268750025303268753A2530326875003F
:10209000506C6561736520526573657400505249D8
:1020A0004E5445522048414C54454400456E636CA3
:1020B0006F73757265004265640020746F6F206CE9
:1020C0006F6E6720657874727573696F6E207072B9
:1020D0006576656E7465640A0020636F6C642065C4
:1020E0007874727573696F6E2070726576656E7440
:1020F00065640A000A53746174733A2046696C611E
:102100006D656E7420757365643A20002C204C6FE9
:102110006E67657374206A6F623A2000546F746151
:102120006C2074696D653A200053746174733A20B1
:10213000002C204661696C65643A20002C204669B9
:102140006E69736865643A20005072696E74733A00
:10215000200053746174733A200020573A002057CE
:102160003A0045202553002042403A0020403A00E2
:10217000202F00202D20496E76616C6964206578DF
:10218000747275646572206E756D62657220210AC5
:10219000004D494E54454D50207472696767657211
:1021A0006564004D415854454D502074726967670D
:1021B0006572656400626564002C207379737465D0
:1021C0006D2073746F70706564212048656174655B
:1021D000725F49443A20004531004B6420004B694E
:1021E00020004B7020006265640050494420417516
:1021F000746F74756E652066696E697368656421B5
:102200002050757420746865206C617374204B7065
:102210002C204B6920616E64204B6420636F6E73C9
:1022200074616E74732066726F6D2062656C6F7777
:1022300020696E746F20436F6E6669677572617492
:10224000696F6E2E680A00504944204175746F749E
:10225000756E65206661696C6564212074696D65C1
:102260006F75740A00504944204175746F74756E1F
:1022700065206661696C6564212054656D706572C6
:10228000617475726520746F6F20686967680A00F1
:10229000204B643A2000204B693A2000204B703AD2
:1022A00020000A20436C6173736963205049442005
:1022B0000A00204B643A2000204B693A2000204B52
:1022C000703A20000A204E6F206F76657273686F37
:1022D0006F740A002054753A2000204B753A200094
:1022E000206D61783A2000206D696E3A20002064EC
:1022F0003A200020626961733A200050494420412D
:1023000075746F74756E652073746172740A005011
:102310004944204175746F74756E65206661696CFF
:102320006564212054656D706572617475726520F5
:10233000746F6F20686967680A0023646566696E58
:10234000652044454641554C545F004865617469B9
:102350006E67206661696C656400546865726D61C2
:102360006C2052756E617761790070012C019001CB
:102370002701B0012201C0011D01F0011801100266
:10238000130130020E016002090190020401C00233
:10239000FF000003FA004003F5008003F000D003C3
:1023A000EB002004E6007004E100E004DC004005DE
:1023B000D700C005D2004006CD00D006C800800777
:1023C000C3003008BE00F008B900C009B400B00A6C
:1023D000AF00B00BAA00D00CA500000EA000500F5B
:1023E0009B00C01096005012910000148C00C01584
:1023F0008700B0178200B0197D00D01B7800001E46
:10240000730040206E0090226900F0246400402791
:102410005F0090295A00E02B5500102E500020300C
:102420004B0010324600E033410090353C0010373D
:10243000370070383200A0392D00B03A2800A03B98
:102440002300603C1E00103D1900903D1400103E1A
:102450000F00703E0A00C03E0500003F0000403FF4
:10246000FBFF803FF6FFC03FF1FF436F6F6C696E6B
:10247000672E2E2E0048656174696E672E2E2E0021
:102480004572723A204D494E54454D500045727286
:102490003A204D415854454D5000544845524D4105
:1024A0004C2052554E415741590048656174696E40
:1024B00067204661696C656400426564005761721B
:1024C0006E696E673A20486F6D696E672042756D60
:1024D000702044697669736F72203C20310A0002D3
:1024E000020420746F6F206C6F6E672065787472C1
:1024F0007573696F6E2070726576656E7465640AB7
:102500000020636F6C6420657874727573696F6EF8
:102510002070726576656E7465640A00000048423A
:1025200000004842ABAABA400000A0400000A04012
:10253000000000400000B4420000A042AE4741430A
:102540000000B4420000A042AE474143000000003A
:102550000000000000000000486F6D652025732515
:1025600073257320466972737400496E76616C69D5
:10257000642065787472756465720A002055004C99
:102580000046696C616D656E74206C6F61642F75B7
:102590006E6C6F6164206C656E677468733A0020BE
:1025A000440020490020204D333034205000204486
:1025B0000020490020204D33303120500050494444
:1025C0002073657474696E67733A00204600204872
:1025D0000020204D3134352053004D6174657269FF
:1025E000616C2068656174757020706172616D65E1
:1025F000746572733A002020473239205334205AD0
:1026000000204A002020473239205333204900203F
:10261000204D3432302053004D657368204265648C
:10262000204C6576656C696E673A0020204D32302B
:1026300036205800486F6D65206F66667365743A82
:102640000020530020204D32303520420041647676
:10265000616E6365643A20423C6D696E5F736567C5
:102660006D656E745F74696D655F75733E20533C74
:102670006D696E5F66656564726174653E20543C89
:102680006D696E5F74726176656C5F6665656472B4
:102690006174653E20583C6D61785F785F6A657251
:1026A0006B3E20593C6D61785F795F6A65726B3E65
:1026B000205A3C6D61785F7A5F6A65726B3E204597
:1026C0003C6D61785F655F6A65726B3E0020520009
:1026D00020204D323034205000416363656C6572B8
:1026E0006174696F6E2028756E6974732F73322957
:1026F0003A20503C7072696E745F616363656C3E32
:1027000020523C726574726163745F616363656CCF
:102710003E20543C74726176656C5F616363656CE6
:102720003E0020204D3230312058004D6178696DD7
:10273000756D20416363656C65726174696F6E20AD
:1027400028756E6974732F7332293A0020204D3238
:1027500030332058004D6178696D756D2066656570
:102760006472617465732028756E6974732F7329A0
:102770003A0053746570732070657220756E6974C9
:102780003A0020440020204D3230302053002044B5
:10279000697361626C65640A0046696C616D656E9F
:1027A000742073657474696E67733A0020204D312C
:1027B00034392043203B20556E69747320696E20A4
:1027C00043656C736975730A0020204732312020FD
:1027D00020203B20556E69747320696E206D6D005A
:1027E00020286D6D290020204D36303320003B20FD
:1027F0000048617264636F64656420446566617556
:102800006C742053657474696E6773204C6F6164D7
:1028100065640A00290A002062797465733B2063AD
:10282000726320002073746F726564207365747422
:10283000696E6773207265747269657665642028B5
:1028400000202863616C63756C6174656429210ADA
:102850000020213D2000454550524F4D204352431A
:10286000206D69736D61746368202D202873746F07
:102870007265642920002053697A653A2000496E08
:102880006465783A2000204D61726C696E3D56385F
:1028900031290A00454550524F4D207665727369C3
:1028A0006F6E206D69736D617463682028454550B3
:1028B000524F4D3D004E6F20454550524F4D2E0A10
:1028C00000290A002062797465733B2063726320DB
:1028D0000053657474696E67732053746F72656416
:1028E0002028004E6F20454550524F4D2E0A00457E
:1028F0004550524F4D206461746173697A6520655B
:1029000072726F722E0A000000FA430000FA430050
:102910000010410000C8410000A0420000A042CDCC
:102920000CC643CDCCC5422003000020030000C8E4
:102930000000002003000053657474696E67732003
:1029400053746F726564007A5F6D617800795F6DB2
:10295000696E00785F6D696E005265706F727469A0
:102960006E6720656E6473746F7020737461747524
:10297000730A006F70656E005452494747455245CF
:1029800044003A2000255320256320256320256339
:1029900020256300205A3A0020593A0020583A0076
:1029A000656E6473746F7073206869743A200048B0
:1029B0006F6D696E67204661696C656400456E6481
:1029C00073746F70730020436F756E7420583A00F3
:1029D000043700001E290000511B000058100000A1
:1029E00010090000CC040000780200004101000042
:1029F00024F4D43050C38E20C2A24017828B7011B1
:102A0000127A910D816CD90AA861E108C75866074E
:102A1000615143061E4B5D05C145A7041A411104CF
:102A2000093D9803713931034036DB026533910269
:102A3000D4305402802E1D02632CEE01752AC5018C
:102A4000B028A001102781018F2564012B244B01A0
:102A5000E0223401AC211F018D200D01801FFC00FC
:102A6000841EED00971DDF00B81CD200E61BC600D7
:102A7000201BBC00641AB200B219A8000A19A000F9
:102A80006A189900D117910040178B00B516840081
:102A900031167E00B31579003A157300C7146F0024
:102AA00058146A00EE1366008813630025135E0055
:102AB000C7125B006C12570015125400C11151006F
:102AC00070114F0021114B00D61049008D104700A6
:102AD0004610440002104200C00F4000800F3E002C
:102AE000420F3C00060F3B00CB0E3800930E370020
:102AF0005C0E3500270E3400F30D3200C10D31009D
:102B0000900D3000600D2E00320D2D00050D2C00B3
:102B1000D90C2B00AE0C2900850C29005C0C270079
:102B2000350C27000E0C2600E80B2400C40B2400F3
:102B3000A00B23007D0B23005A0B2100390B210031
:102B4000180B2000F80A1F00D90A1E00BB0A1E003D
:102B50009D0A1D00800A1D00630A1C00470A1B0015
:102B60002C0A1B00110A1A00F7091A00DD091900C6
:102B7000C4091900AB091900920917007B09180054
:102B8000630917004C0916003609160020091600C3
:102B90000A091500F5081500E0081400CC08140017
:102BA000B8081400A4081400900813007D0812004F
:102BB0006B08130058081200460812003408110070
:102BC000230811001208110001081100F00710007D
:102BD000E0071000D0071000C0071000B0070F007A
:102BE000A107100091070E0083070F0074070F0064
:102BF00065070E0057070E0049070E003B070D0042
:102C00002E070E0020070D0013070D0006070D000C
:102C1000F9060C00ED060D00E0060C00D4060C00D1
:102C2000C8060C00BC060C00B0060C00A4060B0085
:102C300099060C008D060B0082060B0077060B0030
:102C40006C060B0061060A0057060B004C060A00D2
:102C500042060A0038060A002E060A0024060A0068
:102C60001A060A001006090007060A00FD050900F9
:102C7000F4050900EB050900E2050900D905090082
:102C8000D0050900C7050900BE050900B505080003
:102C9000AD050800A50509009C050800940508007D
:102CA0008C050800840508007C05080074050800F0
:102CB0006C050700650508005D050700560508005E
:102CC0004E050700470507004005080038050700C6
:102CD000310507002A050700230507001C0506002B
:102CE000160507000F050700080506000205070086
:102CF000FB040600F5040700EE040600E8040600E5
:102D0000E2040700DB040600D5040600CF04060039
:102D1000C9040600C3040600BD040600B70406008B
:102D2000B1040500AC040600A6040600A0040500DA
:102D30009B04060095040500900406008A04050023
:102D400085040500800406007A040500750405006A
:102D5000700405006B0405006604050061040500AD
:102D60005C04050057040500520405004D040500ED
:102D700048040500430405003E0404003A0405002D
:102D800035040500300404002C0405002704040069
:102D9000230405001E0404001A04040016040500A0
:102DA000110404000D0404000904050004040400D7
:102DB00000040400FC030400F8030400F40304000E
:102DC000F0030400EC030400E8030400E40304003F
:102DD000E0030400DC030400D8030400D40304006F
:102DE000D0030400CC030400C8030300C5030300A0
:102DF00024F404D9201BC40C5C0E9804C4095F029F
:102E000065077101F405F900FB04B300480487006D
:102E1000C10369005803550003034500BE023A0090
:102E20008402310053022A002902250004022000F6
:102E3000E4011C00C8011900AF011700980114003B
:102E400084011300710110006101100051010E0096
:102E500043010D0036010B002B010B0020010B007C
:102E6000150109000C01090003010800FB0008001E
:102E7000F3000800EB000700E4000600DE00060097
:102E8000D8000600D2000600CC000500C7000500EF
:102E9000C2000500BD000400B9000400B500040034
:102EA000B1000400AD000400A9000400A500030067
:102EB000A20003009F0004009B0003009800030091
:102EC0009500020093000300900003008D000200B3
:102ED0008B000300880002008600020084000300CB
:102EE000810002007F0002007D0002007B000200E2
:102EF00079000200770001007600020074000200F1
:102F000072000100710002006F0002006D000100FC
:102F10006C0002006A000100690002006700010005
:102F2000660001006500010064000200620001000B
:102F300061000100600001005F0002005D0001000F
:102F40005C0001005B0001005A0001005900010013
:102F50005800010057000100560001005500010013
:102F60005400010053000000530001005200010012
:102F700051000100500001004F0001004E00000010
:102F80004E0001004D0001004C0001004B0000000C
:102F90004B0001004A000100490001004800000008
:102FA0004800010047000100460000004600010003
:102FB00045000000450001004400010043000000FE
:102FC00043000100420000004200010041000000F7
:102FD00041000100400001003F0000003F000100EF
:102FE0003E0000003E0001003D0000003D000100E9
:102FF0003C0000003C0000003C0001003B000000E1
:103000003B0001003A0000003A00010039000000D6
:1030100039000100380000003800000038000100CD
:1030200037000000370001003600000036000000C5
:1030300036000100350000003500000035000100B9
:1030400034000000340000003400010033000000B0
:1030500033000000330001003200000032000000A5
:103060003200010031000000310000003100010099
:103070003000000030000000300001002F00000090
:103080002F0000002F0000002F0001002E00000084
:103090002E0000002E0001002D0000002D00000079
:1030A0002D0000002D0001002C0000002C0000006D
:1030B0002C0000002C0001002B0000002B00000061
:1030C0002B0000002B0001002A0000002A00000055
:1030D0002A0000002A000100290000002900000049
:1030E000290000002900000029000100280000003C
:1030F000280000002800000028000000280001002F
:103100002700000027000000270000002700000023
:103110002700010026000000260000002600000015
:103120002600000026000100250000002500000008
:1031300025000000250000002500000025000100FA
:1031400024000000240000002400000024000000EF
:1031500024000100230000002300000023000000E1
:1031600023000000230000002300000023000100D2
:1031700022000000220000002200000022000000C7
:1031800022000000220001002100000021000000B8
:1031900021000000210000002100000021000000AB
:1031A000210001002000000020000000200000009D
:1031B000200000002000000020000000200000008F
:1031C000200001001F0000001F0000001F00000081
:1031D0001F0000001F0000001F0000001F00010072
:1031E0001E0000001E0000001E0000001E00000067
:1031F0004572726F722077726974696E6720746F9E
:1032000020454550524F4D210A00C121C421B1290A
:10321000B43BBB6B3B7758B483CBA400D86B112471
:103220001FBECFEFD1E2DEBFCDBF00E00CBF13E089
:10323000A0E0B2E0E0EEFEE302E00BBF02C00790C8
:103240000D92A233B107D9F722E1A2E3B3E001C0A6
:103250001D92A23FB207E1F719E1CEE0D9E100E00B
:1032600006C021970109802FFE010F944E15C5302D
:10327000D10780E00807A9F7FCD50D945E1F0C94D8
:1032800000001F920F920FB60F9211242F933F93BD
:103290008F939F93AF93BF938091330390913403A7
:1032A000A0913503B09136033091320323E0230F10
:1032B0002D3758F50196A11DB11D2093320380933F
:1032C000330390933403A0933503B0933603809176
:1032D000370390913803A0913903B0913A030196D6
:1032E000A11DB11D8093370390933803A093390338
:1032F000B0933A03BF91AF919F918F913F912F91DE
:103300000F900FBE0F901F90189526E8230F02967E
:10331000A11DB11DD2CF2FB7F894609133037091E6
:10332000340380913503909136032FBF08953FB742
:10333000F8948091370390913803A0913903B091AC
:103340003A0326B5A89B05C02F3F19F00196A11D91
:10335000B11D3FBFBA2FA92F982F8827BC01CD01DF
:10336000620F711D811D911D42E0660F771F881F3E
:10337000991F4A95D1F708958F929F92AF92BF926D
:10338000CF92DF92EF92FF926B017C01D0DF4B0175
:103390005C01C114D104E104F104D9F0B6D3C7DF54
:1033A000681979098A099B09683E7340810591056E
:1033B00080F321E0C21AD108E108F10888EE880EF6
:1033C00083E0981EA11CB11CC114D104E104F104D6
:1033D00031F7FF90EF90DF90CF90BF90AF909F902C
:1033E0008F9008958230910538F0880F991F880FCB
:1033F000991F05970197F1F70895789484B5826035
:1034000084BD84B5816084BD85B5826085BD85B588
:10341000816085BDEEE6F0E0808181608083E1E837
:10342000F0E010828081826080838081816080836F
:10343000E0E8F0E0808181608083E1EBF0E0808172
:1034400084608083E0EBF0E0808181608083E1E94B
:10345000F0E0808182608083808181608083E0E908
:10346000F0E0808181608083E1EAF0E08081826029
:103470008083808181608083E0EAF0E080818160E8
:103480008083E1E2F1E080818260808380818160DD
:103490008083E0E2F1E0808181608083EAE7F0E010
:1034A000808184608083808182608083808181606C
:1034B00080838081806880831092C10008951F936B
:1034C000CF93DF93182FEB0161E035D1209731F4D2
:1034D00060E0812FDF91CF911F9169C1CF3FD1056E
:1034E00011F461E0F6CFE12FF0E0EF56FD4FE491EB
:1034F000E150E23108F0B3C0F0E08827ED57F54E17
:103500008F4F0D944E15951A9D1AA21AAC1AB61A21
:103510002F1BC01AC81AD01ADA1AE41AEE1AFD1AAA
:10352000071B2F1B111B1B1B251B84B5806884BD2B
:10353000C7BDDF91CF911F91089584B5806284BD8E
:10354000C8BDF7CF80918000806880938000D093C1
:103550008900C0938800EDCF8091800080628093C5
:103560008000D0938B00C0938A00E3CF80918000CD
:10357000886080938000D0938D00C0938C00D9CF59
:103580008091B00080688093B000C093B300D1CF29
:103590008091B00080628093B000C093B400C9CF26
:1035A00080919000806880939000D0939900C093A0
:1035B0009800BFCF80919000806280939000D0935C
:1035C0009B00C0939A00B5CF809190008860809353
:1035D0009000D0939D00C0939C00ABCF8091A00041
:1035E00080688093A0008091A0008F7B8093A000D2
:1035F000D093A900C093A8009CCF8091A0008062C6
:103600008093A000D093AB00C093AA0092CF80918A
:10361000A00088608093A000D093AD00C093AC0060
:1036200088CF80912001806880932001D093290168
:10363000C09328017ECF8091200180628093200179
:10364000D0932B01C0932A0174CF80912001886010
:1036500080932001D0932D01C0932C016ACFC038F4
:10366000D1050CF03ECF34CF8150823108F05AC0E2
:10367000E82FF0E08827E05CF44E8F4F0D944E1554
:10368000601B641B521B581B5C1B921B671B6D1B32
:10369000711B771B7B1B7F1B851B891B921B8D1B43
:1036A000931B971B809180008F77809380000895F3
:1036B000809180008F7DF9CF80918000877FF5CF4A
:1036C00084B58F7784BD089584B58F7DFBCF8091BD
:1036D000B0008F778093B00008958091B0008F7D07
:1036E000F9CF809190008F7780939000089580911A
:1036F00090008F7DF9CF80919000877FF5CF8091EA
:10370000A0008F778093A00008958091A0008F7D06
:10371000F9CF8091A000877FF5CF809120018F772E
:10372000809320010895809120018F7DF9CF8091B1
:103730002001877FF5CFCF93DF9390E0FC01E95222
:10374000FD4F2491835E9C4FFC0184918823C9F036
:1037500090E0880F991FFC01E956FC4FA591B491A8
:10376000FC01E358FC4FC591D49161110DC09FB786
:10377000F8948C91209582238C9388812823288328
:103780009FBFDF91CF910895623051F49FB7F894B5
:103790003C91822F809583238C93E8812E2BEFCF51
:1037A0008FB7F894EC912E2B2C938FBFEACF1F93F9
:1037B000CF93DF93282F30E0F901EF56FD4F84912E
:1037C000F901E952FD4FD491F901E35EFC4FC49138
:1037D000CC23A1F0162F811147DFEC2FF0E0EE0F84
:1037E000FF1FE358FC4FA591B4918FB7F894EC916B
:1037F000111108C0D095DE23DC938FBFDF91CF91EC
:103800001F910895DE2BF8CFCF93DF93282F30E060
:10381000F901EF56FD4F8491F901E952FD4FD49122
:10382000F901E35EFC4FC491CC2399F081111CDFB8
:10383000EC2FF0E0EE0FFF1FED59FC4FA591B49176
:10384000EC91ED2381E090E009F480E0DF91CF91ED
:10385000089580E090E0FACF08951F920F920FB67E
:103860000F9211240BB60F922F933F934F935F93B8
:103870006F937F938F939F93AF93BF93EF93FF9338
:10388000E0910402F09105021995FF91EF91BF912B
:10389000AF919F918F917F916F915F914F913F91E8
:1038A0002F910F900BBE0F900FBE0F901F90189589
:1038B0001F920F920FB60F9211240BB60F922F93F7
:1038C0003F934F935F936F937F938F939F93AF93A8
:1038D000BF93EF93FF93E0910602F09107021995D1
:1038E000FF91EF91BF91AF919F918F917F916F91D8
:1038F0005F914F913F912F910F900BBE0F900FBE94
:103900000F901F9018951F920F920FB60F921124CF
:103910000BB60F922F933F934F935F936F937F93C9
:103920008F939F93AF93BF93EF93FF93E091080220
:10393000F09109021995FF91EF91BF91AF919F917D
:103940008F917F916F915F914F913F912F910F9048
:103950000BBE0F900FBE0F901F9018951F920F92E5
:103960000FB60F9211240BB60F922F933F934F93E4
:103970005F936F937F938F939F93AF93BF93EF93D7
:10398000FF93E0910A02F0910B021995FF91EF91DC
:10399000BF91AF919F918F917F916F915F914F9167
:1039A0003F912F910F900BBE0F900FBE0F901F9065
:1039B00018951F920F920FB60F9211240BB60F920B
:1039C0002F933F934F935F936F937F938F939F9327
:1039D000AF93BF93EF93FF93E0910002F091010248
:1039E0001995FF91EF91BF91AF919F918F917F9129
:1039F0006F915F914F913F912F910F900BBE0F9060
:103A00000FBE0F901F9018951F920F920FB60F9236
:103A100011240BB60F922F933F934F935F936F93A5
:103A20007F938F939F93AF93BF93EF93FF93E09117
:103A30000202F09103021995FF91EF91BF91AF91AE
:103A40009F918F917F916F915F914F913F912F91B6
:103A50000F900BBE0F900FBE0F901F9018951F92E6
:103A60000F920FB60F9211240BB60F922F933F9324
:103A70004F935F936F937F938F939F93AF93BF9376
:103A8000EF93FF93E0910C02F0910D021995FF91D5
:103A9000EF91BF91AF919F918F917F916F915F91C6
:103AA0004F913F912F910F900BBE0F900FBE0F9033
:103AB0001F9018951F920F920FB60F9211240BB6FC
:103AC0000F922F933F934F935F936F937F938F93B7
:103AD0009F93AF93BF93EF93FF93E0910E02F0910A
:103AE0000F021995FF91EF91BF91AF919F918F9127
:103AF0007F916F915F914F913F912F910F900BBEEE
:103B00000F900FBE0F901F901895089590E080E0E1
:103B100008950895AF92BF92CF92DF92EF92FF92F5
:103B20000F931F93CF93DF936C017B018B01040FE5
:103B3000151FEB015E01AE18BF08C017D10759F081
:103B40006991D601ED91FC910190F081E02DC601C3
:103B50001995892B79F7C501DF91CF911F910F91AD
:103B6000FF90EF90DF90CF90BF90AF900895CF93EC
:103B7000DF93EC0160E08E811ADE81E090E032DCC0
:103B800061E08E8114DE81E090E02CDC60E08E81CB
:103B90000EDE84E690E0DF91CF9124CCCF92DF92CD
:103BA000EF92FF920F931F93CF93DF936C017C01F1
:103BB00087E0E80EF11CD0E0C0E0062F10E0B8016D
:103BC0000C2E02C0759567950A94E2F76170F701B3
:103BD00081917F01ECDD2196C430D10581F7C601CA
:103BE000DF91CF911F910F91FF90EF90DF90CF90D9
:103BF000BECFCF92DF92EF92FF920F931F93CF939E
:103C0000DF936C017C0187E0E80EF11CD0E0C0E09E
:103C1000062F10E0B8010C2E02C0759567950A9426
:103C2000E2F76170F70181917F01C1DD2196C83013
:103C3000D10581F7C601DF91CF911F910F91FF90C0
:103C4000EF90DF90CF9093CF1F93CF93DF93EC0152
:103C5000162F642F8C81ABDD8D818F3F11F060E0DA
:103C6000A6DD8F85612F84FF05C0CE01DF91CF9146
:103C70001F91BFCF70E084E0759567958A95E1F755
:103C8000CE018CDF612FCE01DF91CF911F9186CFC6
:103C900040E0DACF61E0FCDF80ED97E0A3CB443079
:103CA00008F043E0FC012389421710F04FEF420F68
:103CB000FC01E40FF11D2489620F6068E9CFFC016B
:103CC0006089262F2460208B6C60E2CF0F931F93B6
:103CD000CF93DF93EC01423018F08F8588608F8797
:103CE0004B8B1C8A80E48D8B6E8B605C6F8B2223E8
:103CF00029F0413019F48F8584608F8761E08C81D1
:103D00001ADD8D818F3F11F061E015DD61E08E815C
:103D100012DD8E0198012C1B3D0B8F8584FD0CC09C
:103D200084E090E00F5F1F4F2817390744F461E0EB
:103D3000F801868100DDEECF88E090E0F3CF80E5EA
:103D400093EC50DB60E08C8132DD60E08E812FDD12
:103D50008D818F3F11F060E02ADD6F8564FD28C002
:103D600063E0CE011BDF84E991E13CDB63E0CE013F
:103D700015DF84E991E136DB63E0CE010FDF86E9F0
:103D800090E030DB62E0CE0109DF6F856062CE013A
:103D90007FDF84E0888BCE0192DFCE017BDF82E083
:103DA000898B66E0CE01DF91CF911F910F9170CF8B
:103DB0006062CE016DDF84E991E114DB6F856062A2
:103DC000CE0166DF86E990E00DDB6F856062CE0193
:103DD0005FDFDBCFCF92EF920F93FC011382128251
:103DE00085EC92E09183808364838FEF85834683A3
:103DF00027830087E186C286138614861586168679
:103E0000178620E041E060E1CF010F91EF90CF9065
:103E10005DCFEF92FF920F931F93CF93DF938C01AF
:103E20007A01677088E0689FB00111246064C8015E
:103E30002FDFE701A8E0EA0EF11C6991D801ED91AE
:103E4000FC910190F081E02DC8011995CE15DF0598
:103E5000A1F7DF91CF911F910F91FF90EF900895FF
:103E600041E0F2DE81E090E0089590E080E0089586
:103E70000895C3DAFDDF0E94AD28C0E0D0E00E94C3
:103E800082292097E1F30E940000F9CFCF9320E030
:103E900030E0A90160914B0370914C0380914D0378
:103EA00090914E030F94C611811132C020E030E092
:103EB000A90160914F03709150038091510390913B
:103EC00052030F94C611811123C020E030E0A901F4
:103ED0006091530370915403809155039091560360
:103EE0000F94C611C1E0811110C020E030E0A9019B
:103EF00060915703709158038091590390915A0330
:103F00000F94C611811101C0C0E08C2FCF9108958C
:103F1000C1E0FBCF9091950B9817B1F00E945CBD6A
:103F20008091950B882341F080E792E00E94BEBC0F
:103F30001092950B0C9415E281E08093950B80E72D
:103F400092E00E94EDBCF6CF08954F925F926F927F
:103F50007F928F929F92AF92BF92CF92DF92EF9219
:103F6000FF92CF936B017C01C42FAC019B01609148
:103F7000910B7091920B8091930B9091940B0F94F5
:103F8000C611882309F4A5C0B090950B80E0C2DF6C
:103F900020E030E0A901C701B6010F94C91318163B
:103FA0001CF0C12CD12C7601C092910BD092920BB7
:103FB000E092930BF092940B2DEB37E346E855EB30
:103FC000C701B6010F94C91387FD0BC02DEB37E372
:103FD00046E855E3C701B6010F94C61118160CF058
:103FE00074C0A701960160E070E080E89FE30F9441
:103FF000CD1160938D0B70938E0B80938F0B9093EC
:10400000900B80EF9FEFA9E7B4EC8093890B90931E
:104010008A0BA0938B0BB0938C0BBB2009F459C077
:104020004090700250907102609072027090730222
:104030008090740290907502A0907602B090770202
:10404000C0907802D0907902E0907A02F0907B02E2
:1040500081E060DFCC23E9F1A3019201609170025D
:104060007091710280917202909173020F94C61147
:1040700081111CC0A50194016091740270917502B8
:1040800080917602909177020F94C61181110EC033
:10409000209178023091790240917A0250917B020E
:1040A000C701B6010F94C611882399F0CF91FF90F4
:1040B000EF90DF90CF90BF90AF909F908F907F90C8
:1040C0006F905F904F900C9409E260E070E0CB013C
:1040D00090CFCF91FF90EF90DF90CF90BF90AF90B7
:1040E0009F908F907F906F905F904F90089580E0A9
:1040F00011DFFCC03F924F925F926F927F928F923E
:104100009F92AF92BF92CF92DF92EF92FF920F9366
:104110001F93CF93DF93E82EC62E042F5901882ECC
:10412000912CD0E0C0E0C815D90579F0CA3058F01C
:1041300082E0800F0E9489576AE070E0CE010F9400
:1041400086072196F0CF83E0F4CF8AE00F94D4065F
:10415000D12CD0E0C0E010E04801E2E08E0E911CCE
:104160003C2ECC16DD0609F441C0F9E0FC1718F02E
:1041700080E20F94D4066AE070E0CE010F948607C7
:10418000F12CFE1471F180E20F94D406632D8F2D73
:10419000F50119952B013C01AC019B010F94B21460
:1041A000811113C020E030E0A901C301B2010F94D6
:1041B000C91387FD03C08BE20F94D406A801C30185
:1041C000B2010F941408F394DCCF712C7814190405
:1041D00009F0CCF780E271108DE30F94D40673944C
:1041E000F5CF8AE00F94D4062196BACF8AE0DF910A
:1041F000CF911F910F91FF90EF90DF90CF90BF90E4
:10420000AF909F908F907F906F905F904F903F9076
:104210000D94D406EF92FF920F931F93CF93DF93E9
:10422000CDB7DEB72C970FB6F894DEBF0FBECDBF6B
:104230007C0100E712E0F80180859185A285B385B5
:1042400089879A87AB87BC8719821A821B821C8256
:1042500080E090E0A0EAB0E48D839E83AF83B887CE
:10426000AE014F5F5F4FBE016B5F7F4FC7010E9482
:10427000DDE319821A821B821C82BE016F5F7F4FB1
:10428000CE0109960E94FAE3F70184819581A68107
:10429000B7814081518162817381F80140835183EC
:1042A0006283738384839583A683B7831092CB0A3A
:1042B0002C960FB6F894DEBF0FBECDBFDF91CF9125
:1042C0001F910F91FF90EF900895E82FF0E0EE0F0F
:1042D000FF1FE60FF11DEE0FFF1FEE0FFF1FE55B47
:1042E000FC4F6081718182819381089510925B03FC
:1042F00010925C0310925D0310925E03EBE4F3E016
:1043000080E1DF011D928A95E9F70895E3E4F3E087
:1043100080E090E0A0E2B1E480839183A283B38344
:1043200040E050E060EA72E444835583668377831B
:10433000EBE3F3E080839183A283B38380E090E09A
:10434000ACE8B2E484839583A683B783CFCF84ECB3
:1043500093E00E94095760915B0370915C03809128
:104360005D0390915E0345E050E00F94140881EBEB
:1043700093E00E94095725E631E245E062E082E0E1
:10438000B9CE8FE593E0C2CF81E0809360030895BA
:10439000CF92DF92EF92FF920F931F93CF93909162
:1043A0001002913009F461C0662351F0109263034A
:1043B00010926403109265031092660310926703D3
:1043C000C82F0E948B19C0906403D0906503E090C1
:1043D0006603F09067039B01AC012C193D094E095F
:1043E0005F0969017A01F7FC40C020916303C7FDB2
:1043F00015C04C2F0C2E000C550B4C5F5F4FE22F5D
:10440000022E000CFF0B4E175F077CF144EFC42E09
:10441000DD24D394E12CF12C2C1734F438EEC32E88
:1044200033E0D32EE12CF12CC60ED71EE81EF91E68
:10443000C0926403D0926503E0926603F092670332
:10444000022F017010E084E2809FB001819F700D07
:10445000701B112460597C4F82E390E00F94260971
:10446000809163038F5F80936303CF911F910F91BE
:10447000FF90EF90DF90CF9008959091F70593FD16
:104480000FC09091311191110BC040916A11509160
:104490006B1120914D0230914E02421753074CF0A0
:1044A00040E0682F8BE00E94CF9361E080E00C94A5
:1044B000A1DE0E94175787E594E00E94095780E02B
:1044C00008954F925F926F927F928F929F92AF92D8
:1044D000BF92CF92EF92FF920F931F93CF93DF93F0
:1044E00000D01F92CDB7DEB73C014B015A01F22E2E
:1044F0008C2DC3DF182F81111CC0002329F040E050
:104500006C2D89E00E94CF93812F0F900F900F9018
:104510000F90DF91CF911F910F91FF90EF90CF906F
:10452000BF90AF909F908F907F906F905F904F90D3
:104530000895EE2009F1002329F040E06C2D84E07D
:104540000E94CF930E94175788E394E00E94095776
:1045500061E08F2D1DDF5090EC0583E08093EC052A
:1045600080918803882331F060E08F2D11DF81E096
:10457000A1D5F6CF5092EC05002329F040E06C2D38
:1045800085E00E94CF9320E030E0A901F301608133
:104590007181828193810F94C611882371F080E02C
:1045A00090E0A0ECB0E489839A83AB83BC83BE0126
:1045B0006F5F7F4FC3010E94D3E220E030E0A9018A
:1045C000F40160817181828193810F94C6118823E7
:1045D00051F14090060C5090070C6090080C7090C0
:1045E000090C80E090E0A0E7B1E48093060C909382
:1045F000070CA093080CB093090C80E090E0A0E7B2
:10460000B2E489839A83AB83BC83BE016F5F7F4F23
:10461000C4010E94D3E24092060C5092070C6092B3
:10462000080C7092090C412C512C80E4682E762CD9
:1046300093E0C92E20E030E0A901F501608171818D
:10464000828193810F94C91318168CF4002329F0EA
:1046500040E060E086E00E94CF9349825A826B82FC
:104660007C82BE016F5F7F4FC5010E94D3E20023B1
:1046700009F44ACFF090EC05C092EC051092880343
:1046800040E060E087E00E94CF9380917003811149
:1046900003C081E00FD5F9CFF092EC05813051F2E3
:1046A00033CF4F925F926F927F92AF92BF92CF9231
:1046B000DF92EF92FF921F93CF93DF9300D000D051
:1046C0001F921F92CDB7DEB75C01E62EF42E842F29
:1046D000D4DE182F81111CC0EE2029F040E060E0EC
:1046E00089E00E94CF93812F28960FB6F894DEBF01
:1046F0000FBECDBFDF91CF911F91FF90EF90DF9064
:10470000CF90BF90AF907F906F905F904F90089543
:10471000EE2029F040E06F2D83E00E94CF93C12C62
:10472000D12C80E7E82E82E4F82ECD82DE82EF8263
:10473000F88619821A821B821C82BE016B5F7F4F32
:10474000CE0101960E94D3E264EF71E080E090E038
:104750000E94DB5780E090E0A8ECB1E48D839E835B
:10476000AF83B88719821A821B821C82BE016B5FDD
:104770007F4FCE0101960E94D3E24090060C5090EC
:10478000070C6090080C7090090C80E090E0A0E7A6
:10479000B1E48093060C9093070CA093080CB0939F
:1047A000090CCD82DE82EF82F886F501808191814D
:1047B000A281B38189839A83AB83BC83BE016B5F83
:1047C0007F4FCE0101960E94D3E24092060C509298
:1047D000070C6092080C7092090C80E0C6D264E667
:1047E00070E080E090E00E94DB577DCFAF92BF92F7
:1047F000CF92DF92EF92FF920F931F93CF93DF93AD
:1048000000D01F92CDB7DEB730916203332389F019
:1048100010E0812F0F900F900F900F90DF91CF91AC
:104820001F910F91FF90EF90DF90CF90BF90AF90CE
:104830000895022F7A015B016C018091F70583FDD9
:104840001CC020E030E0A901F70160817181828104
:1048500093810F94C611882381F0109131111111A9
:104860000CC020916A1130916B1180914D02909192
:104870004E02281739070CF45DC081E08093620373
:104880009091620892FD6AC00F948D0980E1E0E783
:10489000F2E0A1E7B3E001900D928A95E1F70E9462
:1048A0005CBD20E030E0A901F60160817181828168
:1048B00093810F94C611882319F1809131118111D0
:1048C00011C060916611709167118091681190918B
:1048D00069110F94351220914D0230914E026217EA
:1048E000730774F080E090E0A0E7B2E489839A83D4
:1048F000AB83BC83BE016F5F7F4FC6010E94D3E2D2
:1049000087E00E94F6E8811103C0B5010F941708F3
:1049100020E030E0A901F7016081718182819381FB
:104920000F94C611882321F042E0602FC701B9DE41
:1049300011E06FCF0E94175787E294E00E94095759
:10494000002309F465CF40E060E089E00E94CF9346
:1049500060E088E694E00E9433765BCF9B7F909383
:10496000620882E0809362038FCFCF93C82F82E0EA
:10497000C11184E040E060E00E94CF930E9417578D
:1049800083EF93E0CC2311F088E094E0CF910C9476
:1049900009571F93CF93DF93D82FC62FE6DF61E02F
:1049A0008C2FF6DC0E948B19685370458F4F9F4FF8
:1049B0006093561170935711809358119093591129
:1049C00010925A111091EC0583E08093EC0581E080
:1049D0008093880380918803882309F441C060E0B4
:1049E0008C2FD6DC80915A118823B9F140E060E029
:1049F0008AE00E94CF930E94175789ED93E00E94AE
:104A0000095741E060E070E0CB016CD31092561181
:104A100010925711109258111092591110925A1168
:104A200080E00E940ED380E028DD8D2F9EDF0E9463
:104A30008B19685370458F4F9F4F60935611709339
:104A40005711809358119093591110925A1181E087
:104A50008093880361E08C2F9BDC81E02BD3BACF5D
:104A60001093EC05DF91CF911F9108954F925F92C3
:104A70006F927F928F929F92AF92BF92CF92EF925E
:104A80000F931F93CF93DF93CDB7DEB72C970FB65D
:104A9000F894DEBF0FBECDBF30916203332309F41B
:104AA0000CC15801122F2A013B014C01E0905A1110
:104AB00010925611109257111092581110925911CC
:104AC00010925A1180E00E940ED380916A11909149
:104AD0006B118A159B0584F480914B0290914C02D6
:104AE0000F97A816B9060CF4C50190936B1180932B
:104AF0006A1180E00E940ED3E11015C0809131113F
:104B0000811111C0609166117091671180916811D7
:104B1000909169110F94351220914D0230914E02FF
:104B2000621773073CF0C12C01E0212FA201B301F1
:104B3000C401C7DC1A141B04A4F480914B029091A9
:104B40004C020F97A816B9060CF4C50190936B118F
:104B500080936A1180E00E940ED360E080E00E94A2
:104B6000A1DE40E060E088E00E94CF93812C912C90
:104B700080E7A82E82E4B82E89829A82AB82BC821A
:104B800080E090E0A0E0B0EC89879A87AB87BC8793
:104B9000BE016F5F7F4FCE0109960E94D3E280E095
:104BA00090E0A8ECB2E489879A87AB87BC8788E05D
:104BB000E1E7F3E0DE01119601900D928A95E1F7AD
:104BC000BE01675F7F4FCE0101960E94D8E380E06F
:104BD00090E0A0EAB0E489839A83AB83BC83BE01F2
:104BE0006F5F7F4F89E793E00E94FAE389829A82A0
:104BF000AB82BC8280E090E0A0E0B0E489879A8735
:104C0000AB87BC87BE016F5F7F4FCE0109960E94C4
:104C1000D3E220E030E0A90160917D0370917E0332
:104C200080917F03909180030F94C61187FF0BC082
:104C300089829A82AB82BC82BE016F5F7F4F8DE713
:104C400093E00E94D3E280917D0390917E03A09136
:104C50007F03B091800380937C0290937D02A093A8
:104C60007E02B0937F028093BC119093BD11A093FC
:104C7000BE11B093BF118CEB91E10E94D6C940E008
:104C800060E089E00E94CF9380916203815080931D
:104C90006203882339F00E94036680916203815089
:104CA000809362038091E312823011F40E9466CDFA
:104CB00080E00E946E760E942D992C960FB6F89493
:104CC000DEBF0FBECDBFDF91CF911F910F91EF904F
:104CD000CF90BF90AF909F908F907F906F905F909C
:104CE0004F9008959898A09A0895FF920F931F935C
:104CF000CF93DF931F92CDB7DEB7F82E0EEE15E0FF
:104D000041E050E0B801CE0101960F94221989814B
:104D10008F1108C081E00F90DF91CF911F910F910B
:104D2000FF9008950F5F1F4F86E00630180741F788
:104D300080E0F1CF0E941A578FED95E00C9409574F
:104D40000E9426CB0E945CBD8EEF0E9449E20C942B
:104D500015E2129808955F988A98809108018170F1
:104D600080930601F6CF129A0895811101C0129A1C
:104D700008955F9A8091C0118E7F8093C0118A9AA6
:104D80008091C0118D7F8093C01180910801809522
:104D90008170809306018091C0118B7F8093C01138
:104DA000E2CF8091620381110AC08091E3128130C9
:104DB00041F08091620882FB882780F9089580E0A5
:104DC000089581E0089580916203811115C080915A
:104DD000E312823089F09091620893FB882780F972
:104DE00093FF0DC08091B906882341F092FB88277C
:104DF00080F991E08927089581E0089580E0089581
:104E00000C9466CDCF93C82F89EE93E030E60197DE
:104E100029F0232F2A950000E9F7F9CFF89489EEBD
:104E200093E038EE019729F0232F2A950000E9F747
:104E3000F9CF0E947AD3CC2329F09BDF909904C04C
:104E4000A895FCCF90DFFACF909B02C0A895FCCF2D
:104E5000F0E0E0E0CF911994FF920F931F93CF936E
:104E6000DF93EC018B01F42E0E947AD30E941A5733
:104E700083E595E00E9409570115110511F408E436
:104E800016E0209711F4C9E4D6E0B801CE010E94E3
:104E900010768F2DDF91CF911F910F91FF90B2CFA0
:104EA0008F929F92AF92BF92CF92DF92EF92FF923A
:104EB0000F931F93182F8091B905843010F40E942E
:104EC000683B0E948B196B017C01111105C0809118
:104ED000620310E0882349F0C092F305D092F405F4
:104EE000E092F505F092F60511E08091EF059091C2
:104EF000F005A091F105B091F2050097A105B1056B
:104F000049F14091F3055091F4056091F5057091D8
:104F1000F605840F951FA61FB71FA7019601281B32
:104F2000390B4A0B5B0BDA01C901B7FD13C00E94B4
:104F30001A576091E5057091E60586E995E00E94B3
:104F40001D578AE00F94D40640E070E060E090E0E6
:104F500080E082DF8091150290911602A0911702E5
:104F6000B0911802892B8A2B8B2B79F090911C0C15
:104F70008091190C981709F452C0C092F305D09291
:104F8000F405E092F505F092F60580918503909185
:104F90008603909985C0019690938603809385033C
:104FA00080918503909186038E3E924064F00E942A
:104FB0001A5783E795E00E94095740E070E060E0EF
:104FC00090E080E049DF8091810390918203A0917D
:104FD0008303B0918403A7019601281B390B4A0B68
:104FE0005B0BDA01C901B7FD0FC00E9441BC34E67A
:104FF000C30ED11CE11CF11CC0928103D09282032C
:10500000E0928303F09284031F910F91FF90EF9041
:10501000DF90CF90BF90AF909F908F900895112315
:1050200019F010928703B1CF0E948B190091F305FC
:105030001091F4052091F5053091F6058090150248
:1050400090901602A0901702B0901802080D191D3A
:105050002A1D3B1D601B710B820B930B97FDE1CF4B
:1050600080918703811191CF81E0809387035F9ABC
:105070008091C0118E7F8093C0118A9A8091C01157
:105080008D7F8093C01180910801809581708093FD
:1050900006018091C0118B7F8093C01164DE75CFB3
:1050A000181619060CF07CCF019790938603809315
:1050B000850376CFF5DE0E94EED4809189038823A4
:1050C00081F00E94476B0E94B3560E94F2CC0F946D
:1050D000D1080E941A748091ED05811102C00C94D0
:1050E0003ADE0895CF92DF92EF92FF92CF93DF9353
:1050F0006B017C01D42FC091EC0583E08093EC051B
:1051000081E080938803C114D104E104F10431F0FB
:105110000E948B19C60ED71EE81EF91E80918803C7
:10512000882381F0C114D104E104F10419F48D2F16
:10513000C1DFF4CF0E948B196C197D098E099F097C
:1051400097FDF5CF10928803C093EC05DF91CF91C6
:10515000FF90EF90DF90CF900895CF9360E970EDCE
:1051600083E090E00F947A060E948B190E941757F3
:105170008CE495E00E9409570F94AF05B3DD0F94BE
:10518000B304C4B7C0FF04C083E495E00E9409578C
:10519000C1FF04C082E395E00E940957C2FF04C02A
:1051A00080E295E00E940957C3FF04C08FE095E0BC
:1051B0000E940957C5FF04C08EEF94E00E94095772
:1051C00014BE82E596E00E94095780E20F94D4064F
:1051D00080EF94E00E9409578AE00F94D4060E9461
:1051E000175784EB94E00E9409570E9417578DE9E6
:1051F00094E00E9409570E9417570F94B005BC0114
:105200008EE894E00E942F5760EB74E087E794E00B
:105210000E942F578AE00F94D4060E9403740E94C4
:105220003DAE80E00E946E7680918B03811107C0B5
:105230000E94DFFA882319F081E080938B0320918C
:10524000700230917102409172025091730260912C
:105250008C1170918D1180918E1190918F110F94FE
:10526000ED106093700270937102809372029093BC
:1052700073022091901130919111409192115091AF
:1052800093116091740270917502809176029091F1
:1052900077020F94ED1060937402709375028093FF
:1052A000760290937702209194113091951140915C
:1052B00096115091971160917802709179028091C6
:1052C0007A0290917B020F94ED10609378027093B4
:1052D000790280937A0290937B020E9415E289E71B
:1052E00091E10E9439D20F94A2090E941ACC0E9427
:1052F0001EFB0E94AAFE0F94B40481E080938903F0
:10530000CF910895C9EDD5E011E080E0D3DE0E9491
:10531000C16A8091620886FF14C00E940B660E94D9
:105320008A370EDD0E9483CD0E947AD370E060E060
:1053300080E00E94FBCD10921102D0933004C09304
:105340002F0480918903803139F483ED95E00E9428
:105350008F388111109389030E946A3B0E9432FBAF
:10536000D4CF8AE893E00C947063CF930E94565296
:10537000C82F87FD0BC089E596E00E9409578C2F46
:105380000E947ED88AE0CF910D94D406CF910895E3
:105390008091E1059091E205009731F04AE050E0FC
:1053A00070E060E00D94E71660E070E0CB010895D6
:1053B000CF92DF92EF92FF92CF938091DA05909196
:1053C000DB05A091DC05B091DD0522E1B695A7953E
:1053D000979587952A95D1F780FF08C0E091D2056F
:1053E000E1110AC01092E2051092E105CF91FF9001
:1053F000EF90DF90CF9008958091E5059091E605BC
:10540000E80FF92FF11D808190ED980F9A3030F060
:105410008E3299F5818180538A3020F7F093E2052E
:10542000E093E105EF2B11F3B3DFC0E097FD0CC073
:10543000AFDF6F3F71058105910509F024F4A8DF06
:10544000C62F6D3308F0CCE3C093EF100E948B1988
:105450006B017C012C2F30E0A8EEB3E00F945615C1
:10546000C60ED71EE81EF91EC092EB10D092EC10AB
:10547000E092ED10F092EE10B9CF8D3219F08B3230
:1054800009F0B0CF818190ED980F9A3038F28E32CA
:1054900009F0A8CF828180538A3008F4BFCFA2CF11
:1054A0002FEB280F2A3108F042C0E22FF0E0809164
:1054B000DA059091DB05A091DC05B091DD0504C013
:1054C000B695A795979587952A95D2F780FD02C046
:1054D00081700895E054FA4FE081EE2329F1809124
:1054E000E5059091E605E80FF92FF11D808190ED1B
:1054F000980F9A3030F08E3251F4818180538A3087
:1055000098F4F093E205E093E10581E008958D328F
:1055100011F08B3249F4818190ED980F9A3088F325
:105520008E3211F48281EACFF0E0E0E0EACF80E051
:105530000895B6DF882341F081E02091E1053091A4
:10554000E205232B09F480E008950F931F93CF9376
:105550008091E1059091E205009709F1FC018F012E
:10556000C1912C2F2F7DA1F0C53411F0C536B9F7AC
:10557000F801108270E060E08091E1059091E20511
:105580000F949215F801C083CF911F910F91089548
:1055900070E060E0CF911F910F910D94921560E043
:1055A00070E0CB01F1CFF4DE97FD0AC0F1DE6F3F72
:1055B00071058105910509F02CF4EADE862F089526
:1055C00080E008958FEF08958091F70583FD37C03F
:1055D0000E94565287FD33C089E4ABDF882339F13E
:1055E000E2DF90E01816190614F481E090E026E05E
:1055F000289FF001299FF00D1124E657F54F608197
:10560000718180914B0290914C020F976817790736
:105610000CF4CB0190936B1180936A1180E00E948F
:105620000ED361E080E00E9408D70C9444CB83E560
:1056300080DF8823D1F389DF0F943512E2CF0895FC
:105640001F93CF93DF938091F70583FD68C00E947D
:105650005652182F87FD63C089E46BDF882309F455
:1056600050C0A1DF90E01816190614F481E090E014
:1056700026E0289FF001299FF00D1124E657F54FF1
:1056800060817181C0E080914B0290914C020F9734
:10569000681779070CF4CB0190936B1180936A1112
:1056A00080E00E940ED361E081E00E9408D7609103
:1056B0006A1170916B11072E000C880B990B0F94D7
:1056C00068122091661130916711409168115091D4
:1056D00069110F94C91318161CF0DC2FC11104C0F6
:1056E000812F0E9477DED1E00E9444CBDD23B9F008
:1056F0006C2F812FDF91CF911F910C94A1DEC82FC9
:10570000F3CF83E516DFC82F811105C082E511DFD5
:10571000D82F8823A1F319DF0F943512B4CFDF916E
:10572000CF911F9108958F929F92AF92BF92CF9287
:10573000DF92EF92FF920F931F93CF93DF9300D0EE
:105740001F92CDB7DEB785E4F4DE10E0882311F0B8
:105750001FDE162F81E0810F8230A8F08CE596E0E5
:105760000E9409570F900F900F900F90DF91CF91EB
:105770001F910F91FF90EF90DF90CF90BF90AF906F
:105780009F908F90089583E4D4DE25E0922E8823A5
:1057900011F0FEDD962E85E5CCDE082F8823B1F0D2
:1057A0008091E1059091E205892B99F0F1DD97FD5B
:1057B0000BC0EEDD6F3F71058105910509F04CF4DA
:1057C000E7DD01E0611105C000E003C085E568DEAA
:1057D000082FC12CD12C98E4E92E93E4F92E17FF61
:1057E00006C0C12CD12C88E4E82E82E4F82E83E593
:1057F000A0DE882319F18091E1059091E205C12C8A
:10580000D12C76010097D1F0FC015F018190282D09
:105810002F7D91F125E4821619F025E68212F5CF4D
:10582000F501108270E060E08091E1059091E20561
:105830000F9492156B017C01F501808260E086E88F
:1058400096E00E94D475C701B6010F943512072E59
:10585000000C880B990B0F94681269837A838B83F1
:105860009C83202F492D612FCE0101960E94E5D8FF
:1058700080E00E946E7676CF70E060E00F94921523
:105880006B017C01DBCF8091F70583FD2CC089E49F
:1058900050DE882321F187DE90E01816190614F4F3
:1058A00081E090E026E0289FF001299FF00D11246F
:1058B000E657F54F628173816C38710514F06CE81E
:1058C00070E070934811609347110E9444D361E0E7
:1058D00080E00C9408D739DE0F943512EDCF83E5C4
:1058E00028DE8111F8CF0895CF938091F70583FDCD
:1058F00055C089E41EDE882309F443C054DE90E0DD
:105900001816190614F481E090E026E0289FF001B3
:10591000299FF00D1124E657F54F62817381C0E095
:105920006C38710514F06CE870E070934811609366
:1059300047110E9444D360E081E00E9408D7609143
:10594000471170914811072E000C880B990B0F948A
:1059500068122091431130914411409145115091AA
:1059600046110F94C91318164CF083E996E060E0D5
:105970000E9433768C2FCF910C9427E082EA96E038
:10598000F6CF83E5D6DDC82F811104C082E5D1DDD5
:10599000882321F0DADD0F943512C2CFCF9108951C
:1059A000CF93DF9380E5C5DD811125C081E478DDEB
:1059B000CFEFD0E0882321F060916111C62FD0E0B5
:1059C00089E4B7DD8823E9F0EEDD90E018161906CA
:1059D00014F481E090E026E0289FF001299FF00D6B
:1059E0001124E657F54FC481D581BE0180E0DF91D7
:1059F000CF910C94FBCDD7DD8823C1F2DF91CF91FD
:105A0000089583E596DD882381F3C2DCEB01EDCFB9
:105A100080E58FDD882329F0C6DD70E060E00C941E
:105A2000FBCD80E0FACF8091DA059091DB05A09163
:105A3000DC05B091DD052DE0B695A7959795879586
:105A40002A95D1F780FF30C0E091CD05E11105C066
:105A50001092E2051092E10508958091E50590917C
:105A6000E605E80FF92FF11D808190ED980F9A302F
:105A700030F08E32D1F4818180538A3048F7F09330
:105A8000E205E093E105309779F04AE050E070E0FC
:105A900060E0CF010F94E7166093BA057093BB05E1
:105AA0008093BC059093BD0508958D3211F08B3223
:105AB00079F6818190ED980F9A3008F38E3241F695
:105AC0008281DACF0F931F93CF938C01C62F8EED77
:105AD00098E00E940957C8010E9409578AE30F9471
