:100000000C945A190C94781C0C94A31C0C94CE1CC0
:100010000C94F91C0C94241D0C944F1D0C947A1D07
:100020000C94A51D0C948A190C948A190C948A19A5
:100030000C948A190C948A190C948A190C948A19B4
:100040000C948A190D94A4020C948A190C948A19A0
:100050000C948A190C948A190C94DDDA0C948C197E
:100060000C948A190D94350C0D94F30C0C948A1988
:100070000C948A190C948A190C948A190C948A1974
:100080000C948A190C948A190C948A190C948A1964
:100090000C948A190C948A190C948A190C948A1954
:1000A0000C948A190C948A190C948A190C948A1944
:1000B0000C948A190C948A190C948A190C948A1934
:1000C0000C948A190C948A190C948A190C948A1924
:1000D0000C948A190C948A190C948A190C948A1914
:1000E0000C948A19084AD73B3BCE016E84BCBFFDF5
:1000F000C12F3D6C74319ABD56833DDA3D00C77FF8
:1001000011BED9E4BB4C3E916BAAAABE0000008090
:100110003F05A84CCDB2D44EB93836A9020C50B91F
:10012000918688083CA6AAAA2ABE000000803F004B
:100130000D94B90C0D94C40C0D94CC0C0D94700C52
:100140000D94D10F0D94C00C0D949F0C0D94AE0C1A
:100150000D94D80C0D94D00C0D94C80C4E414E4902
:100160004E495459494E46CDCCCC3D0AD7233C1775
:10017000B7D13877CC2B329595E6241FB14F0A00C2
:100180000020410000C84200401C4620BCBE4CCAB2
:100190001B0E5AAEC59D7400407A10F35A00A0722F
:1001A0004E18090010A5D4E80000E87648170000B2
:1001B000E40B54020000CA9A3B000000E1F5050080
:1001C0000080969800000040420F000000A08601C9
:1001D000000000102700000000E803000000006499
:1001E00000000000000A0000000000010000000004
:1001F000002C76D888DC674F0823DFC1DFAE59E1D9
:10020000B1B796E5E3E453C63AE651997696E8E647
:10021000C28426EB898C9B62ED407C6FFCEFBC9C1A
:100220009F40F2BAA56FA5F490055A2AF75C936B2C
:100230006CF9676DC11BFCE0E40D47FEF520E6B5E7
:1002400000D0ED902E0300943577050080841E08C1
:100250000000204E0A000000C80C333333330F98DF
:100260006E12831141EF8D2114893BE65516CFFEA6
:10027000E6DB18D1844B381BF77C1D901DA4BBE432
:1002800024203284725E228100C9F124ECA1E53D74
:100290002700000A0B02090C0D0E080703040100D9
:1002A000000000000000000000000000000000004E
:1002B000000000000000000000000000001211100B
:1002C000000000000000000000000000000000002E
:1002D000000000000000000102102020080810208B
:1002E00040102040800201020108040201010204C2
:1002F0000810204080804020100804020180040281
:1003000001804020100804020108040201010204D7
:1003100008102040800102040810204080050505D7
:1003200005070508080808020202020A0A0808046C
:10033000040404010101010101010103030303039A
:10034000030303040707070C0C0C0C0C0C0C0C0229
:1003500002020206060606060606060B0B0B0B0B30
:100360000B0B0B000020002300260029002C002F7F
:100370000032000001000003010601090100002213
:1003800000250028002B002E00310034000201005F
:1003900000050108010B0100002100240027002AAC
:1003A000002D003000330001010000040107010AA4
:1003B000010A4D6561737572656420706F696E74B2
:1003C000733A0A00327832206D6573682E205A2005
:1003D0006F66667365743A200053656E64204D3114
:1003E000303820746F2068656174206E6F7A7A6C83
:1003F000650A0053656E64204D31303820746F20DB
:10040000726573756D650A00496E73657274206656
:10041000696C616D656E7420616E642073656E64D5
:10042000204D3130380A00486F74656E6420746F57
:100430006F20636F6C640A00496E73657274206686
:10044000696C616D656E7420616E642073656E64A5
:10045000204D3130380A00486F74656E6420746F27
:100460006F20636F6C640A004D3630303A20546F51
:100470006F20436F6C64002020506C616E6E65725B
:1004800042756666657242797465733A200020464B
:10049000726565204D656D6F72793A2000436F6D0E
:1004A00070696C65643A204A756C203139203230AD
:1004B00032300A00204C6173742055706461746599
:1004C000643A20323032302D30372D3137207C20C5
:1004D000417574686F723A20286E6F6E652C2064C7
:1004E000656661756C7420636F6E666967290A00C2
:1004F0006275676669782D322E302E780A00205397
:100500006F6674776172652052657365740A0020A6
:100510005761746368646F672052657365740A007D
:100520002042726F776E206F757420526573657408
:100530000A002045787465726E616C20526573659F
:10054000740A00506F77657255700A007374617297
:10055000740A005072696E7465722068616C74650B
:10056000642E206B696C6C28292063616C6C656457
:10057000210A002121204B494C4C20636175736591
:1005800064206279204B494C4C20627574746F6E04
:100590002F70696E0A002121204B494C4C20636169
:1005A0007573656420627920746F6F206D75636860
:1005B00020696E6163746976652074696D65202DAC
:1005C0002063757272656E7420636F6D6D616E6409
:1005D0003A20004D31303031004732385859005000
:1005E000726F7465637465642050696E0A003637F3
:1005F00026033C3D380E2E303E121A1C180AFF43CB
:1006000008090844000120453A00205A3A002059C0
:100610003A00204500205A0020590020580020426E
:1006200000583A002054004D3234004D323320251A
:1006300073004D323100473238004D313132205392
:10064000687574646F776E00004B494C4C45442EBE
:1006500020004D61726C696E006F6B005049442040
:100660004175746F74756E65206661696C6564218F
:1006700020426164206578747275646572206E75BD
:100680006D6265720A00504944204175746F74753B
:100690006E650042656420436F6F6C696E672E2E35
:1006A0002E004265642048656174696E672E2E2EA7
:1006B000004348414D4245525F54454D50455241DB
:1006C0005455524500424142595354455050494EA9
:1006D000470041524353004D4F54494F4E5F4D4FD9
:1006E00044455300544845524D414C5F50524F547D
:1006F000454354494F4E004C4F4E475F46494C4589
:100700004E414D45004155544F5245504F52545F54
:1007100053445F535441545553005344434152444E
:100720000050524F4D50545F535550504F5254004B
:10073000454D455247454E43595F504152534552EE
:1007400000434153455F4C494748545F4252494733
:1007500048544E45535300544F47474C455F4C490E
:100760004748545300534F4654574152455F504FEA
:10077000574552004255494C445F50455243454EFF
:1007800054004C4556454C494E475F444154410046
:100790005A5F50524F42450052554E4F55540041FA
:1007A00055544F4C4556454C005052494E545F4AA3
:1007B0004F420050524F4752455353004155544FFA
:1007C0005245504F52545F54454D5000564F4C5572
:1007D0004D455452494300454550524F4D00424902
:1007E0004E4152595F46494C455F5452414E534623
:1007F00045520053455249414C5F584F4E5F584F48
:100800004646004649524D574152455F4E414D457F
:100810003A4D61726C696E206275676669782D3237
:100820002E302E7820284A756C2031392032303213
:10083000302030343A31303A30302920534F55523D
:1008400043455F434F44455F55524C3A687474705A
:10085000733A2F2F6769746875622E636F6D2F4D21
:1008600061726C696E4669726D776172652F4D6158
:10087000726C696E2050524F544F434F4C5F564537
:100880005253494F4E3A312E30204D414348494E44
:10089000455F545950453A3344205072696E74652F
:1008A000722045585452554445525F434F554E545B
:1008B0003A3120555549443A636564653261326680
:1008C0002D343161322D343734382D396231322DA7
:1008D0006335356336326633363766660A00436100
:1008E000703A002F2F20004D3131332053005072C9
:1008F000696E742074696D653A200025697300255E
:10090000696D20256973002569682025696D20259A
:10091000697300256964202569682025696D202593
:100920006973002569792025696420256968202577
:10093000696D20256973004D65736820706F696E5D
:1009400074206F7574206F662072616E67650A008F
:100950004D34323120696E636F727265637420703A
:100960006172616D657465722075736167650A00F7
:10097000206F6620004D424C2047323920706F694D
:100980006E742000290A004A206F7574206F66205B
:1009900072616E67652028302D00290A0049206F9A
:1009A0007574206F662072616E67652028302D0097
:1009B0004D6573682070726F62696E6720646F6E38
:1009C000652E0A005374617274206D65736820701F
:1009D000726F62696E6720776974682022473239C6
:1009E000205331222066697273742E0A0047323810
:1009F0000A47323920533200686173206E6F2064D9
:100A00006174612E0A004D65736820426564204C54
:100A10006576656C696E67200053206F7574206F72
:100A2000662072616E67652028302D35292E0A00F8
:100A3000206E6F7420656E74657265642E0A004DB9
:100A400065736820706F696E74206F7574206F66AF
:100A50002072616E67650A004F46460A004661646F
:100A600065204865696768742000426564204C65AC
:100A700076656C696E6720004661696C65642074F8
:100A80006F20656E61626C6520426564204C6576FE
:100A9000656C696E670A004D657368204265642065
:100AA0004C6576656C20646174613A0A00496E7623
:100AB000616C6964206D6573682E0A00205A3A20C3
:100AC0000020593A200042656420583A2000290A43
:100AD0000020746F20003F5A206F7574206F6620CD
:100AE00072616E6765202800290A0020746F20005B
:100AF0003F59206F7574206F662072616E676520A4
:100B0000282D00290A0020746F20003F58206F759F
:100B100074206F662072616E676520282D00507208
:100B20006F6265204F6666736574205800446F6E6F
:100B30006520736176696E672066696C652E0A00B0
:100B400053442072656164206572726F720A0050AE
:100B500072696E7465722073746F7070656420645E
:100B6000756520746F206572726F72732E204669EE
:100B70007820746865206572726F7220616E6420DF
:100B8000757365204D39393920746F20726573741F
:100B90006172742E202854656D706572617475726F
:100BA000652069732072657365742E205365742007
:100BB0006974206166746572207265737461727401
:100BC000696E67290A004E6F20436865636B737511
:100BD0006D2077697468206C696E65206E756D6232
:100BE00065722C204C617374204C696E653A20004C
:100BF0004E6F20436865636B73756D207769746809
:100C0000206C696E65206E756D6265722C204C617A
:100C10007374204C696E653A2000636865636B737A
:100C2000756D206D69736D617463682C204C617300
:100C300074204C696E653A20004C696E65204E75D3
:100C40006D626572206973206E6F74204C617374DD
:100C5000204C696E65204E756D6265722B312C20BB
:100C60004C617374204C696E653A20004D3131300F
:100C7000004D323900526573656E643A20006F6B27
:100C800000220A00656E7175657565696E672022C0
:100C90000053544F505045442E2000454550524F6C
:100CA0004D204F4B0A00204D393220580020466C11
:100CB0006F773A2000496E76616C696420657874BC
:100CC00072756465720A0020643A0020693A002057
:100CD000703A0043290A0061626C656420286D69DE
:100CE0006E2074656D70200064697300656E00434A
:100CF0006F6C6420657874727564657320617265C9
:100D000020005741524E494E4721204C6F77205AC0
:100D1000204A65726B206D6179206C656164207476
:100D20006F20756E77616E74656420706175736590
:100D3000732E0A00205200416363656C6572617412
:100D4000696F6E3A20500046523A004572723A205E
:100D5000546F6F206661722100546F6F206661725C
:100D60002066726F6D207265666572656E636520C0
:100D7000706F696E740A00FFFFFF00000000000042
:100D80000000000000004F666673657473204170B8
:100D9000706C696564004E6F204D6F76652E002083
:100DA000204D61783A2000200020204D696E3A20C5
:100DB00000536F667420656E6473746F70733A20AD
:100DC000006F66660044454255473A00F70DF20D44
:100DD000EB0DE40DD60D434F4D4D554E4943415457
:100DE000494F4E0044525952554E004552524F52AF
:100DF0005300494E464F004543484F00496E7661C7
:100E00006C69642050696E204D6F64650A0033443C
:100E1000205072696E746572204F46462E004D3820
:100E20003400446F6E65207072696E74696E67205D
:100E300066696C650A004D3737004D333100456EE9
:100E4000642066696C65206C6973740A004265678A
:100E5000696E2066696C65206C6973740A0043755D
:100E60007272656E742066696C653A2000220A0011
:100E7000556E6B6E6F776E20636F6D6D616E643A49
:100E80002022004D31343520533C696E6465783E34
:100E9000206F7574206F662072616E676520283040
:100EA0002D31290A00436C69636B20746F205265F1
:100EB00073756D652E2E2E0047322F4733206261E9
:100EC0006420706172616D65746572730A00536CA1
:100ED0006565702E2E2E00627573793A20706175EB
:100EE00073656420666F7220696E7075740A0062A3
:100EF0007573793A2070617573656420666F72202E
:100F0000757365720A00627573793A2070726F6347
:100F1000657373696E670A0020496E76616C696457
:100F200020657874727564657220004F4646004FE4
:100F30004E006563686F3A004572726F723A007CCA
:100F40003C3E5E2B3D3F2F5B5D3B2C2A225C0043E9
:100F5000616E6E6F7420656E746572207375626465
:100F600069723A20002E0A006F70656E2066616912
:100F70006C65642C2046696C653A20006175746F5D
:100F800025632E67006572726F72207772697469CB
:100F90006E6720746F2066696C650A004E6F74205E
:100FA0005344207072696E74696E670A005344205E
:100FB0007072696E74696E67206279746520002EA4
:100FC0000A0044656C6574696F6E206661696C65C2
:100FD000642C2046696C653A200046696C65206483
:100FE000656C657465643A0057726974696E672050
:100FF000746F2066696C653A200046696C652073E1
:10100000656C65637465640A002053697A653A20EB
:101010000046696C65206F70656E65643A20004516
:101020004E4420535542524F5554494E450A0022D2
:1010300020706F73002220706172656E743A220016
:10104000535542524F5554494E452043414C4C2034
:101050007461726765743A220045786365656465FA
:1010600064206D617820535542524F5554494E4586
:101070002064657074683A310A002066696C653ACC
:101080002000667265736800646F696E67004E6F5A
:101090007720002E0A006F70656E206661696C65AE
:1010A000642C2046696C653A2000534420636172C9
:1010B00064206F6B0A006F70656E526F6F742066EC
:1010C00061696C65640A00766F6C756D652E696E7A
:1010D0006974206661696C65640A004E6F20534430
:1010E00020636172640A00286E6F2066696C65294E
:1010F0000043616E6E6F74206F70656E2073756251
:10110000646972200053756263616C6C204F766570
:1011100072666C6F77003F004D32350025533A20E0
:101120002553002B11271141425300504C410050D0
:1011300072696E742041626F7274656400507269E6
:101140006E74696E672E2E2E005072696E74205078
:1011500061757365640050617573696E672E2E2E1C
:101160000049676E6F72650052657365740045458E
:1011700050524F4D2056657273696F6E20457272E2
:101180006F7200454550524F4D20496E646578207E
:101190004572726F7200454550524F4D2043524385
:1011A000204572726F7200496E697469616C697A68
:1011B0006520454550524F4D004D65646961205290
:1011C000656D6F766564004D6564696120496E7375
:1011D0006572746564003344205072696E74657280
:1011E0002052656164792E0054656D70657261747A
:1011F0007572650046616E205370656564004265D6
:1012000064004E6F7A7A6C6500436F6F6C646F7721
:101210006E00507265686561742024204265640028
:1012200050726568656174202420456E64005072B8
:1012300065686561742024004D61696E004D383425
:10124000004732385A004732385900473238580080
:101250004D6F74696F6E004F6666004F6E004D6F84
:1012600076652031306D6D004D6F766520316D6D86
:10127000004D6F766520302E316D6D004D6F7665B7
:101280002025736D6D00486F74656E6420746F6FF8
:1012900020636F6C64004578747275646572004DEC
:1012A0006F7665205A004D6F76652059004D6F7638
:1012B00065205800426564204C6576656C696E67F0
:1012C000004D6F7665204178697300486F6D652029
:1012D0005A00486F6D65205900486F6D65205800B1
:1012E0004175746F20486F6D650044697361626C6D
:1012F00065205374657070657273004D61696E008E
:10130000536F667420456E6473746F707300052E9E
:101310002E003F005072696E742066726F6D204D12
:10132000656469610043616E63656C005072696E4B
:1013300074005374617274205072696E74004D6150
:10134000696E004732392053310047323920533219
:10135000002569202F20257500473239205332009F
:1013600050726F6265205A204F6666736574004C38
:101370006F61642053657474696E67730053746F92
:1013800072652053657474696E6773004D6F74697C
:101390006F6E004F6666004F6E00426564205A0013
:1013A0004D6F7665205A005A2056616C756500496C
:1013B0006E646578205900496E6465782058004550
:1013C000646974204D657368004C6576656C2042D5
:1013D000656400426564204C6576656C696E6700E3
:1013E0004661646520486569676874004C65766588
:1013F0006C696E6720446F6E6521004E65787420BD
:10140000506F696E7400436C69636B20746F204287
:101410006567696E0050726F6265205A204F66667C
:1014200073657400526573746F72652044656661FC
:10143000756C7473004C6F61642053657474696ECD
:1014400067730053746F72652053657474696E67B7
:10145000730046616E2053706565640042656400E8
:101460004E6F7A7A6C6500507265686561742024ED
:1014700020436F6E6600436F6E66696775726174B4
:10148000696F6E00416476616E63656420536574B4
:1014900074696E6773004D61696E00466C6F77000A
:1014A00046616E20537065656400426564004E6F4E
:1014B0007A7A6C6500426564205A005370656564F1
:1014C000004D61696E004D36303020423020542589
:1014D00064004D373032203B2564004D37303220D8
:1014E000542564004D37303120542564005761691C
:1014F0007420666F72207072696E7400746F20724F
:101500006573756D652E2E2E000057616974206617
:101510006F720066696C616D656E742070757267BC
:101520006500005761697420666F720066696C61BE
:101530006D656E74206C6F61640000576169742082
:10154000666F720066696C616D656E7420756E6C95
:101550006F616400004E6F7A7A6C65206865617413
:10156000696E6700506C6561736520776169742EE0
:101570002E2E0000507265737320627574746F6E46
:1015800000746F2068656174206E6F7A7A6C6500F4
:1015900000496E736572742066696C616D656E7466
:1015A00000616E6420707265737320627574746F6D
:1015B0006E00746F20636F6E74696E75650057619D
:1015C000697420666F720066696C616D656E742067
:1015D0006368616E676500746F2073746172740074
:1015E0005061726B696E672E2E2E0000005072657E
:1015F000737320427574746F6E00746F207265731C
:10160000756D65207072696E74000020204E6F7ACF
:101610007A6C653A2000436F6E74696E7565005090
:1016200075726765206D6F726500524553554D4563
:10163000204F5054494F4E533A00554E4C4F414461
:101640002046494C414D454E54004C4F41442046A4
:10165000494C414D454E54005052494E5420504142
:10166000555345440046494C414D454E542043484E
:10167000414E474500556E6C6F61642046696C6150
:101680006D656E74004C6F61642046696C616D65B8
:101690006E74004368616E67652046696C616D65B4
:1016A0006E74005072656865617420437573746F61
:1016B0006D00507265686561742024004261636B3F
:1016C000004D6F76696E672E2E2E00486F6D696E25
:1016D000672058595A004D363030204230003F00C4
:1016E0004368616E6765204D6564696100436861A8
:1016F0006E67652046696C616D656E74004E6F2083
:101700004D65646961005072696E742066726F6D18
:10171000204D656469610053746F70205072696E6A
:101720007400526573756D65205072696E74005057
:1017300061757365205072696E740053746F700028
:1017400054756E6500496E666F2053637265656EF1
:10175000004D6F74696F6E0054656D7065726174D1
:1017600075726500436F6E66696775726174696F43
:101770006E004261636B003F004D343238004D33E0
:10178000303320553120452569205325690050729A
:101790006F6265205A204F66667365740050726FE1
:1017A00062652059204F66667365740050726F62DF
:1017B000652058204F66667365740050726F6265CD
:1017C000204F6666736574730043616E63656C00D9
:1017D000496E697400496E697469616C697A652043
:1017E000454550524F4D004C6F6164206D6D005562
:1017F0006E6C6F6164206D6D0046696C2E204469CB
:10180000612E004520696E206D6DC2B30046696C83
:10181000616D656E740054656D706572617475728A
:101820006500452073746570732F6D6D005A2053E9
:10183000746570732F6D6D00592053746570732F2C
:101840006D6D00582053746570732F6D6D00537467
:101850006570732F6D6D00412D54726176656C005B
:10186000412D5265747261637400416D6178204549
:1018700000416D6178205A00416D61782059004126
:101880006D6178205800416363656C6572617469AD
:101890006F6E005654726176204D696E00566D6908
:1018A0006E00566D6178204500566D6178205A00B3
:1018B000566D6178205900566D6178205800566544
:1018C0006C6F636974790056652D4A65726B0056BA
:1018D0005A2D4A65726B0056592D4A65726B005637
:1018E000582D4A65726B004A65726B0041636365EF
:1018F0006C00504944204175746F74756E65202AE0
:10190000004F6666004F6E004175746F74656D70B0
:101910000020022046616374002002204D6178009F
:101920002002204D696E0053657420486F6D65205C
:101930004F66667365747300436F6E666967757290
:101940006174696F6E00416476616E6365642053F3
:10195000657474696E677300A10000006900A200DD
:1019600000006300B00000000900C1000000410059
:10197000C20000004100C30000004100C40000009C
:101980004100C50000004100C60000004145C700FD
:1019900000004300C80000004500C90000004500E9
:1019A000CD0000004900D10000004E00D50000002D
:1019B0004F00D60000004F00D70000007800DC0088
:1019C00000005500DD0000005900E000000061004B
:1019D000E10000006100E20000006100E30000009F
:1019E0006100E40000006100E50000006100E60025
:1019F00000006165E70000006300E800000065008A
:101A0000E90000006500EA0000006500EB0000004E
:101A10006500EC0000006900ED0000006900EE00C8
:101A200000006900EF0000006900F10000006E0096
:101A3000F20000006F00F30000006F00F4000000EF
:101A40006F00F50000006F00F60000006F00F80066
:101A500000006F00F90000007500FA00000075003A
:101A6000FB0000007500FC0000007500FD00000098
:101A70007900FF0000007900040100004100050129
:101A80000000610006010000430007010000630040
:101A90000C01000043000D01000063000E01000076
:101AA00044000F01000064001101000064001901EE
:101AB000000065001A01000045001B0100006500E0
:101AC0001F010000670030010000490031010000E3
:101AD0006900410100004C00420100006C0043011C
:101AE00000004E00440100006E00480100006E003E
:101AF0005801000052005901000072005A01000014
:101B000053005B01000073005F010000730060017F
:101B100000005300610100007300650100007400C3
:101B20006F01000075007C0100007A007D0100005B
:101B30005A007E0100007A00920100006600E30274
:101B400000007800222000002E001E2100005078A6
:101B500022210000544D902100003C2D92210000D4
:101B60002D3EB02100000300BB21000004003C22F8
:101B700000007E00482200007E3D60220000213DE2
:101B8000612200003D00642200003C3D652200000F
:101B90003E3DF12300000700A03000003D0021F38E
:101BA00001000200C2F401000500A2000000EC00E8
:101BB000B0000000DF00E4000000E100F6000000DB
:101BC000EF00F7000000FD00FC000000F500E3025C
:101BD0000000EB0087030000A5008F030000F40065
:101BE00098030000F2009E030000E300A30300003E
:101BF000F600A9030000F400AC030000E000AD0310
:101C00000000E300B1030000E000B2030000E200C6
:101C1000B5030000E300B8030000F200BC030000BD
:101C2000E400BE030000E300C0030000F700C103AE
:101C30000000E600C3030000E500902100007F00E3
:101C4000922100007E001A220000E8001E220000FF
:101C5000F30088250000FF0002300000A1000C30D6
:101C60000000A2000D300000A3009B300000DE0049
:101C70009C300000DF00A03000003D00A1300000DB
:101C8000A700A2300000B100A3300000A800A430DB
:101C90000000B200A5300000A900A6300000B3008B
:101CA000A7300000AA00A8300000B400A93000004E
:101CB000AB00AA300000B500AB300000B600AC307D
:101CC0000000B6DEAD300000B700AE300000B7DE79
:101CD000AF300000B800B0300000B8DEB130000016
:101CE000B900B2300000B9DEB3300000BA00B43041
:101CF0000000BADEB5300000BB00B6300000BBDE2D
:101D0000B7300000BC00B8300000BCDEB9300000C5
:101D1000BD00BA300000BDDEBB300000BE00BC30EC
:101D20000000BEDEBD300000BF00BE300000BFDEE0
:101D3000BF300000C000C0300000C0DEC130000075
:101D4000C100C2300000C1DEC3300000AF00C430AB
:101D50000000C200C5300000C2DEC6300000C30073
:101D6000C7300000C3DEC8300000C400C930000026
:101D7000C4DECA300000C500CB300000C600CC3045
:101D80000000C700CD300000C800CE300000C90000
:101D9000CF300000CA00D0300000CADED1300000D1
:101DA000CADFD2300000CB00D3300000CBDED4300D
:101DB0000000CBDFD5300000CC00D6300000CCDEF8
:101DC000D7300000CCDFD8300000CD00D930000083
:101DD000CDDEDA300000CDDFDB300000CE00DC30BD
:101DE0000000CEDEDD300000CEDFDE300000CF00B0
:101DF000DF300000D000E0300000D100E130000012
:101E0000D200E2300000D300E3300000AC00E43048
:101E10000000D400E5300000AD00E6300000D50041
:101E2000E7300000AE00E8300000D600E9300000E6
:101E3000D700EA300000D800EB300000D900EC30C9
:101E40000000DA00ED300000DB00EF300000DC00C5
:101E5000F2300000A600F3300000DD00F430000096
:101E6000B3DEF7300000DCDEFA300000A6DEFB3027
:101E70000000A500FC300000B000FD300000A40010
:101E8000074E0000FB0086510000FC004353000099
:101E9000FA0064FF0000A40065FF0000A50066FFD3
:101EA0000000A60067FF0000A70068FF0000A80070
:101EB00069FF0000A9006AFF0000AA006BFF000094
:101EC000AB006CFF0000AC006DFF0000AD006EFFCA
:101ED0000000AE006FFF0000AF0070FF0000B00018
:101EE00071FF0000B10072FF0000B20073FF00003C
:101EF000B30074FF0000B40075FF0000B50076FF6A
:101F00000000B60077FF0000B70078FF0000B800BF
:101F100079FF0000B9007AFF0000BA007BFF0000E3
:101F2000BB007CFF0000BC007DFF0000BD007EFF09
:101F30000000BE007FFF0000BF0080FF0000C00067
:101F400081FF0000C10082FF0000C20083FF00008B
:101F5000C30084FF0000C40085FF0000C50086FFA9
:101F60000000C60087FF0000C70088FF0000C8000F
:101F700089FF0000C9008AFF0000CA008BFF000033
:101F8000CB008CFF0000CC008DFF0000CD008EFF49
:101F90000000CE008FFF0000CF0090FF0000D000B7
:101FA00091FF0000D10092FF0000D20093FF0000DB
:101FB000D30094FF0000D40095FF0000D50096FFE9
:101FC0000000D60097FF0000D70098FF0000D8005F
:101FD00099FF0000D9009AFF0000DA009BFF000083
:101FE000DB009CFF0000DC009DFF0000DD009EFF89
:101FF0000000DE009FFF0000DF00E5FF00005C0046
:102000002D2D2D00534400202020200020202020B2
:1020100020202000687474703A2F2F6D61726C69F3
:102020006E66772E6F726700687474703A2F2F6D2A
:1020300061726C696E66772E6F7267006874747077
:102040003A2F2F6D61726C696E66772E6F72670022
:102050006275676669782D322E302E78006275675A
:102060006669782D322E302E780062756766697841
:102070002D322E302E7800687474703A2F2F6D61D7
:10208000726C696E66772E6F726700687474703A4E
:102090002F2F6D61726C696E66772E6F72670068A4
:1020A0007474703A2F2F6D61726C696E66772E6F43
:1020B000726700206275676669782D322E302E783F
:1020C000002D2D2D2D2D2D007C4D61726C696E7CA7
:1020D000002D2D2D2D2D2D00001C1F11111F000076
:1020E0000006191803130C00000E1315110E000042
:1020F0001C10181705060500040E1F041C00000024
:10210000040A0A0A0A11110E0C12120C0000000037
:10211000001F1511151F000000000000010204043B
:102120000000001C1C0C040404020100000000005C
:1021300004081000000000002568753A2530326858
:10214000750025303268753A253032687500506C5C
:1021500065617365205265736574005052494E5431
:1021600045522048414C54454400456E636C6F73A2
:10217000757265004265640020746F6F206C6F6E2D
:102180006720657874727573696F6E2070726576FA
:10219000656E7465640A0020636F6C6420657874F2
:1021A000727573696F6E2070726576656E746564A2
:1021B0000A0020573A0020573A00452025530020B6
:1021C00042403A0020403A00202F00202D20496E46
:1021D00076616C6964206578747275646572206ECE
:1021E000756D62657220210A004D494E54454D506F
:1021F00020747269676765726564004D4158544583
:102200004D50207472696767657265640062656429
:10221000002C2073797374656D2073746F70706512
:102220006421204865617465725F49443A20004525
:1022300031004B6420004B6920004B702000504956
:1022400044204175746F74756E652066696E69739C
:10225000686564212050757420746865206C617312
:1022600074204B702C204B6920616E64204B6420DD
:10227000636F6E7374616E74732066726F6D20622B
:10228000656C6F7720696E746F20436F6E66696747
:1022900075726174696F6E2E680A0050494420415E
:1022A00075746F74756E65206661696C6564212054
:1022B00074696D656F75740A0050494420417574E6
:1022C0006F74756E65206661696C65642120546564
:1022D0006D706572617475726520746F6F206869C6
:1022E00067680A00204B643A2000204B693A2000BE
:1022F000204B703A20000A20436C6173736963209D
:10230000504944200A00204B643A2000204B693A8F
:102310002000204B703A20000A204E6F206F766517
:102320007273686F6F740A002054753A2000204B56
:10233000753A2000206D61783A2000206D696E3A70
:10234000200020643A200020626961733A20005026
:102350004944204175746F74756E652073746172A1
:10236000740A00504944204175746F74756E65207D
:102370006661696C6564212054656D706572617475
:1023800075726520746F6F20686967680A0023643E
:102390006566696E652044454641554C545F00486A
:1023A000656174696E67206661696C656400546874
:1023B00065726D616C2052756E6177617900700194
:1023C0002C0190012701B0012201C0011D01F00183
:1023D00018011002130130020E016002090190027F
:1023E0000401C002FF000003FA004003F50080036F
:1023F000F000D003EB002004E6007004E100E004EC
:10240000DC004005D700C005D2004006CD00D00654
:10241000C8008007C3003008BE00F008B900C0093A
:10242000B400B00AAF00B00BAA00D00CA500000E9B
:10243000A000500F9B00C010960050129100001495
:102440008C00C0158700B0178200B0197D00D01B2A
:102450007800001E730040206E0090226900F02476
:10246000640040275F0090295A00E02B5500102E91
:10247000500020304B0010324600E03341009035D0
:102480003C001037370070383200A0392D00B03AC8
:102490002800A03B2300603C1E00103D1900903D29
:1024A0001400103E0F00703E0A00C03E0500003FC1
:1024B0000000403FFBFF803FF6FFC03FF1FF436F4E
:1024C0006F6C696E672E2E2E0048656174696E67A9
:1024D0002E2E2E004572723A204D494E54454D50D5
:1024E000004572723A204D415854454D50005448B1
:1024F00045524D414C2052554E4157415900486577
:102500006174696E67204661696C65640042656448
:10251000005761726E696E673A20486F6D696E6729
:102520002042756D702044697669736F72203C207B
:10253000310A0002020420746F6F206C6F6E6720F6
:10254000657874727573696F6E2070726576656EEA
:102550007465640A0020636F6C642065787472751A
:1025600073696F6E2070726576656E7465640A00BB
:102570000000484200004842555505410000A04077
:102580000000A040000000400000B4420000A04253
:1025900000002A430000B4420000A04200002A4389
:1025A000000000000000000000000000486F6D65A2
:1025B0002025732573257320466972737400496E54
:1025C00076616C69642065787472756465720A005E
:1025D0002055004C0046696C616D656E74206C6F0F
:1025E00061642F756E6C6F6164206C656E677468D2
:1025F000733A0020204D3835312058005A2D507242
:102600006F6265204F666673657400204400204940
:102610000020204D33303120500050494420736554
:102620007474696E67733A002046002048002020C9
:102630004D3134352053004D6174657269616C20F1
:1026400068656174757020706172616D6574657222
:10265000733A002020473239205334205A00204A50
:1026600000202047323920533320490020204D34A8
:1026700032302053004D65736820426564204C65FC
:1026800076656C696E673A0020204D3230362058EE
:1026900000486F6D65206F66667365743A0020535D
:1026A0000020204D323035204200416476616E6357
:1026B00065643A20423C6D696E5F7365676D656E57
:1026C000745F74696D655F75733E20533C6D696E10
:1026D0005F66656564726174653E20543C6D696E29
:1026E0005F74726176656C5F66656564726174655E
:1026F0003E20583C6D61785F785F6A65726B3E2062
:10270000593C6D61785F795F6A65726B3E205A3C17
:102710006D61785F7A5F6A65726B3E20453C6D61E2
:10272000785F655F6A65726B3E0020520020204D25
:10273000323034205000416363656C6572617469A6
:102740006F6E2028756E6974732F7332293A20508A
:102750003C7072696E745F616363656C3E20523CCD
:10276000726574726163745F616363656C3E20546B
:102770003C74726176656C5F616363656C3E0020DA
:10278000204D3230312058004D6178696D756D20D3
:10279000416363656C65726174696F6E2028756E44
:1027A0006974732F7332293A0020204D3230332060
:1027B00058004D6178696D756D206665656472615C
:1027C0007465732028756E6974732F73293A0053EA
:1027D000746570732070657220756E69743A00209C
:1027E000440020204D323030205300204469736172
:1027F000626C65640A0046696C616D656E74207375
:10280000657474696E67733A0020204D3134392045
:1028100043203B20556E69747320696E2043656CBC
:10282000736975730A002020473231202020203B35
:1028300020556E69747320696E206D6D003A0A0030
:1028400020286D6D290020204D36303320003B209C
:102850000048617264636F646564204465666175F5
:102860006C742053657474696E6773204C6F616477
:1028700065640A00290A002062797465733B20634D
:10288000726320002073746F7265642073657474C2
:10289000696E677320726574726965766564202855
:1028A00000202863616C63756C6174656429210A7A
:1028B0000020213D2000454550524F4D20435243BA
:1028C000206D69736D61746368202D202873746FA7
:1028D0007265642920002053697A653A2000496EA8
:1028E0006465783A2000204D61726C696E3D5638FF
:1028F00031290A00454550524F4D20766572736963
:102900006F6E206D69736D61746368202845455052
:10291000524F4D3D004E6F20454550524F4D2E0AAF
:1029200000290A002062797465733B20637263207A
:102930000053657474696E67732053746F726564B5
:102940002028004E6F20454550524F4D2E0A00451D
:102950004550524F4D206461746173697A652065FA
:1029600072726F722E0A0000A00C4600A00C460086
:10297000007A4400007A44000048420000484200C7
:10298000007A43000093422003000020030000C8A7
:10299000000000E803000053657474696E677320DB
:1029A00053746F726564007A5F6D696E00795F6D54
:1029B000696E00785F6D696E005265706F72746940
:1029C0006E6720656E6473746F70207374617475C4
:1029D000730A006F70656E0054524947474552456F
:1029E00044003A20002553202563202563202563D9
:1029F00020256300205A3A0020593A0020583A0016
:102A0000656E6473746F7073206869743A2000484F
:102A10006F6D696E67204661696C656400456E6420
:102A200073746F70730050726F62696E67204661D5
:102A3000696C65640A00205A3A200020593A200047
:102A400042656420583A200050726F62696E6720B8
:102A50004661696C65640020423A0020436F756EE0
:102A60007420413A00043700001E290000511B0069
:102A7000005810000010090000CC0400007802008B
:102A8000004101000024F4D43050C38E20C2A24083
:102A900017828B7011127A910D816CD90AA861E1AD
:102AA00008C7586607615143061E4B5D05C145A71F
:102AB000041A411104093D9803713931034036DB92
:102AC0000265339102D4305402802E1D02632CEE35
:102AD00001752AC501B028A001102781018F256446
:102AE000012B244B01E0223401AC211F018D200D6C
:102AF00001801FFC00841EED00971DDF00B81CD272
:102B000000E61BC600201BBC00641AB200B219A864
:102B1000000A19A0006A189900D117910040178B7C
:102B200000B516840031167E00B31579003A15738E
:102B300000C7146F0058146A00EE13660088136310
:102B40000025135E00C7125B006C1257001512546B
:102B500000C111510070114F0021114B00D61049D6
:102B6000008D1047004610440002104200C00F4084
:102B700000800F3E00420F3C00060F3B00CB0E389A
:102B800000930E37005C0E3500270E3400F30D3233
:102B900000C10D3100900D3000600D2E00320D2D62
:102BA00000050D2C00D90C2B00AE0C2900850C293A
:102BB000005C0C2700350C27000E0C2600E80B24C7
:102BC00000C40B2400A00B23007D0B23005A0B2113
:102BD00000390B2100180B2000F80A1F00D90A1E2B
:102BE00000BB0A1E009D0A1D00800A1D00630A1C0E
:102BF00000470A1B002C0A1B00110A1A00F7091AC9
:102C000000DD091900C4091900AB09190092091760
:102C1000007B091800630917004C091600360916D5
:102C200000200916000A091500F5081500E008142F
:102C300000CC081400B8081400A40814009008136D
:102C4000007D0812006B0813005808120046081295
:102C500000340811002308110012081100010811A6
:102C600000F0071000E0071000D0071000C00710A8
:102C700000B0070F00A107100091070E0083070F97
:102C80000074070F0065070E0057070E0049070E76
:102C9000003B070D002E070E0020070D0013070D47
:102CA0000006070D00F9060C00ED060D00E0060C0D
:102CB00000D4060C00C8060C00BC060C00B0060CC4
:102CC00000A4060B0099060C008D060B0082060B73
:102CD0000077060B006C060B0061060A0057060B16
:102CE000004C060A0042060A0038060A002E060AB0
:102CF0000024060A001A060A001006090007060A40
:102D000000FD050900F4050900EB050900E20509CD
:102D100000D9050900D0050900C7050900BE05094D
:102D200000B5050800AD050800A50509009C0508CB
:102D300000940508008C050800840508007C05083F
:102D400000740508006C050700650508005D0507AF
:102D500000560508004E0507004705070040050816
:102D60000038050700310507002A0507002305077D
:102D7000001C050600160507000F050700080506DC
:102D80000002050700FB040600F5040700EE040638
:102D900000E8040600E2040700DB040600D5040690
:102DA00000CF040600C9040600C3040600BD0406E3
:102DB00000B7040600B1040500AC040600A6040632
:102DC00000A00405009B040600950405009004067D
:102DD000008A04050085040500800406007A0405C5
:102DE0000075040500700405006B04050066040509
:102DF00000610405005C0405005704050052040549
:102E0000004D04050048040500430405003E040489
:102E1000003A04050035040500300404002C0405C4
:102E20000027040400230405001E0404001A0404FF
:102E30000016040500110404000D04040009040533
:102E4000000404040000040400FC030400F803046C
:102E500000F4030400F0030400EC030400E803049E
:102E600000E4030400E0030400DC030400D80304CE
:102E700000D4030400D0030400CC030400C80303FF
:102E800000C503030024F404D9201BC40C5C0E9875
:102E900004C4095F0265077101F405F900FB04B37E
:102EA0000048048700C10369005803550003034527
:102EB00000BE023A008402310053022A0029022592
:102EC0000004022000E4011C00C8011900AF011732
:102ED00000980114008401130071011000610110B9
:102EE0000051010E0043010D0036010B002B010BB8
:102EF0000020010B00150109000C01090003010865
:102F000000FB000800F3000800EB000700E40006E7
:102F100000DE000600D8000600D2000600CC000546
:102F200000C7000500C2000500BD000400B9000490
:102F300000B5000400B1000400AD000400A90004C5
:102F400000A5000300A20003009F0004009B0003F3
:102F50000098000300950002009300030090000316
:102F6000008D0002008B0003008800020086000232
:102F70000084000300810002007F0002007D000247
:102F8000007B000200790002007700010076000259
:102F9000007400020072000100710002006F000264
:102FA000006D0001006C0002006A0001006900026F
:102FB0000067000100660001006500010064000276
:102FC000006200010061000100600001005F00027A
:102FD000005D0001005C0001005B0001005A00017F
:102FE000005900010058000100570001005600017F
:102FF000005500010054000100530000005300017F
:10300000005200010051000100500001004F00017A
:10301000004E0000004E0001004D0001004C000178
:10302000004B0000004B0001004A00010049000174
:103030000048000000480001004700010046000071
:103040000046000100450000004500010044000169
:103050000043000000430001004200000042000164
:10306000004100000041000100400001003F00005D
:10307000003F0001003E0000003E0001003D000056
:10308000003D0001003C0000003C0000003C00014D
:10309000003B0000003B0001003A0000003A000144
:1030A000003900000039000100380000003800003D
:1030B0000038000100370000003700010036000032
:1030C0000036000000360001003500000035000029
:1030D000003500010034000000340000003400011D
:1030E0000033000000330000003300010032000014
:1030F0000032000000320001003100000031000009
:1031000000310001003000000030000000300001FC
:10311000002F0000002F0000002F0000002F0001F2
:10312000002E0000002E0000002E0001002D0000E7
:10313000002D0000002D0000002D0001002C0000DB
:10314000002C0000002C0000002C0001002B0000CF
:10315000002B0000002B0000002B0001002A0000C3
:10316000002A0000002A0000002A000100290000B7
:1031700000290000002900000029000000290001AA
:10318000002800000028000000280000002800009F
:103190000028000100270000002700000027000091
:1031A0000027000000270001002600000026000084
:1031B0000026000000260000002600010025000077
:1031C000002500000025000000250000002500006B
:1031D000002500010024000000240000002400005D
:1031E0000024000000240001002300000023000050
:1031F0000023000000230000002300000023000043
:103200000023000100220000002200000022000034
:103210000022000000220000002200010021000026
:10322000002100000021000000210000002100001A
:10323000002100000021000100200000002000000B
:1032400000200000002000000020000000200000FE
:103250000020000000200001001F0000001F0000EF
:10326000001F0000001F0000001F0000001F0000E2
:10327000001F0001001E0000001E0000001E0000D4
:10328000001E0000004572726F72207772697469C7
:103290006E6720746F20454550524F4D210A000043
:1032A0000C220F22F9294D3FC86E487A23BA38D232
:1032B000A000E56E11241FBECFEFD1E2DEBFCDBF6F
:1032C00000E00CBF13E0A0E0B2E0EAEBFCE402E0B7
:1032D0000BBF02C007900D92AA33B107D9F722E1C4
:1032E000AAE3B3E001C01D92AE3DB207E1F719E1D8
:1032F000C9E5D9E100E006C021970109802FFE0150
:103300000F943B1CC035D10780E00807A9F7FCD516
:103310000D944B260C9400001F920F920FB60F9243
:1033200011242F933F938F939F93AF93BF938091DB
:103330003B0390913C03A0913D03B0913E0330913B
:103340003A0323E0230F2D3758F50196A11DB11D37
:1033500020933A0380933B0390933C03A0933D0357
:10336000B0933E0380913F0390914003A0914103AD
:10337000B09142030196A11DB11D80933F0390932C
:103380004003A0934103B0934203BF91AF919F913B
:103390008F913F912F910F900FBE0F901F90189516
:1033A00026E8230F0296A11DB11DD2CF2FB7F894A6
:1033B00060913B0370913C0380913D0390913E03EB
:1033C0002FBF08953FB7F89480913F039091400339
:1033D000A0914103B091420326B5A89B05C02F3FA1
:1033E00019F00196A11DB11D3FBFBA2FA92F982F2B
:1033F0008827BC01CD01620F711D811D911D42E026
:10340000660F771F881F991F4A95D1F708958F92ED
:103410009F92AF92BF92CF92DF92EF92FF926B0199
:103420007C01D0DF4B015C01C114D104E104F10443
:10343000D9F0B6D3C7DF681979098A099B09683EB4
:1034400073408105910580F321E0C21AD108E1089B
:10345000F10888EE880E83E0981EA11CB11CC114EF
:10346000D104E104F10431F7FF90EF90DF90CF90A9
:10347000BF90AF909F908F9008958230910538F063
:10348000880F991F880F991F05970197F1F70895E5
:10349000789484B5826084BD84B5816084BD85B52F
:1034A000826085BD85B5816085BDEEE6F0E08081F6
:1034B00081608083E1E8F0E0108280818260808317
:1034C000808181608083E0E8F0E08081816080839A
:1034D000E1EBF0E0808184608083E0EBF0E08081CC
:1034E00081608083E1E9F0E0808182608083808177
:1034F00081608083E0E9F0E0808181608083E1EA9F
:10350000F0E0808182608083808181608083E0EA56
:10351000F0E0808181608083E1E2F1E0808182607F
:103520008083808181608083E0E2F1E0808181603E
:103530008083EAE7F0E0808184608083808182601C
:103540008083808181608083808180688083109205
:10355000C10008951F93CF93DF93182FEB0161E013
:1035600035D1209731F460E0812FDF91CF911F9109
:1035700069C1CF3FD10511F461E0F6CFE12FF0E052
:10358000EF56FD4FE491E150E23108F0B3C0F0E0B6
:103590008827E253F54E8F4F0D943B1CE01AE81A32
:1035A000ED1AF71A011B7A1B0B1B131B1B1B251B88
:1035B0002F1B391B481B521B7A1B5C1B661B701B85
:1035C00084B5806884BDC7BDDF91CF911F910895F8
:1035D00084B5806284BDC8BDF7CF809180008068CB
:1035E00080938000D0938900C0938800EDCF8091B4
:1035F0008000806280938000D0938B00C0938A000B
:10360000E3CF80918000886080938000D0938D000C
:10361000C0938C00D9CF8091B00080688093B000B7
:10362000C093B300D1CF8091B00080628093B0008E
:10363000C093B400C9CF80919000806880939000BF
:10364000D0939900C0939800BFCF80919000806282
:1036500080939000D0939B00C0939A00B5CF809147
:103660009000886080939000D0939D00C0939C0050
:10367000ABCF8091A00080688093A0008091A000D3
:103680008F7B8093A000D093A900C093A8009CCF0B
:103690008091A00080628093A000D093AB00C09383
:1036A000AA0092CF8091A00088608093A000D09360
:1036B000AD00C093AC0088CF8091200180688093DA
:1036C0002001D0932901C09328017ECF8091200151
:1036D000806280932001D0932B01C0932A0174CF84
:1036E00080912001886080932001D0932D01C093A8
:1036F0002C016ACFC038D1050CF03ECF34CF8150B9
:10370000823108F05AC0E82FF0E08827E557F44EE0
:103710008F4F0D943B1CAB1BAF1B9D1BA31BA71B0B
:10372000DD1BB21BB81BBC1BC21BC61BCA1BD01B9C
:10373000D41BDD1BD81BDE1BE21B809180008F7722
:10374000809380000895809180008F7DF9CF8091D3
:103750008000877FF5CF84B58F7784BD089584B5C9
:103760008F7DFBCF8091B0008F778093B00008955C
:103770008091B0008F7DF9CF809190008F778093FA
:1037800090000895809190008F7DF9CF80919000F6
:10379000877FF5CF8091A0008F778093A000089558
:1037A0008091A0008F7DF9CF8091A000877FF5CF19
:1037B000809120018F7780932001089580912001CE
:1037C0008F7DF9CF80912001877FF5CFCF93DF9355
:1037D00090E0FC01E952FD4F2491835E9C4FFC0177
:1037E00084918823C9F090E0880F991FFC01E95665
:1037F000FC4FA591B491FC01E358FC4FC591D491C5
:1038000061110DC09FB7F8948C91209582238C9301
:103810008881282328839FBFDF91CF91089562304C
:1038200051F49FB7F8943C91822F809583238C9319
:10383000E8812E2BEFCF8FB7F894EC912E2B2C93A1
:103840008FBFEACF1F93CF93DF93282F30E0F9018A
:10385000EF56FD4F8491F901E952FD4FD491F901E2
:10386000E35EFC4FC491CC23A1F0162F811147DFFA
:10387000EC2FF0E0EE0FFF1FE358FC4FA591B49141
:103880008FB7F894EC91111108C0D095DE23DC932A
:103890008FBFDF91CF911F910895DE2BF8CFCF938B
:1038A000DF93282F30E0F901EF56FD4F8491F901A5
:1038B000E952FD4FD491F901E35EFC4FC491CC2352
:1038C00099F081111CDFEC2FF0E0EE0FFF1FED5996
:1038D000FC4FA591B491EC91ED2381E090E009F4C7
:1038E00080E0DF91CF91089580E090E0FACF0895D5
:1038F0001F920F920FB60F9211240BB60F922F93B7
:103900003F934F935F936F937F938F939F93AF9367
:10391000BF93EF93FF93E0910402F0910502199594
:10392000FF91EF91BF91AF919F918F917F916F9197
:103930005F914F913F912F910F900BBE0F900FBE53
:103940000F901F9018951F920F920FB60F9211248F
:103950000BB60F922F933F934F935F936F937F9389
:103960008F939F93AF93BF93EF93FF93E0910602E2
:10397000F09107021995FF91EF91BF91AF919F913F
:103980008F917F916F915F914F913F912F910F9008
:103990000BBE0F900FBE0F901F9018951F920F92A5
:1039A0000FB60F9211240BB60F922F933F934F93A4
:1039B0005F936F937F938F939F93AF93BF93EF9397
:1039C000FF93E0910802F09109021995FF91EF91A0
:1039D000BF91AF919F918F917F916F915F914F9127
:1039E0003F912F910F900BBE0F900FBE0F901F9025
:1039F00018951F920F920FB60F9211240BB60F92CB
:103A00002F933F934F935F936F937F938F939F93E6
:103A1000AF93BF93EF93FF93E0910A02F0910B02F3
:103A20001995FF91EF91BF91AF919F918F917F91E8
:103A30006F915F914F913F912F910F900BBE0F901F
:103A40000FBE0F901F9018951F920F920FB60F92F6
:103A500011240BB60F922F933F934F935F936F9365
:103A60007F938F939F93AF93BF93EF93FF93E091D7
:103A70000002F09101021995FF91EF91BF91AF9172
:103A80009F918F917F916F915F914F913F912F9176
:103A90000F900BBE0F900FBE0F901F9018951F92A6
:103AA0000F920FB60F9211240BB60F922F933F93E4
:103AB0004F935F936F937F938F939F93AF93BF9336
:103AC000EF93FF93E0910202F09103021995FF91A9
:103AD000EF91BF91AF919F918F917F916F915F9186
:103AE0004F913F912F910F900BBE0F900FBE0F90F3
:103AF0001F9018951F920F920FB60F9211240BB6BC
:103B00000F922F933F934F935F936F937F938F9376
:103B10009F93AF93BF93EF93FF93E0910C02F091CB
:103B20000D021995FF91EF91BF91AF919F918F91E8
:103B30007F916F915F914F913F912F910F900BBEAD
:103B40000F900FBE0F901F9018951F920F920FB6F7
:103B50000F9211240BB60F922F933F934F935F93C5
:103B60006F937F938F939F93AF93BF93EF93FF9345
:103B7000E0910E02F0910F021995FF91EF91BF9124
:103B8000AF919F918F917F916F915F914F913F91F5
:103B90002F910F900BBE0F900FBE0F901F90189596
:103BA000089590E080E008950895AF92BF92CF927B
:103BB000DF92EF92FF920F931F93CF93DF936C01ED
:103BC0007B018B01040F151FEB015E01AE18BF08CE
:103BD000C017D10759F06991D601ED91FC91019080
:103BE000F081E02DC6011995892B79F7C501DF9188
:103BF000CF911F910F91FF90EF90DF90CF90BF90EA
:103C0000AF900895CF93DF93EC0160E08E811ADED0
:103C100081E090E032DC61E08E8114DE81E090E0B2
:103C20002CDC60E08E810EDE84E690E0DF91CF91A7
:103C300024CCCF92DF92EF92FF920F931F93CF93FA
:103C4000DF936C017C0187E0E80EF11CD0E0C0E05E
:103C5000062F10E0B8010C2E02C0759567950A94E6
:103C6000E2F76170F70181917F01ECDD2196C430AC
:103C7000D10581F7C601DF91CF911F910F91FF9080
:103C8000EF90DF90CF90BECFCF92DF92EF92FF9276
:103C90000F931F93CF93DF936C017C0187E0E80EB5
:103CA000F11CD0E0C0E0062F10E0B8010C2E02C0DD
:103CB000759567950A94E2F76170F70181917F012C
:103CC000C1DD2196C830D10581F7C601DF91CF91C2
:103CD0001F910F91FF90EF90DF90CF9093CF1F93A4
:103CE000CF93DF93EC01162F642F8C81ABDD8D8198
:103CF0008F3F11F060E0A6DD8F85612F84FF05C046
:103D0000CE01DF91CF911F91BFCF70E084E0759518
:103D100067958A95E1F7CE018CDF612FCE01DF91A7
:103D2000CF911F9186CF40E0DACF61E0FCDF80EDDC
:103D300097E0A3CB443008F043E0FC01238942170D
:103D400010F04FEF420FFC01E40FF11D2489620FC8
:103D50006068E9CFFC016089262F2460208B6C60AD
:103D6000E2CF0F931F93CF93DF93EC01423018F013
:103D70008F8588608F874B8B1C8A80E48D8B6E8B40
:103D8000605C6F8B222329F0413019F48F858460A9
:103D90008F8761E08C811ADD8D818F3F11F061E0AA
:103DA00015DD61E08E8112DD8E0198012C1B3D0B2B
:103DB0008F8584FD0CC084E090E00F5F1F4F2817B3
:103DC000390744F461E0F801868100DDEECF88E038
:103DD00090E0F3CF80E593EC50DB60E08C8132DD46
:103DE00060E08E812FDD8D818F3F11F060E02ADD54
:103DF0006F8564FD28C063E0CE011BDF84E991E19B
:103E00003CDB63E0CE0115DF84E991E136DB63E062
:103E1000CE010FDF86E990E030DB62E0CE0109DF02
:103E20006F856062CE017FDF84E0888BCE0192DFF8
:103E3000CE017BDF82E0898B66E0CE01DF91CF91FE
:103E40001F910F9170CF6062CE016DDF84E991E127
:103E500014DB6F856062CE0166DF86E990E00DDBE2
:103E60006F856062CE015FDFDBCFCF92EF920F9361
:103E7000FC01138212828AEC92E091838083648336
:103E80008FEF8583468327830087E186C28613866A
:103E9000148615861686178620E041E060E1CF0182
:103EA0000F91EF90CF905DCFEF92FF920F931F9302
:103EB000CF93DF938C017A01677088E0689FB0012F
:103EC00011246064C8012FDFE701A8E0EA0EF11CAD
:103ED0006991D801ED91FC910190F081E02DC8012C
:103EE0001995CE15DF05A1F7DF91CF911F910F91A5
:103EF000FF90EF90089541E0F2DE81E090E00895B8
:103F000090E080E008950895C3DAFDDF0E94F42870
:103F1000C0E0D0E00E94CA292097E1F30E9400008F
:103F2000F9CFCF9320E030E0A90160915303709165
:103F3000540380915503909156030F94B318811147
:103F400032C020E030E0A90160915703709158031E
:103F50008091590390915A030F94B318811123C093
:103F600020E030E0A90160915B0370915C038091D7
:103F70005D0390915E030F94B318C1E0811110C0EE
:103F800020E030E0A90160915F03709160038091AF
:103F90006103909162030F94B318811101C0C0E0D6
:103FA0008C2FCF910895C1E0FBCF90919D0B981776
:103FB000B1F00E945DC380919D0B882341F08FE892
:103FC00091E10E9489C210929D0B0C94D0E481E093
:103FD00080939D0B8FE891E10E94B8C2F6CF0895BF
:103FE0004F925F926F927F928F929F92AF92BF9209
:103FF000CF92DF92EF92FF92CF936B017C01C42F9F
:10400000AC019B016091990B70919A0B80919B0B75
:1040100090919C0B0F94B318882309F4A5C0B0901D
:104020009D0B80E0C2DF20E030E0A901C701B601AE
:104030000F94B61A18161CF0C12CD12C7601C09220
:10404000990BD0929A0BE0929B0BF0929C0B2DEB6C
:1040500037E346E855EBC701B6010F94B61A87FD62
:104060000BC02DEB37E346E855E3C701B6010F94CB
:10407000B31818160CF074C0A701960160E070E048
:1040800080E89FE30F94BA186093950B7093960B9A
:104090008093970B9093980B80EF9FEFA9E7B4EC78
:1040A0008093910B9093920BA093930BB093940BEE
:1040B000BB2009F459C040908F115090901160902E
:1040C0009111709092118090931190909411A09002
:1040D0009511B0909611C0909711D0909811E090E2
:1040E0009911F0909A1181E060DFCC23E9F1A301EE
:1040F000920160918F117091901180919111909126
:1041000092110F94B31881111CC0A5019401609104
:1041100093117091941180919511909196110F9433
:10412000B31881110EC020919711309198114091D0
:10413000991150919A11C701B6010F94B3188823B1
:1041400099F0CF91FF90EF90DF90CF90BF90AF901C
:104150009F908F907F906F905F904F900C94C4E4ED
:1041600060E070E0CB0190CFCF91FF90EF90DF90B7
:10417000CF90BF90AF909F908F907F906F905F9007
:104180004F90089580E011DFFCC03F924F925F9204
:104190006F927F928F929F92AF92BF92CF92DF9257
:1041A000EF92FF920F931F93CF93DF93E82EC62ECB
:1041B000042F5901882E912CD0E0C0E0C815D905F4
:1041C00079F0CA3058F082E0800F0E94965A6AE077
:1041D00070E0CE010F94090E2196F0CF83E0F4CF6A
:1041E0008AE00F94570DD12CD0E0C0E010E04801D8
:1041F000E2E08E0E911C3C2ECC16DD0609F441C087
:10420000F9E0FC1718F080E20F94570D6AE070E0B7
:10421000CE010F94090EF12CFE1471F180E20F947F
:10422000570D632D8F2DF50119952B013C01AC0124
:104230009B010F949F1B811113C020E030E0A90166
:10424000C301B2010F94B61A87FD03C08BE20F942D
:10425000570DA801C301B2010F94970EF394DCCF60
:10426000712C7814190409F0CCF780E271108DE3F9
:104270000F94570D7394F5CF8AE00F94570D219644
:10428000BACF8AE0DF91CF911F910F91FF90EF900D
:10429000DF90CF90BF90AF909F908F907F906F9066
:1042A0005F904F903F900D94570DEF92FF920F93B8
:1042B0001F93CF93DF93CDB7DEB72C970FB6F8944B
:1042C000DEBF0FBECDBF7C010FE811E1F801808594
:1042D0009185A285B38589879A87AB87BC87198228
:1042E0001A821B821C8280E090E0A0EAB0E48D83F9
:1042F0009E83AF83B887AE014F5F5F4FBE016B5F98
:104300007F4FC7010E94D4E619821A821B821C8249
:10431000BE016F5F7F4FCE0109960E94F1E6F70163
:1043200084819581A681B7814081518162817381A9
:10433000F801408351836283738384839583A683CA
:10434000B7831092D30A2C960FB6F894DEBF0FBE37
:10435000CDBFDF91CF911F910F91FF90EF90089506
:10436000E82FF0E0EE0FFF1FE60FF11DEE0FFF1F2D
:10437000EE0FFF1FED5AFC4F6081718182819381A6
:1043800008951092630310926403109265031092D3
:104390006603E3E5F3E080E1DF011D928A95E9F72A
:1043A0000895EBE4F3E080E090E0A0E2B1E48083E4
:1043B0009183A283B38340E050E060EA72E44483D7
:1043C000558366837783E3E4F3E080839183A2835C
:1043D000B38380E090E0ACE8B2E484839583A68365
:1043E000B783CFCF84EC93E00E94165A60916303A9
:1043F00070916403809165039091660345E050E0FD
:104400000F94970E81EB93E00E94165A20EB31E255
:1044100045E062E082E0B9CE87E693E0C2CF81E07A
:10442000809368030895CF92DF92EF92FF920F93EB
:104430001F93CF9390911002913009F461C06623CD
:1044400051F010926B0310926C0310926D03109256
:104450006E0310926F03C82F0E94D619C0906C0390
:10446000D0906D03E0906E03F0906F039B01AC0160
:104470002C193D094E095F0969017A01F7FC40C01A
:1044800020916B03C7FD15C04C2F0C2E000C550B53
:104490004C5F5F4FE22F022E000CFF0B4E175F07A1
:1044A0007CF144EFC42EDD24D394E12CF12C2C17A5
:1044B00034F438EEC32E33E0D32EE12CF12CC60EAB
:1044C000D71EE81EF91EC0926C03D0926D03E092D5
:1044D0006E03F0926F03022F017010E084E2809F60
:1044E000B001819F700D701B112460597C4F82E3D5
:1044F00090E00F94A50F80916B038F5F80936B0307
:10450000CF911F910F91FF90EF90DF90CF90089582
:104510009091FF0593FD0FC09091081191110BC070
:104520004091391150913A1120914A0230914B0239
:10453000421753074CF040E0682F8BE00E945798D9
:1045400061E080E00C9457E10E94245A87E594E0F2
:104550000E94165A80E008954F925F926F927F9268
:104560008F929F92AF92BF92CF92EF92FF920F9352
:104570001F93CF93DF9300D01F92CDB7DEB73C01DE
:104580004B015A01F22E8C2DC3DF182F81111CC054
:10459000002329F040E06C2D89E00E945798812F7C
:1045A0000F900F900F900F90DF91CF911F910F916F
:1045B000FF90EF90CF90BF90AF909F908F907F90A3
:1045C0006F905F904F900895EE2009F1002329F03D
:1045D00040E06C2D84E00E9457980E94245A88E3A2
:1045E00094E00E94165A61E08F2D1DDF5090F40573
:1045F00083E08093F40580919003882331F060E09C
:104600008F2D11DF81E09FD5F6CF5092F405002366
:1046100029F040E06C2D85E00E94579820E030E0C2
:10462000A901F30160817181828193810F94B31894
:10463000882371F080E090E0A0ECB0E489839A8355
:10464000AB83BC83BE016F5F7F4FC3010E948EE5C9
:1046500020E030E0A901F4016081718182819381C1
:104660000F94B318882351F140900E0C50900F0C0A
:104670006090100C7090110C80E090E0A0EAB1E422
:1046800080930E0C90930F0CA093100CB093110C10
:1046900080E090E0A0EAB2E489839A83AB83BC8394
:1046A000BE016F5F7F4FC4010E948EE540920E0CE9
:1046B00050920F0C6092100C7092110C412C512CE6
:1046C00080E4682E762C93E0C92E20E030E0A9012A
:1046D000F50160817181828193810F94B61A181659
:1046E0008CF4002329F040E060E086E00E945798B7
:1046F00049825A826B827C82BE016F5F7F4FC50107
:104700000E948EE5002309F44ACFF090F405C09290
:10471000F4051092900340E060E087E00E94579813
:1047200080917803811103C081E00DD5F9CFF0921B
:10473000F405813051F233CF8F929F92AF92BF92A6
:10474000CF92DF92FF920F931F93CF93DF9300D00E
:1047500000D01F921F92CDB7DEB76C01F62E042F4A
:10476000842FD6DE182F81111AC0FF2029F040E0D7
:1047700060E089E00E945798812F28960FB6F89440
:10478000DEBF0FBECDBFDF91CF911F910F91FF9084
:10479000DF90CF90BF90AF909F908F900895FF20B3
:1047A00029F040E0602F83E00E94579880E090E07D
:1047B000A0E7B2E48D839E83AF83B88719821A8203
:1047C0001B821C82BE016B5F7F4FCE0101960E944F
:1047D0008EE564E670E080E090E00E94E85A80E0B8
:1047E00090E0A8ECB1E48D839E83AF83B8871982F3
:1047F0001A821B821C82BE016B5F7F4FCE01019625
:104800000E948EE580900E0C90900F0CA090100CE2
:10481000B090110C80E090E0A0EAB1E480930E0C1F
:1048200090930F0CA093100CB093110C80E090E0CB
:10483000A0EAB2E48D839E83AF83B887F6018081BE
:104840009181A281B38189839A83AB83BC83BE01AA
:104850006B5F7F4FCE0101960E948EE580920E0C19
:1048600090920F0CA092100CB092110C80E0C6D266
:1048700064E670E080E090E00E94E85A7DCFAF925D
:10488000BF92CF92DF92EF92FF920F931F93CF933D
:10489000DF9300D01F92CDB7DEB730916A03332388
:1048A00089F010E0812F0F900F900F900F90DF9103
:1048B000CF911F910F91FF90EF90DF90CF90BF901D
:1048C000AF900895022F7A015B016C018091FF0582
:1048D00083FD1CC020E030E0A901F70160817181F7
:1048E000828193810F94B318882381F0109108116D
:1048F00011110CC02091391130913A1180914A0266
:1049000090914B02281739070CF45DC081E0809329
:104910006A0390916A0892FD6AC00F940C1080E1BE
:10492000EFE8F1E1A9E7B3E001900D928A95E1F794
:104930000E945DC320E030E0A901F6016081718131
:10494000828193810F94B318882319F18091081103
:10495000811111C06091351170913611809137111C
:10496000909138110F94221920914A0230914B02F4
:104970006217730774F080E090E0A0E7B2E48983E7
:104980009A83AB83BC83BE016F5F7F4FC6010E94D9
:104990008EE587E00E94ECEB811103C0B5010F9416
:1049A0009A0E20E030E0A901F701608171818281D7
:1049B00093810F94B318882321F042E0602FC70140
:1049C000BBDE11E06FCF0E94245A87E294E00E9480
:1049D000165A002309F465CF40E060E089E00E94A8
:1049E000579860E088E694E00E9440795BCF9B7F17
:1049F00090936A0882E080936A038FCFCF93C82F89
:104A000082E0C11184E040E060E00E9457980E947B
:104A1000245A83EF93E0CC2311F088E094E0CF9107
:104A20000C94165A1F93CF93DF93D82FC62FE6DF2F
:104A300061E08C2FF8DC0E94D619685370458F4FC7
:104A40009F4F6093251170932611809327119093A7
:104A50002811109229111091F40583E08093F40538
:104A600081E08093900380919003882309F441C0F2
:104A700060E08C2FD8DC809129118823B9F140E0C7
:104A800060E08AE00E9457980E94245A89ED93E0E2
:104A90000E94165A41E060E070E0CB016AD31092A8
:104AA00025111092261110922711109228111092A0
:104AB000291180E00E941ED680E02ADD8D2F9EDF26
:104AC0000E94D619685370458F4F9F4F60932511F0
:104AD0007093261180932711909328111092291119
:104AE00081E08093900361E08C2F9DDC81E02BD3EB
:104AF000BACF1093F405DF91CF911F9108954F9293
:104B00005F926F927F928F929F92AF92BF92CF925D
:104B1000EF920F931F93CF93DF93CDB7DEB72C9710
:104B20000FB6F894DEBF0FBECDBF30916A033323BA
:104B300009F40CC15801122F2A013B014C01E090ED
:104B400029111092251110922611109227111092FE
:104B500028111092291180E00E941ED680913911EF
:104B600090913A118A159B0584F4809148029091A6
:104B700049020F97A816B9060CF4C50190933A1193
:104B80008093391180E00E941ED6E11015C08091FB
:104B90000811811111C06091351170913611809109
:104BA0003711909138110F94221920914A023091B7
:104BB0004B02621773073CF0C12C01E0212FA201C8
:104BC000B301C401C9DC1A141B04A4F48091480287
:104BD000909149020F97A816B9060CF4C50190935D
:104BE0003A118093391180E00E941ED660E080E087
:104BF0000E9457E140E060E088E00E945798812CD5
:104C0000912C80E7A82E82E4B82E89829A82AB820A
:104C1000BC8280E090E0A0E0B0EC89879A87AB8707
:104C2000BC87BE016F5F7F4FCE0109960E948EE563
:104C300080E090E0A8ECB2E489879A87AB87BC87D4
:104C400088E0E9E7F3E0DE01119601900D928A9584
:104C5000E1F7BE01675F7F4FCE0101960E94CFE66C
:104C600080E090E0A0EAB0E489839A83AB83BC83C0
:104C7000BE016F5F7F4F81E893E00E94F1E6898279
:104C80009A82AB82BC8280E090E0A0E0B0E48987A9
:104C90009A87AB87BC87BE016F5F7F4FCE010996B5
:104CA0000E948EE520E030E0A901609185037091BB
:104CB000860380918703909188030F94B31887FF30
:104CC0000BC089829A82AB82BC82BE016F5F7F4F2C
:104CD00085E893E00E948EE580918503909186039C
:104CE000A0918703B091880380939B1190939C11AE
:104CF000A0939D11B0939E1180938B1190938C1172
:104D0000A0938D11B0938E118BE891E10E948BD00E
:104D100040E060E089E00E94579880916A038150EA
:104D200080936A03882339F00E94106980916A0396
:104D3000815080936A038091CF12823011F40F94D6
:104D40006E1080E00E947B790E94E89D2C960FB641
:104D5000F894DEBF0FBECDBFDF91CF911F910F91B1
:104D6000EF90CF90BF90AF909F908F907F906F907B
:104D70005F904F9008959898A09A0895FF920F938E
:104D80001F93CF93DF931F92CDB7DEB7F82E0EEEB1
:104D900015E041E050E0B801CE0101960F940F20DC
:104DA00089818F1108C081E00F90DF91CF911F9111
:104DB0000F91FF9008950F5F1F4F86E00630180790
:104DC00041F780E0F1CF0E94275A8FED95E00C94D7
:104DD000165A0E94DBD10E945DC38EEF0E9404E54B
:104DE0000C94D0E4129808955F988A9880910801F5
:104DF000817080930601F6CF129A0895811101C047
:104E0000129A08955F9A80919F118E7F80939F11CF
:104E10008A9A80919F118D7F80939F1180910801C4
:104E2000809581708093060180919F118B7F809384
:104E30009F11E2CF80916A0381110AC08091CF1245
:104E4000813041F080916A0882FB882780F90895BB
:104E500080E0089581E0089580916A03811115C072
:104E60008091CF12823089F090916A0893FB882755
:104E700080F993FF0DC08091C106882341F092FB19
:104E8000882780F991E08927089581E0089580E0DE
:104E900008950D946E10CF93C82F89EE93E030E6FD
:104EA000019729F0232F2A950000E9F7F9CFF8940C
:104EB00089EE93E038EE019729F0232F2A95000020
:104EC000E9F7F9CF0E948AD6CC2329F09BDF90998D
:104ED00004C0A895FCCF90DFFACF909B02C0A895A4
:104EE000FCCFF0E0E0E0CF911994FF920F931F9375
:104EF000CF93DF93EC018B01F42E0E948AD60E949F
:104F0000275A83E595E00E94165A0115110511F400
:104F100008E416E0209711F4C9E4D6E0B801CE0108
:104F20000E941D798F2DDF91CF911F910F91FF90DE
:104F3000B2CF8F929F92AF92BF92CF92DF92EF92B9
:104F4000FF920F931F93182F8091C105843010F4A6
:104F50000E94013F0E94D6196B017C01111105C00E
:104F600080916A0310E0882349F0C092FB05D0923B
:104F7000FC05E092FD05F092FE0511E08091F70539
:104F80009091F805A091F905B091FA050097A10557
:104F9000B10549F14091FB055091FC056091FD057B
:104FA0007091FE05840F951FA61FB71FA7019601DC
:104FB000281B390B4A0B5B0BDA01C901B7FD13C083
:104FC0000E94275A6091ED057091EE0586E995E003
:104FD0000E942A5A8AE00F94570D40E070E060E08A
:104FE00090E080E082DF8091150290911602A091FE
:104FF0001702B0911802892B8A2B8B2B79F0909194
:10500000240C8091210C981709F452C0C092FB0522
:10501000D092FC05E092FD05F092FE0580918D0393
:1050200090918E03909985C0019690938E03809302
:105030008D0380918D0390918E038E3E924064F09B
:105040000E94275A83E795E00E94165A40E070E0DC
:1050500060E090E080E049DF8091890390918A03CD
:10506000A0918B03B0918C03A7019601281B390BEB
:105070004A0B5B0BDA01C901B7FD0FC00E940CC2DD
:1050800034E6C30ED11CE11CF11CC0928903D092FE
:105090008A03E0928B03F0928C031F910F91FF9093
:1050A000EF90DF90CF90BF90AF909F908F9008953A
:1050B000112319F010928F03B1CF0E94D6190091DD
:1050C000FB051091FC052091FD053091FE058090B7
:1050D000150290901602A0901702B0901802080DC9
:1050E000191D2A1D3B1D601B710B820B930B97FD35
:1050F000E1CF80918F03811191CF81E080938F0365
:105100005F9A80919F118E7F80939F118A9A8091E0
:105110009F118D7F80939F118091080180958170F0
:105120008093060180919F118B7F80939F1164DE95
:1051300075CF181619060CF07CCF019790938E034B
:1051400080938D0376CFF5DE0E94FED78091910388
:10515000882371F00E94546E0E94C0590F94500F22
:105160000E9427778091F505811102C00C94F0E030
:105170000895CF92DF92EF92FF92CF93DF936B016E
:105180007C01D42FC091F40583E08093F40581E085
:1051900080939003C114D104E104F10431F00E9422
:1051A000D619C60ED71EE81EF91E809190038823DB
:1051B00081F0C114D104E104F10419F48D2FC3DF8F
:1051C000F4CF0E94D6196C197D098E099F0997FDAD
:1051D000F5CF10929003C093F405DF91CF91FF902B
:1051E000EF90DF90CF900895CF9360E970ED83E06A
:1051F00090E00F94FD0C0E94D6190E94245A8CE472
:1052000095E00E94165A0F94320CB5DD0F94360BC0
:10521000C4B7C0FF04C083E495E00E94165AC1FFE2
:1052200004C082E395E00E94165AC2FF04C080E2E7
:1052300095E00E94165AC3FF04C08FE095E00E94DB
:10524000165AC5FF04C08EEF94E00E94165A14BE91
:1052500082E596E00E94165A80E20F94570D80EF87
:1052600094E00E94165A8AE00F94570D0E94245A27
:1052700084EB94E00E94165A0E94245A8DE994E02F
:105280000E94165A0E94245A0F94330CBC018EE8D7
:1052900094E00E943C5A60EB74E087E794E00E943F
:1052A0003C5A8AE00F94570D0E9410770E9408B470
:1052B00080E00E947B7980919303811107C00E9456
:1052C000F9FD882319F081E08093930320918F11D9
:1052D00030919011409191115091921160915B1118
:1052E00070915C1180915D1190915E110F94DA17AD
:1052F00060938F11709390118093911190939211FC
:1053000020915F11309160114091611150916211B3
:1053100060919311709194118091951190919611D3
:105320000F94DA17609393117093941180939511F1
:105330009093961120916311309164114091651101
:105340005091661160919711709198118091991107
:1053500090919A110F94DA176093971170939811A6
:105360008093991190939A110E94D0E488E491E17E
:105370000E9449D50F9421100E943CFE0F94E00436
:1053800080E00E9450FE0F94370B81E080939103E0
:10539000CF910895C9EDD5E011E080E0D4DE0E9400
:1053A000CE6D80916A0886FF14C00E9418690E9421
:1053B000233B0FDD0F94F70F0E948AD670E060E068
:1053C00080E00E946DD210921102D0933804C093F5
:1053D000370480919103803139F483ED95E00E9488
:1053E000283C8111109391030E94033F0E9453FEB9
:1053F000D4CF82E993E00C947D66CF930E947F55D1
:10540000C82F87FD0BC089E596E00E94165A8C2FA5
:105410000E94C5DB8AE0CF910D94570DCF9108957E
:105420008091E9059091EA05009731F04AE050E05B
:1054300070E060E00D94D41D60E070E0CB01089551
:10544000CF92DF92EF92FF92CF938091E2059091FD
:10545000E305A091E405B091E50522E1B695A79595
:10546000979587952A95D1F780FF08C0E091DA05D6
:10547000E1110AC01092EA051092E905CF91FF9060
:10548000EF90DF90CF9008958091ED059091EE051B
:10549000E80FF92FF11D808190ED980F9A3030F0D0
:1054A0008E3299F5818180538A3020F7F093EA0596
:1054B000E093E905EF2B11F3B3DFC0E097FD0CC0DB
:1054C000AFDF6F3F71058105910509F024F4A8DF76
:1054D000C62F6D3308F0CCE3C093DA100E94D619C2
:1054E0006B017C012C2F30E0A8EEB3E00F94431C3D
:1054F000C60ED71EE81EF91EC092D610D092D71045
:10550000E092D810F092D910B9CF8D3219F08B32C9
:1055100009F0B0CF818190ED980F9A3038F28E3239
:1055200009F0A8CF828180538A3008F4BFCFA2CF80
:105530002FEB280F2A3108F042C0E22FF0E08091D3
:10554000E2059091E305A091E405B091E50504C062
:10555000B695A795979587952A95D2F780FD02C0B5
:1055600081700895E853FA4FE081EE2329F180918C
:10557000ED059091EE05E80FF92FF11D808190ED7A
:10558000980F9A3030F08E3251F4818180538A30F6
:1055900098F4F093EA05E093E90581E008958D32EF
:1055A00011F08B3249F4818190ED980F9A3088F395
:1055B0008E3211F48281EACFF0E0E0E0EACF80E0C1
:1055C0000895B6DF882341F081E02091E90530910C
:1055D000EA05232B09F480E008950F931F93CF93DE
:1055E0008091E9059091EA05009709F1FC018F018E
:1055F000C1912C2F2F7DA1F0C53411F0C536B9F71C
:10560000F801108270E060E08091E9059091EA0570
:105610000F947F1CF801C083CF911F910F910895C3
:1056200070E060E0CF911F910F910D947F1C60E0BE
:1056300070E0CB01F1CFF4DE97FD0AC0F1DE6F3FE1
:1056400071058105910509F02CF4EADE862F089595
:1056500080E008958FEF08958091FF0583FD37C0A6
:105660000E947F5587FD33C089E4ABDF882339F181
:10567000E2DF90E01816190614F481E090E026E0CD
:10568000289FF001299FF00D1124EE56F54F6081FF
:10569000718180914802909149020F9768177907AC
:1056A0000CF4CB0190933A118093391180E00E9461
:1056B0001ED661E080E00E9457DA0C94F9D183E5B0
:1056C00080DF8823D1F389DF0F942219E2CF089578
:1056D0001F93CF93DF938091FF0583FD68C00E94E5
:1056E0007F55182F87FD63C089E46BDF882309F499
:1056F00050C0A1DF90E01816190614F481E090E084
:1057000026E0289FF001299FF00D1124EE56F54F59
:1057100060817181C0E080914802909149020F97A9
:10572000681779070CF4CB0190933A1180933911E3
:1057300080E00E941ED661E081E00E9457DA60910D
:10574000391170913A11072E000C880B990B0F94A8
:1057500055192091351130913611409137115091E2
:1057600038110F94B61A18161CF0DC2FC11104C0A2
:10577000812F0E942DE1D1E00E94F9D1DD23B9F003
:105780006C2F812FDF91CF911F910C9457E1C82F7F
:10579000F3CF83E516DFC82F811105C082E511DF45
:1057A000D82F8823A1F319DF0F942219B4CFDF91EA
:1057B000CF911F9108959F92AF92BF92CF92DF92A7
:1057C000EF92FF920F931F93CF93DF9300D01F921E
:1057D000CDB7DEB785E4F5DE8823B9F021DE662398
:1057E000A1F08CE596E00E94165A0F900F900F9052
:1057F0000F90DF91CF911F910F91FF90EF90DF906D
:10580000CF90BF90AF909F90089583E4DADE05E0DB
:10581000882311F005DE062F85E5D3DE182F8823B7
:10582000B1F08091E9059091EA05892B99F0F8DDB6
:1058300097FD0BC0F5DD6F3F71058105910509F0FE
:105840004CF4EEDD11E0611105C010E003C085E508
:105850006FDE182F83E5B5DE882309F448C08091F8
:10586000E9059091EA05C12CD12C76010097D1F081
:10587000FC015F019190292D2F7D91F125E4921675
:1058800019F025E69212F5CFF501108270E060E084
:105890008091E9059091EA050F947F1C6B017C01D2
:1058A000F501908260E086E896E00E94E178C70109
:1058B000B6010F942219072E000C880B990B0F9438
:1058C000551969837A838B839C83212F402F60E055
:1058D000CE0101960E942CDC80E00E947B7985CF6E
:1058E00070E060E00F947F1C6B017C01DBCFC12C6A
:1058F000D12C8EE3E82E83E4F82ED4CF8091FF05DF
:1059000083FD2CC089E45DDE882321F194DE90E0E4
:105910001816190614F481E090E026E0289FF001A3
:10592000299FF00D1124EE56F54F628173816C387A
:10593000710514F06CE870E07093231160932211EC
:105940000E9454D661E080E00C9457DA46DE0F9452
:105950002219EDCF83E535DE8111F8CF0895CF937D
:105960008091FF0583FD55C089E42BDE882309F46F
:1059700043C061DE90E01816190614F481E090E04F
:1059800026E0289FF001299FF00D1124EE56F54FD7
:1059900062817381C0E06C38710514F06CE870E0CE
:1059A00070932311609322110E9454D660E081E02D
:1059B0000E9457DA6091221170912311072E000C7A
:1059C000880B990B0F94551920911E1130911F11BE
:1059D00040912011509121110F94B61A18164CF0D5
:1059E00083E996E060E00E9440798C2FCF910C947F
:1059F000DDE282EA96E0F6CF83E5E3DDC82F811190
:105A000004C082E5DEDD882321F0E7DD0F94221952
:105A1000C2CFCF910895CF93DF9380E5D2DD81117E
:105A200025C081E485DDCFEFD0E0882321F06091AF
:105A30003011C62FD0E089E4C4DD8823E9F0FBDD16
:105A400090E01816190614F481E090E026E0289FF3
:105A5000F001299FF00D1124EE56F54FC481D58138
:105A6000BE0180E0DF91CF910C946DD2E4DD8823FC
:105A7000C1F2DF91CF91089583E5A3DD882381F3FF
:105A8000CFDCEB01EDCF80E59CDD882329F0D3DD71
:105A900070E060E00C946DD280E0FACF8091E20576
:105AA0009091E305A091E405B091E5052DE0B69550
:105AB000A795979587952A95D1F780FF30C0E091FB
:105AC000D505E11105C01092EA051092E905089587
:105AD0008091ED059091EE05E80FF92FF11D808181
