:100000000C9493190C94B11C0C94DC1C0C94071DDB
:100010000C94321D0C945D1D0C94881D0C94B31D22
:100020000C94DE1D0C94C3190C94C3190C94C319C1
:100030000C94C3190C94C3190C94C3190C94C319D0
:100040000C94C3190D9497030C94C3190C94C31901
:100050000C94C3190C94C3190C94FFDB0C94C519B0
:100060000C94C3190D94380D0D94F60D0C94C3190E
:100070000C94C3190C94C3190C94C3190C94C31990
:100080000C94C3190C94C3190C94C3190C94C31980
:100090000C94C3190C94C3190C94C3190C94C31970
:1000A0000C94C3190C94C3190C94C3190C94C31960
:1000B0000C94C3190C94C3190C94C3190C94C31950
:1000C0000C94C3190C94C3190C94C3190C94C31940
:1000D0000C94C3190C94C3190C94C3190C94C31930
:1000E0000C94C319084AD73B3BCE016E84BCBFFDBC
:1000F000C12F3D6C74319ABD56833DDA3D00C77FF8
:1001000011BED9E4BB4C3E916BAAAABE0000008090
:100110003F05A84CCDB2D44EB93836A9020C50B91F
:10012000918688083CA6AAAA2ABE000000803F004B
:100130000D94CB0D0D94C30D0D94730D0D94BC0D4A
:100140000D94D4100D94DB0D0D94C70D0D94D30DAB
:100150000D94B10D0D94A20D0D94CF0D4E414E494D
:100160004E495459494E46CDCCCC3D0AD7233C1775
:10017000B7D13877CC2B329595E6241FB14F0A00C2
:100180000020410000C84200401C4620BCBE4CCAB2
:100190001B0E5AAEC59D7400407A10F35A00A0722F
:1001A0004E18090010A5D4E80000E87648170000B2
:1001B000E40B54020000CA9A3B000000E1F5050080
:1001C0000080969800000040420F000000A08601C9
:1001D000000000102700000000E803000000006499
:1001E00000000000000A0000000000010000000004
:1001F000002C76D888DC674F0823DFC1DFAE59E1D9
:10020000B1B796E5E3E453C63AE651997696E8E647
:10021000C28426EB898C9B62ED407C6FFCEFBC9C1A
:100220009F40F2BAA56FA5F490055A2AF75C936B2C
:100230006CF9676DC11BFCE0E40D47FEF520E6B5E7
:1002400000D0ED902E0300943577050080841E08C1
:100250000000204E0A000000C80C333333330F98DF
:100260006E12831141EF8D2114893BE65516CFFEA6
:10027000E6DB18D1844B381BF77C1D901DA4BBE432
:1002800024203284725E228100C9F124ECA1E53D74
:100290002700000A0B02090C0D0E080703040100D9
:1002A000000000000000000000000000000000004E
:1002B000000000000000000000000000001211100B
:1002C000000000000000000000000000000000002E
:1002D000000000000000000102102020080810208B
:1002E00040102040800201020108040201010204C2
:1002F0000810204080804020100804020180040281
:1003000001804020100804020108040201010204D7
:1003100008102040800102040810204080050505D7
:1003200005070508080808020202020A0A0808046C
:10033000040404010101010101010103030303039A
:10034000030303040707070C0C0C0C0C0C0C0C0229
:1003500002020206060606060606060B0B0B0B0B30
:100360000B0B0B000020002300260029002C002F7F
:100370000032000001000003010601090100002213
:1003800000250028002B002E00310034000201005F
:1003900000050108010B0100002100240027002AAC
:1003A000002D003000330001010000040107010AA4
:1003B000010A4D6561737572656420706F696E74B2
:1003C000733A0A00327832206D6573682E205A2005
:1003D0006F66667365743A200053656E64204D3114
:1003E000303820746F2068656174206E6F7A7A6C83
:1003F000650A0053656E64204D31303820746F20DB
:10040000726573756D650A00496E73657274206656
:10041000696C616D656E7420616E642073656E64D5
:10042000204D3130380A00486F74656E6420746F57
:100430006F20636F6C640A00496E73657274206686
:10044000696C616D656E7420616E642073656E64A5
:10045000204D3130380A00486F74656E6420746F27
:100460006F20636F6C640A004D3630303A20546F51
:100470006F20436F6C64002020506C616E6E65725B
:1004800042756666657242797465733A200020464B
:10049000726565204D656D6F72793A2000436F6D0E
:1004A00070696C65643A204A756C203138203230AE
:1004B00032300A00204C6173742055706461746599
:1004C000643A20323032302D30372D3137207C20C5
:1004D000417574686F723A20286E6F6E652C2064C7
:1004E000656661756C7420636F6E666967290A00C2
:1004F0006275676669782D322E302E780A00205397
:100500006F6674776172652052657365740A0020A6
:100510005761746368646F672052657365740A007D
:100520002042726F776E206F757420526573657408
:100530000A002045787465726E616C20526573659F
:10054000740A00506F77657255700A007374617297
:10055000740A005072696E7465722068616C74650B
:10056000642E206B696C6C28292063616C6C656457
:10057000210A002121204B494C4C20636175736591
:1005800064206279204B494C4C20627574746F6E04
:100590002F70696E0A002121204B494C4C20636169
:1005A0007573656420627920746F6F206D75636860
:1005B00020696E6163746976652074696D65202DAC
:1005C0002063757272656E7420636F6D6D616E6409
:1005D0003A20004D31303031004732385859005000
:1005E000726F7465637465642050696E0A003637F3
:1005F00026033C3D380E2E303E121A1C180AFF43CB
:1006000008090844000120453A00205A3A002059C0
:100610003A00204500205A0020590020580020426E
:1006200000583A002054004D3234004D323320251A
:1006300073004D323100473238004D313132205392
:10064000687574646F776E00004B494C4C45442EBE
:1006500020004D61726C696E006F6B005049442040
:100660004175746F74756E65206661696C6564218F
:1006700020426164206578747275646572206E75BD
:100680006D6265720A00504944204175746F74753B
:100690006E650042656420436F6F6C696E672E2E35
:1006A0002E004265642048656174696E672E2E2EA7
:1006B000004348414D4245525F54454D50455241DB
:1006C0005455524500424142595354455050494EA9
:1006D000470041524353004D4F54494F4E5F4D4FD9
:1006E00044455300544845524D414C5F50524F547D
:1006F000454354494F4E004C4F4E475F46494C4589
:100700004E414D45004155544F5245504F52545F54
:1007100053445F535441545553005344434152444E
:100720000050524F4D50545F535550504F5254004B
:10073000454D455247454E43595F504152534552EE
:1007400000434153455F4C494748545F4252494733
:1007500048544E45535300544F47474C455F4C490E
:100760004748545300534F4654574152455F504FEA
:10077000574552004255494C445F50455243454EFF
:1007800054004C4556454C494E475F444154410046
:100790005A5F50524F42450052554E4F55540041FA
:1007A00055544F4C4556454C005052494E545F4AA3
:1007B0004F420050524F4752455353004155544FFA
:1007C0005245504F52545F54454D5000564F4C5572
:1007D0004D455452494300454550524F4D00424902
:1007E0004E4152595F46494C455F5452414E534623
:1007F00045520053455249414C5F584F4E5F584F48
:100800004646004649524D574152455F4E414D457F
:100810003A4D61726C696E206275676669782D3237
:100820002E302E7820284A756C2031382032303214
:10083000302032323A32333A32392920534F55522E
:1008400043455F434F44455F55524C3A687474705A
:10085000733A2F2F6769746875622E636F6D2F4D21
:1008600061726C696E4669726D776172652F4D6158
:10087000726C696E2050524F544F434F4C5F564537
:100880005253494F4E3A312E30204D414348494E44
:10089000455F545950453A3344205072696E74652F
:1008A000722045585452554445525F434F554E545B
:1008B0003A3120555549443A636564653261326680
:1008C0002D343161322D343734382D396231322DA7
:1008D0006335356336326633363766660A00436100
:1008E000703A002F2F20004D3131332053005072C9
:1008F000696E742074696D653A200025697300255E
:10090000696D20256973002569682025696D20259A
:10091000697300256964202569682025696D202593
:100920006973002569792025696420256968202577
:10093000696D20256973004D65736820706F696E5D
:1009400074206F7574206F662072616E67650A008F
:100950004D34323120696E636F727265637420703A
:100960006172616D657465722075736167650A00F7
:10097000206F6620004D424C2047323920706F694D
:100980006E742000290A004A206F7574206F66205B
:1009900072616E67652028302D00290A0049206F9A
:1009A0007574206F662072616E67652028302D0097
:1009B0004D6573682070726F62696E6720646F6E38
:1009C000652E0A005374617274206D65736820701F
:1009D000726F62696E6720776974682022473239C6
:1009E000205331222066697273742E0A0047323810
:1009F0000A47323920533200686173206E6F2064D9
:100A00006174612E0A004D65736820426564204C54
:100A10006576656C696E67200053206F7574206F72
:100A2000662072616E67652028302D35292E0A00F8
:100A3000206E6F7420656E74657265642E0A004DB9
:100A400065736820706F696E74206F7574206F66AF
:100A50002072616E67650A004F46460A004661646F
:100A600065204865696768742000426564204C65AC
:100A700076656C696E6720004661696C65642074F8
:100A80006F20656E61626C6520426564204C6576FE
:100A9000656C696E670A004D657368204265642065
:100AA0004C6576656C20646174613A0A00496E7623
:100AB000616C6964206D6573682E0A00205A3A20C3
:100AC0000020593A200042656420583A2000290A43
:100AD0000020746F20003F5A206F7574206F6620CD
:100AE00072616E6765202800290A0020746F20005B
:100AF0003F59206F7574206F662072616E676520A4
:100B0000282D00290A0020746F20003F58206F759F
:100B100074206F662072616E676520282D00507208
:100B20006F6265204F6666736574205800446F6E6F
:100B30006520736176696E672066696C652E0A00B0
:100B400053442072656164206572726F720A0050AE
:100B500072696E7465722073746F7070656420645E
:100B6000756520746F206572726F72732E204669EE
:100B70007820746865206572726F7220616E6420DF
:100B8000757365204D39393920746F20726573741F
:100B90006172742E202854656D706572617475726F
:100BA000652069732072657365742E205365742007
:100BB0006974206166746572207265737461727401
:100BC000696E67290A004E6F20436865636B737511
:100BD0006D2077697468206C696E65206E756D6232
:100BE00065722C204C617374204C696E653A20004C
:100BF0004E6F20436865636B73756D207769746809
:100C0000206C696E65206E756D6265722C204C617A
:100C10007374204C696E653A2000636865636B737A
:100C2000756D206D69736D617463682C204C617300
:100C300074204C696E653A20004C696E65204E75D3
:100C40006D626572206973206E6F74204C617374DD
:100C5000204C696E65204E756D6265722B312C20BB
:100C60004C617374204C696E653A20004D3131300F
:100C7000004D323900526573656E643A20006F6B27
:100C800000220A00656E7175657565696E672022C0
:100C90000053544F505045442E2000454550524F6C
:100CA0004D204F4B0A00204D393220580020466C11
:100CB0006F773A2000496E76616C696420657874BC
:100CC00072756465720A0020643A0020693A002057
:100CD000703A0043290A0061626C656420286D69DE
:100CE0006E2074656D70200064697300656E00434A
:100CF0006F6C6420657874727564657320617265C9
:100D000020005741524E494E4721204C6F77205AC0
:100D1000204A65726B206D6179206C656164207476
:100D20006F20756E77616E74656420706175736590
:100D3000732E0A00205200416363656C6572617412
:100D4000696F6E3A20500046523A004572723A205E
:100D5000546F6F206661722100546F6F206661725C
:100D60002066726F6D207265666572656E636520C0
:100D7000706F696E740A00FFFFFF00000000000042
:100D80000000000000004F666673657473204170B8
:100D9000706C696564004E6F204D6F76652E002083
:100DA000204D61783A2000200020204D696E3A20C5
:100DB00000536F667420656E6473746F70733A20AD
:100DC000006F66660044454255473A00F70DF20D44
:100DD000EB0DE40DD60D434F4D4D554E4943415457
:100DE000494F4E0044525952554E004552524F52AF
:100DF0005300494E464F004543484F00496E7661C7
:100E00006C69642050696E204D6F64650A0033443C
:100E1000205072696E746572204F46462E004D3820
:100E20003400446F6E65207072696E74696E67205D
:100E300066696C650A004D3737004D333100456EE9
:100E4000642066696C65206C6973740A004265678A
:100E5000696E2066696C65206C6973740A0043755D
:100E60007272656E742066696C653A2000220A0011
:100E7000556E6B6E6F776E20636F6D6D616E643A49
:100E80002022005A2050726F6265205061737420D6
:100E90004265640A005A2050726F62652050617387
:100EA0007420426564004D31343520533C696E64D2
:100EB00065783E206F7574206F662072616E67657D
:100EC0002028302D31290A00436C69636B20746F30
:100ED00020526573756D652E2E2E0047322F4733D5
:100EE0002062616420706172616D65746572730A5D
:100EF00000536C6565702E2E2E00627573793A2052
:100F000070617573656420666F7220696E707574A8
:100F10000A00627573793A207061757365642066A2
:100F20006F7220757365720A00627573793A20706A
:100F3000726F63657373696E670A0020496E76612C
:100F40006C696420657874727564657220004F4620
:100F500046004F4E006563686F3A004572726F72CB
:100F60003A007C3C3E5E2B3D3F2F5B5D3B2C2A22B2
:100F70005C0043616E6E6F7420656E7465722073E1
:100F800075626469723A20002E0A006F70656E20E7
:100F90006661696C65642C2046696C653A20006165
:100FA00075746F25632E67006572726F7220777299
:100FB0006974696E6720746F2066696C650A004EFB
:100FC0006F74205344207072696E74696E670A00F2
:100FD0005344207072696E74696E6720627974651B
:100FE00020002E0A0044656C6574696F6E2066618E
:100FF000696C65642C2046696C653A200046696C12
:10100000652064656C657465643A0057726974693B
:101010006E6720746F2066696C653A200046696CC3
:10102000652073656C65637465640A002053697A92
:10103000653A200046696C65206F70656E65643A9C
:101040002000454E4420535542524F5554494E4579
:101050000A002220706F73002220706172656E7426
:101060003A2200535542524F5554494E4520434170
:101070004C4C207461726765743A22004578636550
:1010800065646564206D617820535542524F555414
:10109000494E452064657074683A310A00206669DB
:1010A0006C653A2000667265736800646F696E67EC
:1010B000004E6F7720002E0A006F70656E2066610B
:1010C000696C65642C2046696C653A2000534420A5
:1010D00063617264206F6B0A006F70656E526F6F90
:1010E00074206661696C65640A00766F6C756D6565
:1010F0002E696E6974206661696C65640A004E6FC2
:1011000020534420636172640A00286E6F20666970
:101110006C65290043616E6E6F74206F70656E2080
:10112000737562646972200053756263616C6C2030
:101130004F766572666C6F77003F004D3235002543
:10114000533A202553004E114A1141425300504C4E
:1011500041005072696E742041626F727465640060
:101160005072696E74696E672E2E2E005072696E11
:1011700074205061757365640050617573696E67A2
:101180002E2E2E0049676E6F72650052657365746E
:1011900000454550524F4D2056657273696F6E2061
:1011A0004572726F7200454550524F4D20496E6432
:1011B0006578204572726F7200454550524F4D2040
:1011C000435243204572726F7200496E69746961BF
:1011D0006C697A6520454550524F4D004D656469F4
:1011E000612052656D6F766564004D6564696120AC
:1011F000496E736572746564003344205072696E81
:101200007465722052656164792E0054656D706555
:101210007261747572650046616E20537065656415
:1012200000426564004E6F7A7A6C6500436F6F6CA4
:10123000646F776E00507265686561742024204287
:1012400065640050726568656174202420456E6491
:1012500000507265686561742024004D61696E00FC
:101260004D3834004732385A004732385900473237
:101270003858004D6F74696F6E004F6666004F6E90
:10128000004D6F76652031306D6D004D6F766520B5
:10129000316D6D004D6F766520302E316D6D004DD6
:1012A0006F76652025736D6D00486F74656E6420E0
:1012B000746F6F20636F6C64004578747275646539
:1012C00072004D6F7665205A004D6F76652059008B
:1012D0004D6F7665205800426564204C6576656CDC
:1012E000696E67004D6F7665204178697300486FBD
:1012F0006D65205A00486F6D65205900486F6D6517
:101300002058004175746F20486F6D650044697303
:1013100061626C65205374657070657273004D6115
:10132000696E00536F667420456E6473746F7073DA
:1013300000052E2E003F005072696E742066726F99
:101340006D204D656469610043616E63656C00509A
:1013500072696E74005374617274205072696E7495
:10136000004D61696E0047323920533100473239F0
:10137000205332002569202F20257500473239205F
:1013800053320050726F6265205A204F6666736553
:1013900074004C6F61642053657474696E677300E8
:1013A00053746F72652053657474696E6773004D72
:1013B0006F74696F6E004F6666004F6E0042656421
:1013C000205A004D6F7665205A005A2056616C7580
:1013D0006500496E646578205900496E646578201F
:1013E000580045646974204D657368004C657665E6
:1013F0006C2042656400426564204C6576656C69CA
:101400006E67004661646520486569676874004CD2
:101410006576656C696E6720446F6E6521004E6568
:10142000787420506F696E7400436C69636B20742C
:101430006F20426567696E0050726F6265205A20A6
:101440004F666673657400526573746F72652044ED
:10145000656661756C7473004C6F616420536574CC
:1014600074696E67730053746F726520536574748A
:10147000696E67730046616E205370656564004253
:101480006564004E6F7A7A6C6500507265686561BC
:1014900074202420436F6E6600436F6E6669677523
:1014A000726174696F6E00416476616E6365642079
:1014B00053657474696E6773004D61696E00466CA4
:1014C0006F770046616E2053706565640042656405
:1014D000004E6F7A7A6C6500426564205A00537042
:1014E000656564004D61696E004D363030204230D4
:1014F00020542564004D373032203B2564004D37A1
:10150000303220542564004D37303120542564009A
:101510005761697420666F72207072696E7400740E
:101520006F20726573756D652E2E2E0000576169F0
:101530007420666F720066696C616D656E742070F0
:101540007572676500005761697420666F72006686
:10155000696C616D656E74206C6F61640000576129
:10156000697420666F720066696C616D656E7420C7
:10157000756E6C6F616400004E6F7A7A6C652068DE
:10158000656174696E6700506C6561736520776191
:1015900069742E2E2E00005072657373206275746C
:1015A000746F6E00746F2068656174206E6F7A7A54
:1015B0006C650000496E736572742066696C616DBC
:1015C000656E7400616E642070726573732062755D
:1015D00074746F6E00746F20636F6E74696E7565DE
:1015E000005761697420666F720066696C616D6591
:1015F0006E74206368616E676500746F2073746138
:101600007274005061726B696E672E2E2E0000009E
:10161000507265737320427574746F6E00746F201E
:10162000726573756D65207072696E74000020209C
:101630004E6F7A7A6C653A2000436F6E74696E75EE
:1016400065005075726765206D6F72650052455375
:10165000554D45204F5054494F4E533A00554E4C2E
:101660004F41442046494C414D454E54004C4F415A
:10167000442046494C414D454E54005052494E5429
:10168000205041555345440046494C414D454E5428
:10169000204348414E474500556E6C6F61642046BB
:1016A000696C616D656E74004C6F61642046696C95
:1016B000616D656E74004368616E67652046696C94
:1016C000616D656E74005072656865617420437564
:1016D00073746F6D005072656865617420240042F8
:1016E00061636B004D6F76696E672E2E2E00486F1A
:1016F0006D696E672058595A004D3630302042309F
:10170000003F004368616E6765204D656469610054
:101710004368616E67652046696C616D656E740033
:101720004E6F204D65646961005072696E74206669
:10173000726F6D204D656469610053746F70205045
:1017400072696E7400526573756D65205072696EB2
:1017500074005061757365205072696E7400537423
:101760006F700054756E6500496E666F205363722A
:1017700065656E004D6F74696F6E0054656D7065C0
:1017800072617475726500436F6E66696775726128
:1017900074696F6E004261636B003F004D343238F4
:1017A000004D3330332055312045256920532569BC
:1017B0000050726F6265205A204F66667365740030
:1017C00050726F62652059204F66667365740050D1
:1017D000726F62652058204F6666736574005072A0
:1017E0006F6265204F6666736574730043616E6354
:1017F000656C00496E697400496E697469616C6951
:101800007A6520454550524F4D004C6F6164206D04
:101810006D00556E6C6F6164206D6D0046696C2EB5
:10182000204469612E004520696E206D6DC2B300B1
:1018300046696C616D656E740054656D70657261AA
:101840007475726500452073746570732F6D6D003B
:101850005A2053746570732F6D6D00592053746551
:1018600070732F6D6D00582053746570732F6D6DFC
:101870000053746570732F6D6D00412D5472617645
:10188000656C00412D5265747261637400416D6135
:1018900078204500416D6178205A00416D617820C3
:1018A0005900416D6178205800416363656C657231
:1018B0006174696F6E005654726176204D696E00D6
:1018C000566D696E00566D6178204500566D6178E1
:1018D000205A00566D6178205900566D6178205865
:1018E0000056656C6F636974790056652D4A6572A0
:1018F0006B00565A2D4A65726B0056592D4A657217
:101900006B0056582D4A65726B004A65726B004138
:101910006363656C00504944204175746F74756E43
:1019200065202A004F6666004F6E004175746F7423
:10193000656D700020022046616374002002204D16
:101940006178002002204D696E0053657420486F55
:101950006D65204F66667365747300436F6E6669CC
:101960006775726174696F6E00416476616E63655C
:10197000642053657474696E677300A10000006988
:1019800000A20000006300B00000000900C10000D8
:10199000004100C20000004100C30000004100C43B
:1019A0000000004100C50000004100C600000041E9
:1019B00045C70000004300C80000004500C9000002
:1019C000004500CD0000004900D10000004E00D5C8
:1019D0000000004F00D60000004F00D70000007844
:1019E00000DC0000005500DD0000005900E00000B0
:1019F000006100E10000006100E20000006100E31E
:101A00000000006100E40000006100E500000061EA
:101A100000E60000006165E70000006300E80000E8
:101A2000006500E90000006500EA0000006500EBC9
:101A30000000006500EC0000006900ED0000006996
:101A400000EE0000006900EF0000006900F10000F6
:101A5000006E00F20000006F00F30000006F00F461
:101A60000000006F00F50000006F00F60000006F3E
:101A700000F80000006F00F90000007500FA000097
:101A8000007500FB0000007500FC0000007500FD03
:101A90000000007900FF000000790004010000410F
:101AA000000501000061000601000043000701007D
:101AB0000063000C01000043000D01000063000EF4
:101AC00001000044000F01000064001101000064E7
:101AD000001901000065001A01000045001B01000B
:101AE0000065001F0100006700300100004900315F
:101AF0000100006900410100004C00420100006C3F
:101B000000430100004E00440100006E0048010047
:101B1000006E005801000052005901000072005A86
:101B200001000053005B01000073005F01000073BF
:101B300000600100005300610100007300650100B6
:101B40000074006F01000075007C0100007A007DC8
:101B50000100005A007E0100007A00920100006638
:101B600000E30200007800222000002E001E210069
:101B700000507822210000544D902100003C2D920D
:101B80002100002D3EB02100000300BB2100000415
:101B9000003C2200007E00482200007E3D602200C2
:101BA00000213D612200003D00642200003C3D65B3
:101BB0002200003E3DF12300000700A03000003D60
:101BC0000021F301000200C2F401000500A20000A0
:101BD00000EC00B0000000DF00E4000000E100F6CF
:101BE000000000EF00F7000000FD00FC000000F521
:101BF00000E3020000EB0087030000A5008F030054
:101C000000F40098030000F2009E030000E300A32C
:101C1000030000F600A9030000F400AC030000E09C
:101C200000AD030000E300B1030000E000B20300D8
:101C300000E200B5030000E300B8030000F200BCBE
:101C4000030000E400BE030000E300C0030000F74F
:101C500000C1030000E600C3030000E5009021007E
:101C6000007F00922100007E001A220000E8001E82
:101C7000220000F30088250000FF0002300000A1D0
:101C8000000C300000A2000D300000A3009B3000CB
:101C900000DE009C300000DF00A03000003D00A10D
:101CA000300000A700A2300000B100A3300000A85F
:101CB00000A4300000B200A5300000A900A630004A
:101CC00000B300A7300000AA00A8300000B400A9AB
:101CD000300000AB00AA300000B500AB300000B609
:101CE00000AC300000B6DEAD300000B700AE300012
:101CF00000B7DEAF300000B800B0300000B8DEB191
:101D0000300000B900B2300000B9DEB3300000BAD4
:101D100000B4300000BADEB5300000BB00B63000C1
:101D200000BBDEB7300000BC00B8300000BCDEB93C
:101D3000300000BD00BA300000BDDEBB300000BE88
:101D400000BC300000BEDEBD300000BF00BE300071
:101D500000BFDEBF300000C000C0300000C0DEC1E8
:101D6000300000C100C2300000C1DEC3300000AF4F
:101D700000C4300000C200C5300000C2DEC6300022
:101D800000C300C7300000C3DEC8300000C400C973
:101D9000300000C4DECA300000C500CB300000C6F1
:101DA00000CC300000C700CD300000C800CE3000AD
:101DB00000C900CF300000CA00D0300000CADED118
:101DC000300000CADFD2300000CB00D3300000CB9F
:101DD000DED4300000CBDFD5300000CC00D63000A0
:101DE00000CCDED7300000CCDFD8300000CD00D9E9
:101DF000300000CDDEDA300000CDDFDB300000CE79
:101E000000DC300000CEDEDD300000CEDFDE300052
:101E100000CF00DF300000D000E0300000D100E152
:101E2000300000D200E2300000D300E3300000AC0C
:101E300000E4300000D400E5300000AD00E63000E2
:101E400000D500E7300000AE00E8300000D600E921
:101E5000300000D700EA300000D800EB300000D995
:101E600000EC300000DA00ED300000DB00EF300065
:101E700000DC00F2300000A600F3300000DD00F4CA
:101E8000300000B3DEF7300000DCDEFA300000A6E0
:101E9000DEFB300000A500FC300000B000FD30008B
:101EA00000A400074E0000FB0086510000FC004328
:101EB000530000FA0064FF0000A40065FF0000A5C5
:101EC0000066FF0000A60067FF0000A70068FF0093
:101ED00000A80069FF0000A9006AFF0000AA006BCB
:101EE000FF0000AB006CFF0000AC006DFF0000AD18
:101EF000006EFF0000AE006FFF0000AF0070FF003B
:101F000000B00071FF0000B10072FF0000B200736A
:101F1000FF0000B30074FF0000B40075FF0000B5BF
:101F20000076FF0000B60077FF0000B70078FF00E2
:101F300000B80079FF0000B9007AFF0000BA007B0A
:101F4000FF0000BB007CFF0000BC007DFF0000BD67
:101F5000007EFF0000BE007FFF0000BF0080FF008A
:101F600000C00081FF0000C10082FF0000C20083AA
:101F7000FF0000C30084FF0000C40085FF0000C50F
:101F80000086FF0000C60087FF0000C70088FF0032
:101F900000C80089FF0000C9008AFF0000CA008B4A
:101FA000FF0000CB008CFF0000CC008DFF0000CDB7
:101FB000008EFF0000CE008FFF0000CF0090FF00DA
:101FC00000D00091FF0000D10092FF0000D20093EA
:101FD000FF0000D30094FF0000D40095FF0000D55F
:101FE0000096FF0000D60097FF0000D70098FF0082
:101FF00000D80099FF0000D9009AFF0000DA009B8A
:10200000FF0000DB009CFF0000DC009DFF0000DD06
:10201000009EFF0000DE009FFF0000DF00E5FF00E4
:10202000005C002D2D2D0053440020202020002096
:1020300020202020202000687474703A2F2F6D61BA
:10204000726C696E66772E6F726700687474703A8E
:102050002F2F6D61726C696E66772E6F72670068E4
:102060007474703A2F2F6D61726C696E66772E6F83
:102070007267006275676669782D322E302E78009F
:102080006275676669782D322E302E78006275672A
:102090006669782D322E302E7800687474703A2F6D
:1020A0002F6D61726C696E66772E6F72670068744F
:1020B00074703A2F2F6D61726C696E66772E6F7235
:1020C0006700687474703A2F2F6D61726C696E6668
:1020D000772E6F726700206275676669782D322EE1
:1020E000302E78002D2D2D2D2D2D007C4D61726C04
:1020F000696E7C002D2D2D2D2D2D00001C1F111122
:102100001F00000006191803130C00000E13151110
:102110000E00001C10181705060500040E1F041CF5
:10212000000000040A0A0A0A11110E0C12120C0017
:10213000000000001F1511151F0000000000000125
:102140000204040000001C1C0C0404040201000032
:1021500000000004081000000000002568753A2502
:10216000303268750025303268753A25303268752E
:1021700000506C6561736520526573657400505240
:10218000494E5445522048414C54454400456E63E5
:102190006C6F73757265004265640020746F6F2008
:1021A0006C6F6E6720657874727573696F6E2070DE
:1021B000726576656E7465640A0020636F6C6420D6
:1021C000657874727573696F6E2070726576656E6E
:1021D0007465640A0020573A0020573A00452025CC
:1021E00053002042403A0020403A00202F00202D8A
:1021F00020496E76616C69642065787472756465D7
:1022000072206E756D62657220210A004D494E5430
:10221000454D5020747269676765726564004D4171
:102220005854454D50207472696767657265640043
:10223000626564002C2073797374656D2073746F0C
:102240007070656421204865617465725F49443A25
:1022500020004531004B6420004B6920004B70206A
:1022600000504944204175746F74756E652066692D
:102270006E697368656421205075742074686520E8
:102280006C617374204B702C204B6920616E64204C
:102290004B6420636F6E7374616E74732066726F2B
:1022A0006D2062656C6F7720696E746F20436F6E6E
:1022B00066696775726174696F6E2E680A005049AD
:1022C00044204175746F74756E65206661696C6534
:1022D00064212074696D656F75740A00504944204B
:1022E0004175746F74756E65206661696C656421F3
:1022F0002054656D706572617475726520746F6FBE
:1023000020686967680A00204B643A2000204B6906
:102310003A2000204B703A20000A20436C6173730E
:10232000696320504944200A00204B643A20002071
:102330004B693A2000204B703A20000A204E6F2053
:102340006F76657273686F6F740A002054753A2057
:1023500000204B753A2000206D61783A2000206DF6
:10236000696E3A200020643A200020626961733A65
:102370002000504944204175746F74756E65207358
:10238000746172740A00504944204175746F747509
:102390006E65206661696C6564212054656D7065A9
:1023A00072617475726520746F6F20686967680A5E
:1023B0000023646566696E652044454641554C546A
:1023C0005F0048656174696E67206661696C656469
:1023D00000546865726D616C2052756E6177617929
:1023E000001000AE0160038900B0066B00000A5BBC
:1023F00000500D5000A0104700F013400040173966
:1024000000901A3300E01D2E003021290080242383
:1024100000D0271E00202B1900702E1400C0310E92
:10242000001035070060380000B03BF5FF003FDDCD
:10243000FF70012C0190012701B0012201C0011D94
:1024400001F00118011002130130020E01600209AF
:102450000190020401C002FF000003FA004003F5EE
:10246000008003F000D003EB002004E6007004E1DC
:1024700000E004DC004005D700C005D2004006CDD6
:1024800000D006C8008007C3003008BE00F008B9BD
:1024900000C009B400B00AAF00B00BAA00D00CA570
:1024A00000000EA000500F9B00C01096005012912B
:1024B0000000148C00C0158700B0178200B0197D91
:1024C00000D01B7800001E730040206E009022692F
:1024D00000F024640040275F0090295A00E02B554B
:1024E00000102E500020304B0010324600E03341E7
:1024F0000090353C001037370070383200A0392D7D
:1025000000B03A2800A03B2300603C1E00103D199B
:1025100000903D1400103E0F00703E0A00C03E05C2
:1025200000003F0000403FFBFF803FF6FFC03FF14F
:10253000FF436F6F6C696E672E2E2E0048656174C5
:10254000696E672E2E2E004572723A204D494E5408
:10255000454D50004572723A204D415854454D50FA
:1025600000544845524D414C2052554E4157415917
:102570000048656174696E67204661696C65640036
:10258000426564005761726E696E673A20486F6DEC
:10259000696E672042756D702044697669736F7249
:1025A000203C20310A0002020420746F6F206C6FFF
:1025B0006E6720657874727573696F6E20707265CE
:1025C00076656E7465640A0020636F6C64206578BC
:1025D00074727573696F6E2070726576656E74655E
:1025E000640A0000004842000048420000804000A9
:1025F00000A0400000A040000000400000B44200E5
:1026000000A04200008C420000B4420000A0420042
:10261000008C4200000000000000000000000048A4
:102620006F6D652025732573257320466972737459
:1026300000496E76616C69642065787472756465B2
:10264000720A002055004C0046696C616D656E741D
:10265000206C6F61642F756E6C6F6164206C656EA9
:10266000677468733A0020204D3835312058005A7D
:102670002D50726F6265204F66667365740020444A
:102680000020490020204D33303120500050494473
:102690002073657474696E67733A002046002048A1
:1026A0000020204D3134352053004D61746572692E
:1026B000616C2068656174757020706172616D6510
:1026C000746572733A002020473239205334205AFF
:1026D00000204A002020473239205333204900206F
:1026E000204D3432302053004D65736820426564BC
:1026F000204C6576656C696E673A0020204D32305B
:1027000036205800486F6D65206F66667365743AB1
:102710000020530020204D323035204200416476A5
:10272000616E6365643A20423C6D696E5F736567F4
:102730006D656E745F74696D655F75733E20533CA3
:102740006D696E5F66656564726174653E20543CB8
:102750006D696E5F74726176656C5F6665656472E3
:102760006174653E20583C6D61785F785F6A657280
:102770006B3E20593C6D61785F795F6A65726B3E94
:10278000205A3C6D61785F7A5F6A65726B3E2045C6
:102790003C6D61785F655F6A65726B3E0020520038
:1027A00020204D323034205000416363656C6572E7
:1027B0006174696F6E2028756E6974732F73322986
:1027C0003A20503C7072696E745F616363656C3E61
:1027D00020523C726574726163745F616363656CFF
:1027E0003E20543C74726176656C5F616363656C16
:1027F0003E0020204D3230312058004D6178696D07
:10280000756D20416363656C65726174696F6E20DC
:1028100028756E6974732F7332293A0020204D3267
:1028200030332058004D6178696D756D206665659F
:102830006472617465732028756E6974732F7329CF
:102840003A0053746570732070657220756E6974F8
:102850003A0020440020204D3230302053002044E4
:10286000697361626C65640A0046696C616D656ECE
:10287000742073657474696E67733A0020204D315B
:1028800034392043203B20556E69747320696E20D3
:1028900043656C736975730A00202047323120202C
:1028A00020203B20556E69747320696E206D6D0089
:1028B0003A0A0020286D6D290020204D3630332043
:1028C000003B200048617264636F64656420446566
:1028D0006661756C742053657474696E6773204CFF
:1028E0006F616465640A00290A0020627974657367
:1028F0003B2063726320002073746F7265642073E1
:10290000657474696E677320726574726965766543
:1029100064202800202863616C63756C61746564B1
:1029200029210A0020213D2000454550524F4D20CD
:10293000435243206D69736D61746368202D2028B4
:1029400073746F7265642920002053697A653A2098
:1029500000496E6465783A2000204D61726C696EA2
:102960003D563831290A00454550524F4D20766575
:102970007273696F6E206D69736D6174636820286E
:10298000454550524F4D3D004E6F20454550524FEA
:102990004D2E0A00290A002062797465733B20637A
:1029A0007263200053657474696E67732053746F8B
:1029B0007265642028004E6F20454550524F4D2EC1
:1029C0000A00454550524F4D206461746173697A25
:1029D00065206572726F722E0A000000FA430000D3
:1029E000FA430000A0400000C8410000A0420000DF
:1029F000A042CD0C464300003A42E8030000E80341
:102A00000000C8000000E803000053657474696E9C
:102A100067732053746F726564007A5F6D696E002E
:102A2000795F6D696E00785F6D696E005265706FD9
:102A30007274696E6720656E6473746F702073744E
:102A4000617475730A006F70656E00545249474790
:102A500045524544003A2000255320256320256334
:102A600020256320256300205A3A0020593A00208F
:102A7000583A00656E6473746F7073206869743AB5
:102A80002000486F6D696E67204661696C6564005F
:102A9000456E6473746F70730050726F62696E6715
:102AA000204661696C65640A00205A3A200020596A
:102AB0003A200042656420583A200050726F6269E3
:102AC0006E67204661696C65640020423A002043CD
:102AD0006F756E7420413A00043700001E29000013
:102AE000511B00005810000010090000CC04000029
:102AF000780200004101000024F4D43050C38E203D
:102B0000C2A24017828B7011127A910D816CD90A82
:102B1000A861E108C7586607615143061E4B5D0571
:102B2000C145A7041A411104093D980371393103C5
:102B30004036DB0265339102D4305402802E1D02F0
:102B4000632CEE01752AC501B028A0011027810170
:102B50008F2564012B244B01E0223401AC211F019D
:102B60008D200D01801FFC00841EED00971DDF00ED
:102B7000B81CD200E61BC600201BBC00641AB200C1
:102B8000B219A8000A19A0006A189900D11791007B
:102B900040178B00B516840031167E00B3157900FE
:102BA0003A157300C7146F0058146A00EE136600DC
:102BB0008813630025135E00C7125B006C12570078
:102BC00015125400C111510070114F0021114B001A
:102BD000D61049008D1047004610440002104200F4
:102BE000C00F4000800F3E00420F3C00060F3B002C
:102BF000CB0E3800930E37005C0E3500270E3400E4
:102C0000F30D3200C10D3100900D3000600D2E002B
:102C1000320D2D00050D2C00D90C2B00AE0C290017
:102C2000850C29005C0C2700350C27000E0C2600B3
:102C3000E80B2400C40B2400A00B23007D0B230011
:102C40005A0B2100390B2100180B2000F80A1F0035
:102C5000D90A1E00BB0A1E009D0A1D00800A1D0025
:102C6000630A1C00470A1B002C0A1B00110A1A00E9
:102C7000F7091A00DD091900C4091900AB09190088
:102C8000920917007B091800630917004C09160008
:102C900036091600200916000A091500F508150066
:102CA000E0081400CC081400B8081400A4081400AC
:102CB000900813007D0812006B08130058081200DA
:102CC00046081200340811002308110012081100F0
:102CD00001081100F0071000E0071000D0071000F5
:102CE000C0071000B0070F00A107100091070E00E9
:102CF00083070F0074070F0065070E0057070E00CB
:102D000049070E003B070D002E070E0020070D009F
:102D100013070D0006070D00F9060C00ED060D0067
:102D2000E0060C00D4060C00C8060C00BC060C0023
:102D3000B0060C00A4060B0099060C008D060B00D3
:102D400082060B0077060B006C060B0061060A007A
:102D500057060B004C060A0042060A0038060A0015
:102D60002E060A0024060A001A060A0010060900A8
:102D700007060A00FD050900F4050900EB05090036
:102D8000E2050900D9050900D0050900C7050900B9
:102D9000BE050900B5050800AD050800A505090038
:102DA0009C050800940508008C05080084050800AF
:102DB0007C050800740508006C050700650508001F
:102DC0005D050700560508004E050700470507008A
:102DD0004005080038050700310507002A050700EF
:102DE000230507001C050600160507000F05070050
:102DF0000805060002050700FB040600F5040700AD
:102E0000EE040600E8040600E2040700DB04060006
:102E1000D5040600CF040600C9040600C30406005A
:102E2000BD040600B7040600B1040500AC040600AA
:102E3000A6040600A00405009B04060095040500F6
:102E4000900406008A04050085040500800406003D
:102E50007A04050075040500700405006B04050084
:102E600066040500610405005C04050057040500C4
:102E7000520405004D040500480405004304050004
:102E80003E0404003A040500350405003004040043
:102E90002C04050027040400230405001E0404007C
:102EA0001A04040016040500110404000D040400B3
:102EB000090405000404040000040400FC030400E9
:102EC000F8030400F4030400F0030400EC0304001E
:102ED000E8030400E4030400E0030400DC0304004E
:102EE000D8030400D4030400D0030400CC0304007E
:102EF000C8030300C503030024F404D9201BC40C39
:102F00005C0E9804C4095F0265077101F405F900BD
:102F1000FB04B30048048700C1036900580355004F
:102F200003034500BE023A008402310053022A0026
:102F30002902250004022000E4011C00C801190038
:102F4000AF011700980114008401130071011000F3
:102F50006101100051010E0043010D0036010B000C
:102F60002B010B0020010B00150109000C010900C9
:102F700003010800FB000800F3000800EB00070055
:102F8000E4000600DE000600D8000600D2000600BD
:102F9000CC000500C7000500C2000500BD0004000C
:102FA000B9000400B5000400B1000400AD00040045
:102FB000A9000400A5000300A20003009F00040074
:102FC0009B0003009800030095000200930003009B
:102FD000900003008D0002008B00030088000200B7
:102FE0008600020084000300810002007F000200CE
:102FF0007D0002007B0002007900020077000100E2
:1030000076000200740002007200010071000200EC
:103010006F0002006D0001006C0002006A000100F8
:103020006900020067000100660001006500010000
:103030006400020062000100610001006000010004
:103040005F0002005D0001005C0001005B00010008
:103050005A0001005900010058000100570001000A
:10306000560001005500010054000100530000000B
:103070005300010052000100510001005000010006
:103080004F0001004E0000004E0001004D00010005
:103090004C0001004B0000004B0001004A00010001
:1030A00049000100480000004800010047000100FD
:1030B00046000000460001004500000045000100F8
:1030C00044000100430000004300010042000000F2
:1030D00042000100410000004100010040000100E9
:1030E0003F0000003F0001003E0000003E000100E4
:1030F0003D0000003D0001003C0000003C000000DD
:103100003C0001003B0000003B0001003A000000D1
:103110003A000100390000003900010038000000C9
:1031200038000000380001003700000037000100BF
:1031300036000000360000003600010035000000B7
:1031400035000000350001003400000034000000AC
:1031500034000100330000003300000033000100A0
:103160003200000032000000320001003100000097
:10317000310000003100010030000000300000008C
:10318000300001002F0000002F0000002F00000081
:103190002F0001002E0000002E0000002E00010074
:1031A0002D0000002D0000002D0000002D0001006A
:1031B0002C0000002C0000002C0000002C0001005E
:1031C0002B0000002B0000002B0000002B00010052
:1031D0002A0000002A0000002A0000002A00010046
:1031E000290000002900000029000000290000003B
:1031F000290001002800000028000000280000002D
:10320000280000002800010027000000270000001F
:103210002700000027000000270001002600000012
:103220002600000026000000260000002600010005
:1032300025000000250000002500000025000000FA
:1032400025000000250001002400000024000000EB
:1032500024000000240000002400010023000000DE
:1032600023000000230000002300000023000000D2
:1032700023000000230001002200000022000000C3
:1032800022000000220000002200000022000100B5
:1032900021000000210000002100000021000000AA
:1032A000210000002100000021000100200000009A
:1032B000200000002000000020000000200000008E
:1032C0002000000020000000200001001F0000007E
:1032D0001F0000001F0000001F0000001F00000072
:1032E0001F0000001F0001001E0000001E00000063
:1032F0001E0000001E0000004572726F722077727F
:103300006974696E6720746F20454550524F4D2196
:103310000A00452248223C2A8C3FEA6F6A7B45BB63
:103320005AD3A000077011241FBECFEFD1E2DEBF39
:10333000CDBF00E00CBF13E0A0E0B2E0E0ECFEE4A3
:1033400002E00BBF02C007900D92AE32B107D9F771
:1033500022E1AEE2B3E001C01D92A23DB207E1F767
:1033600019E1C2E9D9E100E006C021970109802FE7
:10337000FE010F943E1DC938D10780E00807A9F768
:10338000FCD50D944E270C9400001F920F920FB69F
:103390000F9211242F933F938F939F93AF93BF93DB
:1033A00080912F0390913003A0913103B0913203AB
:1033B00030912E0323E0230F2D3758F50196A11DE0
:1033C000B11D20932E0380932F0390933003A0937D
:1033D0003103B09332038091330390913403A09171
:1033E0003503B09136030196A11DB11D80933303BF
:1033F00090933403A0933503B0933603BF91AF91FC
:103400009F918F913F912F910F900FBE0F901F9022
:10341000189526E8230F0296A11DB11DD2CF2FB714
:10342000F89460912F037091300380913103909153
:1034300032032FBF08953FB7F894809133039091E2
:103440003403A0913503B091360326B5A89B05C07F
:103450002F3F19F00196A11DB11D3FBFBA2FA92F13
:10346000982F8827BC01CD01620F711D811D911D10
:1034700042E0660F771F881F991F4A95D1F708957C
:103480008F929F92AF92BF92CF92DF92EF92FF9274
:103490006B017C01D0DF4B015C01C114D104E1045C
:1034A000F104D9F0B6D3C7DF681979098A099B09F5
:1034B000683E73408105910580F321E0C21AD1086E
:1034C000E108F10888EE880E83E0981EA11CB11C6B
:1034D000C114D104E104F10431F7FF90EF90DF90C3
:1034E000CF90BF90AF909F908F90089582309105BC
:1034F00038F0880F991F880F991F05970197F1F7EA
:103500000895789484B5826084BD84B5816084BD5B
:1035100085B5826085BD85B5816085BDEEE6F0E04C
:10352000808181608083E1E8F0E0108280818260A8
:103530008083808181608083E0E8F0E08081816029
:103540008083E1EBF0E0808184608083E0EBF0E059
:10355000808181608083E1E9F0E080818260808306
:10356000808181608083E0E9F0E0808181608083F8
:10357000E1EAF0E0808182608083808181608083E5
:10358000E0EAF0E0808181608083E1E2F1E0808127
:1035900082608083808181608083E0E2F1E08081CD
:1035A00081608083EAE7F0E08081846080838081AD
:1035B0008260808380818160808380818068808355
:1035C0001092C10008951F93CF93DF93182FEB0142
:1035D00061E035D1209731F460E0812FDF91CF9108
:1035E0001F9169C1CF3FD10511F461E0F6CFE12F02
:1035F000F0E0EF56FD4FE491E150E23108F0B3C046
:10360000F0E08827E95FF44E8F4F0D943E1D191BA3
:10361000211B261B301B3A1BB31B441B4C1B541B8A
:103620005E1B681B721B811B8B1BB31B951B9F1B97
:10363000A91B84B5806884BDC7BDDF91CF911F9160
:10364000089584B5806284BDC8BDF7CF80918000A5
:10365000806880938000D0938900C0938800EDCF6C
:1036600080918000806280938000D0938B00C09313
:103670008A00E3CF80918000886080938000D0939F
:103680008D00C0938C00D9CF8091B000806880936A
:10369000B000C093B300D1CF8091B000806280931E
:1036A000B000C093B400C9CF80919000806880932F
:1036B0009000D0939900C0939800BFCF8091900064
:1036C000806280939000D0939B00C0939A00B5CF06
:1036D00080919000886080939000D0939D00C0936B
:1036E0009C00ABCF8091A00080688093A000809167
:1036F000A0008F7B8093A000D093A900C093A80066
:103700009CCF8091A00080628093A000D093AB00FA
:10371000C093AA0092CF8091A00088608093A000FF
:10372000D093AD00C093AC0088CF80912001806819
:1037300080932001D0932901C09328017ECF8091EE
:103740002001806280932001D0932B01C0932A0135
:1037500074CF80912001886080932001D0932D0147
:10376000C0932C016ACFC038D1050CF03ECF34CFC6
:103770008150823108F05AC0E82FF0E08827EC53DE
:10378000F44E8F4F0D943E1DE41BE81BD61BDC1B33
:10379000E01B161CEB1BF11BF51BFB1BFF1B031C8B
:1037A000091C0D1C161C111C171C1B1C8091800071
:1037B0008F77809380000895809180008F7DF9CF6E
:1037C00080918000877FF5CF84B58F7784BD089581
:1037D00084B58F7DFBCF8091B0008F778093B00050
:1037E00008958091B0008F7DF9CF809190008F7700
:1037F000809390000895809190008F7DF9CF809103
:103800009000877FF5CF8091A0008F778093A000F4
:1038100008958091A0008F7DF9CF8091A000877FCF
:10382000F5CF809120018F778093200108958091BA
:1038300020018F7DF9CF80912001877FF5CFCF9335
:10384000DF9390E0FC01E952FD4F2491835E9C4F91
:10385000FC0184918823C9F090E0880F991FFC0136
:10386000E956FC4FA591B491FC01E358FC4FC5917A
:10387000D49161110DC09FB7F8948C91209582234B
:103880008C938881282328839FBFDF91CF9108954F
:10389000623051F49FB7F8943C91822F8095832336
:1038A0008C93E8812E2BEFCF8FB7F894EC912E2BD1
:1038B0002C938FBFEACF1F93CF93DF93282F30E055
:1038C000F901EF56FD4F8491F901E952FD4FD49172
:1038D000F901E35EFC4FC491CC23A1F0162F8111B6
:1038E00047DFEC2FF0E0EE0FFF1FE358FC4FA591F0
:1038F000B4918FB7F894EC91111108C0D095DE23E4
:10390000DC938FBFDF91CF911F910895DE2BF8CF0D
:10391000CF93DF93282F30E0F901EF56FD4F8491CC
:10392000F901E952FD4FD491F901E35EFC4FC491D6
:10393000CC2399F081111CDFEC2FF0E0EE0FFF1F7C
:10394000ED59FC4FA591B491EC91ED2381E090E00D
:1039500009F480E0DF91CF91089580E090E0FACF04
:1039600008951F920F920FB60F9211240BB60F926B
:103970002F933F934F935F936F937F938F939F9377
:10398000AF93BF93EF93FF93E0910402F091050290
:103990001995FF91EF91BF91AF919F918F917F9179
:1039A0006F915F914F913F912F910F900BBE0F90B0
:1039B0000FBE0F901F9018951F920F920FB60F9287
:1039C00011240BB60F922F933F934F935F936F93F6
:1039D0007F938F939F93AF93BF93EF93FF93E09168
:1039E0000602F09107021995FF91EF91BF91AF91F7
:1039F0009F918F917F916F915F914F913F912F9107
:103A00000F900BBE0F900FBE0F901F9018951F9236
:103A10000F920FB60F9211240BB60F922F933F9374
:103A20004F935F936F937F938F939F93AF93BF93C6
:103A3000EF93FF93E0910802F09109021995FF912D
:103A4000EF91BF91AF919F918F917F916F915F9116
:103A50004F913F912F910F900BBE0F900FBE0F9083
:103A60001F9018951F920F920FB60F9211240BB64C
:103A70000F922F933F934F935F936F937F938F9307
:103A80009F93AF93BF93EF93FF93E0910A02F0915E
:103A90000B021995FF91EF91BF91AF919F918F917B
:103AA0007F916F915F914F913F912F910F900BBE3E
:103AB0000F900FBE0F901F9018951F920F920FB688
:103AC0000F9211240BB60F922F933F934F935F9356
:103AD0006F937F938F939F93AF93BF93EF93FF93D6
:103AE000E0910002F09101021995FF91EF91BF91D1
:103AF000AF919F918F917F916F915F914F913F9186
:103B00002F910F900BBE0F900FBE0F901F90189526
:103B10001F920F920FB60F9211240BB60F922F9394
:103B20003F934F935F936F937F938F939F93AF9345
:103B3000BF93EF93FF93E0910202F0910302199576
:103B4000FF91EF91BF91AF919F918F917F916F9175
:103B50005F914F913F912F910F900BBE0F900FBE31
:103B60000F901F9018951F920F920FB60F9211246D
:103B70000BB60F922F933F934F935F936F937F9367
:103B80008F939F93AF93BF93EF93FF93E0910C02BA
:103B9000F0910D021995FF91EF91BF91AF919F9117
:103BA0008F917F916F915F914F913F912F910F90E6
:103BB0000BBE0F900FBE0F901F9018951F920F9283
:103BC0000FB60F9211240BB60F922F933F934F9382
:103BD0005F936F937F938F939F93AF93BF93EF9375
:103BE000FF93E0910E02F0910F021995FF91EF9172
:103BF000BF91AF919F918F917F916F915F914F9105
:103C00003F912F910F900BBE0F900FBE0F901F9002
:103C10001895089590E080E008950895AF92BF92BE
:103C2000CF92DF92EF92FF920F931F93CF93DF9388
:103C30006C017B018B01040F151FEB015E01AE18B7
:103C4000BF08C017D10759F06991D601ED91FC91D9
:103C50000190F081E02DC6011995892B79F7C501F6
:103C6000DF91CF911F910F91FF90EF90DF90CF9058
:103C7000BF90AF900895CF93DF93EC0160E08E8109
:103C80001ADE81E090E032DC61E08E8114DE81E0BA
:103C900090E02CDC60E08E810EDE84E690E0DF9127
:103CA000CF9124CCCF92DF92EF92FF920F931F938C
:103CB000CF93DF936C017C0187E0E80EF11CD0E02C
:103CC000C0E0062F10E0B8010C2E02C07595679574
:103CD0000A94E2F76170F70181917F01ECDD219692
:103CE000C430D10581F7C601DF91CF911F910F91AB
:103CF000FF90EF90DF90CF90BECFCF92DF92EF9208
:103D0000FF920F931F93CF93DF936C017C0187E0A9
:103D1000E80EF11CD0E0C0E0062F10E0B8010C2E38
:103D200002C0759567950A94E2F76170F701819179
:103D30007F01C1DD2196C830D10581F7C601DF9131
:103D4000CF911F910F91FF90EF90DF90CF9093CF85
:103D50001F93CF93DF93EC01162F642F8C81ABDD83
:103D60008D818F3F11F060E0A6DD8F85612F84FF8C
:103D700005C0CE01DF91CF911F91BFCF70E084E0ED
:103D8000759567958A95E1F7CE018CDF612FCE019D
:103D9000DF91CF911F9186CF40E0DACF61E0FCDF69
:103DA00080ED97E0A3CB443008F043E0FC01238989
:103DB000421710F04FEF420FFC01E40FF11D248970
:103DC000620F6068E9CFFC016089262F2460208B98
:103DD0006C60E2CF0F931F93CF93DF93EC014230DF
:103DE00018F08F8588608F874B8B1C8A80E48D8BC1
:103DF0006E8B605C6F8B222329F0413019F48F8524
:103E000084608F8761E08C811ADD8D818F3F11F096
:103E100061E015DD61E08E8112DD8E0198012C1BC1
:103E20003D0B8F8584FD0CC084E090E00F5F1F4F39
:103E30002817390744F461E0F801868100DDEECFF0
:103E400088E090E0F3CF80E593EC50DB60E08C817C
:103E500032DD60E08E812FDD8D818F3F11F060E0DB
:103E60002ADD6F8564FD28C063E0CE011BDF84E995
:103E700091E13CDB63E0CE0115DF84E991E136DBC3
:103E800063E0CE010FDF86E990E030DB62E0CE0137
:103E900009DF6F856062CE017FDF84E0888BCE0111
:103EA00092DFCE017BDF82E0898B66E0CE01DF917D
:103EB000CF911F910F9170CF6062CE016DDF84E9C9
:103EC00091E114DB6F856062CE0166DF86E990E0E8
:103ED0000DDB6F856062CE015FDFDBCFCF92EF92AB
:103EE0000F93FC01138212828EEB92E09183808308
:103EF00064838FEF8583468327830087E186C286AC
:103F00001386148615861686178620E041E060E148
:103F1000CF010F91EF90CF905DCFEF92FF920F9373
:103F20001F93CF93DF938C017A01677088E0689FBD
:103F3000B00111246064C8012FDFE701A8E0EA0E98
:103F4000F11C6991D801ED91FC910190F081E02D77
:103F5000C8011995CE15DF05A1F7DF91CF911F910B
:103F60000F91FF90EF90089541E0F2DE81E090E044
:103F7000089590E080E008950895C3DAFDDF0E947F
:103F80003729C0E0D0E00E940D2A2097E1F30E947B
:103F90000000F9CFCF9320E030E0A9016091470302
:103FA000709148038091490390914A030F94B61988
:103FB000811132C020E030E0A90160914B03709183
:103FC0004C0380914D0390914E030F94B6198111CB
:103FD00023C020E030E0A90160914F0370915003AD
:103FE00080915103909152030F94B619C1E0811151
:103FF00010C020E030E0A901609153037091540398
:1040000080915503909156030F94B619811101C008
:10401000C0E08C2FCF910895C1E0FBCF9091910B20
:104020009817B1F00E947FC48091910B882341F0D2
:1040300083E891E10E94ABC31092910B0C94F2E5DE
:1040400081E08093910B83E891E10E94DAC3F6CF7F
:1040500008954F925F926F927F928F929F92AF924C
:10406000BF92CF92DF92EF92FF92CF936B017C01D0
:10407000C42FAC019B0160918D0B70918E0B8091D0
:104080008F0B9091900B0F94B619882309F4A5C05B
:10409000B090910B80E0C2DF20E030E0A901C701C1
:1040A000B6010F94B91B18161CF0C12CD12C760147
:1040B000C0928D0BD0928E0BE0928F0BF092900BF2
:1040C0002DEB37E346E855EBC701B6010F94B91B5A
:1040D00087FD0BC02DEB37E346E855E3C701B6017A
:1040E0000F94B61918160CF074C0A701960160E081
:1040F00070E080E89FE30F94BD196093890B709383
:104100008A0B80938B0B90938C0B80EF9FEFA9E72A
:10411000B4EC8093850B9093860BA093870BB093A0
:10412000880BBB2009F459C0409083115090841132
:104130006090851170908611809087119090881101
:10414000A0908911B0908A11C0908B11D0908C11E1
:10415000E0908D11F0908E1181E060DFCC23E9F1C9
:10416000A301920160918311709184118091851156
:10417000909186110F94B61981111CC0A50194016C
:1041800060918711709188118091891190918A11A5
:104190000F94B61981110EC020918B1130918C11A2
:1041A00040918D1150918E11C701B6010F94B6192F
:1041B000882399F0CF91FF90EF90DF90CF90BF9040
:1041C000AF909F908F907F906F905F904F900C94E6
:1041D000E6E560E070E0CB0190CFCF91FF90EF90EB
:1041E000DF90CF90BF90AF909F908F907F906F9017
:1041F0005F904F90089580E011DFFCC03F924F9296
:104200005F926F927F928F929F92AF92BF92CF9266
:10421000DF92EF92FF920F931F93CF93DF93E82EDD
:10422000C62E042F5901882E912CD0E0C0E0C8156D
:10423000D90579F0CA3058F082E0800F0E94B85B4F
:104240006AE070E0CE010F940C0F2196F0CF83E06E
:10425000F4CF8AE00F945A0ED12CD0E0C0E010E0E9
:104260004801E2E08E0E911C3C2ECC16DD0609F4CE
:1042700041C0F9E0FC1718F080E20F945A0E6AE092
:1042800070E0CE010F940C0FF12CFE1471F180E25E
:104290000F945A0E632D8F2DF50119952B013C01BA
:1042A000AC019B010F94A21C811113C020E030E0EF
:1042B000A901C301B2010F94B91B87FD03C08BE2B2
:1042C0000F945A0EA801C301B2010F949A0FF394F0
:1042D000DCCF712C7814190409F0CCF780E271104E
:1042E0008DE30F945A0E7394F5CF8AE00F945A0E13
:1042F0002196BACF8AE0DF91CF911F910F91FF9065
:10430000EF90DF90CF90BF90AF909F908F907F9075
:104310006F905F904F903F900D945A0EEF92FF92E6
:104320000F931F93CF93DF93CDB7DEB72C970FB6C4
:10433000F894DEBF0FBECDBF7C0103E811E1F801A8
:1043400080859185A285B38589879A87AB87BC874D
:1043500019821A821B821C8280E090E0A0EAB0E4FD
:104360008D839E83AF83B887AE014F5F5F4FBE01E1
:104370006B5F7F4FC7010E94F6E719821A821B828A
:104380001C82BE016F5F7F4FCE0109960E9413E829
:10439000F70184819581A681B78140815181628135
:1043A0007381F8014083518362837383848395838F
:1043B000A683B7831092C70A2C960FB6F894DEBF77
:1043C0000FBECDBFDF91CF911F910F91FF90EF9066
:1043D0000895E82FF0E0EE0FFF1FE60FF11DEE0F3E
:1043E000FF1FEE0FFF1FE95BFC4F6081718182812F
:1043F0009381089510925703109258031092590315
:1044000010925A03E7E4F3E080E1DF011D928A9500
:10441000E9F70895EFE3F3E080E090E0A0E2B1E493
:1044200080839183A283B38340E050E060EA72E42A
:104430004483558366837783E7E3F3E08083918346
:10444000A283B38380E090E0ACE8B2E484839583F8
:10445000A683B783CFCF84EC93E00E94385B609152
:104460005703709158038091590390915A0345E086
:1044700050E00F949A0F81EB93E00E94385B29EE95
:1044800031E245E062E082E0B9CE8BE593E0C2CF55
:1044900081E080935C030895CF92DF92EF92FF92C8
:1044A0000F931F93CF9390911002913009F461C044
:1044B000662351F010925F03109260031092610323
:1044C0001092620310926303C82F0E940F1AC090CB
:1044D0006003D0906103E0906203F09063039B015E
:1044E000AC012C193D094E095F0969017A01F7FCFD
:1044F00040C020915F03C7FD15C04C2F0C2E000C4F
:10450000550B4C5F5F4FE22F022E000CFF0B4E1736
:104510005F077CF144EFC42EDD24D394E12CF12C11
:104520002C1734F438EEC32E33E0D32EE12CF12CCB
:10453000C60ED71EE81EF91EC0926003D09261031A
:10454000E0926203F0926303022F017010E084E2B4
:10455000809FB001819F700D701B112460597C4FAA
:1045600082E390E00F94A81080915F038F5F8093A7
:104570005F03CF911F910F91FF90EF90DF90CF904D
:1045800008959091F30593FD0FC09091FC10911147
:104590000BC040912D1150912E1120914A02309163
:1045A0004B02421753074CF040E0682F8BE00E940B
:1045B000799961E080E00C9479E20E94465B87E59E
:1045C00094E00E94385B80E008954F925F926F9272
:1045D0007F928F929F92AF92BF92CF92EF92FF9273
:1045E0000F931F93CF93DF9300D01F92CDB7DEB709
:1045F0003C014B015A01F22E8C2DC3DF182F811183
:104600001CC0002329F040E06C2D89E00E947999BC
:10461000812F0F900F900F900F90DF91CF911F91EE
:104620000F91FF90EF90CF90BF90AF909F908F90A1
:104630007F906F905F904F900895EE2009F10023D6
:1046400029F040E06C2D84E00E9479990E94465B3D
:1046500088E394E00E94385B61E08F2D1DDF50906D
:10466000E80583E08093E80580918403882331F096
:1046700060E08F2D11DF81E0A9D5F6CF5092E805DB
:10468000002329F040E06C2D85E00E94799920E01C
:1046900030E0A901F30160817181828193810F94DF
:1046A000B619882371F080E090E0A0ECB0E4898333
:1046B0009A83AB83BC83BE016F5F7F4FC3010E94AF
:1046C000B0E620E030E0A901F401608171818281CF
:1046D00093810F94B619882351F14090020C5090A9
:1046E000030C6090040C7090050C80E090E0A8EC46
:1046F000B1E48093020C9093030CA093040CB0934C
:10470000050C80E090E0A0ECB0E489839A83AB8351
:10471000BC83BE016F5F7F4FC4010E94B0E6409230
:10472000020C5092030C6092040C7092050C412C08
:10473000512C80E4682E762C93E0C92E20E030E0E6
:10474000A901F50160817181828193810F94B91B68
:1047500018168CF4002329F040E060E086E00E9407
:10476000799949825A826B827C82BE016F5F7F4F4A
:10477000C5010E94B0E6002309F44ACFF090E80595
:10478000C092E8051092840340E060E087E00E9458
:10479000799980916C03811103C081E017D5F9CF1D
:1047A000F092E805813051F233CF4F925F926F92D1
:1047B0007F92AF92BF92CF92DF92EF92FF921F93C0
:1047C000CF93DF9300D000D01F921F92CDB7DEB7FA
:1047D0005C01E62EF42E842FD4DE182F81111CC02C
:1047E000EE2029F040E060E089E00E947999812F75
:1047F00028960FB6F894DEBF0FBECDBFDF91CF91E4
:104800001F91FF90EF90DF90CF90BF90AF907F907F
:104810006F905F904F900895EE2029F040E06F2D4B
:1048200083E00E94799980E090E0A0E7B2E48D8374
:104830009E83AF83B88780E090E0A0E5B1EC8983E8
:104840009A83AB83BC83BE016B5F7F4FCE01019621
:104850000E94B0E668E873E180E090E00E940A5CA4
:10486000C12CD12C88ECE82E81E4F82ECD82DE829A
:10487000EF82F88680E090E0A8EAB1E489839A8329
:10488000AB83BC83BE016B5F7F4FCE0101960E945C
:10489000B0E64090020C5090030C6090040C7090B5
:1048A000050CC092020CD092030CE092040CF09222
:1048B000050C80E090E0A0E2B1E48D839E83AF839D
:1048C000B887F50180819181A281B38189839A8320
:1048D000AB83BC83BE016B5F7F4FCE0101960E940C
:1048E000B0E64092020C5092030C6092040C70925D
:1048F000050C80E0C6D264E670E080E090E00E94A3
:104900000A5C75CFAF92BF92CF92DF92EF92FF9287
:104910000F931F93CF93DF9300D01F92CDB7DEB7D5
:1049200030915E03332389F010E0812F0F900F90B8
:104930000F900F90DF91CF911F910F91FF90EF900B
:10494000DF90CF90BF90AF900895022F7A015B0166
:104950006C018091F30583FD1CC020E030E0A901CB
:10496000F70160817181828193810F94B619882348
:1049700081F01091FC1011110CC020912D1130917B
:104980002E1180914A0290914B02281739070CF49E
:104990005DC081E080935E0390915E0892FD6AC0E5
:1049A0000F940F1180E1E3E8F1E1ADE6B3E001908F
:1049B0000D928A95E1F70E947FC420E030E0A901C2
:1049C000F60160817181828193810F94B6198823E9
:1049D00019F18091FC10811111C060912911709121
:1049E0002A1180912B1190912C110F94251A20914E
:1049F0004A0230914B026217730774F080E090E036
:104A0000A0E7B2E489839A83AB83BC83BE016F5F66
:104A10007F4FC6010E94B0E687E00E940EED811133
:104A200003C0B5010F949D0F20E030E0A901F7010C
:104A300060817181828193810F94B619882321F05E
:104A400042E0602FC701B1DE11E06FCF0E94465BEC
:104A500087E294E00E94385B002309F465CF40E0D0
:104A600060E089E00E94799960E088E694E00E9425
:104A7000627A5BCF9B7F90935E0882E080935E03B7
:104A80008FCFCF93C82F82E0C11184E040E060E077
:104A90000E9479990E94465B83EF93E0CC2311F04A
:104AA00088E094E0CF910C94385B1F93CF93DF9311
:104AB000D82FC62FE6DF61E08C2FEEDC0E940F1AA4
:104AC000685370458F4F9F4F6093191170931A115F
:104AD00080931B1190931C1110921D111091E805E9
:104AE00083E08093E80581E08093840380918403D0
:104AF000882309F441C060E08C2FCEDC80911D1129
:104B00008823B9F140E060E08AE00E9479990E9430
:104B1000465B89ED93E00E94385B41E060E070E025
:104B2000CB016AD31092191110921A1110921B1115
:104B300010921C1110921D1180E00E9440D780E05D
:104B400020DD8D2F9EDF0E940F1A685370458F4F16
:104B50009F4F6093191170931A1180931B119093BA
:104B60001C1110921D1181E08093840361E08C2F51
:104B700093DC81E02BD3BACF1093E805DF91CF917E
:104B80001F9108954F925F926F927F928F929F92A2
:104B9000AF92BF92CF92EF920F931F93CF93DF9379
:104BA000CDB7DEB72C970FB6F894DEBF0FBECDBFE2
:104BB00030915E03332309F40CC15801122F2A01EE
:104BC0003B014C01E0901D111092191110921A1125
:104BD00010921B1110921C1110921D1180E00E9466
:104BE00040D780912D1190912E118A159B0584F448
:104BF00080914802909149020F97A816B9060CF4CB
:104C0000C50190932E1180932D1180E00E9440D712
:104C1000E11015C08091FC10811111C06091291123
:104C200070912A1180912B1190912C110F94251ABB
:104C300020914A0230914B02621773073CF0C12C5D
:104C400001E0212FA201B301C401BFDC1A141B042F
:104C5000A4F480914802909149020F97A816B906D2
:104C60000CF4C50190932E1180932D1180E00E94C9
:104C700040D760E080E00E9479E240E060E088E0B8
:104C80000E947999812C912C80E7A82E82E4B82E7D
:104C900089829A82AB82BC8280E090E0A0E0B0EC96
:104CA00089879A87AB87BC87BE016F5F7F4FCE0134
:104CB00009960E94B0E680E090E0A8ECB2E4898713
:104CC0009A87AB87BC8788E0EDE6F3E0DE011196BA
:104CD00001900D928A95E1F7BE01675F7F4FCE018B
:104CE00001960E94F1E780E090E0A0EAB0E48983B9
:104CF0009A83AB83BC83BE016F5F7F4F85E793E0F0
:104D00000E9413E889829A82AB82BC8280E090E0A4
:104D1000A0E0B0E489879A87AB87BC87BE016F5F4C
:104D20007F4FCE0109960E94B0E620E030E0A90155
:104D30006091790370917A0380917B0390917C0359
:104D40000F94B61987FF0BC089829A82AB82BC820E
:104D5000BE016F5F7F4F89E793E00E94B0E68091CC
:104D6000790390917A03A0917B03B0917C038093A7
:104D70008F1190939011A0939111B0939211809301
:104D80007F1190938011A0938111B09382118FE7CE
:104D900091E10E94ADD140E060E089E00E94799904
:104DA00080915E03815080935E03882339F00E94D6
:104DB000326A80915E03815080935E038091C312BA
:104DC000823011F40F94711180E00E949D7A0E944C
:104DD0000A9F2C960FB6F894DEBF0FBECDBFDF91B1
:104DE000CF911F910F91EF90CF90BF90AF909F9078
:104DF0008F907F906F905F904F9008959898A09AB1
:104E00000895FF920F931F93CF93DF931F92CDB717
:104E1000DEB7F82E0EEE15E041E050E0B801CE010D
:104E200001960F94122189818F1108C081E00F90A3
:104E3000DF91CF911F910F91FF9008950F5F1F4F4A
:104E400086E00630180741F780E0F1CF0E94495B09
:104E50008FED95E00C94385B0E94FDD20E947FC4D8
:104E60008EEF0E9426E60C94F2E5129808955F9862
:104E70008A9880910801817080930601F6CF129A7A
:104E80000895811101C0129A08955F9A809193113B
:104E90008E7F809393118A9A809193118D7F809356
:104EA0009311809108018095817080930601809113
:104EB00093118B7F80939311E2CF80915E038111D8
:104EC0000AC08091C312813041F080915E0882FB5C
:104ED000882780F9089580E0089581E00895809101
:104EE0005E03811115C08091C312823089F09091C8
:104EF0005E0893FB882780F993FF0DC08091B5066B
:104F0000882341F092FB882780F991E08927089552
:104F100081E0089580E008950D947111CF93C82F1A
:104F200089EE93E030E6019729F0232F2A950000BF
:104F3000E9F7F9CFF89489EE93E038EE019729F07C
:104F4000232F2A950000E9F7F9CF0E94ACD7CC2394
:104F500029F09BDF909904C0A895FCCF90DFFACF91
:104F6000909B02C0A895FCCFF0E0E0E0CF911994AF
:104F7000FF920F931F93CF93DF93EC018B01F42EDD
:104F80000E94ACD70E94495B83E595E00E94385BA4
:104F90000115110511F408E416E0209711F4C9E495
:104FA000D6E0B801CE010E943F7A8F2DDF91CF91DC
:104FB0001F910F91FF90B2CF8F929F92AF92BF92AD
:104FC000CF92DF92EF92FF920F931F93182F809151
:104FD000B505843010F40E94403F0E940F1A6B0107
:104FE0007C01111105C080915E0310E0882349F017
:104FF000C092EF05D092F005E092F105F092F20533
:1050000011E08091EB059091EC05A091ED05B09138
:10501000EE050097A105B10549F14091EF055091CA
:10502000F0056091F1057091F205840F951FA61FA0
:10503000B71FA7019601281B390B4A0B5B0BDA013E
:10504000C901B7FD13C00E94495B6091E1057091F1
:10505000E20586E995E00E944C5B8AE00F945A0EC7
:1050600040E070E060E090E080E082DF8091150237
:1050700090911602A0911702B0911802892B8A2BE9
:105080008B2B79F09091180C8091150C981709F4DE
:1050900052C0C092EF05D092F005E092F105F09277
:1050A000F2058091810390918203909985C00196C9
:1050B0009093820380938103809181039091820376
:1050C0008E3E924064F00E94495B83E795E00E9427
:1050D000385B40E070E060E090E080E049DF809184
:1050E0007D0390917E03A0917F03B0918003A7017F
:1050F0009601281B390B4A0B5B0BDA01C901B7FD7E
:105100000FC00E942EC334E6C30ED11CE11CF11C5B
:10511000C0927D03D0927E03E0927F03F0928003E1
:105120001F910F91FF90EF90DF90CF90BF90AF90C5
:105130009F908F900895112319F010928303B1CF9F
:105140000E940F1A0091EF051091F0052091F105D2
:105150003091F2058090150290901602A0901702EF
:10516000B0901802080D191D2A1D3B1D601B710B04
:10517000820B930B97FDE1CF80918303811191CF37
:1051800081E0809383035F9A809193118E7F809357
:1051900093118A9A809193118D7F809393118091BE
:1051A00008018095817080930601809193118B7F17
:1051B0008093931164DE75CF181619060CF07CCF1E
:1051C0000197909382038093810376CFF5DE0E944E
:1051D00020D980918503882371F00E94766F0E9408
:1051E000E25A0F9453100E9449788091E905811189
:1051F00002C00C9412E20895CF92DF92EF92FF92D8
:10520000CF93DF936B017C01D42FC091E80583E03D
:105210008093E80581E080938403C114D104E10404
:10522000F10431F00E940F1AC60ED71EE81EF91EB7
:1052300080918403882381F0C114D104E104F10436
:1052400019F48D2FC3DFF4CF0E940F1A6C197D095A
:105250008E099F0997FDF5CF10928403C093E8054E
:10526000DF91CF91FF90EF90DF90CF900895CF9393
:1052700060E970ED83E090E00F94000E0E940F1A39
:105280000E94465B8CE495E00E94385B0F94350DDC
:10529000B5DD0F94390CC4B7C0FF04C083E495E0BA
:1052A0000E94385BC1FF04C082E395E00E94385B36
:1052B000C2FF04C080E295E00E94385BC3FF04C0D7
:1052C0008FE095E00E94385BC5FF04C08EEF94E04C
:1052D0000E94385B14BE82E596E00E94385B80E253
:1052E0000F945A0E80EF94E00E94385B8AE00F948E
:1052F0005A0E0E94465B84EB94E00E94385B0E9449
:10530000465B8DE994E00E94385B0E94465B0F94F7
:10531000360DBC018EE894E00E945E5B60EB74E0A9
:1053200087E794E00E945E5B8AE00F945A0E0E9429
:1053300032780E942AB580E00E949D7A809187038E
:10534000811107C00E94EFFE882319F081E080934D
:1053500087032091831130918411409185115091E0
:10536000861160914F11709150118091511190915F
:1053700052110F94DD186093831170938411809300
:1053800085119093861120915311309154114091C1
:10539000551150915611609187117091881180912B
:1053A000891190918A110F94DD1860938711709381
:1053B00088118093891190938A112091571130910F
:1053C00058114091591150915A1160918B1170915F
:1053D0008C1180918D1190918E110F94DD18609336
:1053E0008B1170938C1180938D1190938E110E946C
:1053F000F2E58CE391E10E946BD60F9424110E9498
:1054000032FF0F94E30580E00E9446FF0F943A0CB0
:1054100081E080938503CF910895C9EDD5E011E037
:1054200080E0D4DE0E94F06E80915E0886FF14C09A
:105430000E943A6A0E94623B0FDD0F94FA100E94AC
:10544000ACD770E060E080E00E948FD31092110230
:10545000D0932C04C0932B0480918503803139F4C0
:1054600083ED95E00E94673C8111109385030E94B3
:10547000423F0E9449FFD4CF86E893E00C949F6797
:10548000CF930E94A156C82F87FD0BC089E596E0F7
:105490000E94385B8C2F0E94E7DC8AE0CF910D944C
:1054A0005A0ECF9108958091DD059091DE05009709
:1054B00031F04AE050E070E060E00D94D71E60E00B
:1054C00070E0CB010895CF92DF92EF92FF92CF93DD
:1054D0008091D6059091D705A091D805B091D905B6
:1054E00022E1B695A795979587952A95D1F780FFE4
:1054F00008C0E091CE05E1110AC01092DE051092BD
:10550000DD05CF91FF90EF90DF90CF9008958091CF
:10551000E1059091E205E80FF92FF11D808190EDF2
:10552000980F9A3030F08E3299F5818180538A300D
:1055300020F7F093DE05E093DD05EF2B11F3B3DFE9
:10554000C0E097FD0CC0AFDF6F3F7105810591058D
:1055500009F024F4A8DFC62F6D3308F0CCE3C09324
:10556000CE100E940F1A6B017C012C2F30E0A8EEA8
:10557000B3E00F94461DC60ED71EE81EF91EC0925A
:10558000CA10D092CB10E092CC10F092CD10B9CFCF
:105590008D3219F08B3209F0B0CF818190ED980FE8
:1055A0009A3038F28E3209F0A8CF828180538A3047
:1055B00008F4BFCFA2CF2FEB280F2A3108F042C04A
:1055C000E22FF0E08091D6059091D705A091D80503
:1055D000B091D90504C0B695A795979587952A955A
:1055E000D2F780FD02C081700895E454FA4FE08143
:1055F000EE2329F18091E1059091E205E80FF92F62
:10560000F11D808190ED980F9A3030F08E3251F478
:10561000818180538A3098F4F093DE05E093DD05B4
:1056200081E008958D3211F08B3249F4818190ED43
:10563000980F9A3088F38E3211F48281EACFF0E02D
:10564000E0E0EACF80E00895B6DF882341F081E012
:105650002091DD053091DE05232B09F480E00895CB
:105660000F931F93CF938091DD059091DE050097F6
:1056700009F1FC018F01C1912C2F2F7DA1F0C534C0
:1056800011F0C536B9F7F801108270E060E0809142
:10569000DD059091DE050F94821DF801C083CF9146
:1056A0001F910F91089570E060E0CF911F910F91CD
:1056B0000D94821D60E070E0CB01F1CFF4DE97FD28
:1056C0000AC0F1DE6F3F71058105910509F02CF4E8
:1056D000EADE862F089580E008958FEF0895809187
:1056E000F30583FD37C00E94A15687FD33C089E4CE
:1056F000ABDF882339F1E2DF90E01816190614F4C5
:1057000081E090E026E0289FF001299FF00D112410
:10571000EA57F54F6081718180914802909149026A
:105720000F97681779070CF4CB0190932E11809393
:105730002D1180E00E9440D761E080E00E9479DB7B
:105740000C941BD383E580DF8823D1F389DF0F948A
:10575000251AE2CF08951F93CF93DF938091F3052D
:1057600083FD68C00E94A156182F87FD63C089E49D
:105770006BDF882309F450C0A1DF90E018161906EA
:1057800014F481E090E026E0289FF001299FF00DBD
:105790001124EA57F54F60817181C0E08091480281
:1057A000909149020F97681779070CF4CB019093F9
:1057B0002E1180932D1180E00E9440D761E081E09E
:1057C0000E9479DB60912D1170912E11072E000C33
:1057D000880B990B0F94581A2091291130912A1196
:1057E00040912B1150912C110F94B91B18161CF0DD
:1057F000DC2FC11104C0812F0E944FE2D1E00E9432
:105800001BD3DD23B9F06C2F812FDF91CF911F9136
:105810000C9479E2C82FF3CF83E516DFC82F8111EE
:1058200005C082E511DFD82F8823A1F319DF0F947B
:10583000251AB4CFDF91CF911F9108959F92AF9217
:10584000BF92CF92DF92EF92FF920F931F93CF936D
:10585000DF9300D01F92CDB7DEB785E4F5DE882355
:10586000B9F021DE6623A1F08CE596E00E94385B5A
:105870000F900F900F900F90DF91CF911F910F918C
:10588000FF90EF90DF90CF90BF90AF909F900895E2
:1058900083E4DADE05E0882311F005DE062F85E5D6
:1058A000D3DE182F8823B1F08091DD059091DE05BD
:1058B000892B99F0F8DD97FD0BC0F5DD6F3F710581
:1058C0008105910509F04CF4EEDD11E0611105C090
:1058D00010E003C085E56FDE182F83E5B5DE882371
:1058E00009F448C08091DD059091DE05C12CD12CD2
:1058F00076010097D1F0FC015F019190292D2F7D59
:1059000091F125E4921619F025E69212F5CFF501F2
:10591000108270E060E08091DD059091DE050F94CB
:10592000821D6B017C01F501908260E086E896E0C3
:105930000E94037AC701B6010F94251A072E000CA6
:10594000880B990B0F94581A69837A838B839C83F5
:10595000212F402F60E0CE0101960E944EDD80E0B5
:105960000E949D7A85CF70E060E00F94821D6B01EC
:105970007C01DBCFC12CD12C88E4E82E83E4F82E07
:10598000D4CF8091F30583FD2CC089E45DDE8823AC
:1059900021F194DE90E01816190614F481E090E0ED
:1059A00026E0289FF001299FF00D1124EA57F54FBA
:1059B000628173816C38710514F06CE870E070934B
:1059C0001711609316110E9476D761E080E00C9465
:1059D00079DB46DE0F94251AEDCF83E535DE8111A4
:1059E000F8CF0895CF938091F30583FD55C089E4E6
:1059F0002BDE882309F443C061DE90E018161906F7
:105A000014F481E090E026E0289FF001299FF00D3A
:105A10001124EA57F54F62817381C0E06C3871053B
:105A200014F06CE870E070931711609316110E94E7
:105A300076D760E081E00E9479DB60911611709169
:105A40001711072E000C880B990B0F94581A2091F0
:105A500012113091131140911411509115110F949E
:105A6000B91B18164CF083E996E060E00E94627A58
:105A70008C2FCF910C94FFE382EA96E0F6CF83E57A
:105A8000E3DDC82F811104C082E5DEDD882321F02B
:105A9000E7DD0F94251AC2CFCF910895CF93DF93FE
:105AA00080E5D2DD811125C081E485DDCFEFD0E036
:105AB000882321F060912411C62FD0E089E4C4DD51
:105AC0008823E9F0FBDD90E01816190614F481E054
:105AD00090E026E0289FF001299FF00D1124EA575D
