:100000000C942B170C94491A0C94741A0C949F1A84
:100010000C94CA1A0C94F51A0C94201B0C944B1BCC
:100020000C94761B0C945B170C945B170C945B1769
:100030000C945B170C945B170C945B170C945B1778
:100040000C945B170C9418E90C945B170C945B17D9
:100050000C945B170C945B170C9406C60C945D17FC
:100060000C945B170C9464F20C948EF20C945B1756
:100070000C945B170C945B170C945B170C945B1738
:100080000C945B170C945B170C945B170C945B1728
:100090000C945B170C945B170C945B170C945B1718
:1000A0000C945B170C945B170C945B170C945B1708
:1000B0000C945B170C945B170C945B170C945B17F8
:1000C0000C945B170C945B170C945B170C945B17E8
:1000D0000C945B170C945B170C945B170C945B17D8
:1000E0000C945B17084AD73B3BCE016E84BCBFFD26
:1000F000C12F3D6C74319ABD56833DDA3D00C77FF8
:1001000011BED9E4BB4C3E916BAAAABE0000008090
:100110003F05A84CCDB2D44EB93836A9020C50B91F
:10012000918688083CA6AAAA2ABE000000803F004B
:100130004E414E494E495459494E46CDCCCC3D0ACC
:10014000D7233C17B7D13877CC2B329595E6241FAF
:10015000B14F0A000020410000C84200401C462068
:10016000BCBE4CCA1B0E5AAEC59D7400407A10F33B
:100170005A00A0724E18090010A5D4E80000E876D5
:1001800048170000E40B54020000CA9A3B0000002C
:10019000E1F505000080969800000040420F000045
:1001A00000A08601000000102700000000E8030006
:1001B0000000006400000000000A000000000001D0
:1001C00000000000002C76D888DC674F0823DFC1D0
:1001D000DFAE59E1B1B796E5E3E453C63AE651998B
:1001E0007696E8E6C28426EB898C9B62ED407C6FB4
:1001F000FCEFBC9C9F40F2BAA56FA5F490055A2A6B
:10020000F75C936B6CF9676DC11BFCE0E40D47FE76
:10021000F520E6B500D0ED902E030094357705006B
:1002200080841E080000204E0A000000C80C3333F2
:1002300033330F986E12831141EF8D2114893BE601
:100240005516CFFEE6DB18D1844B381BF77C1D908A
:100250001DA4BBE424203284725E228100C9F124F3
:10026000ECA1E53D2700000A0B02090C0D0E080762
:100270000304010000000000000000000000000076
:10028000000000000000000000000000000000006E
:10029000001211100000000000000000000000002B
:1002A00000000000000000000000000102102020FB
:1002B00008081020401020408002010201080402BA
:1002C0000101020408102040808040201008040230
:1002D0000180040201804020100804020108040289
:1002E000010102040810204080010204081020408F
:1002F0008005050505070508080808020202020A2C
:100300000A080804040404010101010101010103B8
:1003100003030303030303040707070C0C0C0C0C73
:100320000C0C0C0202020206060606060606060B66
:100330000B0B0B0B0B0B0B000020002300260029DE
:10034000002C002F0032000001000003010601090B
:100350000100002200250028002B002E003100346F
:100360000002010000050108010B0100002100242A
:100370000027002A002D0030003300010100000496
:100380000107010A010A4D65617375726564207089
:100390006F696E74733A0A00327832206D65736843
:1003A0002E205A206F66667365743A200020205014
:1003B0006C616E6E657242756666657242797465CF
:1003C000733A20002046726565204D656D6F727925
:1003D0003A2000436F6D70696C65643A204A756C11
:1003E00020313920323032300A00204C61737420C1
:1003F000557064617465643A20323032302D303784
:100400002D3137207C20417574686F723A20286E38
:100410006F6E652C2064656661756C7420636F6E09
:10042000666967290A006275676669782D322E3021
:100430002E780A0020536F667477617265205265CA
:100440007365740A00205761746368646F67205293
:10045000657365740A002042726F776E206F757441
:100460002052657365740A002045787465726E6168
:100470006C2052657365740A00506F776572557011
:100480000A0073746172740A005072696E74657246
:100490002068616C7465642E206B696C6C2829205F
:1004A00063616C6C6564210A002121204B494C4C2E
:1004B00020636175736564206279204B494C4C2040
:1004C000627574746F6E2F70696E0A002121204B63
:1004D000494C4C2063617573656420627920746FA8
:1004E0006F206D75636820696E616374697665203D
:1004F00074696D65202D2063757272656E7420635A
:100500006F6D6D616E643A20004D313030310047BF
:10051000323858590050726F7465637465642050A6
:10052000696E0A00363726033C3D380E2E303E12E7
:1005300024221E1A1C180AFF43080908440001203F
:10054000453A00205A3A0020593A00204500205AE6
:1005500000205900205800204200583A0020540042
:100560004D3234004D3233202573004D3231004777
:100570003238004D3131322053687574646F776EB4
:1005800000004B494C4C45442E20004D61726C6973
:100590006E006F6B00504944204175746F74756E26
:1005A00065206661696C656421204261642065781C
:1005B000747275646572206E756D6265720A0050A2
:1005C0004944204175746F74756E650042656420FE
:1005D000436F6F6C696E672E2E2E00426564204853
:1005E000656174696E672E2E2E004348414D424569
:1005F000525F54454D504552415455524500424179
:1006000042595354455050494E47004152435300BC
:100610004D4F54494F4E5F4D4F444553005448454C
:10062000524D414C5F50524F54454354494F4E0038
:100630004C4F4E475F46494C454E414D4500415554
:10064000544F5245504F52545F53445F535441549A
:100650005553005344434152440050524F4D50545F
:100660005F535550504F525400454D455247454EEB
:1006700043595F50415253455200434153455F4CEB
:10068000494748545F4252494748544E45535300E6
:10069000544F47474C455F4C494748545300534FCC
:1006A0004654574152455F504F57455200425549B5
:1006B0004C445F50455243454E54004C4556454CC2
:1006C000494E475F44415441005A5F50524F4245A2
:1006D0000052554E4F5554004155544F4C455645C8
:1006E0004C005052494E545F4A4F420050524F47BF
:1006F00052455353004155544F5245504F52545F49
:1007000054454D5000564F4C554D455452494300A9
:10071000454550524F4D0042494E4152595F46495E
:100720004C455F5452414E53464552005345524941
:10073000414C5F584F4E5F584F4646004649524D18
:10074000574152455F4E414D453A4D61726C696E5D
:10075000206275676669782D322E302E7820284AFF
:10076000756C20313920323032302030363A313811
:100770003A35392920534F555243455F434F44453D
:100780005F55524C3A68747470733A2F2F676974CE
:100790006875622E636F6D2F4D61726C696E46696C
:1007A000726D776172652F4D61726C696E20505267
:1007B0004F544F434F4C5F56455253494F4E3A3179
:1007C0002E30204D414348494E455F545950453ADB
:1007D0003344205072696E746572204558545255E6
:1007E0004445525F434F554E543A31205555494484
:1007F0003A63656465326132662D343161322D347D
:100800003734382D396231322D63353563363266EF
:1008100033363766660A004361703A002F2F200096
:100820004D3131332053005072696E742074696DFC
:10083000653A20002569730025696D2025697300DC
:100840002569682025696D20256973002569642064
:100850002569682025696D2025697300256979203F
:10086000256964202569682025696D202569730044
:100870004D65736820706F696E74206F7574206F9A
:10088000662072616E67650A004D34323120696EF0
:10089000636F727265637420706172616D657465F7
:1008A000722075736167650A00206F6620004D42F3
:1008B0004C2047323920706F696E742000290A007D
:1008C0004A206F7574206F662072616E67652028FC
:1008D000302D00290A0049206F7574206F66207240
:1008E000616E67652028302D004D65736820707239
:1008F0006F62696E6720646F6E652E0A00537461C3
:100900007274206D6573682070726F62696E672003
:100910007769746820224732392053312220666972
:100920007273742E0A004732380A47323920533224
:1009300000686173206E6F20646174612E0A004D3F
:1009400065736820426564204C6576656C696E67E6
:10095000200053206F7574206F662072616E67658A
:100960002028302D35292E0A00206E6F7420656EE8
:1009700074657265642E0A004D65736820706F6936
:100980006E74206F7574206F662072616E67650AE1
:10099000004F46460A0046616465204865696768FD
:1009A000742000426564204C6576656C696E672032
:1009B000004661696C656420746F20656E61626CCD
:1009C0006520426564204C6576656C696E670A0037
:1009D0004D65736820426564204C6576656C2064C3
:1009E0006174613A0A00496E76616C6964206D65D4
:1009F00073682E0A00446F6E6520736176696E67B6
:100A00002066696C652E0A0053442072656164207B
:100A10006572726F720A004D343130004D313132DF
:100A2000004D313038005072696E746572207374F5
:100A30006F707065642064756520746F20657272D4
:100A40006F72732E20466978207468652065727213
:100A50006F7220616E6420757365204D39393920BD
:100A6000746F20726573746172742E202854656DE2
:100A70007065726174757265206973207265736543
:100A8000742E205365742069742061667465722029
:100A900072657374617274696E67290A004E6F2003
:100AA000436865636B73756D2077697468206C6942
:100AB0006E65206E756D6265722C204C61737420BA
:100AC0004C696E653A20004E6F20436865636B7316
:100AD000756D2077697468206C696E65206E756D20
:100AE0006265722C204C617374204C696E653A20EB
:100AF00000636865636B73756D206D69736D6174F8
:100B000063682C204C617374204C696E653A200038
:100B10004C696E65204E756D626572206973206E3A
:100B20006F74204C617374204C696E65204E756D36
:100B30006265722B312C204C617374204C696E6598
:100B40003A20004D313130004D3239005265736525
:100B50006E643A20006F6B00220A00656E71756545
:100B60007565696E6720220053544F505045442EDE
:100B70002000454550524F4D204F4B0A00204D3923
:100B80003220580020466C6F773A2000496E76611B
:100B90006C69642065787472756465720A002064FB
:100BA0003A0020693A0020703A0043290A00616245
:100BB0006C656420286D696E2074656D702000641A
:100BC000697300656E00436F6C642065787472759C
:100BD0006465732061726520005741524E494E474B
:100BE00021204C6F77205A204A65726B206D617905
:100BF000206C65616420746F20756E77616E74651A
:100C000064207061757365732E0A00205200416381
:100C100063656C65726174696F6E3A20500046526C
:100C20003A004572723A20546F6F2066617221005B
:100C3000546F6F206661722066726F6D20726566F8
:100C40006572656E636520706F696E740A00FFFFE0
:100C5000FF00000000000080C1000000004F666639
:100C600073657473204170706C696564004E6F2009
:100C70004D6F76652E0020204D61783A20002000CF
:100C800020204D696E3A2000536F667420656E64B3
:100C900073746F70733A20006F6666004445425566
:100CA000473A00CE0CC90CC20CBB0CAD0C434F4DE7
:100CB0004D554E49434154494F4E004452595255A7
:100CC0004E004552524F525300494E464F00454345
:100CD000484F00496E76616C69642050696E204D02
:100CE0006F64650A003344205072696E7465722027
:100CF0004F46462E004D383400446F6E65207072AA
:100D0000696E74696E672066696C650A004D3737D5
:100D1000004D333100456E642066696C65206C6956
:100D200073740A00426567696E2066696C65206CA1
:100D30006973740A0043757272656E742066696C1B
:100D4000653A2000220A00556E6B6E6F776E206345
:100D50006F6D6D616E643A2022004D313435205341
:100D60003C696E6465783E206F7574206F662072F2
:100D7000616E67652028302D31290A00436C696354
:100D80006B20746F20526573756D652E2E2E004793
:100D9000322F47332062616420706172616D657427
:100DA0006572730A00536C6565702E2E2E00627595
:100DB00073793A2070617573656420666F7220697B
:100DC0006E7075740A00627573793A20706175737C
:100DD000656420666F7220757365720A00627573B0
:100DE000793A2070726F63657373696E670A0020C9
:100DF000496E76616C696420657874727564657299
:100E000020004F4646004F4E006563686F3A00452C
:100E100072726F723A007C3C3E5E2B3D3F2F5B5DF1
:100E20003B2C2A225C0043616E6E6F7420656E74E9
:100E30006572207375626469723A20002E0A006F31
:100E400070656E206661696C65642C2046696C650E
:100E50003A20006175746F25632E67006572726FAA
:100E6000722077726974696E6720746F2066696C8E
:100E7000650A004E6F74205344207072696E746965
:100E80006E670A005344207072696E74696E672041
:100E90006279746520002E0A0044656C6574696F80
:100EA0006E206661696C65642C2046696C653A2029
:100EB0000046696C652064656C657465643A00572A
:100EC000726974696E6720746F2066696C653A2078
:100ED0000046696C652073656C65637465640A001F
:100EE0002053697A653A200046696C65206F706509
:100EF0006E65643A2000454E4420535542524F558A
:100F000054494E450A002220706F73002220706100
:100F100072656E743A2200535542524F5554494EF1
:100F2000452043414C4C207461726765743A22003D
:100F30004578636565646564206D6178205355422A
:100F4000524F5554494E452064657074683A310AD1
:100F5000002066696C653A200066726573680064FB
:100F60006F696E67004E6F7720002E0A006F706504
:100F70006E206661696C65642C2046696C653A2058
:100F80000053442063617264206F6B0A006F7065C8
:100F90006E526F6F74206661696C65640A00766FCB
:100FA0006C756D652E696E6974206661696C656427
:100FB0000A004E6F20534420636172640A00286E59
:100FC0006F2066696C65290043616E6E6F74206FD7
:100FD00070656E2073756264697220005375626378
:100FE000616C6C204F766572666C6F77003F004DC8
:100FF00032350025533A202553000210FE0F41429E
:101000005300504C41005072696E742041626F72FF
:10101000746564005072696E74696E672E2E2E00BE
:101020005072696E7420506175736564005061750B
:1010300073696E672E2E2E0049676E6F72650052BF
:101040006573657400454550524F4D205665727367
:10105000696F6E204572726F7200454550524F4D58
:1010600020496E646578204572726F720045455064
:10107000524F4D20435243204572726F7200496EA9
:10108000697469616C697A6520454550524F4D001D
:101090004D656469612052656D6F766564004D65CC
:1010A00064696120496E736572746564003344201D
:1010B0005072696E7465722052656164792E0054B5
:1010C000656D70657261747572650046616E20535E
:1010D0007065656400426564004E6F7A7A6C6500E5
:1010E000436F6F6C646F776E0050726568656174F2
:1010F0002024204265640050726568656174202474
:1011000020456E6400507265686561742024004D4E
:1011100061696E004D3834004732385A0047323822
:10112000590047323858004D6F74696F6E004F6632
:1011300066004F6E004D6F76652031306D6D004D4D
:101140006F766520316D6D004D6F766520302E31E4
:101150006D6D004D6F76652025736D6D00486F7461
:10116000656E6420746F6F20636F6C6400457874E3
:101170007275646572004D6F7665205A004D6F760A
:10118000652059004D6F7665205800426564204CFB
:101190006576656C696E67004D6F7665204178698C
:1011A0007300486F6D65205A00486F6D65205900C7
:1011B000486F6D652058004175746F20486F6D65EC
:1011C0000044697361626C65205374657070657268
:1011D00073004D61696E00536F667420456E6473D1
:1011E000746F707300052E2E003F005072696E748C
:1011F0002066726F6D204D656469610043616E63A6
:10120000656C005072696E74005374617274205082
:1012100072696E74004D61696E0047323920533136
:1012200000473239205332002569202F20257500D0
:10123000473239205332004C6F6164205365747417
:10124000696E67730053746F7265205365747469B7
:101250006E6773004D6F74696F6E004F6666004F66
:101260006E00426564205A004D6F7665205A005A20
:101270002056616C756500496E6465782059004997
:101280006E64657820580045646974204D65736804
:10129000004C6576656C2042656400426564204CB4
:1012A0006576656C696E67004661646520486569AE
:1012B000676874004C6576656C696E6720446F6E74
:1012C0006521004E65787420506F696E7400436C20
:1012D00069636B20746F20426567696E00526573A5
:1012E000746F72652044656661756C7473004C6F31
:1012F00061642053657474696E67730053746F7210
:10130000652053657474696E67730046616E20537F
:101310007065656400426564004E6F7A7A6C6500A2
:1013200050726568656174202420436F6E660043C7
:101330006F6E66696775726174696F6E004164767D
:10134000616E6365642053657474696E6773004DE4
:1013500061696E00466C6F770046616E2053706560
:10136000656400426564004E6F7A7A6C6500426580
:1013700064205A005370656564004D61696E004DCC
:101380006F76696E672E2E2E00486F6D696E67202E
:1013900058595A003F004368616E6765204D656487
:1013A0006961004E6F204D65646961005072696E1D
:1013B000742066726F6D204D656469610053746FAF
:1013C00070205072696E7400526573756D6520509F
:1013D00072696E74005061757365205072696E7425
:1013E0000053746F700054756E6500496E666F200F
:1013F00053637265656E004D6F74696F6E0054655E
:101400006D706572617475726500436F6E666967B1
:1014100075726174696F6E004261636B003F004DCD
:101420003432380043616E63656C00496E69740044
:10143000496E697469616C697A6520454550524FFF
:101440004D0046696C2E204469612E004520696E6E
:10145000206D6DC2B30046696C616D656E74005499
:10146000656D706572617475726500452073746591
:1014700070732F6D6D005A2053746570732F6D6DEE
:1014800000592053746570732F6D6D00582053748C
:101490006570732F6D6D0053746570732F6D6D00E3
:1014A000412D54726176656C00412D5265747261F4
:1014B000637400416D6178204500416D6178205A68
:1014C00000416D6178205900416D617820580041DC
:1014D0006363656C65726174696F6E005654726106
:1014E00076204D696E00566D696E00566D617820EC
:1014F0004500566D6178205A00566D61782059007C
:10150000566D617820580056656C6F636974790078
:1015100056652D4A65726B00565A2D4A65726B00EE
:1015200056592D4A65726B0056582D4A65726B00EC
:101530004A65726B00416363656C004F6666004FDD
:101540006E004175746F74656D70002002204661F5
:101550006374002002204D6178002002204D696EE6
:101560000053657420486F6D65204F66667365741F
:101570007300436F6E66696775726174696F6E00A0
:10158000416476616E6365642053657474696E6747
:101590007300A10000006900A20000006300B00019
:1015A00000000900C10000004100C200000041002D
:1015B000C30000004100C40000004100C50000005D
:1015C0004100C60000004145C70000004300C800BC
:1015D00000004500C90000004500CD0000004900A2
:1015E000D10000004E00D50000004F00D6000000E2
:1015F0004F00D70000007800DC0000005500DD003F
:1016000000005900E00000006100E10000006100FE
:10161000E20000006100E30000006100E40000005F
:101620006100E50000006100E60000006165E70080
:1016300000006300E80000006500E90000006500AC
:10164000EA0000006500EB0000006500EC0000000F
:101650006900ED0000006900EE0000006900EF0085
:1016600000006900F10000006E00F20000006F0051
:10167000F30000006F00F40000006F00F5000000B0
:101680006F00F60000006F00F80000006F00F90026
:1016900000007500FA0000007500FB0000007500F6
:1016A000FC0000007500FD0000007900FF00000054
:1016B00079000401000041000501000061000601FD
:1016C000000043000701000063000C01000043001C
:1016D0000D01000063000E01000044000F01000036
:1016E00064001101000064001901000065001A0186
:1016F000000045001B01000065001F01000067009D
:101700003001000049003101000069004101000082
:101710004C00420100006C00430100004E004401F7
:1017200000006E00480100006E00580100005200E9
:101730005901000072005A01000053005B010000D3
:1017400073005F010000730060010000530061013D
:10175000000073006501000074006F010000750057
:101760007C0100007A007D0100005A007E0100002B
:101770007A00920100006600E30200007800222057
:1017800000002E001E210000507822210000544D40
:10179000902100003C2D922100002D3EB021000040
:1017A0000300BB21000004003C2200007E00482210
:1017B00000007E3D60220000213D612200003D00CE
:1017C000642200003C3D652200003E3DF123000004
:1017D0000700A03000003D0021F301000200C2F428
:1017E00001000500A2000000EC00B0000000DF00D6
:1017F000E4000000E100F6000000EF00F700000048
:10180000FD00FC000000F500E3020000EB00870390
:101810000000A5008F030000F40098030000F20010
:101820009E030000E300A3030000F600A9030000EC
:10183000F400AC030000E000AD030000E300B103DE
:101840000000E000B2030000E200B5030000E30086
:10185000B8030000F200BC030000E400BE03000077
:10186000E300C0030000F700C1030000E600C3036B
:101870000000E500902100007F00922100007E0022
:101880001A220000E8001E220000F3008825000054
:10189000FF0002300000A1000C300000A2000D305B
:1018A0000000A3009B300000DE009C300000DF0041
:1018B000A03000003D00A1300000A700A2300000D1
:1018C000B100A3300000A800A4300000B200A53091
:1018D0000000A900A6300000B300A7300000AA0055
:1018E000A8300000B400A9300000AB00AA3000000E
:1018F000B500AB300000B600AC300000B6DEAD3055
:101900000000B700AE300000B7DEAF300000B80016
:10191000B0300000B8DEB1300000B900B2300000D5
:10192000B9DEB3300000BA00B4300000BADEB53022
:101930000000BB00B6300000BBDEB7300000BC00CA
:10194000B8300000BCDEB9300000BD00BA30000085
:10195000BDDEBB300000BE00BC300000BEDEBD30CE
:101960000000BF00BE300000BFDEBF300000C0007E
:10197000C0300000C0DEC1300000C100C230000035
:10198000C1DEC3300000AF00C4300000C200C5306B
:101990000000C2DEC6300000C300C7300000C3DE56
:1019A000C8300000C400C9300000C4DECA300000E6
:1019B000C500CB300000C600CC300000C700CD30E1
:1019C0000000C800CE300000C900CF300000CA00BF
:1019D000D0300000CADED1300000CADFD2300000B3
:1019E000CB00D3300000CBDED4300000CBDFD530CD
:1019F0000000CC00D6300000CCDED7300000CCDFB9
:101A0000D8300000CD00D9300000CDDEDA30000043
:101A1000CDDFDB300000CE00DC300000CEDEDD307C
:101A20000000CEDFDE300000CF00DF300000D0004D
:101A3000E0300000D100E1300000D200E2300000D0
:101A4000D300E3300000AC00E4300000D400E53007
:101A50000000AD00E6300000D500E7300000AE0029
:101A6000E8300000D600E9300000D700EA3000007E
:101A7000D800EB300000D900EC300000DA00ED3087
:101A80000000DB00EF300000DC00F2300000A600B8
:101A9000F3300000DD00F4300000B3DEF73000006A
:101AA000DCDEFA300000A6DEFB300000A500FC30D2
:101AB0000000B000FD300000A400074E0000FB0055
:101AC00086510000FC0043530000FA0064FF000050
:101AD000A40065FF0000A50066FF0000A60067FFE8
:101AE0000000A70068FF0000A80069FF0000A9002F
:101AF0006AFF0000AA006BFF0000AB006CFF000053
:101B0000AC006DFF0000AD006EFF0000AE006FFF87
:101B10000000AF0070FF0000B00071FF0000B100D6
:101B200072FF0000B20073FF0000B30074FF0000FA
:101B3000B40075FF0000B50076FF0000B60077FF27
:101B40000000B70078FF0000B80079FF0000B9007E
:101B50007AFF0000BA007BFF0000BB007CFF0000A2
:101B6000BC007DFF0000BD007EFF0000BE007FFFC7
:101B70000000BF0080FF0000C00081FF0000C10026
:101B800082FF0000C20083FF0000C30084FF00004A
:101B9000C40085FF0000C50086FF0000C60087FF67
:101BA0000000C70088FF0000C80089FF0000C900CE
:101BB0008AFF0000CA008BFF0000CB008CFF0000F2
:101BC000CC008DFF0000CD008EFF0000CE008FFF07
:101BD0000000CF0090FF0000D00091FF0000D10076
:101BE00092FF0000D20093FF0000D30094FF00009A
:101BF000D40095FF0000D50096FF0000D60097FFA7
:101C00000000D70098FF0000D80099FF0000D9001D
:101C10009AFF0000DA009BFF0000DB009CFF000041
:101C2000DC009DFF0000DD009EFF0000DE009FFF46
:101C30000000DF00E5FF00005C002D2D2D00534467
:101C40000020202020002020202020202000687458
:101C500074703A2F2F6D61726C696E66772E6F7299
:101C60006700687474703A2F2F6D61726C696E66CC
:101C7000772E6F726700687474703A2F2F6D6172DF
:101C80006C696E66772E6F72670062756766697839
:101C90002D322E302E78006275676669782D322ECF
:101CA000302E78006275676669782D322E302E7876
:101CB00000687474703A2F2F6D61726C696E66776C
:101CC0002E6F726700687474703A2F2F6D61726C9A
:101CD000696E66772E6F726700687474703A2F2F82
:101CE0006D61726C696E66772E6F72670020627527
:101CF000676669782D322E302E78002D2D2D2D2DF2
:101D00002D007C4D61726C696E7C002D2D2D2D2D6A
:101D10002D00001C1F11111F0000000619180313CD
:101D20000C00000E1315110E00001C1018170506EC
:101D30000500040E1F041C000000040A0A0A0A1110
:101D4000110E0C12120C00000000001F1511151FBF
:101D5000000000000000010204040000001C1C0C34
:101D60000404040201000000000004081000000048
:101D700000002568753A25303268750025303268D4
:101D8000753A253032687500506C65617365205274
:101D900065736574005052494E5445522048414C79
:101DA00054454400456E636C6F73757265004265FF
:101DB000640020746F6F206C6F6E6720657874729A
:101DC0007573696F6E2070726576656E7465640AEE
:101DD0000020636F6C6420657874727573696F6E30
:101DE0002070726576656E7465640A000A537461CA
:101DF00074733A2046696C616D656E742075736505
:101E0000643A20002C204C6F6E67657374206A6FF3
:101E1000623A2000546F74616C2074696D653A20D9
:101E20000053746174733A20002C204661696C651C
:101E3000643A20002C2046696E69736865643A2014
:101E4000005072696E74733A200053746174733A6F
:101E5000200020573A0020573A0045202553002003
:101E600042403A0020403A00202F00202D20496EA9
:101E700076616C6964206578747275646572206E31
:101E8000756D62657220210A004D494E54454D50D2
:101E900020747269676765726564004D41585445E6
:101EA0004D5020747269676765726564006265648D
:101EB000002C2073797374656D2073746F70706576
:101EC0006421204865617465725F49443A20004589
:101ED00031004B6420004B6920004B7020005049BA
:101EE00044204175746F74756E652066696E697300
:101EF000686564212050757420746865206C617376
:101F000074204B702C204B6920616E64204B642040
:101F1000636F6E7374616E74732066726F6D20628E
:101F2000656C6F7720696E746F20436F6E666967AA
:101F300075726174696F6E2E680A005049442041C1
:101F400075746F74756E65206661696C65642120B7
:101F500074696D656F75740A005049442041757449
:101F60006F74756E65206661696C656421205465C7
:101F70006D706572617475726520746F6F20686929
:101F800067680A00204B643A2000204B693A200021
:101F9000204B703A20000A20436C61737369632000
:101FA000504944200A00204B643A2000204B693AF3
:101FB0002000204B703A20000A204E6F206F76657B
:101FC0007273686F6F740A002054753A2000204BBA
:101FD000753A2000206D61783A2000206D696E3AD4
:101FE000200020643A200020626961733A2000508A
:101FF0004944204175746F74756E65207374617205
:10200000740A00504944204175746F74756E6520E0
:102010006661696C6564212054656D7065726174D8
:1020200075726520746F6F20686967680A002364A1
:102030006566696E652044454641554C545F0048CD
:10204000656174696E67206661696C6564005468D7
:1020500065726D616C2052756E6177617900100058
:10206000C90210012C014001220170011801B001C8
:102070000E01F00104015002FA00B002F00030033A
:10208000E600D003DC009004D2007005C800A00672
:10209000BE000008B400B009AA00D00BA000600E7A
:1020A000960060118C000015820020197800C01D78
:1020B0006E00A0226400B0275A00902C500000311E
:1020C0004600E0343C0010383200903A2800603C72
:1020D0001E00A03D1400803E0A00203F0000436F18
:1020E0006F6C696E672E2E2E0048656174696E678D
:1020F0002E2E2E004572723A204D494E54454D50B9
:10210000004572723A204D415854454D5000544894
:1021100045524D414C2052554E415741590048655A
:102120006174696E67204661696C6564004265642C
:10213000005761726E696E673A20486F6D696E670D
:102140002042756D702044697669736F72203C205F
:10215000310A0002020420746F6F206C6F6E6720DA
:10216000657874727573696F6E2070726576656ECE
:102170007465640A0020636F6C64206578747275FE
:1021800073696F6E2070726576656E7465640A009F
:102190000000C8420000C842000080400000A0408B
:1021A0000000A0400000004000005C4300006C43C1
:1021B0000000AA4300005C4300005C430000AA4307
:1021C00000000000000080C100000000486F6D6545
:1021D0002025732573257320466972737400496E38
:1021E00076616C69642065787472756465720A0042
:1021F00020440020490020204D3330312050005031
:1022000049442073657474696E67733A0020460010
:1022100020480020204D3134352053004D61746535
:102220007269616C2068656174757020706172619B
:102230006D65746572733A0020204732392053343B
:10224000205A00204A0020204732392053332049A9
:102250000020204D3432302053004D6573682042F9
:102260006564204C6576656C696E673A0020204D88
:10227000323036205800486F6D65206F6666736592
:10228000743A0020530020204D3230352042004166
:102290006476616E6365643A20423C6D696E5F737B
:1022A00065676D656E745F74696D655F75733E20FB
:1022B000533C6D696E5F66656564726174653E204E
:1022C000543C6D696E5F74726176656C5F666565BE
:1022D00064726174653E20583C6D61785F785F6A16
:1022E00065726B3E20593C6D61785F795F6A6572FB
:1022F0006B3E205A3C6D61785F7A5F6A65726B3E17
:1023000020453C6D61785F655F6A65726B3E0020B9
:10231000520020204D323034205000416363656C00
:1023200065726174696F6E2028756E6974732F739E
:1023300032293A20503C7072696E745F6163636544
:102340006C3E20523C726574726163745F616363BA
:10235000656C3E20543C74726176656C5F616363AA
:10236000656C3E0020204D3230312058004D6178A0
:10237000696D756D20416363656C65726174696F29
:102380006E2028756E6974732F7332293A002020ED
:102390004D3230332058004D6178696D756D20667F
:1023A00065656472617465732028756E6974732F36
:1023B00073293A0053746570732070657220756ECE
:1023C00069743A0020440020204D32303020530000
:1023D0002044697361626C65640A0046696C616DD2
:1023E000656E742073657474696E67733A0020209B
:1023F0004D3134392043203B20556E697473206978
:102400006E2043656C736975730A00202047323172
:10241000202020203B20556E69747320696E206D4A
:102420006D0020286D6D29003B20004861726463B7
:102430006F6465642044656661756C7420536574CF
:1024400074696E6773204C6F616465640A00290AC1
:10245000002062797465733B2063726320002073EF
:10246000746F7265642073657474696E677320722B
:102470006574726965766564202800202863616C44
:1024800063756C6174656429210A0020213D200078
:10249000454550524F4D20435243206D69736D6145
:1024A000746368202D202873746F7265642920007E
:1024B0002053697A653A2000496E6465783A2000B5
:1024C000204D61726C696E3D563831290A004545D0
:1024D00050524F4D2076657273696F6E206D69732F
:1024E0006D617463682028454550524F4D3D004E44
:1024F0006F20454550524F4D2E0A00290A00206298
:10250000797465733B20637263200053657474694A
:102510006E67732053746F7265642028004E6F20BD
:10252000454550524F4D2E0A00454550524F4D20C3
:102530006461746173697A65206572726F722E0AC4
:10254000000000C8430000C84300000041000048EC
:102550004200004842000048420000484300004852
:1025600042E8030000E803000064000000102700B8
:102570000053657474696E67732053746F72656479
:10258000007A5F6D696E00795F6D696E00785F6DCE
:10259000696E005265706F7274696E6720656E6453
:1025A00073746F70207374617475730A006F706553
:1025B0006E00545249474745524544003A20002591
:1025C0005320256320256320256320256300205A9E
:1025D0003A0020593A0020583A00656E6473746FCF
:1025E0007073206869743A2000486F6D696E6720C7
:1025F0004661696C656400456E6473746F70730046
:1026000020436F756E7420583A00043700001E296D
:102610000000511B00005810000010090000CC04FD
:102620000000780200004101000024F4D43050C3BF
:102630008E20C2A24017828B7011127A910D816C8C
:10264000D90AA861E108C7586607615143061E4BC5
:102650005D05C145A7041A411104093D980371396C
:1026600031034036DB0265339102D4305402802EB0
:102670001D02632CEE01752AC501B028A0011027A8
:1026800081018F2564012B244B01E0223401AC2110
:102690001F018D200D01801FFC00841EED00971D81
:1026A000DF00B81CD200E61BC600201BBC00641A69
:1026B000B200B219A8000A19A0006A189900D1172F
:1026C000910040178B00B516840031167E00B315BB
:1026D00079003A157300C7146F0058146A00EE139E
:1026E00066008813630025135E00C7125B006C123E
:1026F000570015125400C111510070114F002111E3
:102700004B00D61049008D104700461044000210BF
:102710004200C00F4000800F3E00420F3C00060FF9
:102720003B00CB0E3800930E37005C0E3500270EB1
:102730003400F30D3200C10D3100900D3000600DFA
:102740002E00320D2D00050D2C00D90C2B00AE0CE7
:102750002900850C29005C0C2700350C27000E0C85
:102760002600E80B2400C40B2400A00B23007D0BE3
:1027700023005A0B2100390B2100180B2000F80A06
:102780001F00D90A1E00BB0A1E009D0A1D00800AF8
:102790001D00630A1C00470A1B002C0A1B00110ABB
:1027A0001A00F7091A00DD091900C4091900AB095C
:1027B0001900920917007B091800630917004C09DA
:1027C000160036091600200916000A091500F5083A
:1027D0001500E0081400CC081400B8081400A40880
:1027E0001400900813007D0812006B0813005808AD
:1027F00012004608120034081100230811001208C4
:10280000110001081100F0071000E0071000D007C8
:102810001000C0071000B0070F00A10710009107BB
:102820000E0083070F0074070F0065070E0057079F
:102830000E0049070E003B070D002E070E00200773
:102840000D0013070D0006070D00F9060C00ED063C
:102850000D00E0060C00D4060C00C8060C00BC06F7
:102860000C00B0060C00A4060B0099060C008D06A7
:102870000B0082060B0077060B006C060B0061064E
:102880000A0057060B004C060A0042060A003806EA
:102890000A002E060A0024060A001A060A0010067C
:1028A000090007060A00FD050900F4050900EB050B
:1028B0000900E2050900D9050900D0050900C7058E
:1028C0000900BE050900B5050800AD050800A5050D
:1028D00009009C050800940508008C050800840583
:1028E00008007C050800740508006C0507006505F4
:1028F00008005D050700560508004E05070047055E
:1029000007004005080038050700310507002A05C3
:102910000700230507001C050600160507000F0524
:1029200007000805060002050700FB040600F50481
:102930000700EE040600E8040600E2040700DB04DA
:102940000600D5040600CF040600C9040600C3042F
:102950000600BD040600B7040600B1040500AC047F
:102960000600A6040600A00405009B0406009504CA
:102970000500900406008A04050085040500800413
:1029800006007A04050075040500700405006B0458
:10299000050066040500610405005C040500570499
:1029A0000500520405004D040500480405004304D9
:1029B00005003E0404003A04050035040500300417
:1029C00004002C04050027040400230405001E0451
:1029D00004001A04040016040500110404000D0488
:1029E0000400090405000404040000040400FC03BE
:1029F0000400F8030400F4030400F0030400EC03F3
:102A00000400E8030400E4030400E0030400DC0322
:102A10000400D8030400D4030400D0030400CC0352
:102A20000400C8030300C503030024F404D9201BD9
:102A3000C40C5C0E9804C4095F0265077101F405BB
:102A4000F900FB04B30048048700C1036900580380
:102A5000550003034500BE023A00840231005302D0
:102A60002A002902250004022000E4011C00C801FC
:102A70001900AF01170098011400840113007101BF
:102A800010006101100051010E0043010D003601DC
:102A90000B002B010B0020010B00150109000C019C
:102AA000090003010800FB000800F3000800EB0028
:102AB0000700E4000600DE000600D8000600D20091
:102AC0000600CC000500C7000500C2000500BD00DF
:102AD0000400B9000400B5000400B1000400AD001A
:102AE0000400A9000400A5000300A20003009F0049
:102AF00004009B000300980003009500020093006F
:102B00000300900003008D0002008B00030088008A
:102B100002008600020084000300810002007F00A2
:102B200002007D0002007B000200790002007700B5
:102B300001007600020074000200720001007100C2
:102B400002006F0002006D0001006C0002006A00CC
:102B500001006900020067000100660001006500D5
:102B600001006400020062000100610001006000D9
:102B700001005F0002005D0001005C0001005B00DD
:102B800001005A00010059000100580001005700DF
:102B900001005600010055000100540001005300DF
:102BA00000005300010052000100510001005000DC
:102BB00001004F0001004E0000004E0001004D00DA
:102BC00001004C0001004B0000004B0001004A00D6
:102BD00001004900010048000000480001004700D2
:102BE00001004600000046000100450000004500CD
:102BF00001004400010043000000430001004200C6
:102C000000004200010041000000410001004000BE
:102C100001003F0000003F0001003E0000003E00B8
:102C200001003D0000003D0001003C0000003C00B0
:102C300000003C0001003B0000003B0001003A00A6
:102C400000003A000100390000003900010038009E
:102C50000000380000003800010037000000370095
:102C6000010036000000360000003600010035008B
:102C70000000350000003500010034000000340081
:102C80000000340001003300000033000000330076
:102C9000010032000000320000003200010031006B
:102CA0000000310000003100010030000000300061
:102CB0000000300001002F0000002F0000002F0056
:102CC00000002F0001002E0000002E0000002E004A
:102CD00001002D0000002D0000002D0000002D003F
:102CE00001002C0000002C0000002C0000002C0033
:102CF00001002B0000002B0000002B0000002B0027
:102D000001002A0000002A0000002A0000002A001A
:102D1000010029000000290000002900000029000E
:102D20000000290001002800000028000000280001
:102D300000002800000028000100270000002700F4
:102D400000002700000027000000270001002600E7
:102D500000002600000026000000260000002600DB
:102D600001002500000025000000250000002500CE
:102D700000002500000025000100240000002400C0
:102D800000002400000024000000240001002300B3
:102D900000002300000023000000230000002300A7
:102DA0000000230000002300010022000000220098
:102DB000000022000000220000002200000022008B
:102DC000010021000000210000002100000021007E
:102DD000000021000000210000002100010020006F
:102DE0000000200000002000000020000000200063
:102DF00000002000000020000000200001001F0053
:102E000000001F0000001F0000001F0000001F0046
:102E100000001F0000001F0001001E0000001E0037
:102E200000001E0000001E0000004572726F72203C
:102E300077726974696E6720746F20454550524FF0
:102E40004D210A00D71F042307338D620D6E50A455
:102E500082BBC0F4AA6211241FBECFEFD1E2DEBF55
:102E6000CDBF00E00CBF13E0A0E0B2E0EEECF5E176
:102E700002E00BBF02C007900D92AA31B107D9F74B
:102E800022E1AAE1B3E001C01D92AF38B207E1F739
:102E900017E1CAE2D7E100E006C021970109802FBF
:102EA000FE010F94BC00C232D10780E00807A9F7E9
:102EB000FCD50D94D50A0C9400001F920F920FB60A
:102EC0000F9211242F933F938F939F93AF93BF93B0
:102ED00080911B0390911C03A0911D03B0911E03D0
:102EE00030911A0323E0230F2D3758F50196A11DC9
:102EF000B11D20931A0380931B0390931C03A0938E
:102F00001D03B0931E0380911F0390912003A09195
:102F10002103B09122030196A11DB11D80931F03CF
:102F200090932003A0932103B0932203BF91AF910C
:102F30009F918F913F912F910F900FBE0F901F90F7
:102F4000189526E8230F0296A11DB11DD2CF2FB7E9
:102F5000F89460911B0370911C0380911D03909164
:102F60001E032FBF08953FB7F89480911F039091DF
:102F70002003A0912103B091220326B5A89B05C090
:102F80002F3F19F00196A11DB11D3FBFBA2FA92FE8
:102F9000982F8827BC01CD01620F711D811D911DE5
:102FA00042E0660F771F881F991F4A95D1F7089551
:102FB0008F929F92AF92BF92CF92DF92EF92FF9249
:102FC0006B017C01D0DF4B015C01C114D104E10431
:102FD000F104D9F0B6D3C7DF681979098A099B09CA
:102FE000683E73408105910580F321E0C21AD10843
:102FF000E108F10888EE880E83E0981EA11CB11C40
:10300000C114D104E104F10431F7FF90EF90DF9097
:10301000CF90BF90AF909F908F9008958230910590
:1030200038F0880F991F880F991F05970197F1F7BE
:103030000895789484B5826084BD84B5816084BD30
:1030400085B5826085BD85B5816085BDEEE6F0E021
:10305000808181608083E1E8F0E01082808182607D
:103060008083808181608083E0E8F0E080818160FE
:103070008083E1EBF0E0808184608083E0EBF0E02E
:10308000808181608083E1E9F0E0808182608083DB
:10309000808181608083E0E9F0E0808181608083CD
:1030A000E1EAF0E0808182608083808181608083BA
:1030B000E0EAF0E0808181608083E1E2F1E08081FC
:1030C00082608083808181608083E0E2F1E08081A2
:1030D00081608083EAE7F0E0808184608083808182
:1030E000826080838081816080838081806880832A
:1030F0001092C10008951F93CF93DF93182FEB0117
:1031000061E035D1209731F460E0812FDF91CF91DC
:103110001F9169C1CF3FD10511F461E0F6CFE12FD6
:10312000F0E0EB59FD4FE491E150E23108F0B3C01B
:10313000F0E08827E156F74E8F4F0D94BC00B11890
:10314000B918BE18C818D2184B19DC18E418EC18B6
:10315000F61800190A19191923194B192D193719BD
:10316000411984B5806884BDC7BDDF91CF911F919F
:10317000089584B5806284BDC8BDF7CF809180007A
:10318000806880938000D0938900C0938800EDCF41
:1031900080918000806280938000D0938B00C093E8
:1031A0008A00E3CF80918000886080938000D09374
:1031B0008D00C0938C00D9CF8091B000806880933F
:1031C000B000C093B300D1CF8091B00080628093F3
:1031D000B000C093B400C9CF809190008068809304
:1031E0009000D0939900C0939800BFCF8091900039
:1031F000806280939000D0939B00C0939A00B5CFDB
:1032000080919000886080939000D0939D00C0933F
:103210009C00ABCF8091A00080688093A00080913B
:10322000A0008F7B8093A000D093A900C093A8003A
:103230009CCF8091A00080628093A000D093AB00CF
:10324000C093AA0092CF8091A00088608093A000D4
:10325000D093AD00C093AC0088CF809120018068EE
:1032600080932001D0932901C09328017ECF8091C3
:103270002001806280932001D0932B01C0932A010A
:1032800074CF80912001886080932001D0932D011C
:10329000C0932C016ACFC038D1050CF03ECF34CF9B
:1032A0008150823108F05AC0E82FF0E08827E45AB4
:1032B000F64E8F4F0D94BC007C1980196E1974194D
:1032C0007819AE19831989198D19931997199B19B2
:1032D000A119A519AE19A919AF19B31980918000C8
:1032E0008F77809380000895809180008F7DF9CF43
:1032F00080918000877FF5CF84B58F7784BD089556
:1033000084B58F7DFBCF8091B0008F778093B00024
:1033100008958091B0008F7DF9CF809190008F77D4
:10332000809390000895809190008F7DF9CF8091D7
:103330009000877FF5CF8091A0008F778093A000C9
:1033400008958091A0008F7DF9CF8091A000877FA4
:10335000F5CF809120018F7780932001089580918F
:1033600020018F7DF9CF80912001877FF5CFCF930A
:10337000DF9390E0FC01E555FD4F24918F509D4F68
:10338000FC0184918823C9F090E0880F991FFC010B
:10339000E559FC4FA591B491FC01EF5AFC4FC59142
:1033A000D49161110DC09FB7F8948C912095822320
:1033B0008C938881282328839FBFDF91CF91089524
:1033C000623051F49FB7F8943C91822F809583230B
:1033D0008C93E8812E2BEFCF8FB7F894EC912E2BA6
:1033E0002C938FBFEACF1F93CF93DF93282F30E02A
:1033F000F901EB59FD4F8491F901E555FD4FD49149
:10340000F901EF50FD4FC491CC23A1F0162F81118B
:1034100047DFEC2FF0E0EE0FFF1FEF5AFC4FA591B6
:10342000B4918FB7F894EC91111108C0D095DE23B8
:10343000DC938FBFDF91CF911F910895DE2BF8CFE2
:10344000CF93DF93282F30E0F901EB59FD4F8491A2
:10345000F901E555FD4FD491F901EF50FD4FC491AD
:10346000CC2399F081111CDFEC2FF0E0EE0FFF1F51
:10347000E95CFC4FA591B491EC91ED2381E090E0E3
:1034800009F480E0DF91CF91089580E090E0FACFD9
:1034900008951F920F920FB60F9211240BB60F9240
:1034A0002F933F934F935F936F937F938F939F934C
:1034B000AF93BF93EF93FF93E0910402F091050265
:1034C0001995FF91EF91BF91AF919F918F917F914E
:1034D0006F915F914F913F912F910F900BBE0F9085
:1034E0000FBE0F901F9018951F920F920FB60F925C
:1034F00011240BB60F922F933F934F935F936F93CB
:103500007F938F939F93AF93BF93EF93FF93E0913C
:103510000602F09107021995FF91EF91BF91AF91CB
:103520009F918F917F916F915F914F913F912F91DB
:103530000F900BBE0F900FBE0F901F9018951F920B
:103540000F920FB60F9211240BB60F922F933F9349
:103550004F935F936F937F938F939F93AF93BF939B
:10356000EF93FF93E0910802F09109021995FF9102
:10357000EF91BF91AF919F918F917F916F915F91EB
:103580004F913F912F910F900BBE0F900FBE0F9058
:103590001F9018951F920F920FB60F9211240BB621
:1035A0000F922F933F934F935F936F937F938F93DC
:1035B0009F93AF93BF93EF93FF93E0910A02F09133
:1035C0000B021995FF91EF91BF91AF919F918F9150
:1035D0007F916F915F914F913F912F910F900BBE13
:1035E0000F900FBE0F901F9018951F920F920FB65D
:1035F0000F9211240BB60F922F933F934F935F932B
:103600006F937F938F939F93AF93BF93EF93FF93AA
:10361000E0910002F09101021995FF91EF91BF91A5
:10362000AF919F918F917F916F915F914F913F915A
:103630002F910F900BBE0F900FBE0F901F901895FB
:103640001F920F920FB60F9211240BB60F922F9369
:103650003F934F935F936F937F938F939F93AF931A
:10366000BF93EF93FF93E0910202F091030219954B
:10367000FF91EF91BF91AF919F918F917F916F914A
:103680005F914F913F912F910F900BBE0F900FBE06
:103690000F901F9018951F920F920FB60F92112442
:1036A0000BB60F922F933F934F935F936F937F933C
:1036B0008F939F93AF93BF93EF93FF93E0910C028F
:1036C000F0910D021995FF91EF91BF91AF919F91EC
:1036D0008F917F916F915F914F913F912F910F90BB
:1036E0000BBE0F900FBE0F901F9018951F920F9258
:1036F0000FB60F9211240BB60F922F933F934F9357
:103700005F936F937F938F939F93AF93BF93EF9349
:10371000FF93E0910E02F0910F021995FF91EF9146
:10372000BF91AF919F918F917F916F915F914F91D9
:103730003F912F910F900BBE0F900FBE0F901F90D7
:103740001895089590E080E008950895AF92BF9293
:10375000CF92DF92EF92FF920F931F93CF93DF935D
:103760006C017B018B01040F151FEB015E01AE188C
:10377000BF08C017D10759F06991D601ED91FC91AE
:103780000190F081E02DC6011995892B79F7C501CB
:10379000DF91CF911F910F91FF90EF90DF90CF902D
:1037A000BF90AF900895CF93DF93EC0160E08E81DE
:1037B0001ADE81E090E032DC61E08E8114DE81E08F
:1037C00090E02CDC60E08E810EDE84E690E0DF91FC
:1037D000CF9124CCCF92DF92EF92FF920F931F9361
:1037E000CF93DF936C017C0187E0E80EF11CD0E001
:1037F000C0E0062F10E0B8010C2E02C07595679549
:103800000A94E2F76170F70181917F01ECDD219666
:10381000C430D10581F7C601DF91CF911F910F917F
:10382000FF90EF90DF90CF90BECFCF92DF92EF92DC
:10383000FF920F931F93CF93DF936C017C0187E07E
:10384000E80EF11CD0E0C0E0062F10E0B8010C2E0D
:1038500002C0759567950A94E2F76170F70181914E
:103860007F01C1DD2196C830D10581F7C601DF9106
:10387000CF911F910F91FF90EF90DF90CF9093CF5A
:103880001F93CF93DF93EC01162F642F8C81ABDD58
:103890008D818F3F11F060E0A6DD8F85612F84FF61
:1038A00005C0CE01DF91CF911F91BFCF70E084E0C2
:1038B000759567958A95E1F7CE018CDF612FCE0172
:1038C000DF91CF911F9186CF40E0DACF61E0FCDF3E
:1038D00080ED97E0A3CB443008F043E0FC0123895E
:1038E000421710F04FEF420FFC01E40FF11D248945
:1038F000620F6068E9CFFC016089262F2460208B6D
:103900006C60E2CF0F931F93CF93DF93EC014230B3
:1039100018F08F8588608F874B8B1C8A80E48D8B95
:103920006E8B605C6F8B222329F0413019F48F85F8
:1039300084608F8761E08C811ADD8D818F3F11F06B
:1039400061E015DD61E08E8112DD8E0198012C1B96
:103950003D0B8F8584FD0CC084E090E00F5F1F4F0E
:103960002817390744F461E0F801868100DDEECFC5
:1039700088E090E0F3CF80E593EC50DB60E08C8151
:1039800032DD60E08E812FDD8D818F3F11F060E0B0
:103990002ADD6F8564FD28C063E0CE011BDF84E96A
:1039A00091E13CDB63E0CE0115DF84E991E136DB98
:1039B00063E0CE010FDF86E990E030DB62E0CE010C
:1039C00009DF6F856062CE017FDF84E0888BCE01E6
:1039D00092DFCE017BDF82E0898B66E0CE01DF9152
:1039E000CF911F910F9170CF6062CE016DDF84E99E
:1039F00091E114DB6F856062CE0166DF86E990E0BD
:103A00000DDB6F856062CE015FDFDBCFCF92EF927F
:103A10000F93FC011382128283EB92E091838083E7
:103A200064838FEF8583468327830087E186C28680
:103A30001386148615861686178620E041E060E11D
:103A4000CF010F91EF90CF905DCFEF92FF920F9348
:103A50001F93CF93DF938C017A01677088E0689F92
:103A6000B00111246064C8012FDFE701A8E0EA0E6D
:103A7000F11C6991D801ED91FC910190F081E02D4C
:103A8000C8011995CE15DF05A1F7DF91CF911F91E0
:103A90000F91FF90EF90089541E0F2DE81E090E019
:103AA000089590E080E008950895C3DAFDDFA9D479
:103AB000C0E0D0E07BD52097E9F30E940000FACF68
:103AC000CF9320E030E0A90160913303709134037B
:103AD00080913503909136030E9434FD811132C0EC
:103AE00020E030E0A90160913703709138038091A4
:103AF000390390913A030E9434FD811123C020E0E4
:103B000030E0A90160913B0370913C0380913D033B
:103B100090913E030E9434FDC1E0811110C020E06D
:103B200030E0A90160913F0370914003809141030F
:103B3000909142030E9434FD811101C0C0E08C2F9E
:103B4000CF910895C1E0FBCF9091590B9817B1F038
:103B50000E9450AD8091590B882341F08AE692E093
:103B60000E94B3AC1092590B0C9401D081E0809369
:103B7000590B8AE692E00E94E2ACF6CF08954F928C
:103B80005F926F927F928F929F92AF92BF92CF92ED
:103B9000DF92EF92FF92CF936B017C01C42FAC01B7
:103BA0009B016091550B7091560B8091570B909132
:103BB000580B0E9434FD882309F4A5C0B090590B1E
:103BC00080E0C2DF20E030E0A901C701B6010E9419
:103BD00037FF18161CF0C12CD12C7601C092550B62
:103BE000D092560BE092570BF092580B2DEB37E327
:103BF00046E855EBC701B6010E9437FF87FD0BC0B1
:103C00002DEB37E346E855E3C701B6010E9434FDCA
:103C100018160CF074C0A701960160E070E080E80F
:103C20009FE30E943BFD6093510B7093520B809376
:103C3000530B9093540B80EF9FEFA9E7B4EC809364
:103C40004D0B90934E0BA0934F0BB093500BBB209A
:103C500009F459C040906A0250906B0260906C0267
:103C600070906D0280906E0290906F02A090700232
:103C7000B0907102C0907202D0907302E090740212
:103C8000F090750281E060DFCC23E9F1A30192019D
:103C900060916A0270916B0280916C0290916D024A
:103CA0000E9434FD81111CC0A501940160916E0237
:103CB00070916F0280917002909171020E9434FDA8
:103CC00081110EC0209172023091730240917402F2
:103CD00050917502C701B6010E9434FD882399F006
:103CE000CF91FF90EF90DF90CF90BF90AF909F90DB
:103CF0008F907F906F905F904F900C94F5CF60E025
:103D000070E0CB0190CFCF91FF90EF90DF90CF90FC
:103D1000BF90AF909F908F907F906F905F904F90EB
:103D2000089580E011DFFCC03F924F925F926F9246
:103D30007F928F929F92AF92BF92CF92DF92EF923B
:103D4000FF920F931F93CF93DF93E82EC62E042F7D
:103D50005901882E912CD0E0C0E0C815D90579F022
:103D6000CA3058F082E0800F0E94624E6AE070E034
:103D7000CE010E94A4F32196F0CF83E0F4CF8AE035
:103D80000E94F2F2D12CD0E0C0E010E04801E2E065
:103D90008E0E911C3C2ECC16DD0609F441C0F9E0D4
:103DA000FC1718F080E20E94F2F26AE070E0CE01A7
:103DB0000E94A4F3F12CFE1471F180E20E94F2F251
:103DC000632D8F2DF50119952B013C01AC019B0151
:103DD0000F942000811113C020E030E0A901C3013D
:103DE000B2010E9437FF87FD03C08BE20E94F2F20E
:103DF000A801C301B2010E9432F4F394DCCF712C0C
:103E00007814190409F0CCF780E271108DE30E9458
:103E1000F2F27394F5CF8AE00E94F2F22196BACFC3
:103E20008AE0DF91CF911F910F91FF90EF90DF908B
:103E3000CF90BF90AF909F908F907F906F905F904A
:103E40004F903F900C94F2F2EF92FF920F931F93DA
:103E5000CF93DF93CDB7DEB72C970FB6F894DEBFC4
:103E60000FBECDBF7C010AE612E0F8018085918586
:103E7000A285B38589879A87AB87BC8719821A8206
:103E80001B821C8280E090E0A0EAB0E48D839E83D8
:103E9000AF83B887AE014F5F5F4FBE016B5F7F4F4F
:103EA000C7010E9479D119821A821B821C82BE012D
:103EB0006F5F7F4FCE0109960E9496D1F7018481F2
:103EC0009581A681B7814081518162817381F8011A
:103ED000408351836283738384839583A683B783EE
:103EE0001092920A2C960FB6F894DEBF0FBECDBF8B
:103EF000DF91CF911F910F91FF90EF900895E82FE0
:103F0000F0E0EE0FFF1FE60FF11DEE0FFF1FEE0FAB
:103F1000FF1FED5CFC4F6081718182819381089568
:103F200010924303109244031092450310924603EB
:103F3000E3E3F3E080E1DF011D928A95E9F708955C
:103F4000EBE2F3E040E050E060E271E44083518353
:103F50006283738380E090E0A2E5B3E48483958379
:103F6000A683B783E3E2F3E04083518362837383E4
:103F700084839583A683B783D3CF88E993E00E9497
:103F8000E24D609143037091440380914503909109
:103F9000460345E050E00E9432F485E893E00E9439
:103FA000E24D2FE73FE145E062E082E0BDCE87E4ED
:103FB00093E0C6CF9898A09A0895FF920F931F930D
:103FC000CF93DF931F92CDB7DEB7F82E04E215E052
:103FD00041E050E0B801CE0101960F949004898130
:103FE0008F1108C081E00F90DF91CF911F910F9149
:103FF000FF9008950F5F1F4F85E00F33180741F7BB
:1040000080E0F1CF0E94F34D85E195E00C94E24D04
:104010000E9425BB0E9450AD8EEF0E9435D00C94BB
:1040200001D0129808955F988A9880910801817054
:10403000809306014798F5CF129A08955F9A809170
:104040005E118E7F80935E118A9A80915E118D7FC2
:1040500080935E11809108018095817080930601A4
:10406000479A80915E118B7F80935E11E5CF80919E
:104070008012813031F08091290882FB882780F9F5
:10408000089581E0089580918012823089F09091A6
:10409000290893FB882780F993FF0DC08091800643
:1040A000882341F092FB882780F991E089270895C1
:1040B00081E0089580E008950C9465BDCF93C82FEA
:1040C00089EE93E030E6019729F0232F2A9500002E
:1040D000E9F7F9CFF89489EE93E038EE019729F0EB
:1040E000232F2A950000E9F7F9CF0E942EC2CC2396
:1040F00029F0A4DF909904C0A895FCCF9DDFFACFEA
:10410000909B02C0A895FCCFF0E0E0E0CF9119941D
:10411000FF920F931F93CF93DF93EC018B01F42E4B
:104120000E942EC20E94F34D89E894E00E94E24D65
:104130000115110511F401E815E0209711F4C2E80A
:10414000D5E0B801CE010E94E26C8F2DDF91CF91B6
:104150001F910F91FF90B2CF8F929F92AF92BF921B
:10416000CF92DF92EF92FF920F931F93182F8091BF
:104170008005843010F40E94BB320E94A7176B01A7
:104180007C01112341F0C092BA05D092BB05E092A8
:10419000BC05F092BD058091B6059091B705A09140
:1041A000B805B091B9050097A105B10549F1409155
:1041B000BA055091BB056091BC057091BD05840F97
:1041C000951FA61FB71FA7019601281B390B4A0B85
:1041D0005B0BDA01C901B7FD13C00E94F34D60917A
:1041E000AC057091AD058CEC94E00E94F64D8AE030
:1041F0000E94F2F240E070E060E090E080E088DF52
:104200008091140290911502A0911602B0911702AC
:10421000892B8A2B8B2B79F09091E00B8091DD0B11
:10422000981709F452C0C092BA05D092BB05E0922B
:10423000BC05F092BD0580914C0390914D0390997F
:1042400086C0019690934D0380934C0380914C035C
:1042500090914D038E3E924064F00E94F34D89EAA6
:1042600094E00E94E24D40E070E060E090E080E089
:104270004FDF8091480390914903A0914A03B09188
:104280004B03A7019601281B390B4A0B5B0BDA0184
:10429000C901B7FD0FC00E9436AC34E6C30ED11C75
:1042A000E11CF11CC0924803D0924903E0924A03FA
:1042B000F0924B031F910F91FF90EF90DF90CF9002
:1042C000BF90AF909F908F900895112319F0109296
:1042D0004E03B1CF0E94A7170091BA051091BB05FC
:1042E0002091BC053091BD0580901402909015027C
:1042F000A0901602B0901702080D191D2A1D3B1D33
:10430000601B710B820B930B97FDE1CF80914E03E5
:10431000811191CF81E080934E035F9A80915E116D
:104320008E7F80935E118A9A80915E118D7F80933B
:104330005E11809108018095817080930601479AF3
:1043400080915E118B7F80935E1176DE74CF18169C
:1043500019060CF07BCF019790934D0380934C038B
:1043600075CF80E0F9DE0E9478C3809150038823E6
:1043700081F00E9419620E948C4D0E94F1BC0E9443
:104380003FF40E94EC6A8091B405811102C00C9444
:1043900029CC0895CF92DF92EF92FF92CF936B01D9
:1043A0007C01C091B30583E08093B30581E08093E5
:1043B0004F03C114D104E104F10431F00E94A717A6
:1043C000C60ED71EE81EF91E80914F03882379F090
:1043D000C114D104E104F10411F4C3DFF5CF0E944C
:1043E000A7176C197D098E099F0997FDF6CF1092CA
:1043F0004F03C093B305CF91FF90EF90DF90CF9024
:104400000895CF9360E970ED83E090E00E9498F208
:104410000E94A7170E94F04D82E894E00E94E24DAE
:104420000E9461F2C7DD0E9465F1C4B7C0FF04C0FD
:1044300089E794E00E94E24DC1FF04C088E694E061
:104440000E94E24DC2FF04C086E594E00E94E24D66
:10445000C3FF04C085E494E00E94E24DC5FF04C0A0
:1044600084E394E00E94E24D14BE8BE895E00E9444
:10447000E24D80E20E94F2F286E294E00E94E24D78
:104480008AE00E94F2F20E94F04D8AEE93E00E94D0
:10449000E24D0E94F04D83ED93E00E94E24D0E94B8
:1044A000F04D0E9462F2BC0184EC93E00E94084E41
:1044B00060EB74E08DEA93E00E94084E8AE00E946F
:1044C000F2F20E94D56A0E945A9F80E00E94406DDD
:1044D00080915203811107C00E947FE7882319F061
:1044E00081E08093520320916A0230916B024091E7
:1044F0006C0250916D0260912A1170912B11809184
:104500002C1190912D110E945BFC60936A027093B4
:104510006B0280936C0290936D0220912E1130916A
:104520002F11409130115091311160916E027091B4
:104530006F0280917002909171020E945BFC609307
:104540006E0270936F0280937002909371022091BB
:1045500032113091331140913411509135116091E5
:1045600072027091730280917402909175020E94A0
:104570005BFC609372027093730280937402909359
:1045800075020E9401D087E191E10E94EDC00E9476
:1045900010F50E9419BC0E94BEE70E9456EB0E94D3
:1045A00066F181E080935003CF910895CFE0D5E08C
:1045B00011E0D7DE0E9493618091290886FF14C024
:1045C0000E94E45C0E94BA2E23DD0E9482BD0E94FC
:1045D0002EC270E060E080E00E94FABD10921002EE
:1045E000D093F703C093F60380915003803139F4E0
:1045F00089E095E00E94BF2F8111109350030E9423
:10460000BD320E94D2E7D5CF81E593E00C94495AA0
:10461000CF930E944749C82F87FD0BC082E995E0E0
:104620000E94E24D8C2F0E94F5C68AE0CF910C9437
:10463000F2F2CF9108958091A8059091A905009775
:1046400031F04AE050E070E060E00D94550260E027
:1046500070E0CB010895CF92DF92EF92FF92CF935B
:104660008091A1059091A205A091A305B091A40508
:1046700022E1B695A795979587952A95D1F780FF62
:1046800008C0E0919905E1110AC01092A9051092A5
:10469000A805CF91FF90EF90DF90CF900895809183
:1046A000AC059091AD05E80FF92FF11D808190EDDB
:1046B000980F9A3030F08E3299F5818180538A308C
:1046C00020F7F093A905E093A805EF2B11F3B3DFD2
:1046D000C0E097FD0CC0AFDF6F3F7105810591050C
:1046E00009F024F4A8DFC62F6D3308F0CCE3C093A3
:1046F000B3100E94A7176B017C012C2F30E0A8EEAD
:10470000B3E00F94C400C60ED71EE81EF91EC09277
:10471000AF10D092B010E092B110F092B210B9CFB9
:104720008D3219F08B3209F0B0CF818190ED980F66
:104730009A3038F28E3209F0A8CF828180538A30C5
:1047400008F4BFCFA2CF2FEB280F2A3108F044C0C6
:10475000E22FF0E08091A1059091A205A091A30520
:10476000B091A40504C0B695A795979587952A950D
:10477000D2F780FD02C081700895E957FA4FE081B9
:10478000EE2339F18091AC059091AD05E80FF92F3A
:10479000F11D808190ED980F9A3030F08E3251F4F7
:1047A000818180538A30A8F4F093A905E093A8058D
:1047B00081E008958D3211F08B3259F4818190EDB2
:1047C000980F9A3088F38E3221F4828180538A3098
:1047D00058F3F0E0E0E0E8CF80E00895B4DF88230C
:1047E00041F081E02091A8053091A905232B09F41F
:1047F00080E008950F931F93CF938091A805909127
:10480000A905009709F1FC018F01C1912C2F2F7D83
:10481000A1F0C53411F0C536B9F7F801108270E087
:1048200060E08091A8059091A9050F940001F8011E
:10483000C083CF911F910F91089570E060E0CF91F8
:104840001F910F910D94000160E070E0CB01F1CF5A
:10485000F2DE97FD0AC0EFDE6F3F7105810591051D
:1048600009F02CF4E8DE862F089580E008958FEF9C
:1048700008958091BE0583FD37C00E94474987FD9A
:1048800033C089E4ABDF882339F1E2DF90E018160A
:10489000190614F481E090E026E0289FF001299F9A
:1048A000F00D1124EF5AF54F60817181809145021E
:1048B000909146020F97681779070CF4CB019093FB
:1048C00009118093081180E00E94C2C161E080E07C
:1048D0000E9480C50C9443BB83E580DF8823D1F31D
:1048E00089DF0E94A3FDE2CF08951F93CF93DF934A
:1048F0008091BE0583FD68C00E944749182F87FD3F
:1049000063C089E46BDF882309F450C0A1DF90E025
:104910001816190614F481E090E026E0289FF001B3
:10492000299FF00D1124EF5AF54F60817181C0E08D
:1049300080914502909146020F97681779070CF411
:10494000CB01909309118093081180E00E94C2C1AD
:1049500061E081E00E9480C56091081170910911A9
:10496000072E000C880B990B0E94D6FD2091041194
:104970003091051140910611509107110E9437FFA7
:1049800018161CF0DC2FC11104C0812F0E9466CCC8
:10499000D1E00E9443BBDD23B9F06C2F812FDF9162
:1049A000CF911F910C9490CCC82FF3CF83E516DFE5
:1049B000C82F811105C082E511DFD82F8823A1F30C
:1049C00019DF0E94A3FDB4CFDF91CF911F9108950D
:1049D0009F92AF92BF92CF92DF92EF92FF920F938E
:1049E0001F93CF93DF9300D01F92CDB7DEB785E43E
:1049F000F5DE8823B9F01FDE6623A1F085E995E096
:104A00000E94E24D0F900F900F900F90DF91CF9189
:104A10001F910F91FF90EF90DF90CF90BF90AF90DC
:104A20009F90089583E4DADE05E0882311F003DE29
:104A3000062F85E5D3DE182F8823B1F08091A805D5
:104A40009091A905892B99F0F6DD97FD0BC0F3DD58
:104A50006F3F71058105910509F04CF4ECDD11E023
:104A6000611105C010E003C085E56DDE182F83E5F8
:104A7000B5DE882309F448C08091A8059091A90566
:104A8000C12CD12C76010097D1F0FC015F019190EF
:104A9000292D2F7D91F125E4921619F025E6921229
:104AA000F5CFF501108270E060E08091A80590914B
:104AB000A9050F9400016B017C01F501908260E073
:104AC0008FEB95E00E94A66CC701B6010E94A3FD82
:104AD000072E000C880B990B0E94D6FD69837A8300
:104AE0008B839C83212F402F60E0CE0101960E9492
:104AF0005CC780E00E94406D85CF70E060E00F945D
:104B000000016B017C01DBCFC12CD12C88E4E82EA5
:104B100083E4F82ED4CF8091BE0583FD2CC089E4B8
:104B20005DDE882321F194DE90E01816190614F456
:104B300081E090E026E0289FF001299FF00D1124EC
:104B4000EF5AF54F628173816C38710514F06CE88F
:104B500070E07093F7106093F6100E94F8C161E066
:104B600080E00C9480C546DE0E94A3FDEDCF83E576
:104B700035DE8111F8CF0895CF938091BE0583FD76
:104B800055C089E42BDE882309F443C061DE90E040
:104B90001816190614F481E090E026E0289FF00131
:104BA000299FF00D1124EF5AF54F62817381C0E007
:104BB0006C38710514F06CE870E07093F710609336
:104BC000F6100E94F8C160E081E00E9480C560910B
:104BD000F6107091F710072E000C880B990B0E94AD
:104BE000D6FD2091F2103091F3104091F4105091C5
:104BF000F5100E9437FF18164CF08CEC95E060E041
:104C00000E94056D8C2FCF910C9415CE8BED95E005
:104C1000F6CF83E5E3DDC82F811104C082E5DEDD38
:104C2000882321F0E7DD0E94A3FDC2CFCF91089534
:104C3000CF93DF9380E5D2DD811125C081E483DD50
:104C4000CFEFD0E0882321F06091FF10C62FD0E095
:104C500089E4C4DD8823E9F0FBDD90E0181619062D
:104C600014F481E090E026E0289FF001299FF00DE8
:104C70001124EF5AF54FC481D581BE0180E0DF9148
:104C8000CF910C94FABDE4DD8823C1F2DF91CF917E
:104C9000089583E5A3DD882381F3CDDCEB01EDCF1F
:104CA00080E59CDD882329F0D3DD70E060E00C9482
:104CB000FABD80E0FACF8091A1059091A205A09164
:104CC000A305B091A4052DE0B695A7959795879576
:104CD0002A95D1F780FF30C0E0919405E11105C01D
:104CE0001092A9051092A80508958091AC059091A5
:104CF000AD05E80FF92FF11D808190ED980F9A30E6
:104D000030F08E32D1F4818180538A3048F7F093AD
:104D1000A905E093A805309779F04AE050E070E0EB
:104D200060E0CF010F945502609381057093820576
:104D3000809383059093840508958D3211F08B3212
:104D400079F6818190ED980F9A3008F38E3241F612
:104D50008281DACF0F931F93CF938C01C62F87E107
:104D600098E00E94E24DC8010E94E24D8AE30E9451
:104D7000F2F26AE070E08C2F90E0CF911F910F91DA
:104D80000C94AAF38CE397E00E94E24D60E08CE281
:104D900097E0E0DF60E087E197E0DCDF61E080E161
:104DA00097E0D8DF61E085E097E0D4DF61E085EF50
:104DB00096E0D0DF60E08CEE96E0CCDF61E082EE42
:104DC00096E0C8DF60E088ED96E0C4DF60E081ED4A
:104DD00096E0C0DF60E089EC96E0BCDF61E08BEB41
:104DE00096E0B8DF60E08DEA96E0B4DF60E08EE93F
:104DF00096E0B0DF60E080E996E0ACDF60E08AE753
:104E000096E0A8DF60E089E696E0A4DF60E08AE54E
:104E100096E0A0DF61E083E596E09CDF60E08EE352
:104E200096E098DF60E080E396E094DF61E08DE15A
:104E300096E090DF60E080E196E08CDF61E08BE05F
:104E400096E088DF60E08EEF95E084DF60E08AEE38
:104E500095E080CF1F93CF93DF93C091AA05D091A7
:104E6000AB0594E010E040E09150E1F08881282FFC
:104E70002B7F213489F429812133A1F4813409F174
:104E8000853409F19E012E5F3F4FE9012F5F3F4FAF
:104E900088818032D1F3E8CF803521F48981805335
:104EA0008A3080F341110E94F04D112321F08CE1F2
:104EB00098E00E94E24DCE01DF91CF911F910C94BA
:104EC00099F311E0DFCF41E0DDCF0C9447E80C947B
:104ED000FACF8091A1059091A205A091A305B09170
:104EE000A40522E1B695A795979587952A95D1F7C0
:104EF00080FF08C0E0919905E11112C01092A90548
:104F00001092A8050E94F04D4091130250E070E00D
:104F100060E080E298E00E94514E8AE00C94F2F248
:104F20008091AC059091AD05E80FF92FF11D8081BE
:104F300090ED980F9A3030F08E3281F48181805359
:104F40008A30E0F6F093A905E093A805EF2BD1F2A3
:104F500072DB97FF10C01092130208958D3211F08A
:104F60008B3261F6818190ED980F9A3058F38E3232
:104F700029F68281E4CF5FDB6F3F710581059105E2
:104F800029F024F08CE380931302089554DB60939E
:104F900013026D33B8F708952F923F924F925F92AC
:104FA0006F927F928F929F92AF92BF92CF92DF9239
:104FB000EF92FF920F931F93CF93DF93D62FC72FBC
:104FC000FC0180809180A280B380C501B40120E8FB
:104FD00031E541E050E00F947E00C9016DE671E0DB
:104FE0000F9457006B017C01C501B40120E13EE044
:104FF00040E050E00F947E00CA01B90128E130E0A2
:1050000040E050E00F947E00362E272E062F172FFB
:105010008CE3482E512C612C712CC501B401A301E5
:1050200092010F947E00B62EA72ECA01B901A301EA
:1050300092010F947E00CB01C114D10479F1AF929B
:10504000BF927F936F932F923F92FF92EF92DF92E6
:10505000CF928CE598E09F938F93CF93DF930F943B
:105060006C058DB79EB70E960FB6F8949EBF0FBE17
:105070008DBF8D2F9C2FDF91CF911F910F91FF90AE
:10508000EF90DF90CF90BF90AF909F908F907F90E8
:105090006F905F904F903F902F900895E114F1042E
:1050A000C9F0AF92BF927F936F932F923F92FF927E
:1050B000EF928CE498E09F938F93CF93DF930F94BC
:1050C0006C05EDB7FEB73C960FB6F894FEBF0FBE69
:1050D000EDBFCFCF012BB9F0AF92BF927F936F930B
:1050E0002F923F9280E498E09F938F93CF93DF932A
:1050F0000F946C058DB79EB70A960FB6F8949EBFB5
:105100000FBE8DBFB6CF892BA9F0AF92BF927F9310
:105110006F9388E398E09F938F93CF93DF930F94DF
:105120006C05EDB7FEB738960FB6F894FEBF0FBE0C
:10513000EDBF9FCFAF92BF9284E398E09F938F9390
:10514000CF93DF930F946C050F900F900F900F90FB
:105150000F900F908ECFCF93DF93CDB7DEB76997C7
:105160000FB6F894DEBF0FBECDBF0E942BF56E8B3D
:105170007F8B888F998FBE016F5F7F4FCE014696E0
:105180000BDF60E0CE0101960E94A66C0E94F04DFC
:10519000BE016F5F7F4F87E298E00E94F64D8AE084
:1051A0000E94F2F269960FB6F894DEBF0FBECDBF33
:1051B000DF91CF9108950C945C200C94FBF40C9437
:1051C00082BD8091A1059091A205A091A305B09107
:1051D000A40522E1B695A795979587952A95D1F7CD
:1051E00080FF08C0E0919905E11106C01092A90561
:1051F0001092A8050C945CBC8091AC059091AD0513
:10520000E80FF92FF11D808190ED980F9A3030F062
:105210008E32C9F4818180538A3040F7F093A9051A
:10522000E093A805309731F34AE050E070E060E089
:10523000CF010F9455026E347105E1F60E94E7BB71
:1052400080E00C94406D8D3211F08B3279F68181C3
:1052500090ED980F9A3010F38E3241F68281DBCFB9
:105260008091A8059091A905009741F04AE050E08F
:1052700070E060E00F945502CB01089560E070E0AB
:10528000CB01FACFCF92DF92EF92FF920F931F9351
:10529000CF93DF9388E557DAD82E89E454DAC82E05
:1052A0008823A1F1DDDFD82F89E54DDA182F8AE4B4
:1052B0004ADA082F882309F451C0D2DFC82F8AE5C3
:1052C00042DAE82EF12C811103C081E53CDAF82E98
:1052D000C11001C000E0802F90E0D11001C010E0AB
:1052E000810F911D019721F4E11060C0F1105EC0A3
:1052F0000E94F34D89E898E0DF91CF911F910F91C3
:10530000FF90EF90DF90CF900C94E24DD11002C04F
:10531000DFEFCACF6FDA20911E1130911F1140913B
:105320002011509121110E945AFC20E030E040E20F
:1053300051E40E945AFC20E030E048EC52E40E9424
:105340005BFC2AE037ED43EA5BE30E9472FF0E94B8
:10535000A3FDD62F623008F4A7CFDACF111102C017
:10536000CFEFADCF47DA2091221130912311409138
:105370002411509125110E945AFC20E030E040E2B7
:1053800051E40E945AFC20E030E048EC52E40E94D4
:105390005BFC2AE037ED43EA5BE30E9472FF0E9468
:1053A000A3FDC62F623008F48ACFDACFD7FD02C042
:1053B000C7FF05C00E94F34D80E798E09DCF1ADA41
:1053C0009B01AC01AC2FCC0FBB0BCD2FCC0FDD0B59
:1053D00060E070E0CB01FF2069F0FE01EA0FFB1FE7
:1053E000EE0FFF1FEE0FFF1FED5CFC4F6081718120
:1053F00082819381CA0FDB1FCC0FDD1FCC0FDD1F15
:10540000CD5CDC4F0E945BFC688379838A839B833D
:10541000DF91CF911F910F91FF90EF90DF90CF9090
:1054200008950E94F2F289E699E00C94E24D0F9300
:105430001F93CF93DF93CDB7DEB72C970FB6F894B9
:10544000DEBF0FBECDBF83E5C9D9811113C010E007
:105450008FE399E00E94E24D0E94601D8823B1F124
:105460008091590B0E94744E0E94BD1F123009F4A6
:10547000A6C058C1E0D897FDEACFDDD86F3F7105CF
:105480008105910531F02CF082E599E00E94E24D12
:1054900032C0D1D86630C0F7162F633009F405C189
:1054A00068F46130C1F0623099F6809111029091F8
:1054B000120297FF2BC08DEF98E0E8CF643009F41B
:1054C00036C1653029F60E94911E2CC181E399E016
:1054D0000E94E24DCBCF0E94901F109212021092B8
:1054E00011028091920A8111E0CF86E299E09093B7
:1054F000F7038093F6032C960FB6F894DEBF0FBE29
:10550000CDBFDF91CF911F910F910895009709F0C2
:105510006DC0809163028093530319821A821B82AB
:105520001C8219861A861B861C86BE016F5F7F4F00
:10553000CE0109960E9496D120911102309112025B
:10554000243031050CF07FC010926302C90101962E
:105550009093120280931102822F817887FF03C0FB
:1055600081508E6F8F5FA82FE22F27FF02C0E1E0EE
:10557000E20FE595E0FF02C0A1E0A81B84E0A802CD
:10558000D0011124A55DBC4F8D919D910D90BC91D2
:10559000A02D89839A83AB83BC8384E0E802F00169
:1055A0001124ED5DFC4F80819181A281B3818D83B7
:1055B0009E83AF83B887CE0101960E94241F60911D
:1055C0001102709112026430710514F064E070E011
:1055D0008EEA98E00E94084E64E070E089EA98E064
:1055E0000E94084E8AE00E94F2F29CC08150982FDF
:1055F000917897FF03C091509E6F9F5FE92F87FDC1
:105600008F5F859580FF02C0E1E0E91BEE0FFF0B85
:10561000E80FF11D87FDFA95EE0FFF1FEE0FFF1F3C
:10562000ED5CFC4F8091720290917302A091740224
:10563000B091750280839183A283B38380915303D9
:105640008093630279CF80E090E0A0EAB0E4809399
:10565000720290937302A0937402B093750286E66F
:1056600092E00E94A1D00E9450AD8FEF9FEF9093E7
:1056700012028093110289EE98E00E94E24D63E9E4
:1056800072E084E690E00E9494F46AEB72E084E6B3
:1056900090E00E9494F48FE695E00E941B4D81E01B
:1056A0000E94A41D1092920A8ACF89E497D8882379
:1056B00071F00E941B23162F623060F061E070E0F1
:1056C00086ED98E00E94084E83ED98E0DFCE8AE4F4
:1056D000A8DE11CF8AE482D88823C9F30E941B2355
:1056E000062F623048F061E070E080EC98E00E94A4
:1056F000084E8DEB98E0CACE8AE570D88823A9F0D1
:1057000079D8E12FEE0FFF0BE00FF11D07FDFA95A1
:10571000EE0FFF1FEE0FFF1FED5CFC4F60837183E8
:10572000828393830E94F5CFE6CE8AE5D1CF8AE5C6
:1057300055D88823D1F35ED8609343037093440314
:105740008093450390934603EDCFAF92BF92CF92E3
:10575000DF92EF92FF920F931F93CF93DF9300D0CE
:105760001F92CDB7DEB7809150038130E1F489E418
:1057700035D8082F10E0882311F072DD182F8AE445
:105780002DD8F82E882331F06BDD011106C0823050
:1057900030F41AC080E00023B9F0123098F088E7A6
:1057A00099E00E94E24D0F900F900F900F90DF91C3
:1057B000CF911F910F91FF90EF90DF90CF90BF900E
:1057C000AF900895F110E3CF90E1EAE6F2E0AEE4A5
:1057D000B1E101900D929A95E1F7002391F094E0E8
:1057E0001902F0011124E55DFC4F40815181628175
:1057F000738140934E1150934F11609350117093E9
:105800005111FF2091F094E08902F0011124ED5D27
:10581000FC4F80819181A281B3818093521190933A
:105820005311A0935411B093551186E40E94EE23B6
:1058300081110CC060E070E0CB0169837A838B83B7
:105840009C83CE0101960E9429D6ADCF8091A805F8
:105850009091A905009771F3FC015F011191212F2F
:105860002F7D21F1153411F01536B9F7F5011082AD
:1058700070E060E08091A8059091A9050F94000167
:105880006B017C01F501108320E030E0A901C70124
:10589000B6010E9437FF18166CF620E030E040E7B2
:1058A00052E4C701B6010E943BFDC7CF70E060E043
:1058B0000F9400016B017C01E7CF2F923F924F9232
:1058C0005F926F927F928F929F92AF92BF92CF9290
:1058D000DF92EF92FF920F931F93CF93DF93CDB799
:1058E000DEB72E970FB6F894DEBF0FBECDBF83E5AF
:1058F0000E94A3238A83882309F482C18091A8058A
:105900009091A905892B09F066C181E08983809077
:105910006A0290906B02A0906C02B0906D02809130
:105920006E0290916F02A0917002B09171028D830E
:105930009E83AF83B8878091720290917302A09189
:105940007402B091750289879A87AB87BC879A8168
:10595000992331F0A981A11103C080E00E94A41D08
:1059600086E50E94A3238C830E94601D882309F48E
:1059700052C183E40E94A323882309F411C10E9429
:10598000FA232B013C010091330310913403B091B1
:105990003503BE87809136038D8720E030E048ECE8
:1059A00052E4B8018B2F9D850E9434FD87FF2CC1E6
:1059B000302E212E9E859A83AD85AB8320E030E08A
:1059C00048EC52ECB8018E859D850E9437FF181671
:1059D00034F000E010E098EC9E87A2ECAD87C09018
:1059E0003703D0903803E0903903F0903A039601E2
:1059F000A701632D722D8A819B810E9437FF1816A3
:105A000024F43C2C2D2CEA82FB8298014E855D8586
:105A1000B601C7010E9437FF18161CF48601EE86F6
:105A2000FD86C0903B03D0903C03E0903D03F09096
:105A30003E039601A701632D722D8A819B810E94EE
:105A400037FF181624F43C2C2D2CEA82FB82960199
:105A5000A701B8018E859D850E9434FD87FF03C094
:105A60008601EE86FD86C0903F03D0904003E09013
:105A70004103F09042039601A701632D722D8A81A4
:105A80009B810E9437FF181624F43C2C2D2CEA82AF
:105A9000FB829601A701B8018E859D850E9434FD89
:105AA00087FF03C08601EE86FD8698014E855D85E1
:105AB000632D722D8A819B810E945BFC20E030E087
:105AC00040E05FE30E9472FFA30192010E945BFC31
:105AD0006B017C012DEB37E346E855EB0E9437FF65
