:100000000C9405170C94231A0C944E1A0C94791A1C
:100010000C94A41A0C94CF1A0C94FA1A0C94251B65
:100020000C94501B0C9435170C9435170C94351701
:100030000C9435170C9435170C9435170C94351710
:100040000C9435170C9489DE0C9435170C943517E5
:100050000C9435170C9435170C9460BD0C9437171D
:100060000C9435170C94DDE70C9407E80C943517C5
:100070000C9435170C9435170C9435170C943517D0
:100080000C9435170C9435170C9435170C943517C0
:100090000C9435170C9435170C9435170C943517B0
:1000A0000C9435170C9435170C9435170C943517A0
:1000B0000C9435170C9435170C9435170C94351790
:1000C0000C9435170C9435170C9435170C94351780
:1000D0000C9435170C9435170C9435170C94351770
:1000E0000C943517084AD73B3BCE016E84BCBFFD4C
:1000F000C12F3D6C74319ABD56833DDA3D00C77FF8
:1001000011BED9E4BB4C3E916BAAAABE0000008090
:100110003F05A84CCDB2D44EB93836A9020C50B91F
:10012000918688083CA6AAAA2ABE000000803F004B
:100130004E414E494E495459494E46CDCCCC3D0ACC
:10014000D7233C17B7D13877CC2B329595E6241FAF
:10015000B14F0A000020410000C84200401C462068
:10016000BCBE4CCA1B0E5AAEC59D7400407A10F33B
:100170005A00A0724E18090010A5D4E80000E876D5
:1001800048170000E40B54020000CA9A3B0000002C
:10019000E1F505000080969800000040420F000045
:1001A00000A08601000000102700000000E8030006
:1001B0000000006400000000000A000000000001D0
:1001C00000000000002C76D888DC674F0823DFC1D0
:1001D000DFAE59E1B1B796E5E3E453C63AE651998B
:1001E0007696E8E6C28426EB898C9B62ED407C6FB4
:1001F000FCEFBC9C9F40F2BAA56FA5F490055A2A6B
:10020000F75C936B6CF9676DC11BFCE0E40D47FE76
:10021000F520E6B500D0ED902E030094357705006B
:1002200080841E080000204E0A000000C80C3333F2
:1002300033330F986E12831141EF8D2114893BE601
:100240005516CFFEE6DB18D1844B381BF77C1D908A
:100250001DA4BBE424203284725E228100C9F124F3
:10026000ECA1E53D2700000A0B02090C0D0E080762
:100270000304010000000000000000000000000076
:10028000000000000000000000000000000000006E
:10029000001211100000000000000000000000002B
:1002A00000000000000000000000000102102020FB
:1002B00008081020401020408002010201080402BA
:1002C0000101020408102040808040201008040230
:1002D0000180040201804020100804020108040289
:1002E000010102040810204080010204081020408F
:1002F0008005050505070508080808020202020A2C
:100300000A080804040404010101010101010103B8
:1003100003030303030303040707070C0C0C0C0C73
:100320000C0C0C0202020206060606060606060B66
:100330000B0B0B0B0B0B0B000020002300260029DE
:10034000002C002F0032000001000003010601090B
:100350000100002200250028002B002E003100346F
:100360000002010000050108010B0100002100242A
:100370000027002A002D0030003300010100000496
:100380000107010A010A4D65617375726564207089
:100390006F696E74733A0A00327832206D65736843
:1003A0002E205A206F66667365743A200020205014
:1003B0006C616E6E657242756666657242797465CF
:1003C000733A20002046726565204D656D6F727925
:1003D0003A2000436F6D70696C65643A204A756C11
:1003E00020313720323032300A00204C61737420C3
:1003F000557064617465643A20323032302D303784
:100400002D3135207C20417574686F723A20286E3A
:100410006F6E652C2064656661756C7420636F6E09
:10042000666967290A006275676669782D322E3021
:100430002E780A0020536F667477617265205265CA
:100440007365740A00205761746368646F67205293
:10045000657365740A002042726F776E206F757441
:100460002052657365740A002045787465726E6168
:100470006C2052657365740A00506F776572557011
:100480000A0073746172740A005072696E74657246
:100490002068616C7465642E206B696C6C2829205F
:1004A00063616C6C6564210A002121204B494C4C2E
:1004B00020636175736564206279204B494C4C2040
:1004C000627574746F6E2F70696E0A002121204B63
:1004D000494C4C2063617573656420627920746FA8
:1004E0006F206D75636820696E616374697665203D
:1004F00074696D65202D2063757272656E7420635A
:100500006F6D6D616E643A20004D313030310047BF
:10051000323858590050726F7465637465642050A6
:10052000696E0A00363726033C3D380E2E303E12E7
:100530001A1C180AFF43090844000120453A00200C
:100540005A3A0020593A00204500205A002059000C
:10055000205800583A002054004D3234004D3233B8
:10056000202573004D323100473238004D31313291
:100570002053687574646F776E00004B494C4C458E
:10058000442E20004D61726C696E006F6B00504903
:1005900044204175746F74756E65206661696C6581
:1005A00064212042616420657874727564657220EC
:1005B0006E756D6265720A00504944204175746F12
:1005C00074756E65004348414D4245525F54454D38
:1005D00050455241545552450042414259535445A9
:1005E0005050494E470041524353004D4F54494FDC
:1005F0004E5F4D4F44455300544845524D414C5F6A
:1006000050524F54454354494F4E004C4F4E475F54
:1006100046494C454E414D45004155544F52455079
:100620004F52545F53445F53544154555300534405
:10063000434152440050524F4D50545F5355505017
:100640004F525400454D455247454E43595F504126
:100650005253455200434153455F4C494748545F0C
:100660004252494748544E45535300544F47474C14
:10067000455F4C494748545300534F4654574152E5
:10068000455F504F574552004255494C445F5045D5
:100690005243454E54004C4556454C494E475F44E5
:1006A000415441005A5F50524F42450052554E4FFF
:1006B0005554004155544F4C4556454C00505249F5
:1006C0004E545F4A4F420050524F475245535300D9
:1006D0004155544F5245504F52545F54454D500070
:1006E000564F4C554D455452494300454550524F85
:1006F0004D0042494E4152595F46494C455F545264
:10070000414E534645520053455249414C5F584F64
:100710004E5F584F4646004649524D574152455F3D
:100720004E414D453A4D61726C696E206275676647
:1007300069782D322E302E7820284A756C2031377A
:1007400020323032302030313A30303A35352920BD
:10075000534F555243455F434F44455F55524C3AC2
:1007600068747470733A2F2F6769746875622E63AA
:100770006F6D2F4D61726C696E4669726D77617233
:10078000652F4D61726C696E2050524F544F434F2C
:100790004C5F56455253494F4E3A312E30204D4111
:1007A0004348494E455F545950453A3344205072AE
:1007B000696E7465722045585452554445525F43E2
:1007C0004F554E543A3120555549443A6365646556
:1007D000326132662D343161322D343734382D395F
:1007E0006231322D633535633632663336376666AD
:1007F0000A004361703A002F2F20004D3131332021
:1008000053005072696E742074696D653A2000253A
:1008100069730025696D20256973002569682025A5
:10082000696D202569730025696420256968202584
:10083000696D202569730025697920256964202563
:1008400069682025696D20256973004D65736820EE
:10085000706F696E74206F7574206F662072616EA0
:1008600067650A004D34323120696E636F727265BC
:10087000637420706172616D657465722075736157
:1008800067650A00206F6620004D424C20473239D0
:1008900020706F696E742000290A004A206F7574F9
:1008A000206F662072616E67652028302D00290A4E
:1008B0000049206F7574206F662072616E67652035
:1008C00028302D004D6573682070726F62696E6705
:1008D00020646F6E652E0A005374617274206D651A
:1008E00073682070726F62696E6720776974682020
:1008F00022473239205331222066697273742E0ADE
:10090000004732380A473239205332006861732079
:100910006E6F20646174612E0A004D657368204219
:100920006564204C6576656C696E67200053206FA6
:100930007574206F662072616E67652028302D35D2
:10094000292E0A00206E6F7420656E7465726564CE
:100950002E0A004D65736820706F696E74206F7584
:1009600074206F662072616E67650A004F46460A02
:1009700000466164652048656967687420004265C7
:1009800064204C6576656C696E6720004661696C11
:10099000656420746F20656E61626C6520426564D9
:1009A000204C6576656C696E670A004D657368203A
:1009B000426564204C6576656C20646174613A0A16
:1009C00000496E76616C6964206D6573682E0A005B
:1009D000446F6E6520736176696E672066696C6529
:1009E0002E0A0053442072656164206572726F7232
:1009F0000A004D343130004D313132004D31303844
:100A0000005072696E7465722073746F70706564E3
:100A10002064756520746F206572726F72732E206A
:100A200046697820746865206572726F7220616E05
:100A30006420757365204D39393920746F207265D3
:100A400073746172742E202854656D7065726174C0
:100A50007572652069732072657365742E20536505
:100A600074206974206166746572207265737461A4
:100A70007274696E67290A004E6F20436865636B64
:100A800073756D2077697468206C696E65206E756A
:100A90006D6265722C204C617374204C696E653AEE
:100AA00020004E6F20436865636B73756D20776916
:100AB0007468206C696E65206E756D6265722C209D
:100AC0004C617374204C696E653A200063686563FD
:100AD0006B73756D206D69736D617463682C204C48
:100AE000617374204C696E653A20004C696E652014
:100AF0004E756D626572206973206E6F74204C6153
:100B00007374204C696E65204E756D6265722B3171
:100B10002C204C617374204C696E653A20004D3175
:100B20003130004D323900526573656E643A2000F1
:100B30006F6B00220A00656E7175657565696E6779
:100B400020220053544F505045442E20004545501C
:100B5000524F4D204F4B0A00204D39322058002073
:100B6000466C6F773A2000496E76616C6964206547
:100B7000787472756465720A0020643A0020693ADC
:100B80000020703A0043290A0061626C65642028E5
:100B90006D696E2074656D70200064697300656E08
:100BA00000436F6C642065787472756465732061AE
:100BB000726520005741524E494E4721204C6F77B5
:100BC000205A204A65726B206D6179206C656164E2
:100BD00020746F20756E77616E7465642070617526
:100BE0007365732E0A00205200416363656C657261
:100BF0006174696F6E3A20500046523A0045727235
:100C00003A20546F6F206661722100546F6F206626
:100C100061722066726F6D207265666572656E63C3
:100C20006520706F696E740A00FFFFFF000000000E
:100C300000000000000000004F66667365747320BA
:100C40004170706C696564004E6F204D6F76652E43
:100C50000020204D61783A2000200020204D696E50
:100C60003A2000536F667420656E6473746F7073FE
:100C70003A20006F66660044454255473A00A90C89
:100C8000A40C9D0C960C880C434F4D4D554E49437A
:100C90004154494F4E0044525952554E004552520C
:100CA0004F525300494E464F004543484F00496E4E
:100CB00076616C69642050696E204D6F64650A002E
:100CC0003344205072696E746572204F46462E0080
:100CD0004D383400446F6E65207072696E74696EB1
:100CE000672066696C650A004D3737004D33310067
:100CF000456E642066696C65206C6973740A0042F5
:100D00006567696E2066696C65206C6973740A009A
:100D100043757272656E742066696C653A200022B4
:100D20000A00556E6B6E6F776E20636F6D6D616E2E
:100D3000643A2022004D31343520533C696E64659D
:100D4000783E206F7574206F662072616E67652033
:100D500028302D31290A00436C69636B20746F20A1
:100D6000526573756D652E2E2E0047322F47332046
:100D700062616420706172616D65746572730A00EE
:100D8000536C6565702E2E2E00627573793A207053
:100D9000617573656420666F7220696E7075740A80
:100DA00000627573793A2070617573656420666FAF
:100DB0007220757365720A00627573793A207072D9
:100DC0006F63657373696E670A0020496E76616CA4
:100DD000696420657874727564657220004F4646B8
:100DE000004F4E006563686F3A004572726F723A49
:100DF000007C3C3E5E2B3D3F2F5B5D3B2C2A225C02
:100E00000043616E6E6F7420656E74657220737539
:100E1000626469723A20002E0A006F70656E206667
:100E200061696C65642C2046696C653A20006175C7
:100E3000746F25632E67006572726F722077726916
:100E400074696E6720746F2066696C650A004E6F66
:100E500074205344207072696E74696E670A00537F
:100E600044207072696E74696E67206279746520BF
:100E7000002E0A0044656C6574696F6E20666169B6
:100E80006C65642C2046696C653A200046696C6587
:100E90002064656C657465643A0057726974696EA4
:100EA0006720746F2066696C653A200046696C653E
:100EB0002073656C65637465640A002053697A6504
:100EC0003A200046696C65206F70656E65643A2053
:100ED00000454E4420535542524F5554494E450A01
:100EE000002220706F73002220706172656E743A68
:100EF0002200535542524F5554494E452043414CD0
:100F00004C207461726765743A22004578636565A8
:100F1000646564206D617820535542524F555449A1
:100F20004E452064657074683A310A002066696C29
:100F3000653A2000667265736800646F696E6700C9
:100F40004E6F7720002E0A006F70656E2066616913
:100F50006C65642C2046696C653A2000534420631C
:100F6000617264206F6B0A006F70656E526F6F74F0
:100F7000206661696C65640A00766F6C756D652E1C
:100F8000696E6974206661696C65640A004E6F2041
:100F9000534420636172640A00286E6F2066696C96
:100FA00065290043616E6E6F74206F70656E2073EB
:100FB0007562646972200053756263616C6C204FC6
:100FC000766572666C6F77003F004D3235002553B1
:100FD0003A20255300DD0FD90F41425300504C41B8
:100FE000005072696E742041626F727465640050C3
:100FF00072696E74696E672E2E2E005072696E745F
:10100000205061757365640050617573696E672E59
:101010002E2E0049676E6F7265005265736574000D
:10102000454550524F4D2056657273696F6E20458D
:1010300072726F7200454550524F4D20496E646583
:1010400078204572726F7200454550524F4D2043D3
:101050005243204572726F7200496E697469616C07
:10106000697A6520454550524F4D004D6564696170
:101070002052656D6F766564004D65646961204935
:101080006E736572746564003344205072696E74C7
:1010900065722052656164792E0046616E2053703E
:1010A000656564004E6F7A7A6C6500436F6F6C649F
:1010B0006F776E00507265686561742024004D6121
:1010C000696E004D3834004732385A00473238597B
:1010D0000047323858004D6F74696F6E004F666676
:1010E000004F6E004D6F76652031306D6D004D6F95
:1010F000766520316D6D004D6F766520302E316D37
:101100006D004D6F76652025736D6D00486F7465B9
:101110006E6420746F6F20636F6C64004578747226
:1011200075646572004D6F7665205A004D6F766567
:101130002059004D6F7665205800426564204C654B
:1011400076656C696E67004D6F76652041786973CE
:1011500000486F6D65205A00486F6D652059004842
:101160006F6D652058004175746F20486F6D650084
:1011700044697361626C6520537465707065727345
:10118000004D61696E00536F667420456E64737420
:101190006F707300052E2E003F005072696E742030
:1011A00066726F6D204D656469610043616E6365B1
:1011B0006C005072696E74005374617274205072C6
:1011C000696E74004D61696E0047323920533100F9
:1011D000473239205332002569202F2025750047DA
:1011E0003239205332004C6F616420536574746946
:1011F0006E67730053746F72652053657474696E03
:101200006773004D6F74696F6E004F6666004F6EB6
:1012100000426564205A004D6F7665205A005A20BE
:1012200056616C756500496E646578205900496E99
:1012300064657820580045646974204D65736800C2
:101240004C6576656C2042656400426564204C659F
:1012500076656C696E6700466164652048656967FC
:101260006874004C6576656C696E6720446F6E65C6
:1012700021004E65787420506F696E7400436C696C
:10128000636B20746F20426567696E0052657374EA
:101290006F72652044656661756C7473004C6F6194
:1012A000642053657474696E67730053746F72655C
:1012B0002053657474696E67730046616E205370C5
:1012C000656564004E6F7A7A6C650050726568657A
:1012D0006174202420436F6E6600436F6E666967F9
:1012E00075726174696F6E00416476616E636564E6
:1012F0002053657474696E6773004D61696E0046B2
:101300006C6F770046616E205370656564004E6FA8
:101310007A7A6C6500426564205A00537065656492
:10132000004D61696E004D6F76696E672E2E2E003E
:10133000486F6D696E672058595A003F00436861D5
:101340006E6765204D65646961004E6F204D656470
:101350006961005072696E742066726F6D204D6510
:101360006469610053746F70205072696E7400522A
:101370006573756D65205072696E74005061757388
:1013800065205072696E740053746F700054756EEE
:101390006500496E666F2053637265656E004D6F20
:1013A00074696F6E0054656D7065726174757265F5
:1013B00000436F6E66696775726174696F6E004293
:1013C00061636B003F004D3432380043616E6365EA
:1013D0006C00496E697400496E697469616C697A60
:1013E0006520454550524F4D0046696C2E2044699A
:1013F000612E004520696E206D6DC2B30046696C98
:10140000616D656E740054656D706572617475729E
:101410006500452073746570732F6D6D005A2053FD
:10142000746570732F6D6D00592053746570732F40
:101430006D6D00582053746570732F6D6D0053747B
:101440006570732F6D6D00412D54726176656C006F
:10145000412D5265747261637400416D617820455D
:1014600000416D6178205A00416D6178205900413A
:101470006D6178205800416363656C6572617469C1
:101480006F6E005654726176204D696E00566D691C
:101490006E00566D6178204500566D6178205A00C7
:1014A000566D6178205900566D6178205800566558
:1014B0006C6F636974790056652D4A65726B0056CE
:1014C0005A2D4A65726B0056592D4A65726B00564B
:1014D000582D4A65726B004A65726B004163636503
:1014E0006C004F6666004F6E004175746F74656DD9
:1014F000700020022046616374002002204D617854
:10150000002002204D696E0053657420486F6D65A0
:10151000204F66667365747300436F6E6669677506
:10152000726174696F6E00416476616E63656420F8
:1015300053657474696E677300A10000006900A2AE
:101540000000006300B00000000900C1000000417D
:1015500000C20000004100C30000004100C40000C0
:10156000004100C50000004100C60000004145C721
:101570000000004300C80000004500C9000000450D
:1015800000CD0000004900D10000004E00D5000051
:10159000004F00D60000004F00D70000007800DCAC
:1015A0000000005500DD0000005900E0000000616F
:1015B00000E10000006100E20000006100E30000C3
:1015C000006100E40000006100E50000006100E649
:1015D0000000006165E70000006300E800000065AE
:1015E00000E90000006500EA0000006500EB000073
:1015F000006500EC0000006900ED0000006900EEED
:101600000000006900EF0000006900F10000006EBA
:1016100000F20000006F00F30000006F00F4000013
:10162000006F00F50000006F00F60000006F00F88A
:101630000000006F00F90000007500FA000000755E
:1016400000FB0000007500FC0000007500FD0000BC
:10165000007900FF0000007900040100004100054E
:101660000100006100060100004300070100006363
:10167000000C01000043000D01000063000E01009A
:101680000044000F01000064001101000064001913
:1016900001000065001A01000045001B0100006503
:1016A000001F010000670030010000490031010007
:1016B000006900410100004C00420100006C004341
:1016C0000100004E00440100006E00480100006E61
:1016D000005801000052005901000072005A010038
:1016E0000053005B01000073005F010000730060A5
:1016F00001000053006101000073006501000074E7
:10170000006F01000075007C0100007A007D01007F
:10171000005A007E0100007A00920100006600E39A
:101720000200007800222000002E001E2100005040
:101730007822210000544D902100003C2D92210080
:10174000002D3EB02100000300BB21000004003C3E
:101750002200007E00482200007E3D602200002121
:101760003D612200003D00642200003C3D652200F6
:10177000003E3DF12300000700A03000003D0021A5
:10178000F301000200C2F401000500A2000000EC19
:1017900000B0000000DF00E4000000E100F60000FF
:1017A00000EF00F7000000FD00FC000000F500E382
:1017B000020000EB0087030000A5008F030000F487
:1017C0000098030000F2009E030000E300A3030062
:1017D00000F600A9030000F400AC030000E000AD37
:1017E000030000E300B1030000E000B2030000E2E8
:1017F00000B5030000E300B8030000F200BC0300E2
:1018000000E400BE030000E300C0030000F700C1D5
:10181000030000E600C3030000E500902100007F04
:1018200000922100007E001A220000E8001E220023
:1018300000F30088250000FF0002300000A1000C2A
:10184000300000A2000D300000A3009B300000DE3D
:10185000009C300000DF00A03000003D00A13000FF
:1018600000A700A2300000B100A3300000A800A42F
:10187000300000B200A5300000A900A6300000B37F
:1018800000A7300000AA00A8300000B400A9300072
:1018900000AB00AA300000B500AB300000B600ACD1
:1018A000300000B6DEAD300000B700AE300000B74B
:1018B000DEAF300000B800B0300000B8DEB130005C
:1018C00000B900B2300000B9DEB3300000BA00B495
:1018D000300000BADEB5300000BB00B6300000BBFF
:1018E000DEB7300000BC00B8300000BCDEB930000C
:1018F00000BD00BA300000BDDEBB300000BE00BC41
:10190000300000BEDEBD300000BF00BE300000BFB2
:10191000DEBF300000C000C0300000C0DEC13000BB
:1019200000C100C2300000C1DEC3300000AF00C4FF
:10193000300000C200C5300000C2DEC6300000C367
:1019400000C7300000C3DEC8300000C400C930004A
:1019500000C4DECA300000C500CB300000C600CC99
:10196000300000C700CD300000C800CE300000C9F4
:1019700000CF300000CA00D0300000CADED13000F5
:1019800000CADFD2300000CB00D3300000CBDED461
:10199000300000CBDFD5300000CC00D6300000CCCA
:1019A000DED7300000CCDFD8300000CD00D93000C9
:1019B00000CDDEDA300000CDDFDB300000CE00DC11
:1019C000300000CEDEDD300000CEDFDE300000CFA4
:1019D00000DF300000D000E0300000D100E1300036
:1019E00000D200E2300000D300E3300000AC00E49D
:1019F000300000D400E5300000AD00E6300000D536
:101A000000E7300000AE00E8300000D600E930000A
:101A100000D700EA300000D800EB300000D900EC1D
:101A2000300000DA00ED300000DB00EF300000DCB9
:101A300000F2300000A600F3300000DD00F43000BA
:101A400000B3DEF7300000DCDEFA300000A6DEFB7B
:101A5000300000A500FC300000B000FD300000A404
:101A600000074E0000FB0086510000FC00435300BD
:101A700000FA0064FF0000A40065FF0000A50066F6
:101A8000FF0000A60067FF0000A70068FF0000A895
:101A90000069FF0000A9006AFF0000AA006BFF00B8
:101AA00000AB006CFF0000AC006DFF0000AD006EED
:101AB000FF0000AE006FFF0000AF0070FF0000B03D
:101AC0000071FF0000B10072FF0000B20073FF0060
:101AD00000B30074FF0000B40075FF0000B500768D
:101AE000FF0000B60077FF0000B70078FF0000B8E5
:101AF0000079FF0000B9007AFF0000BA007BFF0008
:101B000000BB007CFF0000BC007DFF0000BD007E2C
:101B1000FF0000BE007FFF0000BF0080FF0000C08C
:101B20000081FF0000C10082FF0000C20083FF00AF
:101B300000C30084FF0000C40085FF0000C50086CC
:101B4000FF0000C60087FF0000C70088FF0000C834
:101B50000089FF0000C9008AFF0000CA008BFF0057
:101B600000CB008CFF0000CC008DFF0000CD008E6C
:101B7000FF0000CE008FFF0000CF0090FF0000D0DC
:101B80000091FF0000D10092FF0000D20093FF00FF
:101B900000D30094FF0000D40095FF0000D500960C
:101BA000FF0000D60097FF0000D70098FF0000D884
:101BB0000099FF0000D9009AFF0000DA009BFF00A7
:101BC00000DB009CFF0000DC009DFF0000DD009EAC
:101BD000FF0000DE009FFF0000DF00E5FF00005C6B
:101BE000002D2D2D005344002020202000202020F7
:101BF0002020202000687474703A2F2F6D61726C61
:101C0000696E66772E6F726700687474703A2F2F52
:101C10006D61726C696E66772E6F7267006874749E
:101C2000703A2F2F6D61726C696E66772E6F7267D6
:101C3000006275676669782D322E302E78006275E5
:101C4000676669782D322E302E7800627567666976
:101C5000782D322E302E7800687474703A2F2F6DE4
:101C600061726C696E66772E6F726700687474704B
:101C70003A2F2F6D61726C696E66772E6F726700F6
:101C8000687474703A2F2F6D61726C696E66772E6E
:101C90006F726700206275676669782D322E302E6C
:101CA00078002D2D2D2D2D2D007C4D61726C696ECF
:101CB0007C002D2D2D2D2D2D00001C1F11111F001E
:101CC000000006191803130C00000E1315110E0066
:101CD000001C10181705060500040E1F041C000048
:101CE00000040A0A0A0A11110E0C12120C0000005C
:101CF00000001F1511151F00000000000001020464
:101D0000040000001C1C0C0404040201000000007C
:101D10000004081000000000002568753A253032E4
:101D200068750025303268753A2530326875005084
:101D30006C65617365205265736574005052494E3D
:101D40005445522048414C54454400456E636C6FE5
:101D500073757265004265640020746F6F206C6F4C
:101D60006E6720657874727573696F6E2070726526
:101D700076656E7465640A0020636F6C6420657814
:101D800074727573696F6E2070726576656E7465B6
:101D9000640A0020573A00452025530020403A00AD
:101DA000202F00202D20496E76616C6964206578B3
:101DB000747275646572206E756D62657220210A99
:101DC000004D494E54454D502074726967676572E5
:101DD0006564004D415854454D50207472696767E1
:101DE0006572656400626564002C207379737465A4
:101DF0006D2073746F70706564212048656174652F
:101E0000725F49443A20004531004B6420004B6921
:101E100020004B702000504944204175746F747548
:101E20006E652066696E69736865642120507574FB
:101E300020746865206C617374204B702C204B6992
:101E400020616E64204B6420636F6E7374616E74E6
:101E5000732066726F6D2062656C6F7720696E7497
:101E60006F20436F6E66696775726174696F6E2E5D
:101E7000680A00504944204175746F74756E65207E
:101E80006661696C6564212074696D656F75740A9B
:101E900000504944204175746F74756E6520666109
:101EA000696C6564212054656D706572617475722A
:101EB0006520746F6F20686967680A00204B643A78
:101EC0002000204B693A2000204B703A20000A2065
:101ED000436C617373696320504944200A00204BAE
:101EE000643A2000204B693A2000204B703A2000D1
:101EF0000A204E6F206F76657273686F6F740A00E8
:101F00002054753A2000204B753A2000206D6178EE
:101F10003A2000206D696E3A200020643A200020AB
:101F2000626961733A2000504944204175746F74AE
:101F3000756E652073746172740A005049442041C3
:101F400075746F74756E65206661696C65642120B7
:101F500054656D706572617475726520746F6F2061
:101F6000686967680A0023646566696E6520444590
:101F70004641554C545F0048656174696E67206640
:101F800061696C656400546865726D616C2052759E
:101F90006E617761790070012C0190012701B00119
:101FA0002201C0011D01F0011801100213013002CD
:101FB0000E016002090190020401C002FF0000034B
:101FC000FA004003F5008003F000D003EB0020048A
:101FD000E6007004E100E004DC004005D700C00525
:101FE000D2004006CD00D006C8008007C3003008EC
:101FF000BE00F008B900C009B400B00AAF00B00BD1
:10200000AA00D00CA500000EA000500F9B00C0102D
:1020100096005012910000148C00C0158700B01774
:102020008200B0197D00D01B7800001E7300402094
:102030006E0090226900F024640040275F00902920
:102040005A00E02B5500102E500020304B0010326B
:102050004600E033410090353C00103737007038BF
:102060003200A0392D00B03A2800A03B2300603C8C
:102070001E00103D1900903D1400103E0F00703EF0
:102080000A00C03E0500003F0000403FFBFF803FCC
:10209000F6FFC03FF1FF436F6F6C696E672E2E2E07
:1020A0000048656174696E672E2E2E004572723A83
:1020B000204D494E54454D50004572723A204D41D5
:1020C0005854454D5000544845524D414C205255AE
:1020D0004E415741590048656174696E67204661F9
:1020E000696C6564005761726E696E673A20486F6B
:1020F0006D696E672042756D702044697669736FF3
:1021000072203C20310A0002020420746F6F206CA0
:102110006F6E6720657874727573696F6E20707268
:102120006576656E7465640A0020636F6C64206573
:102130007874727573696F6E2070726576656E74EF
:1021400065640A00000048420000484200008040E8
:102150000000A0400000A040000000400000B44289
:102160000000A04200008C420000B4420000A042E7
:1021700000008C4200000000000000000000000091
:10218000486F6D652025732573257320466972732A
:102190007400496E76616C69642065787472756448
:1021A00065720A0020440020490020204D33303160
:1021B0002050005049442073657474696E67733A07
:1021C0000020460020480020204D313435205300A7
:1021D0004D6174657269616C206865617475702009
:1021E000706172616D65746572733A0020204732C8
:1021F00039205334205A00204A0020204732392009
:10220000533320490020204D3432302053004D6597
:10221000736820426564204C6576656C696E673A28
:102220000020204D323036205800486F6D65206FF9
:1022300066667365743A0020530020204D323035B5
:10224000204200416476616E6365643A20423C6DD1
:10225000696E5F7365676D656E745F74696D655FE8
:1022600075733E20533C6D696E5F6665656472618F
:1022700074653E20543C6D696E5F74726176656C66
:102280005F66656564726174653E20583C6D617877
:102290005F785F6A65726B3E20593C6D61785F794B
:1022A0005F6A65726B3E205A3C6D61785F7A5F6A47
:1022B00065726B3E20453C6D61785F655F6A657253
:1022C0006B3E0020520020204D323034205000411F
:1022D0006363656C65726174696F6E2028756E69E1
:1022E00074732F7332293A20503C7072696E745F98
:1022F000616363656C3E20523C7265747261637405
:102300005F616363656C3E20543C74726176656CFA
:102310005F616363656C3E0020204D323031205890
:10232000004D6178696D756D20416363656C657200
:102330006174696F6E2028756E6974732F7332290A
:102340003A0020204D3230332058004D6178696DBD
:10235000756D206665656472617465732028756E9D
:102360006974732F73293A00537465707320706514
:102370007220756E69743A0020440020204D32307E
:10238000302053002044697361626C65640A004622
:10239000696C616D656E742073657474696E6773C2
:1023A0003A0020204D3134392043203B20556E69BE
:1023B000747320696E2043656C736975730A00201D
:1023C00020473231202020203B20556E6974732035
:1023D000696E206D6D0020286D6D29003B2000483E
:1023E000617264636F6465642044656661756C74D2
:1023F0002053657474696E6773204C6F6164656403
:102400000A00290A002062797465733B20637263B5
:1024100020002073746F7265642073657474696E34
:102420006773207265747269657665642028002080
:102430002863616C63756C6174656429210A0020EE
:10244000213D2000454550524F4D20435243206DC1
:1024500069736D61746368202D202873746F7265D1
:10246000642920002053697A653A2000496E64652A
:10247000783A2000204D61726C696E3D56383129E2
:102480000A00454550524F4D2076657273696F6E54
:10249000206D69736D617463682028454550524F03
:1024A0004D3D004E6F20454550524F4D2E0A00299C
:1024B0000A002062797465733B20637263200053C5
:1024C000657474696E67732053746F726564202835
:1024D000004E6F20454550524F4D2E0A0045455045
:1024E000524F4D206461746173697A652065727220
:1024F0006F722E0A0000004843000048430000406D
:102500004000007A440000A0420000A0420000C841
:10251000449A19C442B80B0000B80B0000E803004D
:10252000001027000053657474696E67732053743C
:102530006F726564007A5F6D696E00795F6D696EB8
:1025400000785F6D696E005265706F7274696E67B6
:1025500020656E6473746F70207374617475730A90
:10256000006F70656E00545249474745524544001C
:102570003A2000255320256320256320256320254C
:102580006300205A3A0020593A0020583A00656EFC
:102590006473746F7073206869743A2000486F6DBB
:1025A000696E67204661696C656400456E6473748A
:1025B0006F70730020436F756E7420583A000437B3
:1025C00000001E290000511B0000581000001009D7
:1025D0000000CC040000780200004101000024F457
:1025E000D43050C38E20C2A24017828B7011127A51
:1025F000910D816CD90AA861E108C758660761513D
:1026000043061E4B5D05C145A7041A411104093D4F
:102610009803713931034036DB0265339102D430BF
:102620005402802E1D02632CEE01752AC501B028CC
:10263000A001102781018F2564012B244B01E0228A
:102640003401AC211F018D200D01801FFC00841E70
:10265000ED00971DDF00B81CD200E61BC600201B52
:10266000BC00641AB200B219A8000A19A0006A18C6
:102670009900D117910040178B00B51684003116D0
:102680007E00B31579003A157300C7146F00581413
:102690006A00EE1366008813630025135E00C712FC
:1026A0005B006C12570015125400C11151007011DB
:1026B0004F0021114B00D61049008D1047004610E5
:1026C000440002104200C00F4000800F3E00420F45
:1026D0003C00060F3B00CB0E3800930E37005C0E1B
:1026E0003500270E3400F30D3200C10D3100900D7E
:1026F0003000600D2E00320D2D00050D2C00D90C80
:102700002B00AE0C2900850C29005C0C2700350C31
:1027100027000E0C2600E80B2400C40B2400A00B9D
:1027200023007D0B23005A0B2100390B2100180BCD
:102730002000F80A1F00D90A1E00BB0A1E009D0ACD
:102740001D00800A1D00630A1C00470A1B002C0A9A
:102750001B00110A1A00F7091A00DD091900C40943
:102760001900AB091900920917007B0918006309C9
:1027700017004C09160036091600200916000A0930
:102780001500F5081500E0081400CC081400B8087E
:102790001400A4081400900813007D0812006B08B0
:1027A00013005808120046081200340811002308CC
:1027B00011001208110001081100F0071000E007D5
:1027C0001000D0071000C0071000B0070F00A107CD
:1027D000100091070E0083070F0074070F006507B4
:1027E0000E0057070E0049070E003B070D002E078D
:1027F0000E0020070D0013070D0006070D00F90657
:102800000C00ED060D00E0060C00D4060C00C80616
:102810000C00BC060C00B0060C00A4060B009906C8
:102820000C008D060B0082060B0077060B006C0671
:102830000B0061060A0057060B004C060A00420610
:102840000A0038060A002E060A0024060A001A06A4
:102850000A001006090007060A00FD050900F40534
:102860000900EB050900E2050900D9050900D005BA
:102870000900C7050900BE050900B5050800AD053A
:102880000800A50509009C050800940508008C05B2
:102890000800840508007C050800740508006C0524
:1028A0000700650508005D050700560508004E0590
:1028B00007004705070040050800380507003105F7
:1028C00007002A050700230507001C05060016055A
:1028D00007000F0507000805060002050700FB04B6
:1028E0000600F5040700EE040600E8040600E20412
:1028F0000700DB040600D5040600CF040600C90467
:102900000600C3040600BD040600B7040600B104B7
:102910000500AC040600A6040600A00405009B0404
:10292000060095040500900406008A04050085044D
:102930000500800406007A04050075040500700493
:1029400005006B04050066040500610405005C04D5
:10295000050057040500520405004D040500480415
:102960000500430405003E0404003A040500350454
:102970000500300404002C0405002704040023048F
:1029800005001E0404001A040400160405001104C6
:1029900004000D04040009040500040404000004FC
:1029A0000400FC030400F8030400F4030400F00333
:1029B0000400EC030400E8030400E4030400E00363
:1029C0000400DC030400D8030400D4030400D00393
:1029D0000400CC030400C8030300C503030024F46F
:1029E00004D9201BC40C5C0E9804C4095F0265075F
:1029F0007101F405F900FB04B30048048700C1032A
:102A000069005803550003034500BE023A008402E2
:102A1000310053022A002902250004022000E401AB
:102A20001C00C8011900AF011700980114008401AF
:102A30001300710110006101100051010E004301EB
:102A40000D0036010B002B010B0020010B001501BE
:102A500009000C01090003010800FB000800F30055
:102A60000800EB000700E4000600DE000600D800C6
:102A70000600D2000600CC000500C7000500C20019
:102A80000500BD000400B9000400B5000400B10059
:102A90000400AD000400A9000400A5000300A2008A
:102AA00003009F0004009B000300980003009500B2
:102AB000020093000300900003008D0002008B00D1
:102AC00003008800020086000200840003008100E9
:102AD00002007F0002007D0002007B0002007900FE
:102AE000020077000100760002007400020072000C
:102AF0000100710002006F0002006D0001006C0017
:102B000002006A000100690002006700010066001F
:102B10000100650001006400020062000100610024
:102B20000100600001005F0002005D0001005C0028
:102B300001005B0001005A0001005900010058002B
:102B4000010057000100560001005500010054002B
:102B50000100530000005300010052000100510029
:102B60000100500001004F0001004E0000004E0027
:102B700001004D0001004C0001004B0000004B0023
:102B800001004A000100490001004800000048001F
:102B9000010047000100460000004600010045001A
:102BA0000000450001004400010043000000430014
:102BB000010042000000420001004100000041000D
:102BC0000100400001003F0000003F0001003E0006
:102BD00000003E0001003D0000003D0001003C00FF
:102BE00000003C0000003C0001003B0000003B00F6
:102BF00001003A0000003A000100390000003900ED
:102C000001003800000038000000380001003700E3
:102C100000003700010036000000360000003600DA
:102C200001003500000035000000350001003400CF
:102C300000003400000034000100330000003300C5
:102C400000003300010032000000320000003200BA
:102C500001003100000031000000310001003000AF
:102C6000000030000000300001002F0000002F00A5
:102C700000002F0000002F0001002E0000002E0099
:102C800000002E0001002D0000002D0000002D008E
:102C900000002D0001002C0000002C0000002C0082
:102CA00000002C0001002B0000002B0000002B0076
:102CB00000002B0001002A0000002A0000002A006A
:102CC00000002A000100290000002900000029005E
:102CD0000000290000002900010028000000280051
:102CE0000000280000002800000028000100270044
:102CF0000000270000002700000027000000270038
:102D0000010026000000260000002600000026002A
:102D1000000026000100250000002500000025001D
:102D2000000025000000250000002500010024000F
:102D30000000240000002400000024000000240003
:102D400001002300000023000000230000002300F6
:102D500000002300000023000000230001002200E7
:102D600000002200000022000000220000002200DB
:102D700000002200010021000000210000002100CD
:102D800000002100000021000000210000002100BF
:102D900001002000000020000000200000002000B2
:102DA00000002000000020000000200000002000A3
:102DB00001001F0000001F0000001F0000001F0096
:102DC00000001F0000001F0000001F0001001E0087
:102DD00000001E0000001E0000001E0000004572E2
:102DE000726F722077726974696E6720746F204504
:102DF0004550524F4D210A00B51FDB22F9311461B5
:102E0000946C8BA0BCB739EA316111241FBECFEF9F
:102E1000D1E2DEBFCDBF00E00CBF13E0A0E0B2E026
:102E2000E0ECF0E002E00BBF02C007900D92A8308A
:102E3000B107D9F722E1A8E0B3E001C01D92AF3499
:102E4000B207E1F716E1C4E0D7E100E006C0219740
:102E50000109802FFE010E9435F6CC3FD10780E0AA
:102E60000807A9F7FCD50D944E000C9400001F92A2
:102E70000F920FB60F9211242F933F938F939F932E
:102E8000AF93BF938091090390910A03A0910B0324
:102E9000B0910C033091080323E0230F2D3758F530
:102EA0000196A11DB11D20930803809309039093FF
:102EB0000A03A0930B03B0930C0380910D03909130
:102EC0000E03A0910F03B09110030196A11DB11D37
:102ED00080930D0390930E03A0930F03B093100300
:102EE000BF91AF919F918F913F912F910F900FBE06
:102EF0000F901F90189526E8230F0296A11DB11D73
:102F0000D2CF2FB7F8946091090370910A03809192
:102F10000B0390910C032FBF08953FB7F894809155
:102F20000D0390910E03A0910F03B091100326B5ED
:102F3000A89B05C02F3F19F00196A11DB11D3FBFF1
:102F4000BA2FA92F982F8827BC01CD01620F711DC0
:102F5000811D911D42E0660F771F881F991F4A95BA
:102F6000D1F708958F929F92AF92BF92CF92DF9246
:102F7000EF92FF926B017C01D0DF4B015C01C11429
:102F8000D104E104F104D9F0B6D3C7DF6819790997
:102F90008A099B09683E73408105910580F321E011
:102FA000C21AD108E108F10888EE880E83E0981E65
:102FB000A11CB11CC114D104E104F10431F7FF904C
:102FC000EF90DF90CF90BF90AF909F908F9008953B
:102FD0008230910538F0880F991F880F991F059747
:102FE0000197F1F70895789484B5826084BD84B523
:102FF000816084BD85B5826085BD85B5816085BDF4
:10300000EEE6F0E0808181608083E1E8F0E010820C
:10301000808182608083808181608083E0E8F0E04D
:10302000808181608083E1EBF0E080818460808337
:10303000E0EBF0E0808181608083E1E9F0E0808175
:1030400082608083808181608083E0E9F0E080811C
:1030500081608083E1EAF0E080818260808380810A
:1030600081608083E0EAF0E0808181608083E1E23A
:10307000F1E0808182608083808181608083E0E2F2
:10308000F1E0808181608083EAE7F0E08081846004
:103090008083808182608083808181608083808161
:1030A000806880831092C10008951F93CF93DF93AF
:1030B000182FEB0161E035D1209731F460E0812FCA
:1030C000DF91CF911F9169C1CF3FD10511F461E02C
:1030D000F6CFE12FF0E0EB59FD4FE491E150E23102
:1030E00008F0B3C0F0E08827E758F74E8F4F0C94F4
:1030F00035F68B1893189818A218AC182519B6181D
:10310000BE18C618D018DA18E418F318FD182519D7
:10311000071911191B1984B5806884BDC7BDDF91DB
:10312000CF911F91089584B5806284BDC8BDF7CF4B
:1031300080918000806880938000D0938900C09344
:103140008800EDCF80918000806280938000D093D2
:103150008B00C0938A00E3CF8091800088608093C9
:103160008000D0938D00C0938C00D9CF8091B000A7
:1031700080688093B000C093B300D1CF8091B0003D
:1031800080628093B000C093B400C9CF809190005A
:10319000806880939000D0939900C0939800BFCF2F
:1031A00080919000806280939000D0939B00C093A8
:1031B0009A00B5CF80919000886080939000D09362
:1031C0009D00C0939C00ABCF8091A000806880934D
:1031D000A0008091A0008F7B8093A000D093A900D5
:1031E000C093A8009CCF8091A00080628093A00033
:1031F000D093AB00C093AA0092CF8091A0008860CA
:103200008093A000D093AD00C093AC0088CF809194
:103210002001806880932001D0932901C093280168
:103220007ECF80912001806280932001D0932B017A
:10323000C0932A0174CF809120018860809320017F
:10324000D0932D01C0932C016ACFC038D1050CF06A
:103250003ECF34CF8150823108F05AC0E82FF0E0E1
:103260008827EA5CF64E8F4F0C9435F656195A199A
:1032700048194E19521988195D19631967196D1982
:10328000711975197B197F198819831989198D1975
:10329000809180008F7780938000089580918000D6
:1032A0008F7DF9CF80918000877FF5CF84B58F77B0
:1032B00084BD089584B58F7DFBCF8091B0008F775A
:1032C0008093B00008958091B0008F7DF9CF8091F8
:1032D00090008F77809390000895809190008F7D6B
:1032E000F9CF80919000877FF5CF8091A0008F77F4
:1032F0008093A00008958091A0008F7DF9CF8091E8
:10330000A000877FF5CF809120018F7780932001E7
:103310000895809120018F7DF9CF80912001877FD2
:10332000F5CFCF93DF9390E0FC01E555FD4F24915D
:103330008F509D4FFC0184918823C9F090E0880F45
:10334000991FFC01E559FC4FA591B491FC01EF5A7E
:10335000FC4FC591D49161110DC09FB7F8948C9129
:10336000209582238C938881282328839FBFDF9117
:10337000CF910895623051F49FB7F8943C91822F19
:10338000809583238C93E8812E2BEFCF8FB7F89411
:10339000EC912E2B2C938FBFEACF1F93CF93DF930B
:1033A000282F30E0F901EB59FD4F8491F901E555E3
:1033B000FD4FD491F901EF50FD4FC491CC23A1F002
:1033C000162F811147DFEC2FF0E0EE0FFF1FEF5AB1
:1033D000FC4FA591B4918FB7F894EC91111108C0EE
:1033E000D095DE23DC938FBFDF91CF911F9108959D
:1033F000DE2BF8CFCF93DF93282F30E0F901EB5984
:10340000FD4F8491F901E555FD4FD491F901EF503D
:10341000FD4FC491CC2399F081111CDFEC2FF0E01B
:10342000EE0FFF1FE95CFC4FA591B491EC91ED23E9
:1034300081E090E009F480E0DF91CF91089580E091
:1034400090E0FACF08951F920F920FB60F921124B9
:103450000BB60F922F933F934F935F936F937F938E
:103460008F939F93AF93BF93EF93FF93E0910402E9
:10347000F09105021995FF91EF91BF91AF919F9146
:103480008F917F916F915F914F913F912F910F900D
:103490000BBE0F900FBE0F901F9018951F920F92AA
:1034A0000FB60F9211240BB60F922F933F934F93A9
:1034B0005F936F937F938F939F93AF93BF93EF939C
:1034C000FF93E0910602F09107021995FF91EF91A9
:1034D000BF91AF919F918F917F916F915F914F912C
:1034E0003F912F910F900BBE0F900FBE0F901F902A
:1034F00018951F920F920FB60F9211240BB60F92D0
:103500002F933F934F935F936F937F938F939F93EB
:10351000AF93BF93EF93FF93E0910802F0910902FC
:103520001995FF91EF91BF91AF919F918F917F91ED
:103530006F915F914F913F912F910F900BBE0F9024
:103540000FBE0F901F9018951F920F920FB60F92FB
:1035500011240BB60F922F933F934F935F936F936A
:103560007F938F939F93AF93BF93EF93FF93E091DC
:103570000A02F0910B021995FF91EF91BF91AF9163
:103580009F918F917F916F915F914F913F912F917B
:103590000F900BBE0F900FBE0F901F9018951F92AB
:1035A0000F920FB60F9211240BB60F922F933F93E9
:1035B0004F935F936F937F938F939F93AF93BF933B
:1035C000EF93FF93E0910002F09101021995FF91B2
:1035D000EF91BF91AF919F918F917F916F915F918B
:1035E0004F913F912F910F900BBE0F900FBE0F90F8
:1035F0001F9018951F920F920FB60F9211240BB6C1
:103600000F922F933F934F935F936F937F938F937B
:103610009F93AF93BF93EF93FF93E0910202F091DA
:1036200003021995FF91EF91BF91AF919F918F91F7
:103630007F916F915F914F913F912F910F900BBEB2
:103640000F900FBE0F901F9018951F920F920FB6FC
:103650000F9211240BB60F922F933F934F935F93CA
:103660006F937F938F939F93AF93BF93EF93FF934A
:10367000E0910C02F0910D021995FF91EF91BF912D
:10368000AF919F918F917F916F915F914F913F91FA
:103690002F910F900BBE0F900FBE0F901F9018959B
:1036A0001F920F920FB60F9211240BB60F922F9309
:1036B0003F934F935F936F937F938F939F93AF93BA
:1036C000BF93EF93FF93E0910E02F0910F021995D3
:1036D000FF91EF91BF91AF919F918F917F916F91EA
:1036E0005F914F913F912F910F900BBE0F900FBEA6
:1036F0000F901F901895089590E080E00895089528
:10370000AF92BF92CF92DF92EF92FF920F931F93EF
:10371000CF93DF936C017B018B01040F151FEB012D
:103720005E01AE18BF08C017D10759F06991D601E4
:10373000ED91FC910190F081E02DC6011995892B46
:1037400079F7C501DF91CF911F910F91FF90EF9015
:10375000DF90CF90BF90AF900895CF93DF93EC01AF
:1037600060E08E811ADE81E090E032DC61E08E81E3
:1037700014DE81E090E02CDC60E08E810EDE84E6D9
:1037800090E0DF91CF9124CCCF92DF92EF92FF9225
:103790000F931F93CF93DF936C017C0187E0E80EBA
:1037A000F11CD0E0C0E0062F10E0B8010C2E02C0E2
:1037B000759567950A94E2F76170F70181917F0131
:1037C000ECDD2196C430D10581F7C601DF91CF91A0
:1037D0001F910F91FF90EF90DF90CF90BECFCF92CF
:1037E000DF92EF92FF920F931F93CF93DF936C01C1
:1037F0007C0187E0E80EF11CD0E0C0E0062F10E06D
:10380000B8010C2E02C0759567950A94E2F76170B5
:10381000F70181917F01C1DD2196C830D10581F783
:10382000C601DF91CF911F910F91FF90EF90DF9034
:10383000CF9093CF1F93CF93DF93EC01162F642F7C
:103840008C81ABDD8D818F3F11F060E0A6DD8F852F
:10385000612F84FF05C0CE01DF91CF911F91BFCFB3
:1038600070E084E0759567958A95E1F7CE018CDF6D
:10387000612FCE01DF91CF911F9186CF40E0DACF4B
:1038800061E0FCDF80ED97E0A3CB443008F043E03B
:10389000FC012389421710F04FEF420FFC01E40FA7
:1038A000F11D2489620F6068E9CFFC016089262F31
:1038B0002460208B6C60E2CF0F931F93CF93DF9334
:1038C000EC01423018F08F8588608F874B8B1C8A03
:1038D00080E48D8B6E8B605C6F8B222329F04130EE
:1038E00019F48F8584608F8761E08C811ADD8D816A
:1038F0008F3F11F061E015DD61E08E8112DD8E01F8
:1039000098012C1B3D0B8F8584FD0CC084E090E05A
:103910000F5F1F4F2817390744F461E0F8018681D3
:1039200000DDEECF88E090E0F3CF80E593EC50DB54
:1039300060E08C8132DD60E08E812FDD8D818F3FF4
:1039400011F060E02ADD6F8564FD28C063E0CE01E0
:103950001BDF84E991E13CDB63E0CE0115DF84E904
:1039600091E136DB63E0CE010FDF86E990E030DBEA
:1039700062E0CE0109DF6F856062CE017FDF84E007
:10398000888BCE0192DFCE017BDF82E0898B66E0FF
:10399000CE01DF91CF911F910F9170CF6062CE0168
:1039A0006DDF84E991E114DB6F856062CE0166DF33
:1039B00086E990E00DDB6F856062CE015FDFDBCFD3
:1039C000CF92EF920F93FC011382128281EA92E070
:1039D0009183808364838FEF858346832783008769
:1039E000E186C2861386148615861686178620E021
:1039F00041E060E1CF010F91EF90CF905DCFEF926A
:103A0000FF920F931F93CF93DF938C017A0167701E
:103A100088E0689FB00111246064C8012FDFE701CE
:103A2000A8E0EA0EF11C6991D801ED91FC9101909A
:103A3000F081E02DC8011995CE15DF05A1F7DF91C2
:103A4000CF911F910F91FF90EF90089541E0F2DE2A
:103A500081E090E0089590E080E008950895C3DA51
:103A6000FDDFA8D4C0E0D0E078D52097E9F30E942C
:103A70000000FACFCF9320E030E0A901609121034C
:103A80007091220380912303909124030E94ADF250
:103A9000811132C020E030E0A901609125037091CE
:103AA000260380912703909128030E94ADF2811193
:103AB00023C020E030E0A9016091290370912A031E
:103AC00080912B0390912C030E94ADF2C1E08111F3
:103AD00010C020E030E0A90160912D0370912E0309
:103AE00080912F03909130030E94ADF2811101C0AB
:103AF000C0E08C2FCF910895C1E0FBCF9091430B94
:103B00009817B1F00E948BA98091430B882341F054
:103B10008EE091E10E94EEA81092430B0C948FC5A9
:103B200081E08093430B8EE091E10E941DA9F6CFC6
:103B300008954F925F926F927F928F929F92AF9271
:103B4000BF92CF92DF92EF92FF92CF936B017C01F5
:103B5000C42FAC019B0160913F0B7091400B809191
:103B6000410B9091420B0E94ADF2882309F4A5C04D
:103B7000B090430B80E0C2DF20E030E0A901C70134
:103B8000B6010E94B0F418161CF0C12CD12C76019D
:103B9000C0923F0BD092400BE092410BF092420B4F
:103BA0002DEB37E346E855EBC701B6010E94B0F4B0
:103BB00087FD0BC02DEB37E346E855E3C701B6019F
:103BC0000E94ADF218160CF074C0A701960160E0D7
:103BD00070E080E89FE30E94B4F260933B0B709327
:103BE0003C0B80933D0B90933E0B80EF9FEFA9E73A
:103BF000B4EC8093370B9093380BA093390BB093B0
:103C00003A0BBB2009F459C040900E1150900F118F
:103C100060901011709011118090121190901311FA
:103C2000A0901411B0901511C0901611D0901711DA
:103C3000E0901811F090191181E060DFCC23E9F1D8
:103C4000A301920160910E1170910F1180911011DA
:103C5000909111110E94ADF281111CC0A501940137
:103C6000609112117091131180911411909115119E
:103C70000E94ADF281110EC02091161130911711E2
:103C80004091181150911911C701B6010E94ADF26F
:103C9000882399F0CF91FF90EF90DF90CF90BF9065
:103CA000AF909F908F907F906F905F904F900C940B
:103CB00083C560E070E0CB0190CFCF91FF90EF9093
:103CC000DF90CF90BF90AF909F908F907F906F903C
:103CD0005F904F90089580E011DFFCC03F924F92BB
:103CE0005F926F927F928F929F92AF92BF92CF928C
:103CF000DF92EF92FF920F931F93CF93DF93E82E03
:103D0000C62E042F5901882E912CD0E0C0E0C81592
:103D1000D90579F0CA3058F082E0800F0E94E94C52
:103D20006AE070E0CE010E941DE92196F0CF83E0A9
:103D3000F4CF8AE00E946BE8D12CD0E0C0E010E024
:103D40004801E2E08E0E911C3C2ECC16DD0609F4F3
:103D500041C0F9E0FC1718F080E20E946BE86AE0CD
:103D600070E0CE010E941DE9F12CFE1471F180E299
:103D70000E946BE8632D8F2DF50119952B013C01F5
:103D8000AC019B010E9499F5811113C020E030E045
:103D9000A901C301B2010E94B0F487FD03C08BE208
:103DA0000E946BE8A801C301B2010E94ABE9F39441
:103DB000DCCF712C7814190409F0CCF780E2711073
:103DC0008DE30E946BE87394F5CF8AE00E946BE864
:103DD0002196BACF8AE0DF91CF911F910F91FF908A
:103DE000EF90DF90CF90BF90AF909F908F907F909B
:103DF0006F905F904F903F900C946BE8EF92FF9222
:103E00000F931F93CF93DF93CDB7DEB72C970FB6E9
:103E1000F894DEBF0FBECDBF7C010EE011E1F801CA
:103E200080859185A285B38589879A87AB87BC8772
:103E300019821A821B821C8280E090E0A0EAB0E422
:103E40008D839E83AF83B887AE014F5F5F4FBE0106
:103E50006B5F7F4FC7010E9409C719821A821B82BC
:103E60001C82BE016F5F7F4FCE0109960E9426C75C
:103E7000F70184819581A681B7814081518162815A
:103E80007381F801408351836283738384839583B4
:103E9000A683B78310927C0A2C960FB6F894DEBFE7
:103EA0000FBECDBFDF91CF911F910F91FF90EF908B
:103EB0000895E82FF0E0EE0FFF1FE60FF11DEE0F63
:103EC000FF1FEE0FFF1FEF5DFC4F6081718182814C
:103ED00093810895109231031092320310923303AC
:103EE00010923403E1E2F3E080E1DF011D928A9554
:103EF000E9F70895E9E1F3E080E090E0A0E2B1E4C1
:103F000080839183A283B38340E050E060EA72E44F
:103F10004483558366837783E1E1F3E08083918373
:103F2000A283B38380E090E0ACE8B2E4848395831D
:103F3000A683B783CFCF88E993E00E94694C609154
:103F4000310370913203809133039091340345E043
:103F500050E00E94ABE985E893E00E94694C29E5B6
:103F60003FE145E062E082E0B9CE85E393E0C2CF75
:103F70009898A09A0895FF920F931F93CF93DF9381
:103F80001F92CDB7DEB7F82E04E215E041E050E015
:103F9000B801CE0101960E9409FA89818F1108C0EB
:103FA00081E00F90DF91CF911F910F91FF900895C5
:103FB0000F5F1F4F85E00B33180741F780E0F1CF0B
:103FC0000E947A4C85E195E00C94694C0E945FB7A1
:103FD0000E948BA98EEF0E94C3C50C948FC51298C6
:103FE00008955F988A9880910801817080930601F6
:103FF000F6CF129A08955F9A80911E118E7F80935A
:104000001E118A9A80911E118D7F80931E118091BE
:104010000801809581708093060180911E118B7F2D
:1040200080931E11E6CF80914012813031F0809153
:10403000170882FB882780F9089581E00895809110
:104040004012823089F09091170893FB882780F9FD
:1040500093FF0DC080916E06882341F092FB882764
:1040600080F991E08927089581E0089580E008951E
:104070000C94D6EACF93C82F89EE93E030E60197EF
:1040800029F0232F2A950000E9F7F9CFF89489EE5B
:1040900093E038EE019729F0232F2A950000E9F7E5
:1040A000F9CF0E94CDBACC2329F0A5DF909904C0A6
:1040B000A895FCCF9EDFFACF909B02C0A895FCCFBD
:1040C000F0E0E0E0CF911994FF920F931F93CF930C
:1040D000DF93EC018B01F42E0E94CDBA0E947A4C42
:1040E00089E894E00E94694C0115110511F40AE772
:1040F00015E0209711F4CBE7D5E0B801CE010E947E
:10410000696B8F2DDF91CF911F910F91FF90B2CFEF
:104110008F929F92AF92BF92CF92DF92EF92FF92D7
:104120000F931F93182F80916E05843010F40E9416
:10413000AD310E9481176B017C01112341F0C092C7
:10414000A805D092A905E092AA05F092AB0580914E
:10415000A4059091A505A091A605B091A70500978B
:10416000A105B10549F14091A8055091A9056091BB
:10417000AA057091AB05840F951FA61FB71FA70155
:104180009601281B390B4A0B5B0BDA01C901B7FDFD
:1041900013C00E947A4C60919A0570919B058CEC3B
:1041A00094E00E947D4C8AE00E946BE840E070E061
:1041B00060E090E080E088DF809114029091150229
:1041C000A0911602B0911702892B8A2B8B2B79F0C4
:1041D0009091CA0B8091C70B981709F452C0C092F6
:1041E000A805D092A905E092AA05F092AB058091AE
:1041F0003A0390913B03909985C0019690933B03BD
:1042000080933A0380913A0390913B038E3E924013
:1042100064F00E947A4C89EA94E00E94694C40E084
:1042200070E060E090E080E04FDF80913603909195
:104230003703A0913803B0913903A7019601281BD9
:10424000390B4A0B5B0BDA01C901B7FD0FC00E94A5
:1042500071A834E6C30ED11CE11CF11CC0923603D8
:10426000D0923703E0923803F09239031F910F91F7
:10427000FF90EF90DF90CF90BF90AF909F908F9086
:104280000895112319F010923C03B1CF0E948117B9
:104290000091A8051091A9052091AA053091AB05C0
:1042A0008090140290901502A0901602B090170210
:1042B000080D191D2A1D3B1D601B710B820B930BF2
:1042C00097FDE1CF80913C03811191CF81E08093F4
:1042D0003C035F9A80911E118E7F80931E118A9AF3
:1042E00080911E118D7F80931E1180910801809511
:1042F00081708093060180911E118B7F80931E1127
:1043000078DE75CF181619060CF07CCF01979093C4
:104310003B0380933A0376CF80E0FADE0E9403BC31
:1043200080913E03882371F00E94A0600E94134C8C
:104330000E94B8E90E9473698091A205811102C0B0
:104340000C9433C30895CF92DF92EF92FF92CF93F4
:104350006B017C01C091A10583E08093A10581E000
:1043600080933D03C114D104E104F10431F00E94B3
:104370008117C60ED71EE81EF91E80913D038823C3
:1043800079F0C114D104E104F10411F4C5DFF5CFD3
:104390000E9481176C197D098E099F0997FDF6CF40
:1043A00010923D03C093A105CF91FF90EF90DF9055
:1043B000CF900895CF9360E970ED83E090E00E9484
:1043C00011E80E9481170E94774C82E894E00E94D5
:1043D000694C0E94DAE7CCDD0E94DEE6C4B7C0FF7C
:1043E00004C089E794E00E94694CC1FF04C088E6DC
:1043F00094E00E94694CC2FF04C086E594E00E94EC
:10440000694CC3FF04C085E494E00E94694CC5FF79
:1044100004C084E394E00E94694C14BE84E895E0F3
:104420000E94694C80E20E946BE886E294E00E9460
:10443000694C8AE00E946BE80E94774C8AEE93E018
:104440000E94694C0E94774C83ED93E00E94694C76
:104450000E94774C0E94DBE7BC0184EC93E00E9451
:104460008F4C60EB74E08DEA93E00E948F4C8AE001
:104470000E946BE80E945C690E94E59B80E00E94BC
:10448000C76B80914003811107C00E94F8DC88232C
:1044900019F081E08093400320910E1130910F11AB
:1044A00040911011509111116091DA107091DB1050
:1044B0008091DC109091DD100E94D4F160930E1178
:1044C00070930F1180931011909311112091DE10B1
:1044D0003091DF104091E0105091E1106091121185
:1044E0007091131180911411909115110E94D4F1C3
:1044F00060931211709313118093141190931511FE
:104500002091E2103091E3104091E4105091E510B9
:1045100060911611709117118091181190911911D5
:104520000E94D4F1609316117093171180931811A3
:10453000909319110E948FC587EC90E10E94FFB9FA
:104540000E9489EA0E9437DD0E94D5E00E94DFE6E2
:1045500081E080933E03CF910895CFE0D5E011E054
:10456000DBDE0E941A608091170886FF14C00E944B
:104570006B5B0E94AC2D2ADD0E945FEA0E94CDBADF
:1045800070E060E080E00E94C0B710921002D0930B
:10459000E503C093E40380913E03803139F489E060
:1045A00095E00E94B12E811110933E030E94AF311D
:1045B0000E944BDDD5CF8FE393E00C94D058CF937E
:1045C0000E940F48C82F87FD0BC08BE895E00E9422
:1045D000694C8C2F0E9415BE8AE0CF910C946BE839
:1045E000CF9108958091960590919705009731F0AD
:1045F0004AE050E070E060E00C94CEF760E070E0DC
:10460000CB010895CF92DF92EF92FF92CF938091EA
:104610008F0590919005A0919105B091920522E1AE
:10462000B695A795979587952A95D1F780FF08C0ED
:10463000E0918705E1110AC0109297051092960546
:10464000CF91FF90EF90DF90CF90089580919A05E1
:1046500090919B05E80FF92FF11D808190ED980F47
:104660009A3030F08E3299F5818180538A3020F76C
:10467000F0939705E0939605EF2B11F3B3DFC0E0BD
:1046800097FD0CC0AFDF6F3F71058105910509F003
:1046900024F4A8DFC62F6D3308F0CCE3C09380105C
:1046A0000E9481176B017C012C2F30E0A8EEB3E053
:1046B0000E943DF6C60ED71EE81EF91EC0927C1061
:1046C000D0927D10E0927E10F0927F10B9CF8D32A3
:1046D00019F08B3209F0B0CF818190ED980F9A30AC
:1046E00038F28E3209F0A8CF828180538A3008F4E4
:1046F000BFCFA2CF2FEB280F2A3108F044C0E22F02
:10470000F0E080918F0590919005A0919105B09176
:10471000920504C0B695A795979587952A95D2F7E7
:1047200080FD02C081700895EB58FA4FE081EE23BE
:1047300039F180919A0590919B05E80FF92FF11DB1
:10474000808190ED980F9A3030F08E3251F4818153
:1047500080538A30A8F4F0939705E093960581E0A2
:1047600008958D3211F08B3259F4818190ED980FBC
:104770009A3088F38E3221F4828180538A3058F344
:10478000F0E0E0E0E8CF80E00895B4DF882341F076
:1047900081E02091960530919705232B09F480E064
:1047A00008950F931F93CF9380919605909197054D
:1047B000009709F1FC018F01C1912C2F2F7DA1F0F1
:1047C000C53411F0C536B9F7F801108270E060E029
:1047D00080919605909197050E9479F6F801C08323
:1047E000CF911F910F91089570E060E0CF911F91DC
:1047F0000F910C9479F660E070E0CB01F1CFF2DE1E
:1048000097FD0AC0EFDE6F3F71058105910509F044
:104810002CF4E8DE862F089580E008958FEF089548
:104820008091AC0583FD36C00E940F4887FD32C0E1
:1048300089E4ABDF882331F1E2DF90E01816190636
:1048400014F481E090E0880F991F880F991FFC01F4
:10485000E15CF54F60817181809145029091460243
:104860000F97681779070CF4CB019093B9108093D8
:10487000B81080E00E9497BA61E080E00E9405BD18
:104880000C947DB783E581DF8823D1F38ADF0E9412
:104890001CF3E2CF08951F93CF93DF938091AC0573
:1048A00083FD67C00E940F48D82F87FD62C089E44E
:1048B0006CDF882309F44FC0A2DF90E018161906B8
:1048C00014F481E090E0880F991F880F991FFC0174
:1048D000E15CF54F60817181C0E08091450290916B
:1048E00046020F97681779070CF4CB019093B91023
:1048F0008093B81080E00E9497BA61E081E00E9446
:1049000005BD6091B8107091B910072E000C880B8E
:10491000990B0E944FF32091B4103091B510409143
:10492000B6105091B7100E94B0F418161CF01C2F4E
:10493000C11104C08D2F0E9470C311E00E947DB789
:104940001123B9F06C2F8D2FDF91CF911F910C9413
:104950009AC3C82FF3CF83E518DFC82F811105C094
:1049600082E513DF182F8823A1F31BDF0E941CF3BD
:10497000B4CFDF91CF911F9108959F92AF92BF92D4
:10498000CF92DF92EF92FF920F931F93CF93DF931B
:1049900000D01F92CDB7DEB785E4F7DE8823B9F0EB
:1049A00021DE6623A1F08EE895E00E94694C0F900D
:1049B0000F900F900F90DF91CF911F910F91FF906B
:1049C000EF90DF90CF90BF90AF909F90089583E4D9
:1049D000DCDE05E0882311F005DE062F85E5D5DE57
:1049E000182F8823B1F08091960590919705892B17
:1049F00099F0F8DD97FD0BC0F5DD6F3F710581057E
:104A0000910509F04CF4EEDD11E0611105C010E0F4
:104A100003C085E56FDE182F83E5B7DE882309F430
:104A200048C08091960590919705C12CD12C7601B4
:104A30000097D1F0FC015F019190292D2F7D91F11C
:104A400025E4921619F025E69212F5CFF5011082B1
:104A500070E060E080919605909197050E9479F64C
:104A60006B017C01F501908260E088EB95E00E948B
:104A70002D6BC701B6010E941CF3072E000C880B9A
:104A8000990B0E944FF369837A838B839C83212F38
:104A9000402F60E0CE0101960E9465BE80E00E943A
:104AA000C76B85CF70E060E00E9479F66B017C01F6
:104AB000DBCFC12CD12C84E3E82E83E4F82ED4CFB5
:104AC000CF93DF9380E561DE811124C081E412DEA3
:104AD000CFEFD0E0882321F06091AF10C62FD0E057
:104AE00089E453DE8823E1F08ADE90E01816190687
:104AF00014F481E090E0880F991F880F991FFC0142
:104B0000E15CF54FC281D381BE0180E0DF91CF919E
:104B10000C94C0B774DE8823C9F2DF91CF91089559
:104B200083E533DE882381F35DDDEB01EDCF80E5A6
:104B30002CDE882329F063DE70E060E00C94C0B7BF
:104B400080E0FACF80918F0590919005A09191051A
:104B5000B09192052DE0B695A795979587952A95E2
:104B6000D1F780FF30C0E0918205E11105C01092BD
:104B7000970510929605089580919A0590919B054E
:104B8000E80FF92FF11D808190ED980F9A3030F0E9
:104B90008E32D1F4818180538A3048F7F0939705A3
:104BA000E0939605309779F04AE050E070E060E0DD
:104BB000CF010E94CEF760936F05709370058093CC
:104BC00071059093720508958D3211F08B3279F64C
:104BD000818190ED980F9A3008F38E3241F68281F0
:104BE000DACF0F931F93CF938C01C62F82EF97E0FC
:104BF0000E94694CC8010E94694C8AE30E946BE8DC
:104C00006AE070E08C2F90E0CF911F910F910C948F
:104C100023E987E197E00E94694C60E087E097E034
:104C2000E0DF60E082EF96E0DCDF61E08BEE96E0B3
:104C3000D8DF61E080EE96E0D4DF61E080ED96E0C1
:104C4000D0DF60E087EC96E0CCDF61E08DEB96E0B2
:104C5000C8DF60E083EB96E0C4DF60E08CEA96E0BA
:104C6000C0DF60E084EA96E0BCDF61E086E996E0C0
:104C7000B8DF60E088E896E0B4DF60E089E796E0BE
:104C8000B0DF60E08BE696E0ACDF60E085E596E0C3
:104C9000A8DF60E084E496E0A4DF60E085E396E0CE
:104CA000A0DF61E08EE296E09CDF60E089E196E0C3
:104CB00098DF60E08BE096E094DF61E088EF95E0BC
:104CC00090DF60E08BEE95E08CDF61E086EE95E0B2
:104CD00088DF60E089ED95E084DF60E085EC95E0B9
:104CE00080CF1F93CF93DF93C0919805D091990502
:104CF00094E010E040E09150E1F08881282F2B7F74
:104D0000213489F429812133A1F4813409F18534D6
:104D100009F19E012E5F3F4FE9012F5F3F4F8881D0
:104D20008032D1F3E8CF803521F4898180538A30F5
:104D300080F341110E94774C112321F087EF97E017
:104D40000E94694CCE01DF91CF911F910C9412E922
:104D500011E0DFCF41E0DDCF0C94C0DD0C9488C5BD
:104D600080918F0590919005A0919105B091920549
:104D700022E1B695A795979587952A95D1F780FF5B
:104D800008C0E0918705E11112C0109297051092BA
:104D900096050E94774C4091130250E070E060E06D
:104DA0008BEF97E00E94D84C8AE00C946BE88091DE
:104DB0009A0590919B05E80FF92FF11D808190EDE8
:104DC000980F9A3030F08E3281F4818180538A308E
:104DD000E0F6F0939705E0939605EF2BD1F202DC15
:104DE00097FF10C01092130208958D3211F08B328C
:104DF00061F6818190ED980F9A3058F38E3229F642
:104E00008281E4CFEFDB6F3F71058105910529F0C9
:104E100024F08CE3809313020895E4DB6093130283
:104E20006D33B8F708952F923F924F925F926F9231
:104E30007F928F929F92AF92BF92CF92DF92EF922A
:104E4000FF920F931F93CF93DF93D62FC72FFC01B1
:104E500080809180A280B380C501B40120E831E553
:104E600041E050E00E94F7F5C9016DE671E00E9453
:104E7000D0F56B017C01C501B40120E13EE040E0CA
:104E800050E00E94F7F5CA01B90128E130E040E0A6
:104E900050E00E94F7F5362E272E062F172F8CE3B1
:104EA000482E512C612C712CC501B401A301920133
:104EB0000E94F7F5B62EA72ECA01B901A3019201EF
:104EC0000E94F7F5CB01C114D10479F1AF92BF92E2
:104ED0007F936F932F923F92FF92EF92DF92CF9248
:104EE00087E398E09F938F93CF93DF930E94E5FA37
:104EF0008DB79EB70E960FB6F8949EBF0FBE8DBFAE
:104F00008D2F9C2FDF91CF911F910F91FF90EF90EC
:104F1000DF90CF90BF90AF909F908F907F906F90D9
:104F20005F904F903F902F900895E114F104C9F0E5
:104F3000AF92BF927F936F932F923F92FF92EF9227
:104F400087E298E09F938F93CF93DF930E94E5FAD7
:104F5000EDB7FEB73C960FB6F894FEBF0FBEEDBF9F
:104F6000CFCF012BB9F0AF92BF927F936F932F9267
:104F70003F928BE198E09F938F93CF93DF930E94B2
:104F8000E5FA8DB79EB70A960FB6F8949EBF0FBE8E
:104F90008DBFB6CF892BA9F0AF92BF927F936F934D
:104FA00083E198E09F938F93CF93DF930E94E5FA7C
:104FB000EDB7FEB738960FB6F894FEBF0FBEEDBF43
:104FC0009FCFAF92BF928FE098E09F938F93CF9344
:104FD000DF930E94E5FA0F900F900F900F900F90C3
:104FE0000F908ECFCF93DF93CDB7DEB769970FB613
:104FF000F894DEBF0FBECDBF0E94A4EA6E8B7F8BFC
:10500000888F998FBE016F5F7F4FCE0146960BDF71
:1050100060E0CE0101960E942D6B0E94774CBE018C
:105020006F5F7F4F82E098E00E947D4C8AE00E9493
:105030006BE869960FB6F894DEBF0FBECDBFDF9167
:10504000CF91089515C80C9474EA0C945FEA80918E
:10505000960590919705009741F04AE050E070E086
:1050600060E00E94CEF7CB01089560E070E0CB01D4
:10507000FACFCF92DF92EF92FF920F931F93CF93CD
:10508000DF9388E537DBD82E89E434DBC82E88230C
:10509000A1F1DDDFD82F89E52DDB182F8AE42ADB8B
:1050A000082F882309F451C0D2DFC82F8AE522DBFC
:1050B000E82EF12C811103C081E51CDBF82EC11014
:1050C00001C000E0802F90E0D11001C010E0810FFE
:1050D000911D019721F4E11060C0F1105EC00E94A3
:1050E0007A4C84E698E0DF91CF911F910F91FF9069
:1050F000EF90DF90CF900C94694CD11002C0DFEF9D
:10510000CACF4FDB2091CE103091CF104091D010FC
:105110005091D1100E94D3F120E030E040E251E400
:105120000E94D3F120E030E04CE052E40E94D4F140
:1051300021EA3EE04AE65CE30E94EBF40E941CF3A5
:10514000D62F623008F4A7CFDACF111102C0CFEF0B
:10515000ADCF27DB2091D2103091D3104091D410E5
:105160005091D5100E94D3F120E030E040E251E4AC
:105170000E94D3F120E030E040EF51E40E94D4F1EE
:1051800029E838E848E85CE30E94EBF40E941CF34D
:10519000C62F623008F48ACFDACFD7FD02C0C7FF2E
:1051A00005C00E947A4C8BE498E09DCFFADA9B010F
:1051B000AC01AC2FCC0FBB0BCD2FCC0FDD0B60E0C7
:1051C00070E0CB01FF2069F0FE01EA0FFB1FEE0F3C
:1051D000FF1FEE0FFF1FEF5DFC4F60817181828129
:1051E0009381CA0FDB1FCC0FDD1FCC0FDD1FCF5DFE
:1051F000DC4F0E94D4F1688379838A839B83DF919B
:10520000CF911F910F91FF90EF90DF90CF90089575
:105210000E946BE884E499E00C94694C0F931F930F
:10522000CF93DF93CDB7DEB72C970FB6F894DEBFE0
:105230000FBECDBF83E5A9DA811113C010E08AE16A
:1052400099E00E94694C0E943A1D8823B1F1809137
:10525000430B0E94FB4C0E949B1F123009F4A6C016
:1052600056C1C0D997FDEACFBDD96F3F7105810501
:10527000910531F02CF08DE299E00E94694C32C02A
:10528000B1D96630C0F7162F633009F405C168F450
:105290006130C1F0623099F6809111029091120252
:1052A00097FF2BC088ED98E0E8CF643009F434C153
:1052B000653029F60E946B1E2AC18CE099E00E949D
:1052C000694CCBCF0E946A1F1092120210921102F9
:1052D00080917C0A8111E0CF81E099E09093E50311
:1052E0008093E4032C960FB6F894DEBF0FBECDBFBB
:1052F000DF91CF911F910F910895009709F06DC034
:10530000809161028093410319821A821B821C8260
:1053100019861A861B861C86BE016F5F7F4FCE01E1
:1053200009960E9426C72091110230911202243062
:1053300031050CF07FC010926102C9010196909373
:10534000120280931102822F817887FF03C081505F
:105350008E6F8F5FA82FE22F27FF02C0E1E0E20FE0
:10536000E595E0FF02C0A1E0A81B84E0A802D001FF
:105370001124A75EBC4F8D919D910D90BC91A02DE5
:1053800089839A83AB83BC8384E0E802F001112413
:10539000EF5EFC4F80819181A281B3818D839E83DA
:1053A000AF83B887CE0101960E94FE1E6091110264
:1053B000709112026430710514F064E070E089E8C5
:1053C00098E00E948F4C64E070E084E898E00E94CE
:1053D0008F4C8AE00E946BE89AC08150982F917898
:1053E00097FF03C091509E6F9F5FE92F87FD8F5FEE
:1053F000859580FF02C0E1E0E91BEE0FFF0BE80F8F
:10540000F11D87FDFA95EE0FFF1FEE0FFF1FEF5DF9
:10541000FC4F8091161190911711A0911811B09125
:10542000191180839183A283B38380914103809378
:10543000610279CF80E090E0A0EAB0E48093161199
:1054400090931711A0931811B093191184E692E06C
:105450000E942FC60E948BA98FEF9FEF909312029C
:105460008093110284EC98E00E94694C63E972E039
:1054700084E690E00E940DEA6AEB72E084E690E038
:105480000E940DEA88E695E00E94A24B81E00E940E
:105490007E1D10927C0A8ACF89E477D9882369F02F
:1054A000A1D8162F623060F061E070E081EB98E0E7
:1054B0000E948F4C8EEA98E0E0CE8AE4A9DE12CFFB
:1054C0008AE463D98823C9F38DD8062F623048F067
:1054D00061E070E08BE998E00E948F4C88E998E0E9
:1054E000CCCE8AE552D98823A9F05BD9E12FEE0F03
:1054F000FF0BE00FF11D07FDFA95EE0FFF1FEE0FFA
:10550000FF1FEF5DFC4F60837183828393830E9452
:1055100083C5E8CE8AE5D2CF8AE537D98823D1F38F
:1055200040D9609331037093320380933303909397
:105530003403EDCFAF92BF92CF92DF92EF92FF9202
:105540000F931F93CF93DF9300D01F92CDB7DEB799
:1055500080913E038130E1F489E417D9082F10E0EF
:10556000882311F074DD182F8AE40FD9F82E8823D0
:1055700031F06DDD011106C0823030F41AC080E0D8
:105580000023B9F0123098F083E599E00E94694C4D
:105590000F900F900F900F90DF91CF911F910F916F
:1055A000FF90EF90DF90CF90BF90AF900895F110F3
:1055B000E3CF90E1EEE0F1E1AEEFB0E101900D92CA
:1055C0009A95E1F7002391F094E01902F00111247B
:1055D000E75EFC4F40815181628173814093FE10F0
:1055E0005093FF106093001170930111FF2091F010
:1055F00094E08902F0011124EF5EFC4F80819181DB
:10560000A281B3818093021190930311A09304119E
:10561000B093051186E4B9D881110CC060E070E048
:10562000CB0169837A838B839C83CE0101960E9490
:10563000B9CBAECF8091960590919705009771F305
:10564000FC015F011191212F2F7D21F1153411F003
:105650001536B9F7F501108270E060E0809196058B
:10566000909197050E9479F66B017C01F5011083FA
:1056700020E030E0A901C701B6010E94B0F418167D
:105680006CF620E030E040E752E4C701B6010E942A
:10569000B4F2C7CF70E060E00E9479F66B017C0144
:1056A000E7CF2F923F924F925F926F927F928F92AD
:1056B0009F92AF92BF92CF92DF92EF92FF920F93A1
:1056C0001F93CF93DF93CDB7DEB72E970FB6F89425
:1056D000DEBF0FBECDBF83E50DD88A83882309F4D2
:1056E00081C18091960590919705892B09F065C13C
:1056F00081E0898380900E1190900F11A09010117D
:10570000B09011118091121190911311A091141168
:10571000B09115118D839E83AF83B8878091161148
:1057200090911711A0911811B091191189879A873A
:10573000AB87BC879A81992331F0A981A11103C05D
:1057400080E00E947E1D86E50E947A238C830E9461
:105750003A1D882309F451C183E40E947A238823E7
:1057600009F410C11ED82B013C01009121031091B6
:105770002203B0912303BE87809124038D8720E00C
:1057800030E048EC52E4B8018B2F9D850E94ADF2C9
:1057900087FF2CC1302E212E9E859A83AD85AB8349
:1057A00020E030E048EC52ECB8018E859D850E94E7
:1057B000B0F4181634F000E010E098EC9E87A2ECEC
:1057C000AD87C0902503D0902603E0902703F0908A
:1057D00028039601A701632D722D8A819B810E9467
:1057E000B0F4181624F43C2C2D2CEA82FB8298018C
:1057F0004E855D85B601C7010E94B0F418161CF4F1
:105800008601EE86FD86C0902903D0902A03E090A1
:105810002B03F0902C039601A701632D722D8A8132
:105820009B810E94B0F4181624F43C2C2D2CEA82A3
:10583000FB829601A701B8018E859D850E94ADF27D
:1058400087FF03C08601EE86FD86C0902D03D090B1
:105850002E03E0902F03F09030039601A701632DF3
:10586000722D8A819B810E94B0F4181624F43C2C7E
:105870002D2CEA82FB829601A701B8018E859D85B9
:105880000E94ADF287FF03C08601EE86FD86980177
:105890004E855D85632D722D8A819B810E94D4F196
:1058A00020E030E040E05FE30E94EBF4A3019201CE
:1058B0000E94D4F16B017C012DEB37E346E855EBF8
:1058C0000E94B0F487FD0BC02DEB37E346E855E3AB
:1058D000C701B6010E94ADF218160CF053C080E06B
:1058E0000E947E1DA7019601609121037091220301
:1058F00080912303909124030E94D3F160932103AC
:10590000709322038093230390932403A7019601AD
:1059100060912503709126038091270390912803BD
:105920000E94D3F16093250370932603809327038D
:1059300090932803A70196016091290370912A038F
:1059400080912B0390912C030E94D3F16093290343
:1059500070932A0380932B0390932C03A701960145
:1059600060912D0370912E0380912F03909130034D
:105970000E94D3F160932D0370932E0380932F0325
:10598000909330039C81992351F00E943A1D882303
:1059900031F08BEA99E00E94694C0E949B1F8AE5D6
:1059A0000E947A23882329F00E94D12340E00E949C
:1059B000991D89810E947E1D2CC00E94F22297FDB4
:1059C0000FC00E94F2226F3F71058105910511F011
:1059D0000CF08ECE0E94F22291E0998361118ACE62
:1059E000198288CEA091430BA98384CE312C212C1F
:1059F000B8ECBA8382E48B83D3CEB981B11103C0F2
:105A00008C81882361F20E94774C81EC99E00E949E
:105A1000694CA981AA2351F08091430B811106C0E2
:105A20000E947A4C8CE899E00E94694C0E94774C65
:105A30008EE799E00E94694C8091430B0E94FB4CD9
:105A40000E94774C81E799E00E94694CC0903F0B1F
:105A5000D090400BE090410BF090420B20E030E002
:105A6000A901C701B6010E94B0F418160CF04EC08F
:105A700042E050E0C701B6010E94ACE9A5019401E3
:105A800060910E1170910F11809110119091111170
:105A90000E94ADF2811120C02D813E814F81588539
:105AA0006091121170911311809114119091151140
:105AB0000E94ADF2811110C029853A854B855C8525
:105AC0006091161170911711809118119091191110
:105AD0000E94ADF28823F9F02E960FB6F894DEBF3F
